:020000040801F1
:1000000090E60220C10101083B750108C702010802
:1000100037750108910E01088D920108000000005B
:10002000000000000000000000000000C78601087A
:10003000EB0F01080000000013020108C986010847
:10004000DB010108DB010108DB010108DB0101081C
:10005000DB010108DB010108DB010108DB0101080C
:10006000DB010108DB010108DB010108DB010108FC
:10007000DB010108DB010108DB010108DB010108EC
:10008000DB010108DB010108DB010108DB010108DC
:10009000DB010108DB010108DB010108DB010108CC
:1000A000DB010108DB010108DB010108DB010108BC
:1000B000DB010108218A0108318A0108DB010108FE
:1000C000DB010108DB010108DB010108DB0101089C
:1000D000DB010108D5910108ED910108DB01010860
:1000E000ED0F0108DB010108DB010108DB0101085C
:1000F000DB010108DB010108DB010108DB0101086C
:10010000DB01010839760108DB010108DB01010888
:10011000DB010108DB010108DB010108DB0101084B
:10012000DB010108DB010108DB010108C10E010848
:10013000DB010108DB010108DB010108DB0101082B
:10014000DB010108DB010108DB010108DB0101081B
:10015000DB010108D10E0108DB0101083D92010815
:10016000DB010108DB010108DB010108DB010108FB
:10017000DB010108DB010108DB01010800000000D0
:10018000DB010108DB010108DB010108DB010108DB
:10019000DB010108DB010108DB010108DB010108CB
:1001A000DB010108DB010108950E0108DFF80CD026
:1001B00000F006FC004800473B0A010890E60220D8
:1001C0000648804706480047FEE7FEE7FEE7FEE7F1
:1001D000FEE7FEE7FEE7FEE7FEE7FEE7BD89010872
:1001E000AD010108EFF3108072B6704780F31088FC
:1001F0007047434A1368012B04D04FF0010313608A
:10020000404A1060404A116040484FF08051016000
:100210007047EFF3108272B63948016851B34FF05E
:10022000000101603748016891B1EFF309811EF0C8
:10023000100F08BF21ED108B21E9F00F4FF00004E3
:100240001EF0100F08BF012441F8044D0068016042
:100250002D490968096808C9B1E8F00F002B18BFDB
:10026000B1EC108B81F309884EF0100E002B18BFF3
:100270002EF0100E82F310884EF0040E70472249C3
:100280000860EFF3148222F0040282F314881D49FF
:100290004FF0000008601A494FF0010008601C4848
:1002A0004FF47F01D0F8002041EA020101601748B5
:1002B0004FF08051016017480068006880F308889B
:1002C00061B662B670471EF0040F0CBFEFF30880F2
:1002D000EFF3098020E9F00F40F804ED40F804ED59
:1002E0001EF0040F0CBF80F3088880F3098800B566
:1002F00038F000FB5DF804EB4EF0040E7047000090
:10030000C00D0020B80D0020BC0D002004ED00E061
:1003100020ED00E008ED00E02DE9F05F054600204B
:1003200092469B4688460646814640241BE0284666
:1003300041464746224600F08CFA53465A46C01AB8
:10034000914110D311461846224600F073FA2D1A37
:1003500067EB01084F4622460120002100F06AFAAF
:1003600017EB00094E41201EA4F10104DFDC4846D2
:1003700031462A464346BDE8F09F00000649074A39
:100380000868504343F2390210440860400870473F
:100390000149086070470000600E00206D4EC641A4
:1003A00010B540EA01040346A40703D009E010C9D0
:1003B000121F10C3042AFAD203E011F8014B03F80C
:1003C000014B521EF9D210BDD2B201E000F8012B50
:1003D000491EFBD270470022F6E710B513460A46C5
:1003E00004461946FFF7F0FF204610BD421E12F8E2
:1003F000013F002BFBD111F8013B02F8013B002B20
:10040000F9D1704730B505462A460B4612F8010B64
:1004100013F8014B08B1A042F8D01CB1002802D05B
:100420006D1CF1E7284630BD10B5044604E00B789A
:1004300000F8013B03B1491C521EF8D2204610BD02
:10044000421C10F8011B0029FBD1801A704710B51F
:10045000002200E0521C835C8C5CA34201D1002B83
:10046000F8D1D8B2E1B2401A10BD034611F8012B01
:1004700000F8012B002AF9D11846704730B505461F
:100480000020034600E05B1C934205D2EC5CC85C94
:10049000201A01D1002CF6D130BD2DE9FE4F804647
:1004A00081EA0300C00F0C46009021F0004123F0C8
:1004B0000045B8EB0200A94105D2404621469046CE
:1004C0001C460B46024623F00040104347D0270D40
:1004D000C7F30A00C3F30A510290401A0190402862
:1004E0006BDAC3F3130040F4801B0098924620B1EE
:1004F0000023D2EB030A63EB0B0B01985946C0F1C2
:100500004002504600F096F906460D4650465946C0
:10051000019A00F0AEF910EB08006141002487EA6F
:10052000115284EAE7731A4340D0009A62B3019AE9
:10053000012A4FEA075215DC001B61EB02014FF064
:10054000004202EA0752CDE90042001C41F5801149
:1005500032462B4600F0E5F903B0BDE8F08F404687
:100560002146F9E7001B61EB0201001C41F58013F5
:1005700000185B412018A2F5001747EB030140EA81
:10058000D570B6196D4111E06D084FEA360645EA9F
:10059000C0754FEA0752001B61EB0201001C41F5D8
:1005A000801149084FEA30000019514132462B466C
:1005B00003B0BDE8F04F00F0A5B90098012240005B
:1005C0000023D0EB020263EBE073009821464FEA70
:1005D000E074B8EB000061EB0401E9E783F000434D
:1005E0005BE781F0004158E72DE9FE4F81EA030403
:1005F00004F0004421F0004100944FF0000B23F080
:10060000004350EA01045ED052EA03045BD0C3F316
:100610000A54C1F30A552C44A4F2F3340194A0FB0C
:100620000254C1F3130141F48011C3F3130343F4E3
:10063000801301FB024400FB034E840A970A44EA3C
:10064000815447EA8357A4FB076802958D0A05FB8E
:1006500007854FEA932C04FB0C542705029D4FEAB3
:10066000065847EA1637B5EB08056EEB070C870E00
:10067000920E47EA811742EA8312A7FB0201B6EB0A
:100680000B0164EB00042B0D43EA0C335E1844EBC2
:100690001C50DA465146E7FB0201C5F313044FEA4A
:1006A0000B3343EA14534FEA0432019C43EA060336
:1006B000A4F10C040294009CCDE900B400F031F9DF
:1006C00003B0BDE8F08F00200146F9E72DE9F04DB9
:1006D00081EA030404F0004B21F0004514464FF07A
:1006E000000A23F0004150EA050220D054EA01023A
:1006F0001DD0C5F30A570246C5F31303C1F3130017
:10070000C1F30A5640F4801543F48013A7EB0608A2
:10071000101BD64608F2FD3873EB050002D308F132
:10072000010801E092185B41B8F1000F03DA0020E4
:100730000146BDE8F08D00204FF480110646844646
:100740000EE0171B73EB050705D3121B63EB0503C4
:1007500006434CEA010C49084FEA300092185B410D
:1007600050EA0107EDD152EA030012D082EA0400F8
:1007700083EA0501084305D0101BAB4106D20122D4
:10078000002306E000224FF0004302E06FF0010278
:1007900053101AEB06004CEB085110EB0A0041EB2A
:1007A0000B01BDE8F04D00F0ADB800F0004230F0B4
:1007B00000400AD0C10D01F56071C0F3160042EA95
:1007C0000151C2084007114370470020014670479D
:1007D00001F0004330B421F0004150EA010206D09C
:1007E0000A0DA2F56072C1F31301002A02DC30BCCD
:1007F00000207047440F44EAC104C100E01830BC37
:1008000000EBC25000F047B830B50B46014600205F
:100810002022012409E021FA02F59D4205D303FAC2
:1008200002F5491B04FA02F52844151EA2F1010243
:10083000F1DC30BD202A04DB203A00FA02F100206E
:1008400070479140C2F1200320FA03F3194390400E
:100850007047202A04DB203A21FA02F00021704779
:1008600021FA02F3D040C2F1200291400843194618
:100870007047202A06DBCB17203A41FA02F043EA00
:10088000E07306E041FA02F3D040C2F12002914049
:100890000843194670470029A8BF7047401C49000B
:1008A00008BF20F00100704710B4B0FA80FC00FAD5
:1008B0000CF050EA010404BF10BC704749B1CCF100
:1008C000200421FA04F411FA0CF118BF012121438C
:1008D0000843A3EB0C01CB1D4FEA00614FEA102047
:1008E00042BF002010BC704700EBC35010440029E9
:1008F000A4BF10BC7047401C490008BF20F0010095
:1009000010BC704710B5141E73F1000408DA401CC7
:1009100041F1000192185B411A4301D120F001001E
:1009200010BD2DE9F04D92469B4611B1B1FA81F20E
:1009300002E0B0FA80F220329046FFF77BFF0446D7
:100940000F4640EA0A0041EA0B0153465A46084363
:1009500013D0114653EA010019D0C8F140025046A5
:10096000FFF777FF05460E46504659464246FFF7C9
:1009700061FF084305D0012004E020463946BDE868
:10098000F08D0020054346EAE0762C4337430A9871
:100990006305E40AA0EB08000022FD0A44EA47547C
:1009A0000A3002D500200146E9E701051019694126
:1009B000DDE9084500196941BDE8F04DA2E70000F6
:1009C000064C074D06E0E06840F0010394E807009C
:1009D00098471034AC42F6D3FFF7ECFB18B908087F
:1009E00038B9080870B58C1810F8015B15F00703CA
:1009F00001D110F8013B2A1106D110F8012B03E0B8
:100A000010F8016B01F8016B5B1EF9D12B0705D4BF
:100A10000023521E0DD401F8013BFAE710F8013B08
:100A2000CB1A921C03E013F8015B01F8015B521E24
:100A3000F9D5A142D8D3002070BD10B5FFF7D2FB85
:100A400039F06AFE002010BD54494A6822F4403251
:100A50004A604A6843681A434A600268526822F44E
:100A6000807203685A6002685368026943EA02228E
:100A700003685A600268526822F0407203685A6044
:100A80000268526883681A4303685A600268926871
:100A900022F4006203689A6002689268C3681A438D
:100AA00003689A603E4B826A9A4218D00268926844
:100AB00022F0706203689A6002689268836A1A433F
:100AC00003689A600268926822F0405203689A6054
:100AD00002689268C36A1A4303689A600BE002686E
:100AE000926822F0706203689A600268926822F04D
:100AF000405203689A600268926822F0020203681A
:100B00009A6002689368826943EA420203689A60C5
:100B1000026AA2B10268526842F4006203685A6035
:100B20000268526822F4604203685A60026853689F
:100B3000426A521E43EA423203685A6005E0026884
:100B4000526822F4006203685A600268D26A22F492
:100B500070020368DA620268D36A828B521E43EA2B
:100B600002520368DA620268926822F40072036833
:100B70009A6002689368026B43EA422203689A60B3
:100B80000268926822F4806203689A60026893683F
:100B9000426943EA822203689A6070470023014059
:100BA0000100000F7047000010B5044621460248BE
:100BB00003F0AFFA10BD0000EC88002010B5044827
:100BC00003F0BAFA042801D0012010BD0020FCE790
:100BD000EC88002010B510481049086000204860DB
:100BE00000210E488160C160016141618161002482
:100BF00000F016F8012801D0012010BD074803F0CD
:100C0000AFFB044634B94FF40061044803F034F9F3
:100C100000B101242046F0E7002C0140EC880020C0
:100C200008B5012000909DF8000008BD2DE9F041B5
:100C300004460D461646002733462A4621460448F8
:100C400003F0D0FC00B101273846BDE8F081000078
:100C5000EC880020012001490870704750000020F6
:100C60002DE9F0470646894617464FF0010A3948F4
:100C700007F034F9002802DA5046BDE8F08706F0A4
:100C80000300002864D13A4649463046FFF7CEFFBC
:100C900048BB00203049087001F02EF8044600BF20
:100CA0002D48007828B901F027F8001B294988420F
:100CB000F6D32948007810B94FF0010A48E0002027
:100CC0002549087001F018F8044605E0FFF776FFA3
:100CD00010B94FF0000A05E001F00EF8001B1D49A5
:100CE0008842F3D334E04FF0000828E0494609F188
:100CF000010901221948FFF799FF0546E5B90020CF
:100D00001549087000F0F8FF044600BF124800784B
:100D100028B900F0F1FF001B0E498842F6D30E48B7
:100D2000007800B90DE04FF400720C493046FFF72F
:100D300037FB06F5007600E003E008F10108B8454E
:100D4000D4D300BFB84502D10DB94FF0000A00BF9F
:100D5000504692E700E1F50550000020308A00205F
:100D60002DE9F04104460D461646002733462A4633
:100D70002146044803F0D4FC00B101273846BDE801
:100D8000F0810000EC8800200120014908707047C4
:100D90004F0000202DE9F0470746894690464FF066
:100DA000010A002037490870374807F097F80028F3
:100DB00002DA5046BDE8F08707F0030000285ED154
:100DC000424649463846FFF7CBFF30BB00F094FF60
:100DD000044600BF2B48007828B900F08DFF001BA7
:100DE00029498842F6D32748007810B94FF0010A04
:100DF00045E000202349087000F07EFF044605E02E
:100E0000FFF7DCFE10B94FF0000A05E000F074FFB8
:100E1000001B1D498842F3D331E0002627E0002063
:100E200018490870494609F1010901221748FFF7DE
:100E300097FF0546CDB900F05FFF044600BF11489B
:100E4000007828B900F058FF001B0F498842F6D3FC
:100E50000C48007800B90CE04FF400720B4938469A
:100E6000FFF79EFA07F5007700E002E0761C4645A2
:100E7000D5D300BF464502D10DB94FF0000A504608
:100E800098E700004F00002000E1F505308A0020BF
:100E900000BFFEE710B50848406800F0020048B106
:100EA0000548806840F002000349886003480068F4
:100EB00021F05CFB10BD000000B00240E405002002
:100EC00010B5024800F0EAFB10BD00007089002058
:100ED00010B5024800F0E2FB10BD0000D0890020F0
:100EE0000146087810381823B0FBF3F20848805CFC
:100EF000C865032A05D908686FF30900001D8865D5
:100F000003E008686FF309008865886D704700008A
:100F10006CA10808014600208A6A8B69CBB932B1FE
:100F2000012A0DD0022A03D0032A10D10EE000BFFF
:100F3000CB6A03F08073B3F1807F00D1012007E01A
:100F4000CB6AB3F1C07F00D1012001E000E000BF17
:100F500034E08B69B3F5005F1AD132B1012A07D0B2
:100F6000022A03D0032A11D10AE000BF01200EE0BB
:100F7000CB6A03F08073B3F1807F00D1012006E0DB
:100F8000CB6AB3F1C07F00D1012000E000BF15E0C3
:100F900032B1012A05D0022A04D0032A0CD103E081
:100FA00000BF00BF012008E0CB6A03F08073B3F1FB
:100FB000807F00D1012000E000BF00BF704730B546
:100FC0000468246824F4802405682C600468636045
:100FD0008468402C04D10468A2600468E16003E0E6
:100FE0000468A1600468E26030BD704710B54FF43A
:100FF000806000F057FD10BD704730B504460D46C7
:1010000000222946204600F001F830BDF0B5034625
:10101000012500241148807B02281CDA00200F4E95
:10102000B67B0E4FB8553846867B001D40F82630FB
:10103000001F867B0C3082553E46B07B461CBE733B
:10104000044604F1300008703A2048702F20887060
:101050000020C87000252846F0BD00009C9C02209E
:1010600030B50246002300240868012816D0136812
:101070006FF30E03D1E901052843CD6828430D69BC
:1010800028434D6928438D692843CD6928430D6A5B
:1010900028434D6A28430343136019E0136823F47F
:1010A000F843D1E9070528434D6A284303435468B0
:1010B0006FF30E04D1E901052843CD6828430D697B
:1010C00028434D6928438D692843044313605460C5
:1010D000002030BD0246506940EA410050610020C6
:1010E0007047F8B506460C461546002000900027CC
:1010F000D4E900010843A168491E40EA4110E168B3
:1011000040EA412000900098306100F0F5FD07466C
:1011100009E0681C38B125B100F0EEFDC01BA84203
:1011200001D90320F8BDB06900F020000028F0D1FB
:1011300000BFF7E770B50346154600220024012DD5
:101140001FD09A6802F070420868401E4E68761EF2
:1011500040EA06168868401E46EA0026C868401E17
:1011600046EA0036088A401E46EA0046888A401E43
:1011700046EA0056087E401E46EA006002439A6036
:1011800022E09A6811480240C868401E0603888A17
:10119000401E46EA00500243DC6804F070440868D0
:1011A000401E4E68761E40EA06168868401E46EAD3
:1011B0000026088A401E46EA0046087E401E46EA8F
:1011C000006004439A60DC60002070BDFF0F0FFFD9
:1011D00038B502460020009000BF92F83C0001287C
:1011E00001D1022038BD012082F83C0000BF086810
:1011F000092816D91068C0680C780A3C04EB44052D
:101200000724AC40A0431468E0600C780A3C04EB6F
:1012100044048868A0401468E46820431468E060CF
:1012200013E0106800690C7804EB44050724AC4017
:10123000A043146820610C7804EB44048868A04043
:10124000146824692043146820614868072817D26D
:101250001068406B0C79641E04EB84051F24AC40BD
:10126000A04314686063088880B20C79641E04EBA4
:101270008404A0401468646B20431468606331E008
:1012800048680D2817D21068006B0C79E41F04EB36
:1012900084051F24AC40A04314682063088880B2F2
:1012A0000C79E41F04EB8404A0401468246B2043F1
:1012B0001468206316E01068C06A0C790D3C04EBDA
:1012C00084051F24AC40A0431468E062088880B203
:1012D0000C790D3C04EB8404A0401468E46A2043BC
:1012E0001468E0621A4B1B4C1068A04206D10868D3
:1012F000122803D1586840F480005860154C1068DB
:10130000A0421ED1144C0868A04202D008681128DF
:1013100017D1586840F4000058600F4C0868A0428C
:101320000FD10E4800680E4CB0FBF4F000EB8000CB
:101330004000009002E00098401E009000980028B5
:10134000F9D100BF002082F83C0000BF00BF49E790
:101350000023014000200140120000107400002012
:1013600040420F0001460868C06C704770B50446E3
:1013700000250CB9012070BD1549A06A884200D033
:1013800000BF206C30B90020606484F83C00204627
:1013900000F020F8206C00F0100088B9206C20F4D8
:1013A000885040F0020020642046FFF74DFB0020EB
:1013B0006064206C20F0020040F00100206400E036
:1013C000012500BF002084F83C0000BF2846D2E77A
:1013D0000100000F10B586B00446142101A8FEF7E5
:1013E000FAFF30492068884246D100BF00200090B3
:1013F0002D48006840F480602B490860084600686A
:1014000000F48060009000BF00BF00BF002000908B
:1014100025481438006840F020002349143908603A
:101420000846006800F02000009000BF00BF00BF29
:10143000002000900846006840F00400086008465C
:10144000006800F00400009000BF00BF4FF440703F
:101450000190032002900020039001A9134800F09E
:101460002FFB02200190032002900020039001A98D
:101470000F4800F025FB13E00E49206888420FD189
:1014800000BF002000900848006840F480700649C2
:1014900008600846006800F48070009000BF00BF3C
:1014A00006B010BD00220140443802400014024042
:1014B000000802400020014070B504460D46002699
:1014C0002068806800F4806078B12068806800F44B
:1014D000807050B1206C40F02000206400BF0020DC
:1014E00084F83C0000BF012070BD00F005FC0646FA
:1014F00012E0681C80B125B100F0FEFB801BA84201
:101500000AD9206C40F00400206400BF002084F859
:101510003C0000BF0320E7E72068006800F00200FD
:101520000228E6D16FF0120021680860206C40F4B8
:10153000007020642068806800F04050B8B9A0694D
:10154000A8B92068C06A00F4700020B120688068E3
:1015500000F4806058B9206C20F480702064206C06
:1015600000F4805018B9206C40F001002064002085
:10157000BAE7000008B501460020009000BF91F8CE
:101580003C00012801D1022008BD012081F83C0067
:1015900000BF0868806800F00100A0B90868806892
:1015A00040F001000B6898602E4800682E4BB0FB9D
:1015B000F3F000EB4000009002E00098401E009025
:1015C00000980028F9D10868806800F00100002820
:1015D00045D0086C40F20163984340F48070086481
:1015E0000868406800F4806028B1086C20F400505E
:1015F00040F480500864086C00F4805020B1486CBE
:1016000020F00600486401E00020486400BF00208C
:1016100081F83C0000BF154A6FF022000B6818608B
:10162000506800F01F0058B90868806800F040500A
:10163000A8B90868806840F080400B6898600EE0A8
:101640000B4B086898420AD10868806800F0405047
:1016500028B90868806840F080400B6898600020D6
:1016600092E700007400002040420F000023014078
:1016700000200140014691F83500022803D0802067
:10168000486501207047052081F83500086800682A
:1016900020F001000A6810600020F3E7F8B5044666
:1016A000002000908C4800684FF41651B0FBF1F711
:1016B000A56D2E6894F85C1008208840304098B1E1
:1016C0002068006800F0040070B12068006820F015
:1016D00004002168086094F85C1008208840A86025
:1016E000606D40F00100606594F85C100120884056
:1016F000304068B12068406900F0800040B194F843
:101700005C1001208840A860606D40F002006065B8
:1017100094F85C1004208840304068B1206800686C
:1017200000F0020040B194F85C1004208840A860EA
:10173000606D40F00400606594F85C1010208840F3
:10174000304078B32068006800F0080050B394F887
:101750005C1010208840A8602068006800F4802099
:1017600080B12068006800F4002028B9206CC8B15E
:101770002046216C884715E0A06C98B12046A16CEA
:1017800088470FE02068006800F4807028B920685E
:10179000006820F0080021680860206C10B1204625
:1017A000216C884794F85C10202088403040002845
:1017B00065D02068006800F0100000285FD094F821
:1017C0005C1020208840A86094F83500052828D1B6
:1017D0002068006820F016002168086020684069D1
:1017E00020F0800021684861206C08B9A06C28B105
:1017F0002068006820F008002168086094F85C10F8
:101800003F208840A86000BF002084F8340000BF5B
:10181000012084F83500206D10B12046216D8847E5
:10182000F8BD2068006800F4802080B1206800685E
:1018300000F4002028B9606C10B12046616C884724
:101840001DE0E06BD8B12046E16B884717E02068C7
:10185000006800F4807068B92068006820F010000B
:101860002168086000BF002084F8340000BF012018
:1018700084F83500E06B10B12046E16B8847606D5D
:1018800038B3606D00F00100F0B1052084F8350038
:101890002068006820F001002168086000BF0098FF
:1018A000401C0090B84200D905E02068006800F0B4
:1018B00001000028F3D100BF00BF002084F83400ED
:1018C00000BF012084F83500E06C10B12046E16CC7
:1018D000884700BFA4E70000740000202DE9F04114
:1018E0000446002500F008FA074614B90120BDE8B7
:1018F000F081606A00B100BF00BF002084F83400AE
:1019000000BF022084F835002068006820F0010044
:10191000216808600AE000F0EFF9C01B052805D92E
:1019200020206065032084F83500E0E72068006827
:1019300000F001000028EED120680568214805402C
:10194000D4E901010843E16808432169084361695A
:101950000843A1690843E1690843216A0843054334
:10196000606A042803D1D4E90B01084305432068C9
:1019700005602068456925F00705606A0543606ACF
:1019800004280DD1A06A0543E06A48B12046FFF75C
:10199000C1FA28B140206065012084F83500A6E72F
:1019A000206845612046FFF79BFA064694F85C10D4
:1019B0003F208840B06000206065012084F8350039
:1019C000002094E73F8010F02DE9F04704460D46D3
:1019D00016461F464FF00008D4F8589000BF94F800
:1019E0003400012802D10220BDE8F087012084F8EC
:1019F000340000BF94F8350001282BD1022084F870
:101A00003500002060653B46324629462046FFF7F8
:101A1000D6FA94F85C103F208840C9F80800206886
:101A2000006840F01600216808602068406940F0B6
:101A3000800021684861206C28B12068006840F06F
:101A40000800216808602068006840F001002168F3
:101A5000086006E000BF002084F8340000BF4FF0AB
:101A600002084046C0E7000070B5044600F044F9A3
:101A700006462546681C10B104480078054400BF9E
:101A800000F03AF9801BA842FAD370BD5C0E00202A
:101A9000B0F5806F02D10121014A11757047000035
:101AA0008088002010B5044604480068204020B11A
:101AB000024804602046FFF7EBFF10BD143C0140D4
:101AC000F8B502460B460025002400200021E6E080
:101AD000012606FA01F51E6806EA0504AC4273D138
:101AE0005E68022E02D05E68122E13D1CF0802F17A
:101AF000200656F827004E07F70E0F26BE40B043CB
:101B00004F07FF0E1E69BE403043CF0802F120068A
:101B100046F8270010684F000326BE40B0431E79E8
:101B200006F003064F00BE40304310605E68012E91
:101B300008D05E68022E05D05E68112E02D05E6865
:101B4000122E13D190684F000326BE40B0434F00C1
:101B5000DE68BE4030439060506801268E40B0433E
:101B60001E79C6F300168E4030435060D0684F0097
:101B70000326BE40B0434F009E68BE403043D06055
:101B80005E6806F08056B6F1805FA8D100BF0026DF
:101B90000096454E366846F48046434F3E603E46CA
:101BA000366806F48046009600BF00BF3F4E8F089F
:101BB00056F827008E07370F0F26BE40B0433C4E25
:101BC000B24202D100262EE068E03A4EB24201D184
:101BD000012628E0384EB24201D1022623E0374EDA
:101BE000B24201D103261EE0354EB24201D1042695
:101BF00019E0344EB24201D1052614E0324EB24211
:101C000001D106260FE0314EB24201D107260AE08B
:101C10002F4EB24201D1082605E02E4EB24201D12C
:101C2000092600E00A268F073F0FBE4030431F4EB3
:101C30008F0846F82700284E3068A0435E6806F4F7
:101C40008036B6F5803F00D12043234E3060361DEC
:101C50003068A0435E6806F40036B6F5003F00D158
:101C600020431D4E361D3060361D3068A0435E682F
:101C700006F48016B6F5801F00D12043164E0836B4
:101C80003060361D3068A0435E6806F40016B6F575
:101C9000001F00D12043104E0C363060491C102923
:101CA000FFF416AFF8BD0000443802400838014088
:101CB000000002400004024000080240000C024004
:101CC000001002400014024000180240001C0240B4
:101CD0000020024000240240003C014002461369FB
:101CE0000B400BB1012000E0002070470AB1816178
:101CF00001E00B04836170470148006870470000F1
:101D0000540E0020024692F83D0020281ED12420C7
:101D100082F83D001068006820F001001368186028
:101D20001068406A20F01000136858621068406A1A
:101D30000843136858621068006840F00100136897
:101D40001860202082F83D00002070470220FCE748
:101D500010B502460B46002192F83D0020281DD107
:101D6000242082F83D001068006820F0010014680B
:101D700020601068406A81B221F00F0141EA03003F
:101D800081B2106841621068006840F00100146878
:101D90002060202082F83D00002010BD0220FCE7DA
:101DA00070B50446002600250CB9012070BD94F8DA
:101DB0003D0028B9002084F83C00204600F03AFDA0
:101DC000242084F83D002068006820F0010021688C
:101DD000086001F063FA05463948B5FBF0F6206863
:101DE000466038496068884201D8701C07E04FF4AB
:101DF000967070434FF47A71B0FBF1F0401C21688B
:101E000008623049606888420ED860684000B5FBBF
:101E1000F0F0C0F30B00042801D204202DE060682C
:101E20004000B5FBF0F028E0A06828B9606800EB3E
:101E30004000B5FBF0F008E0606800EBC00101EB8A
:101E40000010B5FBF0F040F48040C0F30B0008B97F
:101E5000012012E0A06828B9606800EB4000B5FBE3
:101E6000F0F008E0606800EBC00101EB0010B5FB8A
:101E7000F0F040F4804040F400402168C861D4E9AB
:101E80000701084321680860D4E90310084321686A
:101E90008860D4E9050108432168C86020680068AB
:101EA00040F001002168086000202064202084F8B0
:101EB0003D000020206384F83E0000BF76E700006C
:101EC00040420F00A08601002DE9F84304468946F0
:101ED00017469846089E0025FFF70EFF054694F822
:101EE0003D0020287CD119230122BE4920460095BF
:101EF00003F0F9FD10B10220BDE8F88300BF94F8AB
:101F00003C00012801D10220F6E7012084F83C00C2
:101F100000BF2068006800F0010028B92068006850
:101F200040F00100216808602068006820F400602B
:101F300021680860222084F83D00102084F83E00CB
:101F4000002020646762A4F82A80A748E062608DC0
:101F500020852B4632464946204603F085FB80B15A
:101F6000206C042806D100BF002084F83C0000BF8C
:101F70000120C1E700BF002084F83C0000BF03201F
:101F8000BAE7208D88B900BF002000902068406922
:101F9000009020688069009000BF00BF2068006842
:101FA00040F400702168086046E0208D012818D1B7
:101FB0002068006820F480602168086000BF00206D
:101FC000009020684069009020688069009000BF00
:101FD00000BF2068006840F40070216808602BE0B2
:101FE000FEE0208D022816D12068006820F4806071
:101FF000216808602068006840F40060216808607B
:1020000000BF00200090206840690090206880692F
:10201000009000BF10E02068006840F480602168F4
:10202000086000BF00200090206840690090206890
:102030008069009000BF00BFC3E0208D032872D8E4
:10204000208D01281AD12A463146204603F0DFFDB3
:1020500030B1206C202801D103204DE701204BE74F
:1020600020680069C1B2626A501C60621170208DE4
:10207000401E2085608D401E6085A2E0208D0228D4
:102080002AD13346002259492046009503F02BFD02
:1020900008B1032030E72068006840F40070216830
:1020A000086020680069C1B2626A501C60621170E9
:1020B000208D401E2085608D401E6085206800694F
:1020C000C1B2626A501C60621170208D401E208572
:1020D000608D401E608574E03346002243492046EF
:1020E000009503F000FD08B1032005E720680068B3
:1020F00020F480602168086020680069C1B2626ACB
:10210000501C60621170208D401E2085608D401E25
:1021100060853346002235492046009503F0E3FCF4
:1021200010B10320E8E620E02068006840F4007069
:102130002168086020680069C1B2626A501C606250
:102140001170208D401E2085608D401E60852068A6
:102150000069C1B2626A501C60621170208D401E1D
:102160002085608D401E60852BE02A463146204642
:1021700003F04DFD30B1206C202801D10320BBE6D7
:102180000120B9E620680069C1B2626A501C606231
:102190001170208D401E2085608D401E6085206856
:1021A0004069C0F3800060B120680069C1B2626A12
:1021B000501C60621170208D401E2085608D401E75
:1021C0006085208D00287FF438AF202084F83D0002
:1021D000002084F83E0000BF84F83C0000BF8BE67E
:1021E000022089E6020010000000FFFF0400010049
:1021F0002DE9F8430446894616461F46DDF820803F
:102200000025FFF779FD054694F83D0020287DD193
:102210001923012259492046009503F064FC10B1AE
:102220000220BDE8F88300BF94F83C00012801D1EA
:102230000220F6E7012084F83C0000BF2068006817
:1022400000F0010028B92068006840F00100216812
:1022500008602068006820F4006021680860212080
:1022600084F83D00102084F83E000020206466625F
:1022700067854348E062608D20852B46424649468B
:10228000204603F089FA80B1206C042806D100BFF3
:10229000002084F83C0000BF0120C2E700BF0020FE
:1022A00084F83C0000BF0320BBE700BF0020009083
:1022B00020684069009020688069009000BF00BFDE
:1022C00046E02A464146204603F0D8FC60B1206C27
:1022D000042807D12068006840F400702168086075
:1022E00001209EE703209CE7616A481C6062087831
:1022F00021680861608D401E6085208D401E20850C
:1023000020684069C0F3800078B100E034E0208D9F
:1023100058B1616A481C6062087821680861608D64
:10232000401E6085208D401E20852A46414620465D
:1023300003F0AEFB60B1206C042807D12068006870
:1023400040F400702168086001206AE7032068E714
:10235000208D0028B5D12068006840F40070216805
:102360000860202084F83D00002084F83E0000BF73
:1023700084F83C0000BF54E7022052E7020010003E
:102380000000FFFF2DE9FC5F04460F46904699468A
:10239000DDE90CAB0E9E0025FFF7AEFC054694F878
:1023A0003D0020287ED119230122BD4920460095F9
:1023B00003F099FB10B10220BDE8FC9F00BF94F828
:1023C0003C00012801D10220F6E7012084F83C00FE
:1023D00000BF2068006800F0010028B9206800688C
:1023E00040F00100216808602068006820F4006067
:1023F00021680860222084F83D00402084F83E00D7
:1024000000202064C4F824A0A4F82AB0A548E06203
:10241000608D20854B46424639462046CDE9006511
:1024200003F01AFA80B1206C042806D100BF002006
:1024300084F83C0000BF0120BEE700BF002084F804
:102440003C0000BF0320B7E7208D88B900BF002003
:10245000019020684069019020688069019000BF68
:1024600000BF2068006840F400702168086041E007
:10247000208D012819D12068006820F4806021682F
:10248000086000BF0020019020684069019020682A
:102490008069019000BF00BF2068006840F40070B0
:1024A000216800E0FAE0086024E0208D022816D1BF
:1024B0002068006820F48060216808602068006857
:1024C00040F400602168086000BF0020019020688F
:1024D0004069019020688069019000BF0AE000BF58
:1024E0000020019020684069019020688069019077
:1024F00000BF00BFC3E0208D032872D8208D0128C3
:102500001AD12A463146204603F081FB30B1206CB7
:10251000202801D103204FE701204DE72068006902
:10252000C1B2626A501C60621170208D401E20850D
:10253000608D401E6085A2E0208D02282AD133469E
:10254000002259492046009503F0CDFA08B1032036
:1025500032E72068006840F4007021680860206855
:102560000069C1B2626A501C60621170208D401E09
:102570002085608D401E608520680069C1B2626A56
:10258000501C60621170208D401E2085608D401EA1
:10259000608574E03346002243492046009503F0ED
:1025A000A2FA08B1032007E72068006820F48060E1
:1025B0002168086020680069C1B2626A501C6062CC
:1025C0001170208D401E2085608D401E6085334631
:1025D000002235492046009503F085FA10B103200A
:1025E000EAE620E02068006840F400702168086096
:1025F00020680069C1B2626A501C60621170208D4F
:10260000401E2085608D401E608520680069C1B233
:10261000626A501C60621170208D401E2085608DA2
:10262000401E60852BE02A463146204603F0EFFA33
:1026300030B1206C202801D10320BDE60120BBE68B
:1026400020680069C1B2626A501C60621170208DFE
:10265000401E2085608D401E608520684069C0F363
:10266000800060B120680069C1B2626A501C60627B
:102670001170208D401E2085608D401E6085208D4C
:1026800000287FF438AF202084F83D00002084F833
:102690003E0000BF84F83C0000BF8DE602208BE6C0
:1026A000020010000000FFFF040001002DE9FC5FA4
:1026B00004460F4690469946DDE90CAB0E9E002578
:1026C000FFF71AFB054694F83D0020287ED1192318
:1026D000012256492046009503F005FA10B1022068
:1026E000BDE8FC9F00BF94F83C00012801D1022006
:1026F000F6E7012084F83C0000BF2068006800F085
:10270000010028B92068006840F0010021680860D5
:102710002068006820F4006021680860212084F8A7
:102720003D00402084F83E0000202064C4F824A02E
:10273000A4F82AB03E48E062608D20854B464246B0
:1027400039462046CDE9006503F032F980B1206CAE
:10275000042806D100BF002084F83C0000BF0120FF
:10276000BEE700BF002084F83C0000BF0320B7E7AD
:1027700033E02A463146204603F080FA60B1206CEF
:10278000042807D12068006840F4007021680860C0
:102790000120A5E70320A3E7616A481C606208786E
:1027A00021680861208D401E2085608D401E608557
:1027B00020684069C0F3800078B1208D68B1616AFB
:1027C000481C606208782168086100E02CE0208DD8
:1027D000401E2085608D401E6085208D0028C8D158
:1027E0002A463146204603F053F960B1206C042894
:1027F00007D12068006840F400702168086001205B
:102800006EE703206CE72068006840F400702168E0
:102810000860202084F83D00002084F83E0000BFBE
:1028200084F83C0000BF5BE7022059E7020010007B
:102830000000FFFF10B586B00446142101A8FDF783
:10284000CAFD1B492068884230D100BF002000909B
:102850001848006840F08000164908600846006883
:1028600000F08000009000BF00BF4FF4C0700190E6
:102870001220029001200390032004900420059070
:1028800001A90D48FFF71CF900BF0020009009487E
:102890001030006840F40000064910310860084616
:1028A000006800F40000009000BF00BF06B010BD3B
:1028B000005C004030380240001C024003480068C1
:1028C000034909780844014908607047540E002004
:1028D0005C0E002010B50D48006840F400700B49F4
:1028E00008600846006840F4806008600846006898
:1028F00040F480700860032000F022FA002000F00D
:1029000007F800F09FF9002010BD0000003C0240D5
:1029100070B504460E4800784FF47A71B1FBF0F0C0
:102920000C490968B1FBF0F5284602F060F908B1DE
:10293000012070BD102C07D200222146501E00F04D
:10294000C0F90548046001E00120F2E70020F0E74B
:102950005C0E002074000020580E002070B5044664
:102960000E46154600BF94F8A000012801D10220B0
:1029700070BD012084F8A00000BF022084F8A100EF
:1029800005EB850101EBC50204F1380101EB820082
:1029900034223146FDF704FD2A463146204604F034
:1029A000C1FC01202168486284F8A10000BF00201A
:1029B00084F8A00000BF00BFDAE7000070B504464D
:1029C000002500260CB9012070BD94F8A10028B99B
:1029D000002084F8A000204600F07EF8022084F851
:1029E000A1002068806920F0704021688861D4E9E6
:1029F00001010843E16808432169084321688969A6
:102A0000084321688861206880683249084021684D
:102A10008860A08A050420688068A169294308436A
:102A2000216888602068C0682A4908402168C86019
:102A3000A08B05042068C068216A294308432168E7
:102A4000C860206800692349084021680861A08C9B
:102A5000050420680069A16A2943084321680861C8
:102A6000206840691B49084021684861A08D050421
:102A700020684069216B294308432168486194F824
:102A80003500050294F8360006042068C06A00F09C
:102A90007F402168C86246EA050094F83410084374
:102AA0002168C96A08432168C8622068406B40F009
:102AB0000600216848632068806940F001002168B1
:102AC00088610020C4F8A400012084F8A10000203F
:102AD0007AE7000000F800F010B586B00446142133
:102AE00001A8FDF778FC5149206888427ED100BFDB
:102AF000002000904E48006840F080604C4908601B
:102B00000846006800F08060009000BF00BF00BF72
:102B10000020009046481438006840F40000444902
:102B2000143908600846006800F40000009000BFF7
:102B300000BF00BF002000900846006840F480708D
:102B400008600846006800F48070009000BF00BF75
:102B500000BF002000900846006840F02000086098
:102B60000846006800F02000009000BF00BF00BFD2
:102B7000002000900846006840F080000860084689
:102B8000006800F08000009000BF00BF00BF002080
:102B900000900846006840F0400008600846006861
:102BA00000F04000009000BF00BF40F2F7600190CD
:102BB0000220029000200390022004900E20059035
:102BC00001A91C48FEF77CFF4FF4806001900220B1
:102BD000029000200390022004900E20059001A98D
:102BE0001548FEF76DFF4FF47E4000E01BE00190BA
:102BF0000220029000200390022004900E200590F5
:102C000001A90E48FEF75CFF4FF40C600190022012
:102C1000029000200390022004900E20059001A94C
:102C20000748FEF74DFF06B010BD000000680140E8
:102C3000443802400020024000140240001C0240C0
:102C40000018024008B500BF002000900E48006840
:102C500040F480400C4908600846006800F4804059
:102C6000009000BF00BF00BF00200090081F006858
:102C700040F08050091F08600846006800F080504E
:102C8000009000BF00BF08BD4438024000BF00F004
:102C90001F0201219140034A430942F8231000BF5B
:102CA0007047000080E100E000BF00F01F0201213A
:102CB00091404209920002F1E022C2F8001100BFE7
:102CC00070472DE9F05F80460D461646002704F058
:102CD00035FC074639462A46334601F00700C0F165
:102CE000070ABAF1040F02D94FF0040A01E0C0F15B
:102CF000070AD14600F1040ABAF1070F02D24FF0D9
:102D0000000A01E0A0F1030AD4464FF0010A0AFAD2
:102D100009FAAAF1010A0AEA020A0AFA0CFA4FF0C1
:102D2000010B0BFA0CFBABF1010B0BEA030B4AEAAC
:102D30000B042146404604F009FCBDE8F09F00006A
:102D400000BF00F00702064B19684FF6FF03194059
:102D5000044B0B4343EA0221014B196000BF70474B
:102D60000CED00E00000FA0500BF00BF00BF00BF8F
:102D700000BFBFF34F8F00BF00BF00BF094800680E
:102D800000F4E06008490843001D0649086000BFE0
:102D900000BF00BFBFF34F8F00BF00BF00BF00BF29
:102DA00000BFFDE70CED00E00000FA0538B5002497
:102DB00000BF002000901D48006840F080501B4973
:102DC00008600846006800F08050009000BF00BF17
:102DD000012017490864FEF78FFF044607E0FEF75D
:102DE0008BFF001BB0F57A7F01D9032038BD114855
:102DF000406800F48030B0F5803FF0D101200C49EC
:102E00004864FEF779FF044607E0FEF775FF001BF4
:102E1000B0F57A7F01D90320E8E70648406800F45E
:102E20000030B0F5003FF0D10020DFE7403802402D
:102E300000000E4200700040F8B504460025002650
:102E4000207800F0010020B9207800F0020002286C
:102E500052D10020A8498866FEF74EFF054606E0DD
:102E6000FEF74AFF401B022801D90320F8BDA34802
:102E70000068C0F3C0600028F2D1207800F00100A3
:102E800038B160688101207A41EA00709B49843141
:102E90000860207800F00200022819D19748843099
:102EA0000068C0F3027660688101207B41EA00601F
:102EB00040EA067091498431086090488C3000687F
:102EC00020F01F00E169491E08438C498C310860DD
:102ED000012089498866FEF70FFF054606E0FEF7E8
:102EE0000BFF401B022801D90320BFE7834800687D
:102EF000C0F3C0600028F2D0207800F0040004285D
:102F000004D0207800F00800082863D100207A4916
:102F10000867FEF7F1FE054606E0FEF7EDFE401BF2
:102F2000022801D90320A1E774480068C0F340706B
:102F30000028F2D1207800F00400042819D16F484D
:102F400088300068C0F3027620698101207D41EA63
:102F5000006040EA0670694988310860081D006811
:102F600020F4F851206A401E41EA002063498C3168
:102F70000860207800F00800082817D15F488830E2
:102F80000068C0F303662069800140EA0661207E84
:102F900041EA0070594988310860081D006820F432
:102FA0004030616A084355498C310860012052491C
:102FB0000867FEF7A1FE054606E0FEF79DFE401BF2
:102FC000022801D9032051E74C480068C0F3407043
:102FD0000028F2D0207800F0200020287ED100BF09
:102FE0000020009045484030006840F08050434940
:102FF000403108600846006800F08050009000BF33
:1030000000BF3F48006840F480703D490860FEF70B
:1030100073FE054606E0FEF76FFE401B022801D94D
:10302000032023E73648006800F480700028F2D0BF
:1030300032487030006800F440764EB3208D00F4C2
:103040004070B04224D02D487030006820F44076A3
:1030500001202C4908600020086028487030066074
:10306000006800F0010098B1FEF746FE054608E052
:10307000FEF742FE401B41F28831884201D903200D
:10308000F4E61E4870300068C0F340000028EFD01E
:1030900000BF208D00F44070B0F5407F0CD1174880
:1030A0000830006820F4F810174AA16A114008435C
:1030B00012490831086007E010480830006820F421
:1030C000F8100E49083108600C4870300068218DF6
:1030D000C1F30B0108430949703100E001E00860C9
:1030E00000BF207800F01000102803D194F82C00C5
:1030F000064908600020B9E6000047420038024057
:1031000000700040400E4742FFFCFF0FE0114742B5
:1031100070B504460D460CB9012070BD58480068D2
:1031200000F00F00A84209D255490D70084600680A
:1031300000F00F00A84201D00120EEE7207800F057
:10314000020002281DD1207800F00400042805D1D7
:103150004C48006840F4E0504A490860207800F08C
:103160000800082805D14748006840F460404549F8
:1031700008604448006820F0F000A1680843414915
:103180000860207800F00100A8B36068012807D12A
:103190003C4808380068C0F34040B8B90120BCE79B
:1031A0006068022802D06068032807D135480838D3
:1031B0000068C0F3406048B90120AEE731480838E4
:1031C0000068C0F3400008B90120A6E72D48006858
:1031D00020F00300616808432A490860FEF78CFD6F
:1031E000064609E0FEF788FD801B41F288318842DF
:1031F00002D9032091E707E02248006800F00C00A4
:103200006168B0EB810FEDD11D48006800F00F0040
:10321000A84209D91A490D700846006800F00F004D
:10322000A84201D0012078E7207800F004000428AB
:1032300007D11448006820F4E050E16808431149C0
:103240000860207800F00800082808D10D480068C0
:1032500020F46040216940EAC1000A49086000F09A
:103260003DF808490968C1F30311074A515CC84099
:10327000064908600020FFF74BFB00204DE70000E7
:10328000003C02400838024082EF0408740000202D
:1032900001480068704700007400002000B5FFF787
:1032A000F7FF04490968C1F38221034A515CC84011
:1032B00000BD00000838024092EF040800B5FFF797
:1032C000E7FF04490968C1F34231034A515CC84031
:1032D00000BD00000838024092EF04082DE9F047D5
:1032E000002400250026A1462548006800F00C00B7
:1032F00020B1042805D008283AD105E0DFF88490F1
:1033000039E0DFF8849036E01D48001F006800F0C7
:103310003F041B48001F006800F4800078B11A4881
:103320001749091F0968C1F38811A0FB0170014604
:10333000224600233846FCF7EFFF05460EE0114811
:103340000F49091F0968C1F38811A0FB01700146EC
:10335000224600233846FCF7DFFF05460848001FD9
:103360000068C0F30140401C4600B5FBF6F902E0DE
:10337000DFF8109000BF00BF4846BDE8F0870000AE
:10338000083802400024F40040787D01F8B5044676
:103390000CB90120F8BD207800F00100002874D09D
:1033A000F948006800F00C0004280DD0F6480068C9
:1033B00000F00C00082813D1F348001F006800F447
:1033C0008000B0F5800F0BD1EF4808380068C0F3DB
:1033D0004040002859D06068002856D10120D9E724
:1033E00000BF6068B0F5803F08D1E7480838006842
:1033F00040F48030E449083908601EE06068B0F5A8
:10340000A02F0DD1E0480838006840F48020DE4944
:10341000083908600846006840F4803008600CE015
:10342000D9480838006820F48030D7490839086046
:103430000846006820F48020086000BF606890B1F2
:10344000FEF75AFC054606E0FEF756FC401B6428D2
:1034500001D903209EE7CC4808380068C0F34040FB
:103460000028F1D011E0FEF747FC054606E0FEF724
:1034700043FC401B642801D903208BE7C24808386D
:103480000068C0F340400028F1D1207800F002002D
:1034900002285FD1BC48006800F00C0058B1BA485F
:1034A000006800F00C0008281CD1B748001F006815
:1034B00000F48000B0B9B44808380068C0F3400098
:1034C00020B1E068012801D0012063E7AE48083848
:1034D000006820F0F800216940EAC100AA490839D3
:1034E000086037E0E06800B30120A8490860FEF7F3
:1034F00003FC054606E0FEF7FFFB401B022801D94E
:10350000032047E7A04808380068C0F340000028BF
:10351000F1D09D480838006820F0F800216940EAA1
:10352000C10099490839086014E0002097490860F3
:10353000FEF7E2FB054606E0FEF7DEFB401B022835
:1035400001D9032026E7904808380068C0F34000FE
:103550000028F1D1207800F0080008282CD16069FB
:10356000A8B101208A490860FEF7C6FB054606E0BF
:10357000FEF7C2FB401B022801D903200AE782485C
:103580006C300068C0F340000028F1D014E0002047
:103590007F490860FEF7B0FB054606E0FEF7ACFB8E
:1035A000401B022801D90320F4E677486C300068FC
:1035B000C0F340000028F1D1207800F00400042876
:1035C00070D1002670483830006800F0805090B903
:1035D00000BF002000906C483830006840F08050F8
:1035E0006949383108600846006800F08050009052
:1035F00000BF00BF01266748006800F48070B0B9C2
:103600006448006840F4807062490860FEF774FB0B
:10361000054606E0FEF770FB401B022801D9032097
:10362000B8E65C48006800F480700028F2D000BF63
:10363000A068012808D154486830006840F00100B3
:103640005149683108601DE0A06805280DD14E4839
:103650006830006840F004004B4968310860084653
:10366000006840F0010008600CE0474868300068DE
:1036700020F001004449683108600846006820F0E5
:103680000400086000BFA068A8B1FEF735FB05463E
:1036900009E0FEF731FB401B41F28831884202D934
:1036A000032077E626E0384868300068C0F3400021
:1036B0000028EED013E0FEF71FFB054608E0FEF7FA
:1036C0001BFB401B41F28831884201D9032061E68F
:1036D0002D4868300068C0F340000028EFD1012E6B
:1036E00007D129483830006820F080502649383109
:1036F000086000BFA069B8B32348006800F00C0060
:1037000008285ED0A069022846D100201F4908661B
:10371000FEF7F2FA054606E0FEF7EEFA401B022835
:1037200001D9032036E6184808380068C0F3406025
:103730000028F1D1D4E907010843616A40EA811108
:103740000122A06AC2EB500041EA00412C20005D3A
:1037500041EA00600C49091F086001200B49086616
:10376000FEF7CAFA054607E02DE0FEF7C5FA401B52
:10377000022801D903200DE6034808380068C0F389
:1037800040600028F1D01EE00838024000004742A7
:10379000800E47420070004000200C490866FEF78A
:1037A000ABFA054606E0FEF7A7FA401B022801D94E
:1037B0000320EFE506480068C0F340600028F2D11E
:1037C00001E00120E6E50020E4E5000000004742BA
:1037D0000038024002460023106800F1500303EB5A
:1037E00081031868704710B50023046804F1500382
:1037F00003EB81031A6010BD70B505460B461646F3
:103800000024286840680E4900EA0104200CD870A2
:10381000C4F30420587004F03F009870C4F34230A1
:1038200018705EB9D87803F0A5FED870587803F008
:10383000A1FE5870987803F09DFE9870002070BD2E
:103840003FFFFF0070B504460B4616460025206872
:10385000806A586020680069C0F30E009860206894
:1038600000680F4900EA0105C5F305401870C5F36B
:103870000620587005F07F00987005F48000000C59
:10388000D8705EB9187803F075FE1870587803F098
:1038900071FE5870987803F06DFE9870002070BD2E
:1038A0007F7F7F0010B504460CB9012010BD607FFA
:1038B00020B900202077204600F060F802206077D1
:1038C00000BFCA202168486253202168486200BFB7
:1038D000204603F067FE40B100BFFF202168486228
:1038E00000BF042060770120E0E72068806822495B
:1038F000084021688860216960680843616908435D
:10390000216889680843216888602168E068086147
:1039100020680169208941EA004021680861206827
:10392000C06820F080002168C8602068806800F0CE
:10393000200060B9204600F053F940B100BFFF20DD
:103940002168486200BF042060770120AEE720684C
:10395000006C20F48020216808642068006CA16954
:1039600008432168086400BFFF202168486200BF47
:1039700001206077002099E7BFFF8FFF10B5044654
:103980000749206888420AD10120064908600022C0
:1039900003210846FFF795F90320FFF785F910BDCD
:1039A000002800403C0E47422DE9F04104460D46F8
:1039B0001646002700BF207F012802D10220BDE863
:1039C000F0810120207700BF022060774EB968782F
:1039D00000F01000102804D1687800F0EF000A30E1
:1039E000687086B9E87803F0D0FD0304687803F0C6
:1039F000CCFD43EA0023A87803F0C7FD03432878F1
:103A000043EA403709E0E8780004697840EA012099
:103A1000A9780843297840EA413700BFCA202168C5
:103A2000486253202168486200BF204603F0BAFD77
:103A300060B100BFFF202168486200BF04206077AA
:103A400000BF0020207700BF0120B8E716483840AB
:103A5000216848602068C06820F080002168C86044
:103A60002068806800F0200080B9204600F0B8F897
:103A700060B100BFFF202168486200BF042060776A
:103A800000BF0020207700BF012098E700BFFF2083
:103A90002168486200BF0120607700BF00202077C6
:103AA00000BF00BF8BE700003FFFFF002DE9F041A2
:103AB00004460D461646002700BF207F012802D18C
:103AC0000220BDE8F0810120207700BF022060774E
:103AD000CEB92068806800F0400000B102E000200C
:103AE000E87000BF287803F050FD0304687803F005
:103AF0004CFD43EA0023A87803F047FD0343E87830
:103B000043EA004716E02068806800F0400020B1DA
:103B1000287803F02FFD074602E00020E87000BF80
:103B200028780004697840EA0120A9780843E978F8
:103B300040EA014700BFCA2021684862532021683B
:103B4000486200BF204603F02DFD60B100BFFF209A
:103B50002168486200BF0420607700BF0020207702
:103B600000BF0120ADE71D4838402168086020688B
:103B7000806820F4802021688860D5E9030108432B
:103B8000216889680843216888602068C06820F03F
:103B900080002168C8602068806800F0200080B93B
:103BA000204600F01DF860B100BFFF202168486288
:103BB00000BF0420607700BF0020207700BF0120F5
:103BC0007FE700BFFF202168486200BF01206077C7
:103BD00000BF0020207700BF00BF72E77F7F7F001B
:103BE00070B5044600252068C06820F0A000216858
:103BF000C860FEF781F8054607E0FEF77DF8401B38
:103C0000B0F57A7F01D9032070BD2068C06800F04C
:103C100020000028F1D00020F6E770B504460D46DC
:103C20000CB9012070BD94F82C0028B9002084F84C
:103C30002D00204600F012F8022084F82C00211DEF
:103C40002068FDF70DFA2946D4E90002FDF772FA63
:103C5000012084F82C000020E4E7000010B586B0B5
:103C6000044600BF002000906248006840F0010058
:103C7000604908600846006800F00100009000BF3D
:103C800000BF00BF002000905A480838006840F08C
:103C900004005849083908600846006800F004002C
:103CA000009000BF00BF00BF0020009008460068E1
:103CB00040F0200008600846006800F020000090F6
:103CC00000BF00BF00BF002000900846006840F021
:103CD000800008600846006800F08000009000BF87
:103CE00000BF00BF002000900846006840F0400080
:103CF00008600846006800F04000009000BF00BF68
:103D000000BF002000900846006840F010000860E6
:103D10000846006800F01000009000BF00BF00BF20
:103D2000002000900846006840F00800086008463F
:103D3000006800F00800009000BF00BF00BF002036
:103D400000900846006840F00100086008460068DE
:103D500000F00100009000BF00BF4FF63F0001904F
:103D60000220029000200390032004900C20059074
:103D700001A92148FDF7A4FE0D2001900220029028
:103D800000200390032004900C20059001A91B48FB
:103D9000FDF796FE48F237100190022002900020B5
:103DA0000390032004900C20059001A91448FDF70E
:103DB00087FE4FF68370019002200290002003904E
:103DC000032004900C20059001A90E48FDF778FE11
:103DD0004CF2037001900220029000200390032017
:103DE00004900C20059001A90748FDF769FE06B074
:103DF00010BD0000383802400014024000080240A4
:103E00000018024000100240000C024070B5044649
:103E10000D4694F82C00022800D170BD022084F8D1
:103E20002C0029462068FDF755F9012084F82C0064
:103E30000020F2E770B504460D46164694F82C00B3
:103E4000022800D170BD022084F82C003246294699
:103E50002068FDF746F92868022803D1052084F878
:103E60002C0002E0012084F82C000020EAE710B5C5
:103E70000446FCF797FE10BD70B58AB004460D46A7
:103E80000026032084F83400606C032820D0B5F5A8
:103E9000805F04D1A06B40F08050A0631CE0B5F5BA
:103EA000006F07D1204604F0BEFA0646A06B3043EF
:103EB000A06311E03DB9204604F080FA0646A06BED
:103EC0003043A06308E0A06B40F00060A06303E013
:103ED000A06B40F08050A063A06B40B140F2FF5057
:103EE00021688863012084F834000AB070BD6068DE
:103EF0000490A0680590E0680690079560690890B6
:103F0000A069099007A807C88DE80700206804A9E0
:103F10000EC903F099FB012084F834000020E4E787
:103F2000704730B503460022586E020E90090870A3
:103F3000C2F38300487002F003008870586EC0F32B
:103F40000742CA70B3F86400C0F307220A7193F8FD
:103F500064204A71986E020E4FF6FF7000EA02105C
:103F6000C880986EC0F30742C88840EA1210C88023
:103F700002F00F0008726820C05AC0F30722D0096F
:103F80004872C2F380108872C2F34010C872C2F344
:103F90000010087300204873586C00283ED1900729
:103FA000000D08616820C25C086940EA820008616F
:103FB000D86E020E086940EA92100861C2F3C2008E
:103FC000087502F007004875D86EC0F30742500923
:103FD0008875C2F38200C8759007400F08766C2080
:103FE000C05AC0F30722087E40EAD210087608695A
:103FF000401C58650C7E586DA41C0125A5406843E3
:1040000058650C7A0120A0409865D3E91504640A2C
:104010006043D8654FF400741C6630E0586C01288A
:1040200021D16820C25C9006800A0861D86E020E19
:10403000086940EA02200861D86EC0F307420869A7
:10404000104308616C20C05AC0F307220869441C61
:104050004FF48060A4FB00045865D8654FF40074E9
:104060009C651C660BE040F2FF501C68A063986BD7
:1040700040F080509863012083F8340030BDC2F3D3
:10408000801001F8190F9006400E48706C20C25C39
:10409000487840EAD210487002F07F008870186FAC
:1040A000020ED009C870C2F341100871C2F3820039
:1040B00048719007000F8871186FC0F30742887924
:1040C00040EA92108871C2F34010C8710020087253
:1040D00002F0010048727020C05AC0F30722D009D4
:1040E0008872C2F38010C872C2F340100873C2F322
:1040F00000104873C2F38100887302F00300C87394
:104100007020C25C500808740120487419390020DE
:10411000B4E70246506C0860906C4860D06C8860D0
:10412000106DC860506D0861906D4861D06D8861F8
:10413000106EC86100207047F8B5044604260025BB
:10414000002000906946204604F01FF9054615B18D
:10415000A06B2843A0630098C0F343263046F8BD07
:1041600070B5044600252068406BC0F3002000288D
:1041700063D04FF48070216888632068C06B40F280
:104180003A3188432168C863206B00F0080048B3C7
:10419000206B00F0020018B9206B00F0200050B135
:1041A000206803F019FC05462DB1A06B2843A063DD
:1041B0002046FFF7B5FE40F2FF50216888630120DA
:1041C00084F83400206B00F0010018B9206B00F077
:1041D000020018B1204600F099FABCE0204600F039
:1041E0009AFAB8E0206B00F080000028F5D0206B30
:1041F00000F0200050B1206803F0EEFB05462DB121
:10420000A06B2843A0632046FFF78AFE206B00F0D6
:1042100001000028E1D1206B00F002000028DCD171
:104220002068C06A20F008002168C862012084F874
:104230003400204600F06FFA8DE02068406BC0F338
:10424000803038B14FF4804021688863204604F004
:104250001FF980E02068406BC0F3C03038B14FF4E4
:10426000004021688863204604F07CF873E02068F1
:10427000406B40F23A21084008B1012000E00020E4
:10428000002868D02068406BC0F3400018B1A06BD4
:1042900040F00200A0632068406BC0F3C00018B17A
:1042A000A06B40F00800A0632068406BC0F3401092
:1042B00018B1A06B40F02000A0632068406BC0F3F1
:1042C000001018B1A06B40F01000A0632068406B94
:1042D000C0F3402018B1A06B40F00800A06340F28A
:1042E000FF70216888632068C06B40F23A318843D0
:1042F0002168C863206B00F0800010B3206C50B1BF
:104300001548216C0865206CFDF7B4F910B1206CDC
:1043100003F077FE1FE0E06B50B11048E16B0865D9
:10432000E06BFDF7A7F9B0B1E06B03F03BFE12E0E4
:104330000020A063012084F834002046FFF797FD99
:1043400009E0206B00F0080028B1012084F8340057
:104350002046FFF7E5FD70BD03800108A57F010839
:1043600010B504460CB9012010BD94F8340020B9F2
:1043700000202077204600F051F8032084F8340014
:10438000204600F009F80020A0632063012084F893
:1043900034000020E8E7000030B589B0044600256D
:1043A00000200390049005900690079076200890D6
:1043B00006A807C88DE80700206803A90EC903F006
:1043C00043F9002014490860206803F057F90120E0
:1043D0001149A039C1F8A0000220FDF745FB204695
:1043E00003F049FF054645B1012084F83400A06B75
:1043F0002843A063012009B030BD204603F0BDFE74
:1044000005463DB1012084F83400A06B2843A06329
:104410000120F0E70020EEE7A080254210B586B02D
:104420000446142101A8FBF7D6FF6749206888429B
:104430007ED100BF002000906448006840F4006016
:10444000624908600846006800F40060009000BF00
:1044500000BF00BF002000905C481438006840F4A2
:1044600080005A49143908600846006800F480004A
:10447000009000BF00BF00BF002000900846006809
:1044800040F0040008600846006800F00400009056
:1044900000BF00BF00BF002000900846006840F049
:1044A000080008600846006800F00800009000BF9F
:1044B00000BF4FF4F85001900220029000200390BA
:1044C000032004900C20059001A94148FDF7F8FA5B
:1044D0000420019002200290002003900320049009
:1044E0000C20059001A93B48FDF7EAFA3A483B4900
:1044F00008604FF000604860002138488160C1606A
:104500004FF480610161890041618900816120214E
:10451000C1610021016204214162032181624FF4E3
:104520000001C16289100163FDF7D8F918B100E0FC
:1045300048E0FCF761FD00BF2848E063846300BFEA
:1045400025484830264908604FF000604860402107
:10455000234881600021C1604FF4806101618900BE
:104560004161890081612021C16100210162042132
:104570004162032181624FF40001C162891001632D
:10458000FDF7ACF908B1FCF737FD00BF1448206413
:10459000846300BF002206213120FEF792FB312008
:1045A000FEF782FB012206213B20FEF78AFB3B201F
:1045B000FEF77AFB012206214520FEF782FB45200B
:1045C000FEF772FB06B010BD002C014044380240DB
:1045D00000080240000C024058640240708900202C
:1045E000D08900202DE9F04186B004468846164661
:1045F0001D460027B8F1000F07D1A06B40F0006006
:10460000A063012006B0BDE8F08194F834000128D1
:1046100073D10020A0637119E06D814205D9A06BB0
:1046200040F00070A0630120ECE7032084F8340020
:1046300000202168C8622068C06B40F49570216832
:10464000C8632F48E16BC8632E48E16BC864002043
:10465000E16B08656A029308226802F18001424614
:10466000E06BFDF7B1F9012027490860606C012873
:1046700000D076024FF0FF30009068020190902049
:1046800002900220039000200490012005906946CA
:10469000206802F0A6FF4FF40071206803F04CF888
:1046A000074657B140F2FF5021688863A06B38433A
:1046B000A063012084F83400A4E7012D07D98220EB
:1046C00020633146206803F0A3F8074606E0812006
:1046D00020633146206803F0B8F807465FB140F226
:1046E000FF5021688863A06B3843A063012084F8E1
:1046F000340087E701E0002084E7022082E7000021
:104700005F7F0108037F01088C85254200B50246C2
:10471000FCF7A0FA00BD00B50246FCF735FB00BD72
:104720002DE9F04186B00446884616461D4600270E
:10473000B8F1000F07D1A06B40F00060A06301202A
:1047400006B0BDE8F08194F83400012872D1002051
:10475000A0637119E06D814205D9A06B40F0007033
:10476000A0630120ECE7032084F8340000202168D6
:10477000C8622068C06B40F01A002168C8632E48E8
:10478000216CC8632D48216CC8640020216C086529
:10479000606C012800D076024FF40071206802F0AE
:1047A000CBFF074657B140F2FF5021688863A06BEA
:1047B0003843A063012084F83400C1E7012D07D9F4
:1047C000A02020633146206803F024F9074606E064
:1047D000902020633146206803F039F9074657B12D
:1047E00040F2FF5021688863A06B3843A06301202A
:1047F00084F83400A4E701201149086069028B089D
:10480000216801F180024146206CFDF7DDF84FF090
:10481000FF300090680201909020029000200390E9
:104820000490012005906946206802F0DAFE00201D
:1048300086E7FFE7022083E7F17F0108037F010895
:104840008C85254210B504460CB9012010BD606A64
:1048500000B900BF0021A16294F8510028B90020DE
:1048600084F85000204600F033F8022084F851000C
:104870002068006820F0400021680860D4E9010148
:104880000843E16808432169084361690843218BB3
:1048900001F400710843E1690843216A0843A16AF1
:1048A0000843216808600421A06901EA1040616A98
:1048B0000843216848602068C06920F400602168CE
:1048C000C86100206065012084F851000020BDE728
:1048D00010B586B00446142101A8FBF77CFD3749CA
:1048E0002068884230D100BF002000903448006822
:1048F00040F40010324908600846006800F40010D7
:10490000009000BF00BF00BF002000902C4814386A
:10491000006840F040002A491439086008460068E1
:1049200000F04000009000BF00BF4FF4E040019055
:10493000022002900020039003200490052005909F
:1049400001A92048FDF7BCF81F492068884232D1F0
:1049500000BF002000901A48001F006840F480400B
:104960001749091F08600846006800F4804000905D
:1049700000BF00BF00BF002000901148143800683D
:1049800040F002000E49143908600846006800F043
:104990000200009000BF00BF4FF460400190022071
:1049A000029000200390032004900520059001A9A7
:1049B0000648FDF785F806B010BD00000054014020
:1049C0004438024000180240003800400004024011
:1049D0002DE9FE4F04460D4616461F46DDF8308091
:1049E0004FF0000A0020029081464FF0010B019029
:1049F00000BF94F85000012802D10220BDE8FE8FCC
:104A0000012084F8500000BFFDF776F9814694F844
:104A100051A060680290BAF1010F0BD00298B0F576
:104A2000827F04D1A06810B9BAF1040F02D002202D
:104A30000190D2E00DB106B117B901200190CCE090
:104A400094F85100012802D1052084F8510000207B
:104A50006065A663E787A7872563E786A786206446
:104A600060642068006800F04000402805D020689D
:104A7000006840F0400021680860E068B0F5006F11
:104A800043D1606810B1E08E012806D128882168E2
:104A9000C860AD1CE08E401EE0862FE0BBF1000F29
:104AA00010D0E08E70B12068806800F0020002280B
:104AB00008D128882168C860AD1CE08E401EE086C1
:104AC0004FF0000BE08F68B12068806800F00100B3
:104AD00040B12068C0683080B61CE08F401EE0877F
:104AE0004FF0010B08F1010040B1FDF705F9A0EB13
:104AF0000900404502D3032001906EE0E08E0028BB
:104B0000CCD1E08F0028C9D142E0606810B1E08EBE
:104B1000012806D12878216808736D1CE08E401E9C
:104B2000E0862FE0BBF1000F10D0E08E70B120685E
:104B3000806800F00200022808D115F8010B2168F6
:104B40000873E08E401EE0864FF0000BE08F68B1E6
:104B50002068806800F0010040B12068C06806F855
:104B6000010BE08F401EE0874FF0010B08F10100C0
:104B700040B1FDF7C1F8A0EB0900404502D3032086
:104B800001902AE0E08E0028CCD1E08F0028C9D126
:104B90004346012202212046CDF8009003F03EFD5D
:104BA00010B10320019018E04A464146204603F028
:104BB00021FD20B101200190202060650DE0A0685A
:104BC00050B900BF002000902068C06800902068A5
:104BD0008068009000BF00BF00BF012084F8510032
:104BE00000BF002084F8500000BF019806E770B5B0
:104BF00004462546681EB0F1807F01D301200FE0F6
:104C0000681E4FF0E02148610F214FF0FF3002F0A5
:104C10009DFC00204FF0E021886107200861002002
:104C200070BD70477047000010B5044602214F4820
:104C3000FDF754F8D8B14E480068006A45F6FF7198
:104C400008404B490968086249480068006A40F416
:104C500000504749096808620020454909684862D0
:104C60004448007840F01000424908707CE00C2174
:104C70003F4800F091FA404908803D480068006ACA
:104C800045F6FF7108403A490968086238480068EB
:104C9000006A3749096808623648007800F0100059
:104CA00000285BD03348007800F08000F0B3324831
:104CB0000088B0F5967F0DDD2F480088B0F5487F5D
:104CC00008DA2E48006840002C4908600846006851
:104CD000086043E028480088B0F5AF6F0FDD264834
:104CE0000088B0F5E16F0ADA2448006840002349E3
:104CF00008600846006840F0010008602EE01E4889
:104D0000008840F69801884228DD1B48008840F65C
:104D10002821884222DA1A480078401C1849087075
:104D20001448007800F0F000124900E001E008703B
:104D300014E01148008841F2680188420EDD0E48F7
:104D4000008841F25C21884208DA0A48007840F085
:104D5000800008490870002009490870054800785B
:104D600020F010000349087010BD0000000402404C
:104D7000909F0020680000206A0000206C00002046
:104D8000700000202DE9F04104460D46164600BF94
:104D900094F83800012802D10220BDE8F0810120FA
:104DA00084F8380000BF022084F8390096B9EB6817
:104DB000D5E90012206803F0CFFE2068806920F05A
:104DC0000C002168886120688069A968084321680F
:104DD00088613DE0042E13D1EB68D5E9001220680C
:104DE00003F006FF2068806920F440602168886134
:104DF00020688069A96840EA01202168886127E06D
:104E0000082E12D1EB68D5E90012206803F00FFFDD
:104E10002068C06920F00C002168C8612068C06962
:104E2000A96808432168C86112E0EB68D5E900125F
:104E3000206803F01AFF2068C06920F440602168F0
:104E4000C8612068C069A96840EA01202168C8617A
:104E5000012084F8390000BF002084F8380000BF2A
:104E600000BF9AE710B504460CB9012010BD94F8B4
:104E7000390028B9002084F83800204600F00CF8EA
:104E8000022084F83900211D206803F0E5FD01208F
:104E900084F839000020E9E710B586B004461421F3
:104EA00001A8FBF798FA1C492068884232D100BF5C
:104EB000002000901948006840F00200174908607F
:104EC0000846006800F00200009000BF00BF00BF6D
:104ED0000020009011481038006840F002000F498F
:104EE000103908600846006800F00200009000BF1A
:104EF00000BF022001900290012003900220049044
:104F0000059001A90648FCF7DBFD00220F211D20BA
:104F1000FDF7D7FE06B010BD000400404038024047
:104F20000004024030B504460D4635B1042D0BD0C7
:104F3000082D10D00C2D1CD114E02068C06840F062
:104F400002002168C86015E02068C06840F00400D5
:104F50002168C8600EE02068C06840F00800216841
:104F6000C86007E02068C06840F010002168C86091
:104F700000E000BF00BF01222946206803F0DEFDEB
:104F80002068006840F0010021680860002030BD02
:104F900010B5044620680069C0F34000D8B120680D
:104FA000C068C0F34000B0B16FF002002168086132
:104FB000012020762068806900F0030018B12046A7
:104FC000FFF732FE05E0204600F0ADF8204600F085
:104FD000ABF80020207620680069C0F38000D8B1CB
:104FE0002068C068C0F38000B0B16FF00400216891
:104FF0000861022020762068806900F4407018B1B2
:105000002046FFF711FE05E0204600F08CF8204610
:1050100000F08AF80020207620680069C0F3C00004
:10502000D8B12068C068C0F3C000B0B16FF008000C
:1050300021680861042020762068C06900F0030020
:1050400018B12046FFF7F0FD05E0204600F06BF8B0
:10505000204600F069F80020207620680069C0F33F
:105060000010D8B12068C068C0F30010B0B16FF074
:10507000100021680861082020762068C06900F4CB
:10508000407018B12046FFF7CFFD05E0204600F044
:105090004AF8204600F048F8002020762068006991
:1050A00000F0010058B12068C06800F0010030B184
:1050B0006FF0010021680861204600F037F8206891
:1050C0000069C0F3C01058B12068C068C0F3C010B8
:1050D00030B16FF08000216808612046FFF7A1FD24
:1050E00020680069C0F3801058B12068C068C0F320
:1050F000801030B16FF0400021680861204600F058
:1051000075F820680069C0F3401058B12068C06885
:10511000C0F3401030B16FF02000216808612046D4
:10512000FFF780FD10BD704770470000184A016806
:1051300091422BD11749097801F0800131B315490B
:10514000097821F01001134A11701146097801F015
:105150000F0121B91146097841F0400111700D4944
:10516000097801F00F010E2905DA0A490978491C6E
:10517000084A11700AE00749097821F08001054AC0
:1051800011701146097801F0F001117070470000AC
:1051900000040040680000200246002300BF92F88F
:1051A0003800012801D102207047012082F8380020
:1051B00000BF31B1042907D0082908D00C290CD12F
:1051C00008E01068436B09E01068836B06E0106824
:1051D000C36B03E01068036C00E000BF00BF00BFBA
:1051E000002082F8380000BF1846DDE7704770479E
:1051F0002DE9F0470446206805682068C6682068E5
:1052000047694FF00008C14605F00F08B8F1000FDC
:105210000AD105F0200038B106F0200020B1204668
:1052200003F06DFDBDE8F087B8F1000F6DD007F019
:10523000010018B906F49070002866D005F001004E
:1052400030B106F4807018B1E06B40F00100E0630B
:1052500005F0040030B107F0010018B1E06B40F038
:105260000200E06305F0020030B107F0010018B160
:10527000E06B40F00400E06305F0080030B107F097
:10528000010018B1E06B40F00800E063E06B68B328
:1052900005F0200028B106F0200010B1204603F0F0
:1052A0002EFD20684069C0F38019E06B00F0080013
:1052B00010B9B9F1000F22D0204603F000FD20689C
:1052C000406900F04000B0B12068406920F0400023
:1052D00021684861606B50B11748616B0865606B6D
:1052E000FCF7C8F910B1606B016D88470CE02046EF
:1052F000FFF77DFF08E02046FFF779FF04E0204636
:10530000FFF775FF0020E0638CE705F0800030B107
:1053100006F0800018B1204603F0F2FE82E705F0A7
:10532000400030B106F0400018B1204603F0D7FC31
:1053300078E700BF76E70000AB8C010810B50446A3
:105340000CB9012010BDA06900B100E000BF94F8C5
:10535000390028B9002084F83800204600F028F8E9
:10536000242084F839002068C06820F400502168A7
:10537000C860204603F010FD2068006920F49040CA
:10538000216808612068406920F02A00216848618E
:105390002068C06840F400502168C8600020E063C5
:1053A000202084F8390084F83A000020CAE7000081
:1053B00010B586B00446142101A8FBF70CF85F492C
:1053C0002068884231D100BF002000905C4800680E
:1053D00040F010005A4908600846006800F01000CC
:1053E000009000BF00BF00BF002000905448143858
:1053F000006840F00100524914390860084600680E
:1054000000F00100009000BF00BF4FF4C0600190A9
:1054100002200290012003900320049007200590B1
:1054200001A94848FCF74CFB86E0474920688842C0
:105430003ED100BF002000904148006840F02000AD
:105440003F4908600846006800F02000009000BF57
:1054500000BF00BF0020009039481438006840F0B9
:1054600004003749143908600846006800F0040059
:10547000009000BF00BFC0200190022002900120D8
:105480000390032004900820059001A92F48FCF701
:1054900017FB03220F214720FDF713FC4720FDF7E0
:1054A00003FC2068C06840F020002168C86043E029
:1054B0002749206888423FD100BF00200090204843
:1054C000001F006840F400301D49091F08600846AD
:1054D000006800F40030009000BF00BF00BF002053
:1054E000009017481438006840F008001449143937
:1054F00008600846006800F00800009000BF00BF88
:10550000602001900220029001200390032004906B
:105510000720059001A90F48FCF7D2FA00220F21BD
:105520002620FDF7CEFB2620FDF7BEFB2068C068D5
:1055300040F020002168C86006B010BD0010014096
:1055400044380240000002400014014000080240BC
:1055500000440040000C024070472DE9F843044627
:105560000D4616461F464FF0000994F839002028D2
:105570005CD105B116B90120BDE8F88300BF94F8ED
:105580003800012801D10220F6E7012084F8380014
:1055900000BF0020E063212084F83900FCF7ACFB59
:1055A0008146A684E6842BE0E08C401EE084A0685F
:1055B000B0F5805F16D14B4600228021204600972F
:1055C00003F0D2FD08B10320D6E7A846B8F80000E2
:1055D000C0F3080021684860206908B9AD1C0FE0DD
:1055E0006D1C0DE04B46002280212046009703F001
:1055F000BBFD08B10320BFE715F8010B2168486027
:10560000E08C0028D0D14B46002240212046009754
:1056100003F0AAFD08B10320AEE7202084F839008A
:1056200000BF002084F8380000BFA5E70220A3E7F0
:105630007047014608684069C0F3802088B16FF464
:1056400080600A68506104200864002008632020FC
:1056500081F83D0000BF002081F83C0000BF012020
:1056600070470020FCE700002DE9F84304460D4692
:1056700090461E46E76A2068006840F48060216812
:105680000860042F04D0012F02D017F5803F06D107
:105690002068006840F480702168086008E0206B92
:1056A000112805D12068006840F4807021680860E6
:1056B000434600224FF001112046009600F013FAF5
:1056C00010B10320BDE8F8832069B0F5804F05D103
:1056D000E8B240F001002168086149E005F440703B
:1056E000F02141EAE0102168086133464246294929
:1056F000204600F036FA30B1206C042801D1012098
:10570000E0E70320DEE7E8B221680861334642465D
:105710002049891F204600F024FA30B1206C04286B
:1057200001D10120CEE70320CCE700BF002000908C
:1057300020684069009020688069009000BF00BF29
:105740002068006840F480702168086043460022A9
:105750004FF001112046009600F0C5F908B1032072
:10576000B0E705F44070F12141EAE01021680861DA
:10577000334642460749891F204600F0F2F930B10E
:10578000206C042801D101209CE703209AE7002027
:1057900098E70000080001002DE9F84304460D4693
:1057A00017469846E66A042E04D0012E02D016F55C
:1057B000803F06D12068006840F48070216808604E
:1057C00008E0206B122805D12068006840F4807042
:1057D000216808603B4600224FF001112046CDF8B9
:1057E000008000F080F910B10320BDE8F883206943
:1057F000B0F5804F04D105F0FE002168086117E084
:1058000005F44070F02141EAE01021680861434648
:105810003A461049204600F0A4F930B1206C042823
:1058200001D10120E1E70320DFE7E8B22168086148
:1058300043463A460749891F204600F092F930B1A5
:10584000206C042801D10120CFE70320CDE7002000
:10585000CBE70000080001002DE9F84304460F469D
:1058600015469946DDE908862068006840F48060A6
:10587000216808602068006840F480702168086032
:10588000434600224FF001112046009600F02BF90C
:1058900010B10320BDE8F88307F0FE00216808611D
:1058A000334642464149204600F05BF930B1206C56
:1058B000042801D10120EDE70320EBE700BF002021
:1058C000009020684069009020688069009000BFC7
:1058D00000BF32464146204600F0D0F960B1206C4E
:1058E000042807D12068006840F40070216808602F
:1058F0000120CFE70320CDE7B9F1010F03D1E8B2D2
:105900002168086119E0C5F3072021680861324663
:105910004146204600F0B2F960B1206C042807D15E
:105920002068006840F40070216808600120B1E739
:105930000320AFE7E8B221680861324641462046BD
:1059400000F09CF960B1206C042807D12068006841
:1059500040F400702168086001209BE7032099E76C
:105960002068006840F48070216808604346002287
:105970004FF001112046009600F0B5F808B1032061
:1059800088E7F8B240F001002168086133464246DA
:105990000649204600F0E5F830B1206C042801D11A
:1059A000012077E7032075E7002073E7020001007C
:1059B0002DE9F8430446884615469946DDE908670F
:1059C0002068006840F48070216808603346002237
:1059D0004FF001112046009700F085F810B1032028
:1059E000BDE8F88308F0FE00216808613B463246B6
:1059F0002649204600F0B5F830B1206C042801D1CA
:105A00000120EDE70320EBE700BF002000902068B5
:105A10004069009020688069009000BF00BF3A464E
:105A20003146204600F02AF960B1206C042807D1E5
:105A30002068006840F40070216808600120CFE70A
:105A40000320CDE7B9F1010F03D1E8B22168086165
:105A500019E0C5F30720216808613A46314620461F
:105A600000F00CF960B1206C042807D120680068B0
:105A700040F40070216808600120B1E70320AFE71F
:105A8000E8B2216808610020AAE7000002000100D6
:105A900070B504460D4616461DE02046FFF7C9FDC9
:105AA00008B1012070BD681CA8B125B1FCF724F92C
:105AB000801BA8420FD9206C40F0200020640020F9
:105AC0002063202084F83D0000BF002084F83C00C3
:105AD00000BF0320E6E720684069C0F3800000288B
:105AE000DBD00020DEE72DE9F04104460D461746E5
:105AF0001E46DDF8188017E0701CA8B12EB1FCF727
:105B0000FBF8A0EB0800B0420ED900202063202053
:105B100084F83D00002084F83E0000BF84F83C007B
:105B200000BF0320BDE8F081C5F3074001280AD17A
:105B300020684069A9B20840A9B2884201D1012079
:105B40000BE0002009E020688069A9B20840A9B2F2
:105B5000884201D1012000E00020B842CCD00020D2
:105B6000E0E72DE9F04104460D4616461F4631E0B8
:105B700020684069C0F38020C0B12068006840F40C
:105B80000070216808606FF480602168486104201B
:105B9000206400202063202084F83D0000BF002006
:105BA00084F83C0000BF0120BDE8F081701C88B182
:105BB00026B1FCF7A1F8C01BB0420BD9002020632E
:105BC000202084F83D0000BF002084F83C0000BF86
:105BD0000320E9E7C5F3074001280AD1206840699E
:105BE000A9B20840A9B2884201D101200BE00020EF
:105BF00009E020688069A9B20840A9B2884201D1B1
:105C0000012000E000200028B2D00020CCE770B5D1
:105C100004460D46164629E020684069C0F300108E
:105C200080B16FF01000216848610020206420637B
:105C3000202084F83D0000BF002084F83C0000BF15
:105C4000012070BD25B1FCF757F8801BA8420DD983
:105C5000206C40F020002064202084F83D0000BF2C
:105C6000002084F83C0000BF0320EAE72068406978
:105C7000C0F380100028CFD00020E2E770B50446C2
:105C80000D4616461DE02046FFF7D3FC08B1012063
:105C900070BD681CA8B125B1FCF72EF8801BA84286
:105CA0000FD9206C40F020002064002020632020C9
:105CB00084F83D0000BF002084F83C0000BF0320B2
:105CC000E6E720684069C0F3C0100028DBD0002060
:105CD000DEE7000010B580210348FBF7FFFF08B99D
:105CE000002010BD0120FCE7000C0240012070479D
:105CF00010B504210348FBF7F1FF08B9002010BDDF
:105D00000120FCE7001C024010B501210448FBF70C
:105D1000E5FF012801D1002010BD0120FCE70000B3
:105D20000000024000B587B0142102A8FAF753FB27
:105D300000BF00200190FE48006840F00400FC49CC
:105D400008600846006800F00400019000BF00BF32
:105D500000BF002001900846006840F00100086084
:105D60000846006800F00100019000BF00BF00BFBE
:105D7000002001900846006840F0020008600846D4
:105D8000006800F00200019000BF00BF8020029078
:105D90000120039004900320059002A9E548FBF739
:105DA0008FFE3020029002A9E348FBF789FE012014
:105DB000029002A9E148FBF783FE01228021DD4821
:105DC000FBF794FF02200CF0E9FF00228021D94864
:105DD000FBF78CFF02200CF0E1FF01228021D54867
:105DE000FBF784FF14200CF0D9FF4FF4704003F050
:105DF0004FFA552003F06EFA4FF2010003F048FA13
:105E0000AA2003F067FA4FF2020003F041FA522091
:105E100003F060FA4FF2030003F03AFA082003F0AF
:105E200059FA4FF2040003F033FA012003F052FA5A
:105E30004FF4304003F02CFA0D2003F04BFA4BF2F4
:105E4000010003F025FA0D2003F044FA4BF20200A2
:105E500003F01EFA0D2003F03DFA4FF4364003F034
:105E600017FA342003F036FA4BF2016003F010FA0F
:105E7000342003F02FFA4BF2026003F009FA3420C9
:105E800003F028FA4FF4314003F002FA0D2003F03A
:105E900021FA4BF2011003F0FBF90D2003F01AFA7E
:105EA0004BF2021003F0F4F90D2003F013FA4FF453
:105EB000374003F0EDF9342003F00CFA4BF2017097
:105EC00003F0E6F9342003F005FA4BF2027003F018
:105ED000DFF9342003F0FEF94FF4324003F0D8F933
:105EE000002003F0F7F94BF2012003F0D1F9002074
:105EF00003F0F0F94BF2022003F0CAF9002003F09E
:105F0000E9F94FF4384003F0C3F9242003F0E2F933
:105F10004BF6010003F0BCF9242003F0DBF94BF64B
:105F2000020003F0B5F9242003F0D4F94FF43F4008
:105F300003F0AEF9012003F0CDF94FF4334003F044
:105F4000A7F90F2003F0C6F94BF2013003F0A0F9D6
:105F50000F2003F0BFF94BF2023003F099F90F2044
:105F600003F0B8F94FF4394003F092F9342003F00C
:105F7000B1F94BF6011003F08BF9342003F0AAF9C4
:105F80004BF6021003F084F9342003F0A3F94FF428
:105F9000354003F07DF9082003F09CF94BF20150E5
:105FA00003F076F9082003F095F94BF2025003F064
:105FB0006FF9082003F08EF94FF4424003F068F9BE
:105FC000032003F087F94FF43A4003F061F92420ED
:105FD00003F080F94BF6012003F05AF9242003F076
:105FE00079F94BF6022003F053F9242003F072F9FB
:105FF0004FF43C4003F04CF9002003F06BF94BF6F2
:10600000014003F045F9782003F064F94BF60240B3
:1060100003F03EF9002003F05DF94FF43D4003F03A
:1060200037F9002003F056F94BF6015003F030F930
:10603000782003F04FF94BF6025003F029F90020C5
:1060400003F048F94FF43E4003F022F9002003F03A
:1060500041F94BF6016003F01BF9642003F03AF9B3
:106060004FF4514003F014F9002003F033F94DF2DE
:10607000011003F00DF9332003F02CF94DF202105A
:1060800003F006F9002003F025F94DF2031003F0A8
:10609000FFF8342003F01EF94DF2041003F0F8F875
:1060A000002003F017F94DF2051003F0F1F83A2043
:1060B00003F010F94DF2061003F0EAF8002003F0A7
:1060C00009F94DF2071003F0E3F84A2003F002F952
:1060D0004DF2081003F0DCF8002003F0FBF84DF25D
:1060E000091003F0D5F85C2003F0F4F84DF20A1023
:1060F00003F0CEF8002003F0EDF84DF20B1003F0A2
:10610000C7F8812003F0E6F84DF20C1003F0C0F858
:10611000002003F0DFF84DF20D1003F0B9F8A620CF
:1061200003F0D8F84DF20E1003F0B2F8002007E0AB
:1061300030380240000002400008024000040240E3
:1061400003F0C8F84DF20F1003F0A2F8E52003F0B9
:10615000C1F84DF2101003F09BF8012003F0BAF8DB
:106160004DF2111003F094F8132003F0B3F84DF240
:10617000121003F08DF8012003F0ACF84DF213106B
:1061800003F086F8542003F0A5F84DF2141003F044
:106190007FF8012003F09EF84DF2151003F078F817
:1061A000822003F097F84DF2161003F071F80120E9
:1061B00003F090F84DF2171003F06AF8CA2003F0CC
:1061C00089F84DF2181003F063F8022003F082F80A
:1061D0004DF2191003F05CF8002003F07BF84DF24B
:1061E0001A1003F055F8022003F074F84DF21B105A
:1061F00003F04EF8012003F06DF84DF21C1003F08F
:1062000047F8022003F066F84DF21D1003F040F845
:10621000342003F05FF84DF21E1003F039F802202D
:1062200003F058F84DF21F1003F032F8672003F026
:1062300051F84DF2201003F02BF8022003F04AF839
:106240004DF2211003F024F8842003F043F84DF2BE
:10625000221003F01DF8022003F03CF84DF2231049
:1062600003F016F8A42003F035F84DF2241003F0E3
:106270000FF8022003F02EF84DF2251003F008F875
:10628000B72003F027F84DF2261003F001F80220A2
:1062900003F020F84DF2271002F0FAFFCF2003F0B0
:1062A00019F84DF2281002F0F3FF022003F012F863
:1062B0004DF2291002F0ECFFDE2003F00BF84DF256
:1062C0002A1002F0E5FF022003F004F84DF22B1033
:1062D00002F0DEFFF22002F0FDFF4DF22C1002F082
:1062E000D7FF022002F0F6FF4DF22D1002F0D0FF92
:1062F000FE2002F0EFFF4DF22E1002F0C9FF032046
:1063000002F0E8FF4DF22F1002F0C2FF102002F061
:10631000E1FF4DF2301002F0BBFF032002F0DAFF84
:106320004DF2311002F0B4FF332002F0D3FF4DF2F2
:10633000321002F0ADFF032002F0CCFF4DF233101B
:1063400002F0A6FF6D2002F0C5FF4FF4524002F0AC
:106350009FFF002002F0BEFF4DF2012002F098FFE7
:10636000332002F0B7FF4DF2022002F091FF00202F
:1063700002F0B0FF4DF2032002F08AFF342002F059
:10638000A9FF4DF2042002F083FF002002F0A2FFDB
:106390004DF2052002F07CFF3A2002F09BFF4DF207
:1063A000062002F075FF002002F094FF4DF2072056
:1063B00002F06EFF4A2002F08DFF4DF2082002F03D
:1063C00067FF002002F086FF4DF2092002F060FF17
:1063D0005C2002F07FFF4DF20A2002F059FF0020FE
:1063E00002F078FF4DF20B2002F052FF812002F004
:1063F00071FF4DF20C2002F04BFF002002F06AFF0B
:106400004DF20D2002F044FFA62002F063FF4DF292
:106410000E2002F03DFF002002F05CFF4DF20F2045
:1064200002F036FFE52002F055FF4DF2102002F099
:106430002FFF012002F04EFF4DF2112002F028FF45
:10644000132002F047FF4DF2122002F021FF01203D
:1064500002F040FF4DF2132002F01AFF542002F028
:1064600039FF4DF2142002F013FF012002F032FF39
:106470004DF2152002F00CFF822002F02BFF4DF2AE
:10648000162002F005FF012002F024FF4DF2172034
:1064900002F0FEFECA2002F01DFF4DF2182002F0AD
:1064A000F7FE022002F016FF4DF2192002F0F0FE76
:1064B000002002F00FFF4DF21A2002F0E9FE022048
:1064C00002F008FF4DF21B2002F0E2FE012002F074
:1064D00001FF4DF21C2002F0DBFE022002F0FAFE6A
:1064E0004DF21D2002F0D4FE342002F0F3FE4DF2F6
:1064F0001E2002F0CDFE022002F0ECFE4DF21F2025
:1065000002F0C6FE672002F0E5FE4DF2202002F008
:10651000BFFE022002F0DEFE4DF2212002F0B8FEA6
:10652000842002F0D7FE4DF2222002F0B1FE0220BC
:1065300002F0D0FE4DF2232002F0AAFEA42002F0C9
:10654000C9FE4DF2242002F0A3FE022002F0C2FE9A
:106550004DF2252002F09CFEB72002F0BBFE4DF26A
:10656000262002F095FE022002F0B4FE4DF2272014
:1065700002F08EFECF2002F0ADFE4DF2282002F098
:1065800087FE022002F0A6FE4DF2292002F080FED6
:10659000DE2002F09FFE4DF22A2002F079FE02205A
:1065A00002F098FE4DF22B2002F072FEF22002F073
:1065B00091FE4DF22C2002F06BFE022002F08AFECA
:1065C0004DF22D2002F064FEFE2002F083FE4DF21B
:1065D0002E2002F05DFE032002F07CFE4DF22F2003
:1065E00002F056FE102002F075FE4DF2302002F04F
:1065F0004FFE032002F06EFE4DF2312002F048FE05
:10660000332002F067FE4DF2322002F041FE0320FB
:1066100002F060FE4DF2332002F03AFE6D2002F0EF
:1066200059FE4FF4534002F033FE002002F052FEB8
:106630004DF2013002F02CFE332002F04BFE4DF201
:10664000023002F025FE002002F044FE4DF203303D
:1066500002F01EFE342002F03DFE4DF2043002F046
:1066600017FE002002F036FE4DF2053002F010FE5B
:106670003A2002F02FFE4DF2063002F009FE002013
:1066800002F028FE4DF2073002F002FE4A2002F02E
:1066900021FE4DF2083002F0FBFD002002F01AFE50
:1066A0004DF2093002F0F4FD5C2002F013FE4DF2D1
:1066B0000A3002F0EDFD002002F00CFE4DF20B302E
:1066C00002F0E6FD812002F005FE4DF20C3002F0F2
:1066D000DFFD002002F0FEFD4DF20D3002F0D8FD8E
:1066E000A62002F0F7FD4DF20E3002F0D1FD0020A1
:1066F00002F0F0FD4DF20F3002F0CAFDE52002F08D
:10670000E9FD4DF2103002F0C3FD012002F0E2FD80
:106710004DF2113002F0BCFD132002F0DBFD4DF212
:10672000123002F0B5FD012002F0D4FD4DF213301D
:1067300002F0AEFD542002F0CDFD4DF2143002F017
:10674000A7FD012002F0C6FD4DF2153002F0A0FDBC
:10675000822002F0BFFD4DF2163002F099FD0120BB
:1067600002F0B8FD4DF2173002F092FDCA2002F09F
:10677000B1FD4DF2183002F08BFD022002F0AAFDAF
:106780004DF2193002F084FD002002F0A3FD4DF21D
:106790001A3002F07DFD022002F09CFD4DF21B300C
:1067A00002F076FD012002F095FD4DF21C3002F062
:1067B0006FFD022002F08EFD4DF21D3002F068FDEB
:1067C000342002F087FD4DF21E3002F061FD022000
:1067D00002F080FD4DF21F3002F05AFD672002F0FA
:1067E00079FD4DF2203002F053FD022002F072FDDF
:1067F0004DF2213002F04CFD842002F06BFD4DF291
:10680000223002F045FD022002F064FD4DF22330FB
:1068100002F03EFDA42002F05DFD4DF2243002F0B6
:1068200037FD022002F056FD4DF2253002F030FD1A
:10683000B72002F04FFD4DF2263002F029FD022074
:1068400002F048FD4DF2273002F022FDCF2002F089
:1068500041FD4DF2283002F01BFD022002F03AFD0E
:106860004DF2293002F014FDDE2002F033FD4DF22E
:106870002A3002F00DFD022002F02CFD4DF22B30EB
:1068800002F006FDF22002F025FD4DF22C3002F060
:10689000FFFC022002F01EFD4DF22D3002F0F8FC4C
:1068A000FE2002F017FD4DF22E3002F0F1FC032025
:1068B00002F010FD4DF22F3002F0EAFC102002F041
:1068C00009FD4DF2303002F0E3FC032002F002FD3E
:1068D0004DF2313002F0DCFC332002F0FBFC4DF2D3
:1068E000323002F0D5FC032002F0F4FC4DF23330DC
:1068F00002F0CEFC6D2002F0EDFC4FF4544002F0AB
:10690000C7FC002002F0E6FC4DF2014002F0C0FCA2
:10691000332002F0DFFC4DF2024002F0B9FC00200F
:1069200002F0D8FC4DF2034002F0B2FC342002F039
:10693000D1FC4DF2044002F0ABFC002002F0CAFC96
:106940004DF2054002F0A4FC3A2002F0C3FC4DF2E7
:10695000064002F09DFC002002F0BCFC4DF2074016
:1069600002F096FC4A2002F0B5FC4DF2084002F01D
:106970008FFC002002F0AEFC4DF2094002F088FCD2
:106980005C2002F0A7FC4DF20A4002F081FC0020DE
:1069900002F0A0FC4DF20B4002F07AFC812002F0E4
:1069A00099FC4DF20C4002F073FC002002F092FCC6
:1069B0004DF20D4002F06CFCA62002F08BFC4DF273
:1069C0000E4002F065FC002002F084FC4DF20F4006
:1069D00002F05EFCE52002F07DFC4DF2104002F07A
:1069E00057FC012002F076FC4DF2114002F050FC01
:1069F000132002F06FFC4DF2124002F049FC01201E
:106A000002F068FC4DF2134002F042FC542002F008
:106A100061FC4DF2144002F03BFC012002F05AFCF4
:106A20004DF2154002F034FC822002F053FC4DF28E
:106A3000164002F02DFC012002F04CFC4DF21740F4
:106A400002F026FCCA2002F045FC4DF2184002F08C
:106A50001FFC022002F03EFC4DF2194002F018FC2F
:106A6000002002F037FC4DF21A4002F011FC022027
:106A700002F030FC4DF21B4002F00AFC012002F053
:106A800029FC4DF21C4002F003FC022002F022FC23
:106A90004DF21D4002F0FCFB342002F01BFC4DF2D5
:106AA0001E4002F0F5FB022002F014FC4DF21F40E4
:106AB00002F0EEFB672002F00DFC4DF2204002F0E8
:106AC000E7FB022002F006FC4DF2214002F0E0FB61
:106AD000842002F0FFFB4DF2224002F0D9FB02209D
:106AE00002F0F8FB4DF2234002F0D2FBA42002F0AA
:106AF000F1FB4DF2244002F0CBFB022002F0EAFB56
:106B00004DF2254002F0C4FBB72002F0E3FB4DF24A
:106B1000264002F0BDFB022002F0DCFB4DF22740D4
:106B200002F0B6FBCF2002F0D5FB4DF2284002F078
:106B3000AFFB022002F0CEFB4DF2294002F0A8FB91
:106B4000DE2002F0C7FB4DF22A4002F0A1FB02203A
:106B500002F0C0FB4DF22B4002F09AFBF22002F053
:106B6000B9FB4DF22C4002F093FB022002F0B2FB85
:106B70004DF22D4002F08CFBFE2002F0ABFB4DF2FB
:106B80002E4002F085FB032002F0A4FB4DF22F40C3
:106B900002F07EFB102002F09DFB4DF2304002F02F
:106BA00077FB032002F096FB4DF2314002F070FBC0
:106BB000332002F08FFB4DF2324002F069FB0320DC
:106BC00002F088FB4DF2334002F062FB6D2002F0D0
:106BD00081FB4FF4554002F05BFB002002F07AFB92
:106BE0004DF2015002F054FB332002F073FB4DF2E2
:106BF000025002F04DFB002002F06CFB4DF20350FE
:106C000002F046FB332002F065FB4DF2045002F027
:106C10003FFB002002F05EFB4DF2055002F038FB16
:106C20003A2002F057FB4DF2065002F031FB0020F3
:106C300002F050FB4DF2075002F02AFB4A2002F00E
:106C400049FB4DF2085002F023FB002002F042FB0A
:106C50004DF2095002F01CFB5C2002F03BFB4DF2B0
:106C60000A5002F015FB002002F034FB4DF20B50ED
:106C700002F00EFB812002F02DFB4DF20C5002F0D1
:106C800007FB002002F026FB4DF20D5002F000FB46
:106C9000A62002F01FFB4DF20E5002F0F9FA002080
:106CA00002F018FB4DF20F5002F0F2FAE52002F06C
:106CB00011FB4DF2105002F0EBFA012002F00AFB3A
:106CC0004DF2115002F0E4FA132002F003FB4DF2F2
:106CD000125002F0DDFA012002F0FCFA4DF21350DE
:106CE00002F0D6FA542002F0F5FA4DF2145002F0F8
:106CF000CFFA012002F0EEFA4DF2155002F0C8FA78
:106D0000822002F0E7FA4DF2165002F0C1FA01209B
:106D100002F0E0FA4DF2175002F0BAFACA2002F07F
:106D2000D9FA4DF2185002F0B3FA022002F0D2FA6A
:106D30004DF2195002F0ACFA002002F0CBFA4DF2FD
:106D40001A5002F0A5FA022002F0C4FA4DF21B50CC
:106D500002F09EFA012002F0BDFA4DF21C5002F042
:106D600097FA022002F0B6FA4DF21D5002F090FAA6
:106D7000342002F0AFFA4DF21E5002F089FA0220E0
:106D800002F0A8FA4DF21F5002F082FA672002F0DA
:106D9000A1FA4DF2205002F07BFA022002F09AFA9A
:106DA0004DF2215002F074FA842002F093FA4DF271
:106DB000225002F06DFA022002F08CFA4DF22350BC
:106DC00002F066FAA42002F085FA4DF2245002F097
:106DD0005FFA022002F07EFA4DF2255002F058FAD6
:106DE000B72002F077FA4DF2265002F051FA022055
:106DF00002F070FA4DF2275002F04AFACF2002F06A
:106E000069FA4DF2285002F043FA022002F062FAC9
:106E10004DF2295002F03CFADE2002F05BFA4DF20E
:106E20002A5002F035FA022002F054FA4DF22B50AB
:106E300002F02EFAF22002F04DFA4DF22C5002F040
:106E400027FA022002F046FA4DF22D5002F020FA05
:106E5000FE2002F03FFA4DF22E5002F019FA032004
:106E600002F038FA4DF22F5002F012FA102002F020
:106E700031FA4DF2305002F00BFA032002F02AFAF8
:106E80004DF2315002F004FA332002F023FA4DF2B1
:106E9000325002F0FDF9032002F01CFA4DF233509B
:106EA00002F0F6F96D2002F015FA4FF4564002F0A8
:106EB000EFF9002002F00EFA4DF2016002F0E8F95D
:106EC000332002F007FA4DF2026002F0E1F90020EF
:106ED00002F000FA4DF2036002F0DAF9342002F019
:106EE000F9F94DF2046002F0D3F9002002F0F2F952
:106EF0004DF2056002F0CCF93A2002F0EBF94DF2C8
:106F0000066002F0C5F9002002F0E4F94DF20760D6
:106F100002F0BEF94A2002F0DDF94DF2086002F0FD
:106F2000B7F9002002F0D6F94DF2096002F0B0F98D
:106F30005C2002F0CFF94DF20A6002F0A9F90020BE
:106F400002F0C8F94DF20B6002F0A2F9812002F0C4
:106F5000C1F94DF20C6002F09BF9002002F0BAF981
:106F60004DF20D6002F094F9A62002F0B3F94DF253
:106F70000E6002F08DF9002002F0ACF94DF20F60C6
:106F800002F086F9E52002F0A5F94DF2106002F05A
:106F90007FF9012002F09EF94DF2116002F078F9BC
:106FA000132002F097F94DF2126002F071F90120FE
:106FB00002F090F94DF2136002F06AF9542002F0E9
:106FC00089F94DF2146002F063F9012002F082F9B0
:106FD0004DF2156002F05CF9822002F07BF94DF26F
:106FE000166002F055F9012002F074F94DF21760B5
:106FF00002F04EF9CA2002F06DF94DF2186002F06D
:1070000047F9022002F066F94DF2196002F040F9EA
:10701000002002F05FF94DF21A6002F039F9022007
:1070200002F058F94DF21B6002F032F9012002F033
:1070300051F94DF21C6002F02BF9022002F04AF9DE
:107040004DF21D6002F024F9342002F043F94DF2B4
:107050001E6002F01DF9022002F03CF94DF21F60A3
:1070600002F016F9672002F035F94DF2206002F0C7
:107070000FF9022002F02EF94DF2216002F008F91A
:10708000842002F027F94DF2226002F001F902207B
:1070900002F020F94DF2236002F0FAF8A42002F089
:1070A00019F94DF2246002F0F3F8022002F012F90F
:1070B0004DF2256002F0ECF8B72002F00BF94DF22A
:1070C000266002F0E5F8022002F004F94DF2276094
:1070D00002F0DEF8CF2002F0FDF84DF2286002F059
:1070E000D7F8022002F0F6F84DF2296002F0D0F84D
:1070F000DE2002F0EFF84DF22A6002F0C9F802201B
:1071000002F0E8F84DF22B6002F0C2F8F22002F033
:10711000E1F84DF22C6002F0BBF8022002F0DAF840
:107120004DF22D6002F0B4F8FE2002F0D3F84DF2DB
:107130002E6002F0ADF8032002F0CCF84DF22F6083
:1071400002F0A6F8102002F0C5F84DF2306002F00F
:107150009FF8032002F0BEF84DF2316002F098F87B
:10716000332002F0B7F84DF2326002F091F80320BC
:1071700002F0B0F84DF2336002F08AF86D2002F0B0
:10718000A9F84FF4704002F083F8552002F0A2F8FD
:107190004FF2010002F07CF8AA2002F09BF84FF2B7
:1071A000020002F075F8522002F094F84FF203004A
:1071B00002F06EF8082002F08DF84FF2040002F0A1
:1071C00067F8002002F086F84FF4334002F060F8D0
:1071D000002002F07FF84FF4354002F059F85020BB
:1071E00002F078F84FF4314002F052F8CC2002F06F
:1071F00071F84BF2011002F04BF8002002F06AF82F
:107200004FF4364002F044F8052002F063F84FF4E2
:10721000374002F03DF8702002F05CF84BF201704C
:1072200002F036F8702002F055F84FF4384002F0C2
:107230002FF8012002F04EF84BF6010002F028F87A
:10724000032002F047F84BF6020002F021F8032079
:1072500002F040F84BF6030002F01AF8032002F0A7
:1072600039F84FF43C4002F013F8022002F032F8F3
:107270004BF6014002F00CF8002002F02BF84BF620
:10728000024002F005F8002002F024F84FF44940D3
:1072900001F0FEFFD02002F01DF84CF6011001F0C5
:1072A000F7FF022002F016F84CF6021001F0F0FF92
:1072B000502002F00FF84CF6031001F0E9FF5020C7
:1072C00002F008F84CF6041001F0E2FF502002F042
:1072D00001F84FF4585001F0DBFF002001F0FAFFF5
:1072E0004FF4545001F0D4FF002001F0F3FF4FF4AD
:1072F000685001F0CDFF552001F0ECFF4FF48850AD
:1073000001F0C6FF78200BF049FD4FF4245001F046
:10731000BFFF0A200BF042FD4FF4305001F0B8FFE0
:1073200007B000BDF0B50023002400258E88076853
:10733000FF68C7F30B473E44330406688436802752
:1073400007FB0266766806F47047066884364FF0DD
:10735000800C0CFB026677600E680768FF68C7F355
:107360000B473E44761C1E43076884370CFB0277AC
:107370007E608E890768FF68C7F30A073E443304BE
:1073800006688436802707FB0266B66806F47047F5
:10739000066884360CFB0266B7608E680768FF6873
:1073A000C7F30A073E44761C1E43076884370CFB6C
:1073B0000277BE6006688436802707FB026636695E
:1073C00026F00707066884360CFB026637610F69F2
:1073D000066884360CFB026637613126765C330220
:1073E0003226765C34040E7E3506066884368027A5
:1073F00007FB0266B6690027066884360CFB026646
:10740000B76191F830601E4326432E4307688437E6
:107410000CFB0277BE6106688436802707FB026694
:10742000766926F0FF07066884360CFB02667761F2
:107430004F69066884360CFB0266776106688436FD
:10744000802707FB0266F76940F20776B7430668B4
:1074500084360CFB0266F761D1E907673E43076893
:1074600084370CFB0277FE6106688436802707FBB1
:107470000266B66A0027066884360CFB0266B762AD
:107480004F6A066884360CFB0266B7620E690EB955
:10749000042313E00E69012E01D103230EE00E69CF
:1074A000042E08D00E69022E05D00E69032E02D0DC
:1074B0000E69072E01D1022300E0012306688436FD
:1074C000802707FB0266F66A06F0E0270668843626
:1074D0004FF0800C0CFB0266F762D1E90076F61BD8
:1074E0005E43F71C0E8D5E4347EA06470668843606
:1074F0000CFB0266F76206688436802707FB02668B
:10750000366BF70AFF02066884360CFB02663763A7
:10751000CF6A066884360CFB0266376306688436D9
:10752000D701F65946F00107066884364FEAC21CB7
:1075300046F80C70F0BD00BFFEE7704702480068D7
:10754000C0F30220704700000CED00E010B50028E9
:1075500007DA0A07140E054A00F00F031B1FD45464
:1075600003E00A07130E024A135410BD18ED00E0A1
:1075700000E400E0014600BF080900EB8000420083
:1075800001F00F001044C0B270470146002203E032
:10759000521CA1F10A00C1B20A29F9D2100741EA2E
:1075A0001060704770B5044600252068C06800F080
:1075B0004000A0B9681E2168C860FAF79DFB054627
:1075C00007E0FAF799FB401BB0F57A7F01D9032059
:1075D00070BD2068C06800F040000028F1D0002095
:1075E000F6E710B5024600230868506248689062CA
:1075F000D1E9020420430C6920434C692043034332
:10760000D06A20F0F7001843D062002010BD014678
:107610000869C0B270470146086800F0030070476F
:1076200008B502460020009002F1140008440090C2
:107630000098006808BD000010B50248FCF790FDF6
:1076400010BD0000EC8800200FB410B504460021E6
:10765000DDE903021043059A1043069A1043079A86
:107660001043089A10430143606847F6FF62904355
:1076700008436060002010BC5DF814FB0146032045
:107680000860002070470146D1F88000704710B5AF
:107690000246002308689060D1E901042043CC68C9
:1076A00020430C6920430343D0686FF30B00184359
:1076B000D060002010BD02460868C2F8800000209B
:1076C000704770B586B005460C46002601943720F9
:1076D000029040200390002004904FF480600590B9
:1076E00001A92846FFF7D3FF41F288323721284607
:1076F00000F0EAF90646304606B070BD70B586B0B7
:1077000005460C4600260B48204301902920029094
:1077100040200390002004904FF48060059001A960
:107720002846FFF7B4FF284600F0CEFA064630465A
:1077300006B070BD0000108070B586B005460C46DE
:107740000026019410200290402003900020049015
:107750004FF48060059001A92846FFF798FF41F299
:1077600088321021284600F0AFF90646304606B0B0
:1077700070BD70B586B005460C4600260194062003
:10778000029040200390002004904FF48060059008
:1077900001A92846FFF77BFF41F2883206212846DF
:1077A00000F092F90646304606B070BD30B585B09F
:1077B00004460025002000900190029003904FF4B1
:1077C0008060049069462046FFF761FF204600F084
:1077D0005BF90546284605B030BD30B585B0044696
:1077E00000254FF4D57000900820019040200290B1
:1077F000002003904FF48060049069462046FFF714
:1078000046FF204600F0E0FA0546284605B030BDA8
:1078100070B586B005460C460026019412200290F1
:1078200040200390002004904FF48060059001A94F
:107830002846FFF72CFF41F288321221284600F03B
:1078400043F90646304606B070BD70B586B00546B1
:107850000C46002601941120029040200390002045
:1078600004904FF48060059001A92846FFF70FFFB0
:1078700041F288321121284600F026F906463046AA
:1078800006B070BDF0B585B0064614461D4600270B
:1078900000940720019040200290002003904FF4B4
:1078A0008060049069463046FFF7F1FE41F288326D
:1078B0000721304600F008F90746384605B0F0BD0C
:1078C00030B585B0044600250020009002200190CC
:1078D000C0200290002003904FF48060049069461D
:1078E0002046FFF7D4FE204600F0C0F905462846A2
:1078F00005B030BD70B586B005460C460026019433
:1079000009200290C0200390002004904FF4806072
:10791000059001A92846FFF7BAFE284600F0A6F90F
:107920000646304606B070BD30B585B00446002529
:10793000002000903320019040200290002003900E
:107940004FF48060049069462046FFF7A0FE41F2A4
:1079500088323321204600F0B7F80546284605B0A6
:1079600030BD70B586B005460C46002601940D204A
:10797000029040200390002004904FF48060059016
:1079800001A92846FFF783FE41F288320D212846DF
:1079900000F09AF80646304606B070BD70B586B065
:1079A00005460C460026002001900320029040204E
:1079B0000390002004904FF48060059001A92846B0
:1079C000FFF765FE22460321284600F0A5F906468A
:1079D000304606B070BD000030B585B004460025C5
:1079E000002000900C200190402002900020039085
:1079F0004FF48060049069462046FFF748FE044A31
:107A00000C21204600F060F80546284605B030BD40
:107A100000E1F50570B586B005460C4600260194D8
:107A20001920029040200390002004904FF48060C1
:107A3000059001A92846FFF72AFE41F28832192154
:107A4000284600F041F80646304606B070BD70B5D5
:107A500086B005460C46002601941820029040206E
:107A60000390002004904FF48060059001A92846FF
:107A7000FFF70DFE41F288321821284600F024F865
:107A80000646304606B070BD01460E480068C00884
:107A90004FF47A73B0FBF3F041F2883300FB03F24A
:107AA00000BF101EA2F1010202D14FF0004070474A
:107AB000486B00F080000028F3D040F2FF5088634C
:107AC0000020F4E7740000202DE9F04105460E4641
:107AD000174664480068C0084FF47A71B0FBF1F0B3
:107AE00000FB07F800BFB8F10000A8F1010803D1BE
:107AF0004FF00040BDE8F081686B00F045000028C1
:107B0000F1D0686B00F0040010B10420A863F1E725
:107B1000686B00F0010010B10120A863EAE7284675
:107B2000FFF775FDB04201D00120E3E740F2FF50BE
:107B3000A86300212846FFF773FD04464A48204009
:107B400008B90020D6E704F00040B0F1004F02D1A0
:107B50004FF00070CEE704F08040B0F1804F01D1CB
:107B60004020C7E704F00050B0F1005F01D1802051
:107B7000C0E704F08050B0F1805F02D14FF4807014
:107B8000B8E704F00060B0F1006F02D14FF400706C
:107B9000B0E704F08060B0F1806F02D14FF48060F4
:107BA000A8E704F08070B0F1807F02D14FF400604C
:107BB000A0E704F40000B0F5000F02D14FF48050AC
:107BC00098E704F48000B0F5800F02D14FF4005024
:107BD00090E704F40010B0F5001F02D14FF480408C
:107BE00088E704F48010B0F5801F02D14FF4004004
:107BF00080E704F48020B0F5802F02D14FF40030EC
:107C000078E704F40030B0F5003F02D14FF4802053
:107C100070E704F48030B0F5803F02D14FF40020CB
:107C200068E704F40040B0F5004F02D14FF4801033
:107C300060E704F48040B0F5804F02D14FF40010AB
:107C400058E704F40050B0F5005F02D14FF4800013
:107C500050E704F00800082801D100054AE74FF476
:107C6000803047E77400002008E0FFFD014615481A
:107C70000068C0084FF47A73B0FBF3F041F2883328
:107C800000FB03F200BF101EA2F1010202D14FF06F
:107C900000407047486B00F045000028F3D0486B67
:107CA00000F0040010B104208863F2E7486B00F094
:107CB000010010B101208863EBE740F2FF508863B8
:107CC0000020E6E774000020014612480068C00862
:107CD0004FF47A73B0FBF3F041F2883300FB03F208
:107CE00000BF101EA2F1010202D14FF00040704708
:107CF000486B00F045000028F3D0486B00F004000A
:107D000010B104208863F2E740F2FF50886300203E
:107D1000EDE70000740000202DE9F04104460E4616
:107D2000174628480068C0084FF47A71B0FBF1F09C
:107D300041F2883100FB01F800BFB8F10000A8F162
:107D4000010803D14FF00040BDE8F081606B00F006
:107D500045000028F1D0606B00F0040010B1042051
:107D6000A063F1E7606B00F0010010B10120A06397
:107D7000EAE72046FFF74BFCB04201D00120E3E7E1
:107D800040F2FF50A06300212046FFF749FC054662
:107D900005F4604018B9280C38800020D4E705F4B9
:107DA0008040B0F5804F02D14FF40050CCE705F48D
:107DB0000040B0F5004F02D14FF48050C4E74FF4BB
:107DC0008030C1E774000020014614480068C008F4
:107DD0004FF47A73B0FBF3F041F2883300FB03F207
:107DE00000BF101EA2F1010202D14FF00040704707
:107DF000486B00F045000028F3D0486B00F0040009
:107E000018B1402088630420F1E7486B00F040007F
:107E100008B1402088630020E9E7000074000020DA
:107E200010B586B004460020059001200190102076
:107E3000029001200390002004904FF4805201A989
:107E40002046FBF7F7FF6420F9F70EFE02200190B1
:107E50001020029001200390002004904FF48052E3
:107E600001A92046FBF7E6FF0320019010200290B5
:107E700008200390002004904FF4805201A920466E
:107E8000FBF7D8FF40F2312005900420019010202C
:107E9000029001200390059804904FF4805201A9AC
:107EA0002046FBF7C7FF40F2AB212046FBF7AEFFB1
:107EB00006B010BD10B50446012007490870F8F758
:107EC0007DFE28B90448007820F0010002490870BE
:107ED0000148007810BD0000500E002070B5044627
:107EE000F9F70AFF054604E0F8F768FE08B9002034
:107EF00070BDF9F701FF401BA042F5D34FF0FF30F2
:107F0000F6E770B50646B46BE06B406D012803D010
:107F1000206C406D01281ED140F2FF50216888631B
:107F20002068C06B20F49D702168C863A06B40F08E
:107F30008040A0632046FCF7FFF80546062D01D0DF
:107F4000052D05D12068FFF747FDA16B0843A0630D
:107F5000012084F834002046FBF7E2FF70BD70B5C5
:107F60000546AC6B0026206B82280AD12068FFF7FB
:107F700033FD06462EB1A06B3043A0632046FBF7CD
:107F8000CFFF2068C06A20F008002168C86240F274
:107F9000FF5021688863012084F834002046FCF7F4
:107FA000B5FB70BD70B50646B46BE06B08B1002040
:107FB000E063206CD8B92046FCF7BEF805460020E7
:107FC000A063012084F83400062D01D0052D0ED1C8
:107FD0002068FFF701FDA16B0843A063A06B18B1F7
:107FE0002046FBF744FF02E02046FBF799FF70BDF7
:107FF0000146886B0268D26B42F480720368DA63D0
:10800000704770B50646B46B206C08B10020206440
:10801000E06BD8B92046FCF78FF805460020A06336
:10802000012084F83400062D01D0052D0ED12068E2
:10803000FFF7D2FCA16B0843A063A06B18B12046E8
:10804000FBF715FF02E02046FBF76AFF70BD2DE944
:10805000F04188B004460E460025F9F74DFE8046F3
:10806000002700200090019008212068FFF764FBA2
:1080700005461DB1284608B0BDE8F0815022125BCC
:1080800011042068FFF71DFB05460DB12846F2E7F5
:108090004FF0FF300290082003903020049002201F
:1080A0000590002006900120079002A92068FFF7A4
:1080B00098FA2068FFF738FC05460DB12846DAE744
:1080C00013E02068406B00F4001028B12068FFF72F
:1080D000DAFA4DF827007F1CF9F70EFEA0EB080036
:1080E000401C10B94FF00040C5E72068406B40F2DB
:1080F0002A4108400028E4D02068406B00F00800C6
:1081000018B1082021688863B5E72068406B00F04B
:10811000020018B1022021688863ACE72068406B38
:1081200000F0200018B1202021688863A3E740F206
:10813000FF502168886300980006009901F47F4190
:1081400040EA0120009901F47F0140EA11200099E2
:1081500040EA1160706001980006019901F47F41C6
:1081600040EA0120019901F47F0140EA11200199C0
:1081700040EA1160306000207DE730B58FB00446E2
:108180000025012003902068FFF745FA18B94FF049
:1081900080600FB030BD606C03281BD02068FFF7F3
:1081A0008FFB05460DB12846F3E700212068FFF755
:1081B00037FA606704212068FFF732FAA0670821C8
:1081C0002068FFF72DFAE0670C212068FFF728FAF6
:1081D00080210851606C032807D003A92068FFF7AD
:1081E000DDFB05460DB12846D3E7606C032820D09F
:1081F000BDF80C1021655022125B11042068FFF7B6
:1082000079FB05460DB12846C3E700212068FFF73A
:1082100007FA606604212068FFF702FAA0660821C9
:108220002068FFF7FDF9E0660C212068FFF7F8F9F8
:10823000206704212068FFF7F3F9010DE16404A928
:108240002046FBF76EFE5020005B01040A46002327
:108250002068FFF717FB05460DB1284699E7D4E9DA
:108260000412A069CDE90012029094E80F00FFF714
:10827000EBF900208DE7F8B50446002000900026B9
:10828000002700252068FFF791FA05460DB1284622
:10829000F8BD2068FFF7A1FA05466DB30021A1647F
:1082A00025E00098411C00914FF6FF71884202D1F1
:1082B0004FF08070ECE700212068FFF702FA0546D6
:1082C00015B14FF08050E3E700212068FFF716FA60
:1082D000054615B14FF08050DAE700212068FFF71E
:1082E0009FF90646012080EAD67080F00107002F32
:1082F000D7D00020606433E00121A16424E000981D
:10830000411C00914FF6FF71884202D14FF08070FE
:10831000BEE700212068FFF7D4F905460DB12846D5
:10832000B6E74FF080412068FFF7E8F905460DB148
:108330002846ADE700212068FFF772F906460120C4
:1083400080EAD67080F00107002FD8D006F0804078
:10835000B0F1804F02D10120606401E00020606430
:10836000002095E770B504460025A66A00BF05E029
:108370002068FFF788F946F825006D1C082DF7D313
:10838000A06A2030A062002070BD70B504460D4682
:10839000002615B94FF0006070BD5022125B110429
:1083A0002068FFF7DEFA06460EB13046F4E70021FA
:1083B0002068FFF735F928600020EDE77CB504461A
:1083C000002000900190002500212068FFF728F987
:1083D00000F00070B0F1007F02D14FF400607CBD6E
:1083E00069462046FFF733FE05460DB12846F6E7FD
:1083F000019800F4803098B15022125B110420687B
:10840000FFF75FF905460DB12846E8E7002120682F
:10841000FFF7AFF905460DB12846E0E70020DEE79B
:108420004FF08060DBE77CB50446002000900190AF
:10843000002500212068FFF7F3F800F00070B0F18C
:10844000007F02D14FF400607CBD69462046FFF7F3
:10845000FEFD05460DB12846F6E7019800F48020A0
:1084600098B15022125B11042068FFF72AF90546E3
:108470000DB12846E8E702212068FFF77AF90546A2
:108480000DB12846E0E70020DEE74FF08060DBE733
:1084900070B504460025266A00BF05E006EB85019D
:1084A0002068FFF708F96D1C082DF7D3206A2030EB
:1084B0002062002070BD000010B50446F8F78AFB6A
:1084C00020B92046FFF7F6FC024908700148007801
:1084D00010BD0000500E0020F0B589B007460D46D3
:1084E000144601261648007800F0010010B1032060
:1084F00009B0F0BD35B1012D06D0022D0BD0032DF2
:1085000018D10FE0002617E001A8F8F74DFB0798F7
:108510002060002610E001A8F8F746FB08982080AC
:10852000002609E001A8F8F73FFB0898400A206000
:10853000002601E0042600BF00BF3046D8E7000057
:10854000500E00202DE9F04180460C4615461E468F
:108550000127324629462046F8F782FB074638466F
:10856000BDE8F08110B504462046FFF7A3FC10BD1E
:108570002DE9F04180460C4615461E46012732463D
:1085800029462046F8F706FC07463846BDE8F08144
:1085900070B50446002220211448F9F7A7FB0025F6
:1085A00021E004F0800028B1012211461048F9F7BB
:1085B0009DFB04E0002201210D48F9F797FB002202
:1085C00020210A48F9F792FB01200AF01DFC012244
:1085D00020210648F9F78AFB01200AF015FC600605
:1085E000040E681CC5B2082DDBDB70BD000802401C
:1085F00000040240F8B504460D4616462B460022FC
:1086000080212046009600F009F828B1606D40F006
:10861000200060650320F8BD0020FCE72DE9F04153
:1086200004460E4617461D46DDF818803FE0681CDC
:10863000E0B32DB1F9F760FBA0EB0800A84236D3F8
:108640002068406820F0E000216848606068B0F56C
:10865000827F0DD1A068B0F5004F03D0A068B0F5BF
:10866000806F05D12068006820F040002168086014
:10867000A06AB0F5005F0ED100BF206800684DF61B
:10868000FF710840216808602068006840F40050CD
:108690002168086000BF012084F8510000BF00205D
:1086A00084F8500000BF0320BDE8F081FFE7206898
:1086B00080683040B04201D1012000E00020B84283
:1086C000B5D10020F0E7704710B530F0E5FAFAF7C1
:1086D000F5F801202CF0D8FA31F0D2FC30F0FAFA9B
:1086E00010BD000000B5ABB030211FA8F7F773FE36
:1086F00014211AA8F7F76FFE30210EA8F7F76BFECA
:10870000302102A8F7F767FE00BF0020019034482F
:10871000006840F08050324908600846006800F068
:108720008050019000BF00BF00BF002001902D4885
:10873000006840F440402B4908600846006800F497
:108740004040019000BF00BF05201F904FF48030D3
:108750002090012021900220259041051FA8C16191
:10876000192101624FF4C071416202218162082126
:10877000C162FAF70BFE08B1F8F73EFCFAF716FBF8
:1087800008B1F8F739FC0F201A9002201B90002046
:108790001C904FF4A0501D904FF480501E90052166
:1087A0001AA8FAF7B5FC08B1F8F726FC08200E90D5
:1087B0008420129002211491002017900EA8FAF73D
:1087C0003BFB08B1F8F718FC20200290C0000C9089
:1087D00002A8FAF731FB08B1F8F70EFC2BB000BD88
:1087E000403802400070004000B5ABB030211FA8F7
:1087F000F7F7F1FD14211AA8F7F7EDFD30210EA8C7
:10880000F7F7E9FD302102A8F7F7E5FD00BF0020EA
:1088100001903448006840F08050324908600846B2
:10882000006800F08050019000BF00BF00BF002032
:1088300001902D48006840F440402B4908600846EC
:10884000006800F44040019000BF00BF05201F9069
:108850004FF4803020900120219002202590410586
:108860001FA8C1610F2101624FF490714162022182
:1088700081620A21C162FAF789FD08B1F8F7BCFBF1
:10888000FAF794FA08B1F8F7B7FB0F201A90022014
:108890001B9000201C904FF4A0501D904FF480506E
:1088A0001E9005211AA8FAF733FC08B1F8F7A4FBCB
:1088B00008200E904E201290022114910020179053
:1088C0000EA8FAF7B9FA08B1F8F796FB2020029043
:1088D000C0000C9002A8FAF7AFFA08B1F8F78CFBC9
:1088E0002BB000BD403802400070004000B5ABB076
:1088F00030211FA8F7F76FFD14211AA8F7F76BFDB9
:1089000030210EA8F7F767FD302102A8F7F763FDC5
:1089100000BF002001902748006840F080502549A2
:1089200008600846006800F08050019000BF00BF5A
:1089300000BF002001902048006840F440401E49DC
:1089400008600846006800F44040019000BF00BF86
:1089500002201F90012022900020259000211FA8B6
:10896000C161192101624FF4C0714162022181622B
:108970000821C162FAF70AFD08B1F8F73DFBFAF7E2
:1089800015FA08B1F8F738FB0F201A9002201B9057
:1089900000201C904FF4A0501D904FF480501E906A
:1089A00005211AA8FAF7B4FB08B1F8F725FB2BB09C
:1089B00000BD0000403802400070004014480068CC
:1089C00040F47000124908601248006840F001004D
:1089D0001049086000200F49083108600D48006800
:1089E0000D4908400B4908600C48091D0860081F24
:1089F000006820F48020091F0860002005490C3120
:108A000008604FF00060024980390860704700003C
:108A100088ED00E000380240FFFFF6FE1030002431
:108A200010B50248FCF7B4FA10BD0000909F00207A
:108A300010B50848006800F0010020B10FF070FB8D
:108A400008B10FF085FB0348006820F001000149E0
:108A5000086010BD10080040002202682C4B9842AC
:108A60000ED0B0F1804F0BD02A4B984208D02A4B41
:108A7000984205D0294B984202D0294B984201D107
:108A8000012300E000231BB122F070024B681A435F
:108A90001F4B984220D0B0F1804F1DD01D4B984203
:108AA0001AD01D4B984217D01C4B984214D01C4B27
:108AB000984211D01B4B98420ED01B4B98420BD0C2
:108AC0001A4B984208D01A4B984205D0194B98423D
:108AD00002D0194B984201D1012300E000231BB1C1
:108AE00022F44072CB681A4302608B68C3620B6841
:108AF0008362074B984202D0094B984201D101236F
:108B000000E000230BB10B6903630123436170474D
:108B1000000001400004004000080040000C00403C
:108B20000004014000400140004401400048014071
:108B300000180040001C00400020004030B5002319
:108B4000012404FA01F3046A9C430462046A02FAF1
:108B500001F52C43046230BD70B50C46154600216A
:108B60000022066A26F0010606628169026A194E31
:108B7000B04214D0B0F1804F11D0174EB0420ED099
:108B8000164EB0420BD0164EB04208D0154EB04231
:108B900005D0154EB04202D0144EB04201D101268C
:108BA00000E000261EB121F00301294303E021F07B
:108BB000030141F0010121F0F001F02606EA03165D
:108BC000314322F00A0204F00A0632438161026254
:108BD00070BD00000000014000040040000800409B
:108BE000000C00400004014000400140001800401B
:108BF00070B50C46154600210022066A26F01006C4
:108C000006628169026A21F4407141EA052121F47A
:108C100070414FF4704606EA0336314322F0A00259
:108C2000A02606EA041632438161026270BD70B567
:108C30000C46154600210022066A26F4807606625C
:108C4000C169026A21F00301294321F0F001F026F5
:108C500006EA0316314322F420624FF4206606EA46
:108C600004263243C161026270BD70B50C461546E0
:108C700000210022066A26F480560662C169026A53
:108C800021F4407141EA052121F470414FF470460E
:108C900006EA0336314322F420424FF4204606EA26
:108CA00004363243C161026270BD70B50546AC6BDB
:108CB0000020E085E0842046FCF799FA70BD016849
:108CC000C96821F490710268D1600168496921F096
:108CD000010102685161202180F83A10704710B5F7
:108CE00004462068C06820F040002168C860202049
:108CF00084F839002046FCF79BFC002010BD70B5BD
:108D0000044694F83A00222844D1A068B0F5805F68
:108D100013D1A56A206940B920684068C0F30800F3
:108D20002880A06A801CA06219E020684068C0B258
:108D30002880A06A401CA06211E0206938B9206830
:108D40004068C1B2A26A501CA062117007E020689E
:108D5000406800F07F01A26A501CA0621170E08D93
:108D6000401E80B2E08598B92068C06820F49070F9
:108D70002168C8602068406920F0010021684861CE
:108D8000202084F83A002046FCF7E6FB002070BD66
:108D90000020FCE70220FAE72DE9F0410446002517
:108DA0002068056925F44055E068054320680561A1
:108DB0002068C56849F20C6085432169A0680843B2
:108DC00061690843E169084305432068C56020687C
:108DD000456925F44075A069054320684561E0694F
:108DE000B0F5004F7ED1C4492068884203D0C34902
:108DF000206888425DD1FAF761FA00EBC00101EB0F
:108E0000001061684900B0FBF1F06421B0FBF1F0A3
:108E10000601FAF753FA00EBC00101EB001061689C
:108E20004900B0FBF1F7FAF749FA00EBC00101EB9A
:108E3000001061684900B0FBF1F06421B0FBF1F073
:108E400000EBC00101EB0010A7EB8000322101EB29
:108E5000C0006421B0FBF1F000F0F80006EB400622
:108E6000FAF72CFA00EBC00101EB00106168490031
:108E7000B0FBF1F7FAF722FA00EBC00101EB0010AA
:108E800061684900B0FBF1F06421B0FBF1F000EB48
:108E9000C00101EB0010A7EB8000322101EBC00004
:108EA0006421B0FBF1F000F00700304421688860D5
:108EB00020E1FAF7F3F900EBC00101EB0010616863
:108EC0004900B0FBF1F06421B0FBF1F00601FAF7C4
:108ED000E5F900EBC00101EB001061684900B0FB4F
:108EE000F1F700E045E0FAF7D9F900EBC00101EB3A
:108EF000001061684900B0FBF1F06421B0FBF1F0B3
:108F000000EBC00101EB0010A7EB8000322101EB68
:108F1000C0006421B0FBF1F000F0F80006EB400661
:108F2000FAF7BCF900EBC00101EB001061684900E1
:108F3000B0FBF1F7FAF7B2F900EBC00101EB00105A
:108F400061684900B0FBF1F06421B0FBF1F000EB87
:108F5000C00101EB0010A7EB8000322101EBC00043
:108F60006421B0FBF1F000F0070030442168886014
:108F7000C0E061492068884203D060492068884287
:108F80005CD1FAF79BF900EBC00101EB00106168BE
:108F90008900B0FBF1F6FAF791F900EBC00101EBA3
:108FA000001061688900B0FBF1F06421B0FBF1F0C2
:108FB00000EBC00101EB0010A6EB8000322101EBB9
:108FC00000106421B0FBF1F000F0F006FAF776F93A
:108FD00000EBC00101EB001061688900B0FBF1F00B
:108FE0006421B0FBF1F006EB0016FAF767F900EB2D
:108FF000C00101EB001061688900B0FBF1F7FAF7DE
:109000005DF900EBC00101EB001061688900B0FB65
:10901000F1F06421B0FBF1F000EBC00101EB0010B6
:10902000A7EB8000322101EB00106421B0FBF1F0CE
:1090300000F00F003044216888605BE0FAF72EF9F9
:1090400000EBC00101EB001061688900B0FBF1F694
:10905000FAF724F900EBC00101EB00106168890008
:10906000B0FBF1F06421B0FBF1F000EBC00101EBCB
:109070000010A6EB8000322101EB00106421B0FB50
:10908000F1F000F0F006FAF709F900EBC00101EB8E
:10909000001061688900B0FBF1F06421B0FBF1F0D1
:1090A00006EB0016FAF7FAF800EBC00101EB00102E
:1090B00061688900B0FBF1F7FAF7F0F800EBC00146
:1090C00001EB001061688900B0FBF1F06421B0FB96
:1090D000F1F000EBC00101EB0010A7EB80003221A2
:1090E00001EB00106421B0FBF1F000F00F00304400
:1090F00021688860BDE8F081001001400014014043
:10910000014691F8390021282CD18868B0F5805F9C
:109110000FD10A6A1088C0F308000B68586008690C
:1091200018B9086A801C086209E0086A401C0862D5
:1091300005E00B6A581C086218780B685860C88CE8
:10914000401E80B2C88458B90868C06820F080000A
:109150000B68D8600868C06840F040000B68D860B1
:10916000002070470220FCE72DE9F04104460D463F
:1091700017469846069E21E0701CF8B12EB1F8F70C
:10918000BBFDA0EB0800B04218D92068C06820F4ED
:10919000D0702168C8602068406920F00100216813
:1091A0004861202084F8390084F83A0000BF00208C
:1091B00084F8380000BF0320BDE8F0812068006813
:1091C0002840A84201D1012000E00020B842D3D0BD
:1091D0000020F1E710B52FF05FFD034835F07CF873
:1091E0002FF078FD10BD00003C9C022008B511480E
:1091F00000680068C0F3401028B10F490968C8B280
:1092000035F042FA12E00B4800680068C0F3001025
:1092100060B100BF00200090064800680068009020
:10922000044800684068009000BF00BF0148FBF799
:10923000DFFF08BD248700200444004008B5114822
:1092400000680068C0F3401028B10F490968C8B22F
:1092500035F01CFA12E00B4800680068C0F30010FB
:1092600060B100BF002000900648006800680090D0
:10927000044800684068009000BF00BF0148FBF749
:10928000B7FF08BDE48600200414014000BFFEE7DC
:1092900010B50446002210210D48F8F727FD0120E3
:1092A00009F0B2FD2020FFF773F92012FFF770F9E3
:1092B0000020FFF76DF9E0B2FFF76AF9012009F02D
:1092C000A3FD012210210248F8F710FD10BD000097
:1092D0000008024010B50446002210210A48F8F7A1
:1092E00005FD012009F090FD4020FFF751F92046CF
:1092F000FFF74EF9012009F087FD012210210248F5
:10930000F8F7F4FC10BD0000000802400FB4054B54
:1093100010B503A9044A029800F040FB10BC5DF8A8
:1093200014FB0000F1500208640E00200FB4084B3B
:1093300010B504A902AA039800F030FB044602A964
:10934000002000F07FFD204610BC5DF814FB0000FB
:10935000459E0108014609B900207047C8B220B1F6
:10936000C8B20E4A105C401CF7E701F47F4028B1F8
:109370000A48C1F30722805C0930EEE701F47F0060
:1093800028B10648C1F30742805C1130E5E7034885
:1093900000EB116000781930DFE700007EF205086D
:1093A00002E008C8121F08C1002AFAD170477047AE
:1093B000002001E001C1121F002AFBD1704700F01C
:1093C000010181F3138870472DE9F04782460C466E
:1093D0001E48408850B90821002000F074FA074662
:1093E0001A48396801607968416000BF17484088B1
:1093F000A04203D315480088A04202D90020BDE84E
:10940000F08712480088201A082101EB8006042109
:10941000304600F058FA05462868A0B12F680221AE
:10942000384600F050FA814699F801000749097959
:1094300010FB01F84FEAE87008EB5070C110B81C3F
:1094400000F041FADBE70020D9E700001006002019
:109450002DE9F04782460C461E48408850B9082145
:10946000002000F035FA07461A483968016079682B
:10947000416000BF17484088A04203D315480088C8
:10948000A04202D90020BDE8F08712480088201AC7
:10949000082101EB80060421304600F019FA054648
:1094A0002868A0B12F680221384600F011FA8146E1
:1094B00099F801000749097910FB01F84FEAE870B3
:1094C00008EB5070C110B81C00F002FADBE7002076
:1094D000D9E700002C0600202DE9F04782460C4613
:1094E0001E48408850B90821002000F0F7F90746CF
:1094F0001A48396801607968416000BF17484088A0
:10950000A04203D315480088A04202D90020BDE83C
:10951000F08712480088201A082101EB80060421F8
:10952000304600F0DBF905462868A0B12F6802211B
:10953000384600F0D3F9814699F8010007490979C6
:1095400010FB01F84FEAE87008EB5070C110B81C2E
:1095500000F0C4F9DBE70020D9E70000480600204E
:109560002DE9F04782460C461E48408850B9082134
:10957000002000F0B9F907461A4839680160796897
:10958000416000BF17484088A04203D315480088B7
:10959000A04202D90020BDE8F08712480088201AB6
:1095A000082101EB80060421304600F09DF90546B4
:1095B0002868A0B12F680221384600F095F981464D
:1095C00099F801000749097910FB01F84FEAE870A2
:1095D00008EB5070C110B81C00F086F9DBE70020E2
:1095E000D9E70000640600202DE9F04107460E4649
:1095F000FC68A0680068B04202D90020BDE8F08194
:10960000B2B2A368198A986806F0FAF90546681C90
:1096100040B1606800EBC50120680A68C2F313021C
:109620001044EBE70020E9E72DE9F04707460C4638
:1096300015469A461F48408860B90821002000F06E
:1096400042F981461B48D9F800100160D9F804108E
:10965000416000BF17484088A84203D315480088DE
:10966000A84202D90020BDE8F08712480088281AD5
:10967000082101EB80080421404600F024F9064649
:109680003068A0B10221306800F01DF9814699F8D8
:1096900000002080387AE07099F80100A070002066
:1096A0002071607103480079A0710120DBE7002080
:1096B000D9E70000100600202DE9F04707460C46C8
:1096C00015469A461F48408860B90821002000F0DE
:1096D000FFF881461B48D9F800100160D9F8041042
:1096E000416000BF17484088A84203D3154800884E
:1096F000A84202D90020BDE8F08712480088281A45
:10970000082101EB80080421404600F0E1F80646FC
:109710003068A0B10221306800F0DAF8814699F88B
:1097200000002080387AE07099F80100A0700020D5
:109730002071607103480079A0710120DBE70020EF
:10974000D9E700002C0600202DE9F04707460C461B
:1097500015469A461F48408860B90821002000F04D
:10976000BDF881461B48D9F800100160D9F80410F3
:10977000416000BF17484088A84203D315480088BD
:10978000A84202D90020BDE8F08712480088281AB4
:10979000082101EB80080421404600F09FF80646AE
:1097A0003068A0B10221306800F098F8814699F83D
:1097B00000002080387AE07099F80100A070002045
:1097C0002071607103480079A0710120DBE700205F
:1097D000D9E70000480600202DE9F04707460C466F
:1097E00015469A461F48408860B90821002000F0BD
:1097F0007BF881461B48D9F800100160D9F80410A5
:10980000416000BF17484088A84203D3154800882C
:10981000A84202D90020BDE8F08712480088281A23
:10982000082101EB80080421404600F05DF806465F
:109830003068A0B10221306800F056F8814699F8EE
:1098400000002080387AE07099F80100A0700020B4
:109850002071607103480079A0710120DBE70020CE
:10986000D9E70000640600202DE9F04780460C4649
:1098700017469946D8F80C50A8680068B84202D933
:109880000020BDE8F087BAB2AB68198A986806F084
:10989000B7F80646701CA0B1686800EBC6010868FE
:1098A000000D20804879E0700879A07088792071D7
:1098B000C87940B26071688AC0F38220A07101202B
:1098C000DFE70020DDE70246A2F17D50704700008F
:1098D00002460148104470478EDDCBC00246014865
:1098E000104470475AA8E0C002460148104470472F
:1098F000E8FA07C170B5044606480068FFF72AFD7C
:10990000451E054850F83500A0F120062560304678
:1099100070BD0000940D0020B89A02200349086829
:10992000884201D0012070470020FCE7A40D0020F0
:109930002DE9F04389B0064688469146002400E0B0
:10994000641C305D202804D0305D092801D04445D6
:10995000F6D324B94FF0FF3009B0BDE8F0832146BB
:1099600030462CF09BFF054615B94FF0FF30F3E76A
:10997000202101A8F6F72FFD01AA414630462CF020
:10998000F7FF074617B94FF0FF30E5E701A9384662
:10999000A847C9F800000020DEE700002DE9FF4FCE
:1099A0008BB088460546002606E025280BD0DDE969
:1099B0000D1290476D1C761C28780028F5D10FB049
:1099C0003046BDE8F08F0024A146A2460122AE49F0
:1099D00000E0044315F8013F203B02FA03F008427F
:1099E000F7D128782A2810D06FF02F022878A0F11C
:1099F0003001092915D809EB890102EB410144F036
:109A0000020400EB01096D1CF0E758F8041B5FEA43
:109A1000010903D544F40054C9F1000944F00204DB
:109A20006D1C28782E2817D115F8010F44F0040476
:109A30002A280ED06FF02F022878A0F130010929D2
:109A40000AD80AEB8A0102EB410100EB010A6D1C06
:109A5000F2E758F804AB6D1C28786C280FD006DCB0
:109A60004C2817D068280DD06A2814D104E0742837
:109A700010D07A280FD10DE044F400140AE044F429
:109A8000801401E044F440146978814202D104F565
:109A900080146D1C6D1C2878692865D006DC0028B0
:109AA0008DD0632827D0642806D15DE06E2808D0C9
:109AB00073282AD0752877D0DDE90D129047761CDF
:109AC000E0E0C4F30250022809D003280DD0D8F8F2
:109AD000001004280DD00E6008F10408D2E0D8F878
:109AE0000010F217C1E90062F6E7D8F800100E8006
:109AF000F2E70E70F0E718F8041B8DF80010002054
:109B00008DF80100EB46012003E058F804BB4FF04C
:109B1000FF3061074FF0000701D40AE07F1C574572
:109B20000DDA8742FADB1BF807100029F6D106E0B0
:109B30007F1C8742FCDB1BF807100029F8D1DDE908
:109B40000D23A9EB07008146214600F0B1F830440F
:109B5000C61904E0DDE90D121BF8010B90477F1ECA
:109B6000F8D22146484688E058F8040BC4F3025165
:109B70004FF00A0B032900D100B2042900D140B2F2
:109B8000002802DA40422D2102E0210505D52B21D3
:109B90008DF82410012104E006E0E10710D0202117
:109BA000F6E708AF089113E058F8040BC4F302512C
:109BB0004FF00A0B032900D180B2042900D1C0B2B2
:109BC0000021EEE75946F6F71FFE303107F8011D78
:109BD0000028F7D1ADEB070000F1200B600702D59C
:109BE00024F4803401E04FF0010ADA4502DDAAEBEB
:109BF0000B0000E00020824600EB0B0108980144B6
:109C0000A9EB01000A90E00306D4DDE90D2321460B
:109C10000A9800F04DF806444FF0000908E009A941
:109C200011F80900DDE90D12904709F10109761CD0
:109C300008998945F3DBE0030CD5DDE90D232146C6
:109C40000A9800F035F8064404E0DDE90D123020F2
:109C50009047761CBAF10001AAF1010AF5DC05E093
:109C6000DDE90D1217F8010B9047761CBBF10001DE
:109C7000ABF1010BF4DC0A982146DDE90D2300F07D
:109C800005F806446D1C97E6092801002DE9F0410E
:109C9000044600251E461746880404D405E03946CC
:109CA0002020B0476D1C641EF9D52846BDE8F08120
:109CB0002DE9F041044600251E469046C80301D513
:109CC000302700E02027880404D505E041463846C7
:109CD000B0476D1C641EF9D52846BDE8F081000030
:109CE0002DE9FC5F04468B4615461E46DDE90C9ABD
:109CF000DDE90E7804F120004060006000BF2834E8
:109D00006560A660C4F80C90C4F810A02321D4E9C3
:109D100003022FF0F4F9D4E9033C63441A1F0F4BFC
:109D2000D4E901012EF090FF2060A776677600202D
:109D3000E061C4F82880C4F82C8060612076A066B9
:109D4000E066283C00902346054A2146019004F134
:109D5000580030F017FA0020BDE8FC9FA59D0408CC
:109D600049A004082DE9F04704460E4617469846D8
:109D7000DDF8209084F81590607D20F0010060757A
:109D8000A662E76200206063C4F83080002506E028
:109D900004F1200101EBC5002FF048F86D1C012DE6
:109DA000F6DBBDE8F08710B50246002001460EE064
:109DB00002F1200303EBC100D0E900436360D0E966
:109DC000003423604060006000BF481C0146012948
:109DD000EEDB10BD2DE9F04706460F461546A946B5
:109DE000B46D28E0F6F7FEF98246E088A188884243
:109DF00005D1A06818B95046F6F7F8F91DE0E188DA
:109E0000206810F80180E088401CE080E188706DD7
:109E1000C0F38F20814201DB0020E080A068012890
:109E200001D10020A0605046F6F7E0F987F80080E5
:109E30007F1C6D1E00BF002DD4D100BFA9EB050013
:109E4000BDE8F0870A68531C0B6010707047000073
:109E500030B52DED048B85B00025002001900290D7
:109E60000390049000241AE00B200190012002903E
:109E70000720039001A91E48F7F7AAF91C48F7F735
:109E800079FB0A211A48F7F717FB1948F7F76AFA1E
:109E900018490880084600880544601CC4B20A2C92
:109EA000E2DB0A20B5FBF0F0124908800846008882
:109EB00000EE100AB8EE400A10EE100AF6F775FC34
:109EC00041EC190B9FED0C0B53EC102BF6F78CFBB0
:109ED00041EC180BF6F77CFC00EE100A084880ED08
:109EE000000A0448008805B0BDEC048B30BD0000BA
:109EF000E09E00205C0000206666666666664A3F5B
:109F0000640000201FB50020009001900290039093
:109F10000620009001200190032002906946094824
:109F2000F7F756F908B1F7F767F80648F7F722FB95
:109F30000A210448F7F7C0FA0248F7F713FA80B28B
:109F400004B010BDE09E00201FB5002000900190DD
:109F5000029003901C481D4908604FF4803048600F
:109F600000211A4881600161017680F82010C162E9
:109F7000174981620021C1600121C161002180F87F
:109F8000301001214161F7F7F1F908B1F7F734F822
:109F900006200090012001900320029069460B48A2
:109FA000F7F716F908B1F7F727F80B200090012012
:109FB00001900720029069460448F7F709F908B1B3
:109FC000F7F71AF81FBD000000220140E09E0020B4
:109FD0000100000F00B52DED088B85B00020019029
:109FE00002900390049030480190012002900720D5
:109FF000039001A92D48F7F7EBF808B1F6F7FCFF3D
:10A000002A48F7F7B7FA0A212848F7F755FA2748F8
:10A01000F7F7A8F9264908800846008800EE100ADC
:10A02000B8EE400A10EE100AF6F7BFFB41EC190B30
:10A030009FED200B53EC102BF6F7D6FA41EC180BE2
:10A04000F6F7C6FB00EE100A1C4880ED000A90ED02
:10A05000000A10EE100AF6F7A8FB41EC1B0B9FED6F
:10A06000180B53EC102BF6F7B9FA41EC1A0B9FEDD5
:10A07000160B53EC102BF6F729FB41EC190B9FED57
:10A08000140B53EC102BF6F708FA41EC180BF6F70B
:10A090009FFB00EE100A094880ED000A0448008882
:10A0A00005B0BDEC088B00BD12000010289F0020F9
:10A0B0005E0000206666666666664A3F60000020B5
:10A0C00052B81E85EB51E83F7B14AE47E17A643FFE
:10A0D00000000000000039401FB5002000900190F2
:10A0E000029003901548164908604FF4803048608C
:10A0F0000021134881600161017680F82010C1625F
:10A10000104981620021C1600121C161002180F8F4
:10A11000301001214161F7F729F908B1F6F76CFF1A
:10A1200009480090012001900720029069460448E8
:10A13000F7F74EF808B1F6F75FFF1FBD00200140AA
:10A14000289F00200100000F120000102DE9F041AF
:10A1500080460E460025002709E056F827001EA17C
:10A16000F6F775F908B1681C85B2781C87B256F805
:10A170002700F6F765F90028EFD1404623F06EFE80
:10A180000446606820B1606822F080FF00206060B3
:10A19000A06820B1A06822F079FF0020A060E8004C
:10A1A00022F04EFF6060606808B900BFFEE76800FB
:10A1B00022F046FFA060A06808B900BFFEE7606813
:10A1C00008B1A06800B900256900A068F6F703F996
:10A1D0002584BDE8F08100000A00000010B58AB0B7
:10A1E000044694F82400C0F3400020B994F82400F9
:10A1F00000F0010070B194F82400C0F34000F0B901
:10A2000094F8240000F00100C8B194F82400C0F3D1
:10A210008000A0B1282221466846F6F7C1F8214601
:10A22000194822F0ACF8204622F030FF01201749EF
:10A230000870039810B16846039988471FE0E08BC7
:10A24000404200B2608394F8240000F00100B0B1F5
:10A2500094F82410C1F3800119B9A18B494209B2C5
:10A2600061831034217D8908C943227D61F3820214
:10A2700022752068616821606060103C00BF03485F
:10A2800000780AB010BD000018A300205C01002077
:10A290002DE9F04107462F4821F08AFF044608E0E7
:10A2A000606A20F00800606221462A4821F085FF9C
:10A2B0000446002CF4D1284800682AF0C7FC064662
:10A2C000244821F075FF04463CE000202349087033
:10A2D00094F82400C0F3C00038BB606A20F0080086
:10A2E00008306062608B304400B26083B4F91A00B9
:10A2F00000281ADBB4F91A00218B884202DD208B7A
:10A3000000B260832046A16888470546606818B19E
:10A3100029B2D4E900029047B4F91A00218B88428F
:10A3200002DB2046FFF75AFF00BF0C48007820B13F
:10A33000084821F03DFF044604E02146054821F08D
:10A340003CFF0446002CC0D12AF08EFC0249086074
:10A35000BDE8F08118A30020580100205C01002016
:10A3600030B50346022B04D10E48405C5043001226
:10A3700030BD032B04D10C48405C50430012F7E77A
:10A38000042B04D10948405C50430012F0E7C1EBB4
:10A39000C105581EB5FBF0F0C4B20548005D50433E
:10A3A000000AE5E706F0040808F004080BF00408CA
:10A3B0000FF0040803B58FB0FC49FD4827F0D4F92D
:10A3C000FC49FD4827F0D0F9FA49FC4827F0CCF9C0
:10A3D000F649FB4827F0C8F9FA4805900598000CA3
:10A3E00001900598C0F3072002900598C0B2039031
:10A3F0000398C108BDF8000061F3040000900298C2
:10A400008108BDF8000061F34A1000900198C1086E
:10A41000BDF8000061F3CF200090BDF800100846A1
:10A420000490BDF8101008460690E548BDF81810D5
:10A430000186FF2180F83210E3480078042807D114
:10A44000E24800680690DD48BDF81810018406E077
:10A4500000200690D948BDF81810018400BFDC49DF
:10A46000D6484162D8480078042808D1D748001D52
:10A4700000680690D048BDF81810018406E000205E
:10A480000690CD48BDF81810018400BFD149CA48D4
:10A49000416200210F9823F0F7F90E9018F07EF832
:10A4A000049018F0CAF8069018F078F8049018F0A4
:10A4B0007BF805900146069A0E9823F0CDFF002107
:10A4C0000E9812F0D1F90D903C2264210D9823F0E2
:10A4D000C3FFC1490D9823F0FAFEB54A00210D983B
:10A4E00012F0B7FAB24A01210D9812F0B2FA002127
:10A4F0000E981FF02BFC0C90B04A00210C9820F015
:10A50000E9FBB6A10C9820F01BFC002014230722C5
:10A510000090DDE90C0122F04FFE00210E981FF0A3
:10A5200015FC0B90A44A00210B9820F0D3FBACA1A2
:10A530000B9820F005FC10200023022200900E99B9
:10A540000B9822F039FE00210E9816F06FF8089053
:10A550003C220021089823F026FF089823F0E1FC14
:10A56000059023F058FD962201460690089823F0A6
:10A5700073FF002108981DF065FF0A909C490A9816
:10A580001EF0F8FD002012230722009008990A9877
:10A5900022F012FE002108981FF0D8FB099000213C
:10A5A00009981FF0D4FF002109981FF0D0FF014641
:10A5B0000690904827F0D8F886498E4841620021DD
:10A5C00009981FF0C4FF014606908B4827F0CCF88D
:10A5D000002109981FF0BBFF01460690874827F02D
:10A5E000C3F8874984484162864984484162099892
:10A5F00023F0C8FA002108981FF0A8FB09907D4AB3
:10A600000021099820F066FB6FF03B001423132211
:10A610000090DDE9090122F0CFFD7B49099820F087
:10A62000FDFA002108981FF091FB0990714A002162
:10A63000099820F04FFB6FF01D00142313220090A7
:10A64000DDE9090122F0B8FD7049099820F0E6FA29
:10A65000002108981FF07AFB0990664A00210998AA
:10A6600020F038FB0020142313220090DDE90901BB
:10A6700022F0A2FD66A1099820F062FB0021089853
:10A680001FF064FB09905B4A0021099820F022FB2F
:10A690001E20142313220090DDE9090122F08CFD15
:10A6A00061A1099820F04CFB002108981FF04EFB97
:10A6B0000990504A0021099820F00CFB3C201423FB
:10A6C00013220090DDE9090122F076FD0BF0B2FBC8
:10A6D00001460690099820F033FB00200790D22015
:10A6E000079000210E9815F0A1FF08900021DDE9E8
:10A6F000072023F058FE089823F013FC049023F061
:10A700008AFC032190FBF1F000B20690089823F038
:10A7100008FC049023F07FFC032190FBF1F000B2D1
:10A7200005900146069A089823F096FE00210898A5
:10A730001DF088FE0A90224A00210A981EF0C8FDEA
:10A740003F490A981EF016FD6FF0130000231A46C9
:10A75000009008990A9822F02FFD002108981FF018
:10A76000F5FA0990254A0021099820F0B3FA05204E
:10A77000034601220090DDE9081022F01DFD31A101
:10A78000099820F0DDFA002108981FF0DFFA0990FF
:10A79000194A0021099820F09DFA6420052301221E
:10A7A0000090DDE9081022F007FD4DE00CA000202C
:10A7B000AC8F0220FCA0002024900220E88F022011
:10A7C00050910220E87448000707002070EB05084C
:10A7D00038010020340600207DBA0208EF81930082
:10A7E000E585B3E4BA8EE69CACE69CBA00000000B6
:10A7F0004C8102209C900220D890022014910220CB
:10A80000D80000200801002040EB05085AEB05089D
:10A8100052544F533A52542D5468726561642D5608
:10A82000342E302E300000004755493A4C6974747C
:10A830006C6576474C2D56362E302E3000000000C9
:10A84000888102204D435500FEA1099820F078FA36
:10A85000002108981FF07AFA0990FE4A0021099811
:10A8600020F038FA7820052301220090DDE9081055
:10A8700022F0A2FCF8A1099820F062FA00210898C1
:10A880001FF064FA0990F34A0021099820F022FA97
:10A890008C20052301220090DDE9081022F08CFCB9
:10A8A000F1A1099820F04CFA00210E9815F0BEFE97
:10A8B0000890089823F035FB059023F0ACFB0321AA
:10A8C00090FBF1F000B20690079802B20699089842
:10A8D00023F069FD089823F024FB049023F09BFBF0
:10A8E000032190FBF1F000B20690089823F019FBC9
:10A8F000049023F090FB032190FBF1F000B205904F
:10A900000146069A089823F0A7FD002108981DF03B
:10A9100099FD0A90D84A00210A981EF0D9FCD7491F
:10A920000A981EF027FC6FF0130000231A460090CF
:10A9300008990A9822F040FC002108981FF006FAB6
:10A940000990CF4A0021099820F0C4F90520034658
:10A9500001220090DDE9081022F02EFCC9A109981F
:10A9600020F0EEF9002108981FF0F0F90990B94A9B
:10A970000021099820F0AEF96420052301220090FF
:10A98000DDE9081022F018FCC0A1099820F0D8F9E0
:10A99000002108981FF0DAF90990AE4A00210998C1
:10A9A00020F098F97820052301220090DDE90810B5
:10A9B00022F002FCB9A1099820F0C2F90021089800
:10A9C0001FF0C4F90990A34A0021099820F082F9E8
:10A9D0008C20052301220090DDE9081022F0ECFB19
:10A9E000B2A1099820F0ACF900210E9815F01EFED6
:10A9F0000890089823F095FA059023F00CFB0321AA
:10AA000090FBF1F0400000B20690079802B2069960
:10AA1000089823F0C8FC089823F083FA049023F0E8
:10AA2000FAFA032190FBF1F000B20690089823F0A7
:10AA300078FA049023F0EFFA032190FBF1F000B2D2
:10AA400005900146069A089823F006FD0021089813
:10AA50001DF0F8FC0A90884A00210A981EF038FC84
:10AA600095490A981EF086FB6FF0130000231A46E2
:10AA7000009008990A9822F09FFB002108981FF087
:10AA800065F909907E4A0021099820F023F90520F4
:10AA9000034601220090DDE9081022F08DFB87A11A
:10AAA000099820F04DF9002108981FF04FF90990FE
:10AAB000684A0021099820F00DF96420052301223D
:10AAC0000090DDE9081022F077FB7DA1099820F0C5
:10AAD00037F9002108981FF039F909905D4A0021E3
:10AAE000099820F0F7F87820052301220090DDE98D
:10AAF000081022F061FB75A1099820F021F90021CE
:10AB000008981FF023F90990524A0021099820F073
:10AB1000E1F88C20052301220090DDE9081022F0E5
:10AB20004BFB6DA1099820F00BF94FF4B970079019
:10AB300000210E9815F07AFD0890089823F0F1F99D
:10AB4000059023F068FA032190FBF1F000200690B5
:10AB50000146DDE9072023F026FC089823F0E1F9FF
:10AB6000049023F058FA032190FBF1F000B2069014
:10AB7000089823F0D6F9049023F04DFA032190FBB6
:10AB8000F1F000B205900146069A089823F064FCA3
:10AB9000002108981DF056FC0A90374A00210A98B7
:10ABA0001EF096FB51490A981EF0E4FA6FF013006C
:10ABB00000231A46009008990A9822F0FDFA002115
:10ABC00008981FF0C3F809902D4A0021099820F039
:10ABD00081F80520034601220090DDE9081022F0EB
:10ABE000EBFA43A1099820F0ABF8002108981FF078
:10ABF000ADF80990174A0021099820F06BF86420FD
:10AC0000052301220090DDE9081022F0D5FA3AA1CF
:10AC1000099820F095F8002108981FF097F80990FE
:10AC20000C4A0021099820F055F8782005230122CC
:10AC30000090DDE9081022F0BFFA31A1099820F058
:10AC40007FF867E053544D33324634323949475424
:10AC500036000000D8900220464C4153483A314D0E
:10AC600042797465000000005352414D3A31393247
:10AC70004B42797465000000509102207C810220D3
:10AC8000149102204D454D4F5259000045455052F8
:10AC90004F4D3A424C32344330320000464C41531F
:10ACA000483A584D323551483132380053444341C7
:10ACB00052443A4D4D4300007081022052414D00F4
:10ACC000573938323547364B482D360053445241B8
:10ACD0004D3A33324D00000044617461207769645D
:10ACE00074683A31366269740000000064810220A1
:10ACF00053435245454E00004C43442D52474200B9
:10AD00005265736F6C7574696F6E3A3830302A34DF
:10AD100038300000002108981FF018F80990AA4A5E
:10AD2000002109981FF0D6FF8C20052301220090F6
:10AD3000DDE9081022F040FAA4A1099820F000F8FB
:10AD400000210E9815F072FC0890089823F0E9F89D
:10AD5000059023F060F9032190FBF1F000B206901A
:10AD6000079802B20699089823F01DFB089823F073
:10AD7000D8F8049023F04FF9032190FBF1F000B2D2
:10AD80000690089823F0CDF8049023F044F90321AD
:10AD900090FBF1F000B205900146069A089823F066
:10ADA0005BFB002108981DF04DFB0A908B4A0021A7
:10ADB0000A981EF08DFA8A490A981EF0DBF96FF0A6
:10ADC000130000231A46009008990A9822F0F4F91B
:10ADD000002108981EF0BAFF0990824A00210998C4
:10ADE0001FF078FF0520034601220090DDE90810DE
:10ADF00022F0E2F97CA109981FF0A2FF0021089837
:10AE00001EF0A4FF0990704A002109981FF062FF0C
:10AE10006420052301220090DDE9081022F0CCF91E
:10AE200073A109981FF08CFF002108981EF08EFF77
:10AE30000990654A002109981FF04CFF78200523EE
:10AE400001220090DDE9081022F0B6F96CA1099802
:10AE50001FF076FF002108981EF078FF09905A4AEB
:10AE6000002109981FF036FF8C2005230122009055
:10AE7000DDE9081022F0A0F963A109981FF060FF36
:10AE800000210E9815F0D2FB0890089823F049F89D
:10AE9000059023F0C0F8032190FBF1F0400000B2D0
:10AEA0000690079802B20699089823F07CFA089851
:10AEB00023F037F8049023F0AEF8032190FBF1F073
:10AEC00000B20690089823F02CF8049023F0A3F821
:10AED000032190FBF1F000B205900146069A089814
:10AEE00023F0BAFA002108981DF0ACFA0A903B4A08
:10AEF00000210A981EF0ECF945490A981EF03AF92B
:10AF00006FF0130000231A46009008990A9822F067
:10AF100053F9002108981EF019FF0990314A0021C9
:10AF200009981FF0D7FE0520034601220090DDE9B5
:10AF3000081022F041F937A109981FF001FF002104
:10AF400008981EF003FF09901F4A002109981FF07E
:10AF5000C1FE6420052301220090DDE9081022F0E3
:10AF60002BF92FA109981FF0EBFE002108981EF085
:10AF7000EDFE0990144A002109981FF0ABFE7820DD
:10AF8000052301220090DDE9081022F015F928A11F
:10AF900009981FF0D5FE002108981EF0D7FE0990F1
:10AFA000094A002109981FF095FE8C2005230122F3
:10AFB0000090DDE9081022F0FFF820A109981FF0A9
:10AFC000BFFE0E9811B000BDD8900220546F75637B
:10AFD000683A47543931343700000000509102205C
:10AFE0009481022014910220424154544552590048
:10AFF0006C69746869756D2062617474657279003A
:10B00000333030306D616800332E37560000000059
:10B0100058810220574952454C45535300000000C7
:10B0200049522053656E64202620526563760000E5
:10B03000574946493A45535031325300322E34472E
:10B040003A4E524632344C30315000002DE9FC5F0C
:10B0500081468A4600BF17F0A1FA834617F0E2FA4C
:10B06000064651A110F016FD05465149284623F029
:10B070002EF90021284611F0F7FB074664221146FD
:10B08000384623F0E9F94B2000230222294600909C
:10B09000384622F091F80121384611F000FD45496B
:10B0A000384623F014F9444A0021384611F0D1FC07
:10B0B000424A0121384611F0CCFC3F4A0221384671
:10B0C00011F0C7FC3D4A0321384611F0C2FC0021B3
:10B0D00038461DF0B7F93A4908603A4938480068DF
:10B0E0001EF048F836480668304622F02DFF8346A9
:10B0F0005946354826F038FB3448006801903248FC
:10B10000BDF804100186FF2180F8321002460021AC
:10B110002B4800681EF0D3F80021284625F0DCFDFE
:10B120008046C8200023022229460090404622F093
:10B1300043F82749404623F0CAF82649264826F016
:10B1400013FB26480078042808D12048001D006819
:10B1500000902148BDF80010018406E00020009016
:10B160001D48BDF80010018400BF1D491A48416206
:10B17000002128461EF0EAFD04461AA120461FF0D1
:10B18000DFFDFA206FF0810302222946009020465D
:10B1900022F012F8104E3146204623F0ACF900BFE1
:10B1A0002846BDE8FC9F00004245455000000000D5
:10B1B000F56C04081DFC01080CA00020A0A20020D2
:10B1C000D00A0020F8800220908A022068EA050850
:10B1D000D9AD0408FCA00020CC8A0220070700207B
:10B1E00034060020E68993E5BC80E6B58BE8AF9590
:10B1F000E58DB3E58FAF2CE58BBFE995BFE697B63C
:10B20000E997B4E68993E5BC800000002DE9F84F8A
:10B2100007460024002500260AF05AFE60A13846A1
:10B2200010F038FC81466049484623F050F85F49E9
:10B230005F4826F099FA5F495D4841625E480078B0
:10B24000042807D15D48006800905948BDF80010F7
:10B25000018406E0002000905548BDF800100184EC
:10B2600000BF002148461EF071FD5549086055A1F8
:10B27000534800681FF064FD4D4A002150480068A3
:10B280001FF016FD502000230222494600904C4832
:10B29000006821F091FF29F029FAD0F8408041465A
:10B2A0004A4826F061FA29F021FAD0F81480414684
:10B2B000474826F059FA29F019FAD0F8108041468B
:10B2C000444826F051FA47F618414148C1804148A8
:10B2D000C18038493D484162002453E0032094FB7B
:10B2E000F0F100FB114000EBC00101EB0010642104
:10B2F00001EB800085B2032094FBF0F0C0EB00105E
:10B3000000EB4000AA2101EB400086B20021484634
:10B3100011F0AAFA8246002150461EF017FD83461E
:10B320002A4A002158461FF0C3FC2B4850F824102D
:10B3300058461FF005FD264A0121504611F089FBB1
:10B34000244A0021504611F084FB32B229B2504603
:10B3500023F029F850221146504623F07DF821466B
:10B36000504623F0D3F81D49504622F0B0FF122C6E
:10B3700006D132B205F1640001B2504623F013F851
:10B38000601CC4B2132CA9DB0D480222642103689F
:10B39000134828F02FFF134908604846BDE8F88F8E
:10B3A000E7BAA2E5A4960000916D0408FCA0002075
:10B3B000548D0220380100200707002010EB0508FB
:10B3C000180B00205245433A00000000448E022032
:10B3D000088E0220CC8D0220200B00205507020889
:10B3E000B97902081C0B00202DE9F0478CB080468B
:10B3F0008946CE49CE4826F0B7F9CE4800780428D1
:10B4000007D1CD4800680190C948BDF804100184F7
:10B4100006E000200190C648BDF80410018400BF7A
:10B42000C649C3484162C149C54826F09DF9C14893
:10B430000078042808D1C048001D00680190C04869
:10B44000BDF80410018406E000200190BC48BDF85E
:10B450000410018400BF00BF17F0A0F8824617F067
:10B46000E1F80646B7A110F015FB0546B949284694
:10B4700022F02DFF002128461EF068FC0746AC4A4A
:10B48000002138461FF01DFCB3A138461FF058FCC0
:10B4900046200023022229460090384621F08CFEE7
:10B4A0000021284613F092F8044678201E2301223A
:10B4B00000210090204621F07FFE0A21204614F052
:10B4C000ADF90421204614F05EFA642200212046E2
:10B4D00014F02CFA05220921204614F020F932211B
:10B4E000204614F034F90521204614F070FA0123A7
:10B4F0001A46A1480168204614F089FA4FF4967262
:10B500001146204622F0A8FF0A221146204614F0D8
:10B510006FFA01231A4699480168204614F095FAFB
:10B520000A221146204614F083FA854E3146204601
:10B5300022F0E1FF00BF8048083000680B902046F1
:10B540000B9912F0FDFF8E4908607B480C300068B3
:10B550000A9020460A9912F0F3FF8A49086076485B
:10B560001030006809902046099912F0E9FF8649D9
:10B5700008606E49854826F0F7F800200890834857
:10B58000BDF8201001840A21C1800146804826F0C0
:10B59000EBF87E497F4826F0E7F8674814300068EA
:10B5A00007907A48BDF81C10418063481830006845
:10B5B00006907648BDF8181081805F481C300068FE
:10B5C00005907348BDF8141041805B482030006836
:10B5D00004906F48BDF810108180574824300068EF
:10B5E00003906C48BDF80C10418053482830006827
:10B5F00002906848BDF808108180002128461EF09E
:10B60000A5FB0746614A002138461FF05AFB01217D
:10B6100038461FF043FA60A138461FF091FB6FF0E7
:10B620001D001423132221460090384621F0C4FD4A
:10B63000002128461EF08AFB0746554A002138465D
:10B640001FF03FFB012138461FF028FA55A138466C
:10B650001FF076FB00201423132221460090384669
:10B6600021F0AAFD002128461EF070FB0746494A3A
:10B67000002138461FF025FB012138461FF00EFA45
:10B680004AA138461FF05CFB1E20142313222146DA
:10B690000090384621F090FD0021284612F07AFDF6
:10B6A000454908603CA14448006812F0CEFE502095
:10B6B0006FF095030022294600903F48006821F072
:10B6C0007BFD0021284612F065FD3C49086032A14F
:10B6D0003A48006812F0B9FE502000231A46294665
:10B6E00000903648006821F067FD0021284612F0DE
:10B6F00051FD334908602DA13148006812F0A5FEC4
:10B70000502096230022294600902D48006821F001
:10B7100053FD2346022264212A4828F06BFD2A4962
:10B72000086028460CB0BDE8F0870000FCA00020AF
:10B73000808E02200707002014EB05083406002045
:10B74000BC8E0220E68C89E994AEE6B58BE8AF9515
:10B7500000000000B96D0408E68C89E4B88BE68C23
:10B7600089E994AEE59BBEE8A1A8E58F91E7949F97
:10B77000E58F98E58C960000D80B0020DC0B0020AC
:10B78000BC0B0020C00B0020C40B0020F88E022050
:10B79000348F0220708F02204B45595F4C45465430
:10B7A000000000004B45595F4D4944004B45595F2F
:10B7B0005249474854000000C80B0020CC0B002021
:10B7C000D00B00202DE30408D40B00202DE9FF5FEF
:10B7D00000BF16F0E3FE834616F024FF054663A182
:10B7E00010F058F904466249624825F0BDFF6248EE
:10B7F0000078042807D16148006800905D48BDF8D2
:10B800000010018406E0002000905A48BDF80010A6
:10B81000018400BF5A4957484162002120461FF069
:10B820007FFB5849086064200023022221460090D3
:10B830005448006821F0C0FC52480568284622F0B0
:10B8400083FB83465946504825F08EFF0020039025
:10B850004D48BDF80C104180002002904A48BDF8C8
:10B860000810818002460021464800681FF02DFC28
:10B870000021204626F02EFA0646C8200023022288
:10B8800021460090304621F097FC4049304622F096
:10B890001EFD002120461EF059FA8146354A00213E
:10B8A00048461FF0EAF93AA148461FF049FA00203D
:10B8B0006FF00903102231460090484621F07CFCCD
:10B8C0000021204626F006FA07464FF49670002322
:10B8D000022221460090384621F06EFC2E4938465F
:10B8E00022F0F5FC002120461EF030FA8246214A63
:10B8F000002150461FF0C1F928A150461FF020FA40
:10B9000000206FF00903102239460090504621F0C4
:10B9100053FC0021204626F0DDF980464FF4C87024
:10B920000023022221460090404621F045FC1D499B
:10B93000404622F0CCFC002120461EF007FA019080
:10B940000C4A002101981FF098F917A101981FF0E7
:10B95000F7F900206FF0090310224146009001988A
:10B9600021F02AFC204604B0BDE8F09F4C4544007D
:10B97000FCA00020FC8602200707002058EA0508EA
:10B9800038010020180700204886022065BC040802
:10B990005245443A00000000D1BC040847524545D6
:10B9A0004E3A00003DBD0408424C55453A000000A7
:10B9B0002DE9FC478046894600BF16F0EFFD824620
:10B9C00016F030FE074659A110F064F806465949B2
:10B9D000304622F07CFC5849584825F0C5FE5848AE
:10B9E0000078042807D15748006800905348BDF8F4
:10B9F0000010018406E0002000905048BDF80010BF
:10BA0000018400BF50494D4841624B494F4825F0E1
:10BA1000ABFE4B480078042808D14A48001D006856
:10BA200000904A48BDF80010018406E00020009014
:10BA30004648BDF80010018400BF002130461EF0CA
:10BA400085F905463D4F3946284622F054FD00BF92
:10BA50003FA128461FF074F94620002302223146F8
:10BA60000090284621F0A8FB0021304612F0AEFDE0
:10BA7000044678200023022219460090204621F037
:10BA80009BFB0A21204613F0C9FE0421204613F037
:10BA90007AFF64220021204613F048FF0522092185
:10BAA000204613F03CFE3221204613F050FE0521C3
:10BAB000204613F08CFF01231A462D4801682046CA
:10BAC00013F0A5FF4FF496721146204622F0C4FCF5
:10BAD0000A221146204613F08BFF01231A462548FF
:10BAE0000168204613F0B1FF0A221146204613F0E8
:10BAF0009FFF164F3946204622F0FDFC00BF11483B
:10BB00000830006801902046019912F019FD1A4989
:10BB10000860234602224FF4FA71184828F06AFBA5
:10BB2000174908603046BDE8FC870000E58589E7D5
:10BB300085A700006D6D0408FCA00020DC8C0220AD
:10BB40000707002004EB050834060020188D0220AA
:10BB5000E59BBEE8A1A8E58F8DE698A0E78EAFE54E
:10BB6000A283E58589E785A7E5BCBAE5BAA600000A
:10BB7000080B00200C0B0020100B002011E3040820
:10BB8000140B002070B505460E4625F04AF8044611
:10BB900002A12AF017FC25F044F870BDE68AB1E650
:10BBA000AD892CE682A8E79A84E8AEBEE5A487E6D4
:10BBB0009A82E697B6E4B88DE694AFE68C81E8AF5A
:10BBC000A5E58A9FE883BD00F8B505460E4625F039
:10BBD00013F80446002004A305A215A100902046F6
:10BBE0002AF07CFC0020F8BDE7A1AEE5AE9A00008B
:10BBF000E68AB1E6AD892C20E682A8E79A84E8AE11
:10BC0000BEE5A487E69A82E697B6E4B88DE694AFDF
:10BC1000E68C81E8AFA5E58A9FE883BDE8AFB7E889
:10BC20008194E7B3BBE7AEA1E79086E59198000069
:10BC3000EF81B14552524F52000000002DE9F04F04
:10BC400085B00025D5480AF0B7F9D549D54825F083
:10BC50008BFDD549D54825F087FDD549D3484162AC
:10BC600024F0D8FF8146D3A10FF014FF0746D34933
:10BC7000384622F02CFB0021384610F0F5FD0490E8
:10BC800032226421049822F0E7FBCD49049822F087
:10BC90001EFB05206FF0090303223946009004982B
:10BCA00021F08AFA002104981EF050F80390BF4A50
:10BCB000002103981EF0F3FFC2A103981FF040F883
:10BCC000002138461FF012FE80463C2200214046EB
:10BCD00022F069FB384622F0C7F83C380FFA80F9A9
:10BCE000384622F098F982464A465146404622F0AC
:10BCF000B3FBC146AA465146484623F0DDFD00BFCE
:10BD0000A949B44825F030FDA949B2484162B2487A
:10BD1000007858B1B0480078032807D0AE480078C2
:10BD2000052803D0AC480078072806D100200090F1
:10BD3000A848BDF80010018400BF002522E0A748F4
:10BD400000EB05100022016840461FF057FC044636
:10BD5000002120461DF0FAFF83469E4A00215846E6
:10BD60001EF09DFF9D4800EB0510816858461EF0AF
:10BD7000E7FF4FF000094946204615F023FA00BFBF
:10BD8000681CC5B2092DDAD39549404622F09FFAC6
:10BD9000002140461FF0FEFE04460021204624F00C
:10BDA0009BFF06467D4890F810904FF0010A5246DE
:10BDB0004946304610F0B0FC00BF8A49304622F0B8
:10BDC00086FA08206FF013030246214600903046A1
:10BDD00021F0F2F9214640461FF0DCFE0446002126
:10BDE000204615F023FD0290304622F014F98146DA
:10BDF0004946029816F05AF90121029816F034F9D2
:10BE000079480168029816F071F96448C17C02987B
:10BE100016F0B9F97549029822F059FA08206FF026
:10BE20001303024621460090029821F0C5F92146ED
:10BE300040461FF0AFFE04460021204615F0F6FCF8
:10BE400002900021029815F08EFF8146494668480D
:10BE500025F08AFC56496648416202460021029854
:10BE600016F0C2F9304622F0D6F8814649460298CB
:10BE700016F01CF90121029816F0F6F85D480168E9
:10BE8000029816F033F94548817C029816F07BF948
:10BE90005949029822F01BFA08206FF0130302465A
:10BEA00021460090029821F087F9214640461FF074
:10BEB00071FE04460021204615F0B8FC0290304681
:10BEC00022F0A9F881464946029816F0EFF80121C0
:10BED000029816F0C9F849480168029816F006F968
:10BEE0002E48017D029816F04EF94549029822F03D
:10BEF000EEF908206FF013030246214600900298E5
:10BF000021F05AF9214640461FF044FE0446002124
:10BF1000204625F0DFFE01902048407C20B1012121
:10BF2000019825F085FF03E00121019825F06EFFBF
:10BF300008206FF01303024621460090019821F07B
:10BF40003BF93049019822F0C2F9214640461FF0E2
:10BF500021FE04462C49204622F0B9F921464046EC
:10BF60001FF018FE04462949204622F0B0F9214668
:10BF700040461FF00FFE04462549204622F0A7F94F
:10BF8000214640461FF006FE04462249204622F084
:10BF90009EF9384605B0BDE8F08F00005C8B0220AA
:10BFA0000CA00020748B0220FCA00020B08B02208B
:10BFB00034060020E8AEBEE7BDAE0000156D0408F3
:10BFC00069090208E4BF9DE5AD98E8AEBEE7BDAEE5
:10BFD00000000000EC8B02200707002074EA05082F
:10BFE000B5B00208ADAD0408EC0A0020892C0208A7
:10BFF000288C0220F00A0020592D0208E80A0020AF
:10C00000692C02085DC204089D090208EDFB0108C5
:10C01000B5090208250802082DE9F04FEDB00546E4
:10C02000642150A8F4F7D7F9C8211EA8F4F7D3F972
:10C03000642105A8F4F7CFF90024002002900390B2
:10C04000049069A809F022FFF049F14825F08CFB23
:10C0500000206C90EE48BDF8B0114180BDF8B011E1
:10C0600081807F2101720021284621F00DFC82464B
:10C0700016F094FA834616F0E0FA064616F08EFAA9
:10C08000834616F091FA074632463946504622F06A
:10C09000E3F9DF49504622F02EFA012412E01F2C6A
:10C0A00005DA2246DBA102A8FDF740F904E02246AA
:10C0B000D9A102A8FDF73AF902A950A8F4F796F918
:10C0C000601CC4B21F2CEADD002412E0172C05DA34
:10C0D0002246D0A102A8FDF729F904E02246CEA10C
:10C0E00002A8FDF723F902A905A8F4F77FF9601C5F
:10C0F000C4B2172CEADD002412E03B2C05DA2246FC
:10C10000C4A102A8FDF712F904E02246C2A102A8C8
:10C11000FDF70CF902A91EA8F4F768F9601CC4B277
:10C120003B2CEADD28F0E2FAD0F858613146BB48F2
:10C1300025F01AFBE521B94801720A21C1800021CE
:10C14000504624F071F9B6490860C8220021B4486D
:10C15000006822F028F90122B249B148006824F0B1
:10C16000DFFB6421AE48006824F0D2FB0821AC4814
:10C17000006824F050FCAC49A948006822F0A7F8F8
:10C180009DF8A401133881B20122A548006824F06B
:10C1900019FCA24A0021A248006824F027FC0021D3
:10C1A000504624F041F9A1490860C82264219F4803
:10C1B000006822F0F8F801229D499C48006824F0AC
:10C1C000AFFB64219948006824F0A2FB082197483E
:10C1D000006824F020FC94499448006822F077F825
:10C1E0008E4A00219148006824F000FC9DF8A501CA
:10C1F000401E81B201228D48006824F0E3FB00213B
:10C20000504624F011F98B490860C822114689482C
:10C21000006822F0C8F8012250A98648006824F07E
:10C220007FFB64218348006824F072FB0821814869
:10C23000006824F0F0FB7C497E48006822F047F853
:10C24000764A00217B48006824F0D0FB9DF8A601C7
:10C25000401E81B201227748006824F0B3FB002120
:10C26000504624F0E1F874490860C8224FF49671F2
:10C270007148006822F097F8012205A96E4800680D
:10C2800024F04EFB5A216C48006824F041FB082141
:10C290006948006824F0BFFB63496748006822F0E2
:10C2A00016F89DF8A71101226348006824F08AFB64
:10C2B0005A4A00216048006824F098FB002150464B
:10C2C00024F0B2F85D490860C8224FF4C3715B489E
:10C2D000006822F068F801221EA95848006824F07E
:10C2E0001FFB5A215548006824F012FB08215348CF
:10C2F000006824F090FB4C495048006821F0E7FFAB
:10C300009DF8A81101224D48006824F05BFB434AC8
:10C3100000214A48006824F069FB3C49484825F060
:10C3200023FA484946484162474800686B904448B0
:10C33000BDF8AC1101840A21C180002150461DF0D6
:10C3400005FD424908600021404800681EF0F0FBEE
:10C350003FA13E4800681EF0F3FC01213B48006805
:10C360001EF09CFB364A0021384800681EF0C4FCD1
:10C3700000220E21314800681AF056FC0021504678
:10C3800010F072FA80464FF4E1721421404622F018
:10C390000AF8C821404622F0BBF8002140461DF0B3
:10C3A000D5FC0190264A002101981EF0A5FC29A188
:10C3B00001981EF0C5FC2949404621F088FF002164
:10C3C000504610F051FA81464FF4E1724FF48271F9
:10C3D000484621F0E8FFC821484622F099F800219C
:10C3E00048461DF0B3FC0190154A002101981EF04B
:10C3F00083FC1BA101981EF0A3FC1B49484621F0B9
:10C4000066FF50466DB0BDE8F08F0000FCA0002034
:10C410003C93022025640A0025640000B4930220A6
:10C42000280C0020D2EB0508A57E04082C0C002067
:10C430007CEB0508300C0020340C0020380C002068
:10C44000789302203406002004EC05083C0C002000
:10C4500000000000E4BF9DE5AD98000075070208EC
:10C46000E58F96E6B688000005FC01082DE9F04F3F
:10C4700085B081468A4600BF16F090F8064616F051
:10C48000D1F80546FEA10FF005FB0446FE49204603
:10C4900021F01DFFFD49FE4825F066F9FD4813F027
:10C4A000BEFB0090FB4813F0BAFB0090F848BDF8C3
:10C4B000001041800146498881800021204621F0FA
:10C4C000E3F90746384621F02CFD834621F0CCFCE9
:10C4D0003C3805B2384621F024FD834621F09BFD0F
:10C4E00006462A463146384621F0B6FF3C22002156
:10C4F000384621F058FFE549E54825F035F9E5488B
:10C5000013F08DFB0090E34813F089FB0090E048A6
:10C51000BDF80010418001464988818001463846B7
:10C5200021F0E9FFD949DC4825F01EF9DB49DA485A
:10C530004162DB4800680490D748BDF810100184C0
:10C54000D849D94825F010F9D84813F068FB009075
:10C55000D64813F064FB0090D348BDF8001041802A
:10C56000014649888180CE48001D00680390CE486E
:10C57000BDF80C100184CA48083000680290CA480F
:10C58000BDF8081081860121C186C949C94825F036
:10C59000EBF80521C748C180C1860A214183C648FE
:10C5A00013F03DFB0090C348BDF800108186BC48E5
:10C5B0000C3000680190BF48BDF804100184BF48EA
:10C5C00013F02DFB0090BE48BDF800100180BB4861
:10C5D00013F025FB0090BB48BDF80010018000213E
:10C5E00038461AF035FDB84908600846006821F061
:10C5F00098FC834621F00FFD054600EBD5704010F6
:10C60000143806B2E6223146AF48006821F024FF14
:10C6100019220A21AC48006821F0C5FE3C22002105
:10C62000A94800681BF063F82821A74800681BF0A0
:10C6300020F8A34A0121A44800681BF022F8072330
:10C640001922DC21A04800681BF05BF8994A002100
:10C650009D4800681BF074F8002138461AF0F8FC79
:10C660009A4908600846006821F05BFC834621F087
:10C67000D2FC054600EBD5704010143806B2E62215
:10C6800031469248006821F0E7FE8F48006821F0AB
:10C6900048FC834621F0BFFC054600EBD5704010F6
:10C6A0000A3006B2192231468848006821F07BFE24
:10C6B0003C220021854800681BF019F82821834896
:10C6C00000681AF0D6FF7F4A0121804800681AF0FE
:10C6D000D8FF07231922DC217C4800681BF011F8E1
:10C6E000744A0021794800681BF02AF80021384676
:10C6F0001DF02CFB804676A140461EF021FB664AC9
:10C70000002140461EF013FB002003460A22009041
:10C710006D480168404620F04FFD002138461DF06D
:10C7200015FB80466BA140461EF00AFB5A4A0021C9
:10C7300040461EF0FCFA002003460A22009063489F
:10C740000168404620F038FD0021384611F03EFFD8
:10C7500062490860FA224FF4C8716048006821F00D
:10C760007BFE5F480A230522394600905B4800683B
:10C7700020F022FD14215948006813F04FF83C22A4
:10C7800000215648006813F0D1F8002205215348D3
:10C79000006812F0C4FF01231A46524801684F484E
:10C7A000006813F052F932214C48006812F0CFFFB4
:10C7B00015214A48006813F00AF904214748006827
:10C7C00013F0E1F8052211464448006813F030F9EF
:10C7D0007F214248006813F0C3F8334A00213F48E4
:10C7E000006813F0EBF8354813F019FA0146009091
:10C7F0003A48006811F0A4FE3B4908600021384621
:10C8000011F0E4FE39490860FA224FF4C871374844
:10C81000006821F021FE6FF004000A23052239464A
:10C8200000903248006820F0C7FC14212F480068AF
:10C8300012F0F4FF3C2200212C48006813F076F837
:10C84000002205212948006812F069FF01231A46D9
:10C85000244801682548006813F0F7F8322123487E
:10C86000006812F074FF15212048006813F0AFF83B
:10C8700004211E48006813F086F80522114637E0AF
:10C88000E6B8A9E5BAA600001D6F0408D09F0020F5
:10C89000EC97022032292700B097022008010020DF
:10C8A00070F2050838A100202898022047351E00A4
:10C8B00074A10020749702200045FF00F2CFCF0042
:10C8C000D80C0020DA0C0020B80C0020BC0C002092
:10C8D000435055004D50553630353000C00C0020C7
:10C8E000E8FEFFFFD40C0020C80C0020C40C002080
:10C8F0001348006813F09CF87F211148006813F07A
:10C900002FF8104A00210E48006813F057F80E481F
:10C9100013F085F9014600900948006811F010FEF7
:10C920000A490860002302224FF47A71084827F070
:10C9300061FC08490860204605B0BDE8F08F0000A2
:10C94000C40C002028980220CE949400CC0C002027
:10C95000CDE40408D00C00202DE9FE4F814600BF35
:10C9600015F01CFE834615F05DFE824667A10FF0B0
:10C9700091F804466949204621F0A9FC68496948B4
:10C9800024F0F2FE6848010CC0F30722C3B24FEA5C
:10C99000D30ABDF800C06AF3040CCDF800C04FEA1A
:10C9A000920ABDF800C06AF34A1CCDF800C04FEAF5
:10C9B000D10ABDF800C06AF3CF2CCDF800C0BDF895
:10C9C00000A0D446CDF804C0BDF804201146554857
:10C9D0000291BDF8081041800146498881800146D6
:10C9E000204621F088FD002120461BF02BFD064645
:10C9F0004E4930461CF0BEFB3C200023022221465B
:10CA00000090304620F0D8FB002120461DF09EF912
:10CA100005464FF4967000230122214600902846D7
:10CA200020F0CAFB002128461DF098FD82465146A1
:10CA30003F4824F099FE3F493D48416202460021AB
:10CA400028461EF062F9012128461EF071F83A4985
:10CA500028461EF0E3F8204621F0DDFA82465146D2
:10CA6000284621F055FD012128461EF001F800213D
:10CA700020461DF06BF90746304938461EF0CEF8C7
:10CA8000002138461DF06AFD824651462C4824F0AC
:10CA90006BFE2C492A4841620246002138461EF0AE
:10CAA00034F9002003460D2229460090384620F034
:10CAB00083FB002120461BF0C5FC06462249304678
:10CAC0001CF058FB4FF4E170002301222146009036
:10CAD000304620F071FB002120461DF037F98046DA
:10CAE0001A4940461EF09AF8114A002140461EF0AD
:10CAF0000CF94FF4167000230222214600904046A4
:10CB000020F05AFB2046BDE8FE8F0000E585B3E427
:10CB1000BA8EE8B7B3E5859400000000ED6E040816
:10CB2000D09F002068940220F1A94300C481022014
:10CB3000F09302203406002006EC05085AEC0508A4
:10CB40002C94022038010020D08102206FEC0508CF
:10CB50002DE9FF470746884600BF15F01FFD064632
:10CB600015F060FD05463BA10EF094FF04463B49DD
:10CB7000204621F0ACFB3A493A4824F0F5FD3A480A
:10CB8000006803903748BDF80C10818615F006FD4B
:10CB9000064615F009FD4FEA400915F0FFFC064670
:10CBA00015F04BFD09FB00F5284620F049FA2F4906
:10CBB00008600021204610F0BDFF2D49086015F0E7
:10CBC000EDFC814615F039FD054615F0E7FC814680
:10CBD00015F0EAFC064604202B4632460090234816
:10CBE00001682348006811F07BFA3C2200212048AC
:10CBF000006821F0D8FB0A201E49088048801948A7
:10CC00004FF4B4710022CDE9002102901948B0F927
:10CC10000220B0F9001002231548006810F0DEFF72
:10CC20000020154988600846006820F01F00001D9C
:10CC3000086000211048006861F394200E490860E4
:10CC400008460068C0F314000860204604B0BDE840
:10CC5000F0870000E794BBE69DBF00003D6E04082E
:10CC6000FCA00020DC91022078EB0508000C0020DD
:10CC7000FC0B0020040C00201892022000B5BBB071
:10CC800024A809F003F900BF15F088FC129015F0F4
:10CC9000C9FCFEA113900EF0FDFE2390FD492398E0
:10CCA00021F015FBFC49FD4824F05EFDFC4812F024
:10CCB00095FF1390F948BDF84C1041800146498812
:10CCC00081800146239821F016FC0021239821F051
:10CCD0007BFC2290F049F34824F046FDF04812F026
:10CCE0007DFF1390EF48BDF84C1041800146498804
:10CCF0008180002181810F2181730021C182018304
:10CD000041838183C183E449E74824F02DFDE7484E
:10CD100012F064FFE4491390BDF84C0048800846C7
:10CD2000498881800A21C1800221DE4881730A215D
:10CD3000DD48C182D849DE4824F016FDD649DD48D9
:10CD400024F012FDDC49DD4824F00EFDD249DC4818
:10CD500024F00AFDD049DB4824F006FDCE49DA482C
:10CD600024F002FDCC49D94824F0FEFCCA49D84839
:10CD700024F0FAFCD74800683A90D548BDF8E8108E
:10CD80000184D5494162D549CF484162D148001D4F
:10CD900000683990CC48BDF8E4100184D049C848F7
:10CDA0004162CC48083000683890C548BDF8E010B2
:10CDB0000184CC49C3484162C6480C3000683790B2
:10CDC000C048BDF8DC100184C749C0484162C14871
:10CDD000103000683690BD48BDF8D810018447F681
:10CDE0001841C180C14812F0F9FE1390B748BDF850
:10CDF0004C1041800146498881800A21418381830A
:10CE0000FF210172BA4812F0E9FE1390A848BDF85C
:10CE10004C1081860321C186B64812F0DFFE1390C4
:10CE2000A648BDF84C10418001464988818047F6EC
:10CE30001841C180014649884181012181814C21ED
:10CE4000C17301464988018201214182954A00212E
:10CE5000229822F08FFD0021229822F02DFD2398A8
:10CE600021F0D9F801461390229821F051FB239824
:10CE700020F0FAFF5A3800B201461390229821F0B0
:10CE800028FA5A220021229821F08DFA00212298B6
:10CE90001BF0D8FA2190984921981CF06BF93222A6
:10CEA0001146219821F07FFA002122981CF04EFFB4
:10CEB0002090854A002120981DF030FF9DF89200B7
:10CEC00000909DF8910013909DF8900000F5FA6095
:10CED0001290024689A126A8139BFCF727FA26A9DF
:10CEE00020981DF02DFF0020034602220090229979
:10CEF000209820F061F9002122981CF027FF1F9054
:10CF0000734A00211F981DF009FF80A11F981DF092
:10CF100017FF3222A0211F9821F045FA0021229804
:10CF20001CF014FF1E90664A00211E981DF0F6FEAC
:10CF300077A11E981DF004FF052000231222009007
:10CF4000DDE91E0120F038F9002122981CF0FEFED8
:10CF50001D905D4A00211D981DF0E0FE6DA11D98F9
:10CF60001DF0EEFE052000230C2200901F991D9855
:10CF700020F022F9002122981CF0E8FE1C90524A71
:10CF800000211C981DF0CAFE9DF8940013909DF896
:10CF900093001290024661A126A8139BFCF7C6F9E4
:10CFA00026A91C981DF0CCFE1420642313220090A7
:10CFB0001F991C9820F000F9002123981CF0C6FE50
:10CFC0001B9064A11B981DF0BBFE3F4A00211B98DB
:10CFD0001DF0A4FE3C2000230222009023991B9800
:10CFE00020F0EAF8002123981CF0B0FE1A90354A90
:10CFF00000211A981DF092FE5DA11A981DF0A0FE66
:10D000000020431F10220090DDE91A0120F0D4F81F
:10D010000021229813F00AFB1990229821F089FE32
:10D02000143800B201461390199821F071FAB42116
:10D03000199821F04EF9B420002302220090229981
:10D04000199820F0B9F8184A0021199814F0DBF863
:10D050000121199821F029F90021229813F0E6FA0C
:10D060001890229821F065FE143800B20146139002
:10D07000189821F04DFAC821189821F02AF91E209D
:10D0800000230D220090DDE9180173E0E5A4A9E674
:10D09000B0940000F96E0408D09F0020D0950220C3
:10D0A000AF774500949502200C960220CB915D004D
:10D0B000C09602208496022074A10020FC960220D3
:10D0C0004896022058950220E09402201C950220E8
:10D0D000A494022030F205086C06002034060020DB
:10D0E0009C060020D800002018060020D49C69006F
:10D0F000EFDAC60000DDFF007882022025303464BC
:10D100002D253032642D25303264000033000000BC
:10D11000E2848300E5A49AE4BA910000E695B0E6C3
:10D120008DAEE69DA5E887AAE8B7B3E58594E5A4AA
:10D13000A9E6B0940AE69C80E8BF91E69BB4E69627
:10D14000B0E697B6E997B43A253032643A253032E2
:10D1500064000000E5AD9DE58D97E5B882E58CBAE9
:10D1600020E6B996E58C97E8818CE999A200000049
:10D17000EF84A40020F020F8FE4A0021189814F053
:10D1800042F80121189821F090F80021229813F01C
:10D190004DFA1790229821F0CCFD143800B20146C8
:10D1A0001390179821F0B4F9FA21179821F091F80B
:10D1B0001E2000230D220090DDE917011FF0FCFF67
:10D1C000EC4A0021179814F01EF80121179821F05D
:10D1D0006CF80021229813F029FA1690229821F079
:10D1E000A8FD143800B201461390169821F090F96A
:10D1F000E621169821F06DF81E2000230D220090E4
:10D20000DDE916011FF0D8FFDA4A0021169813F065
:10D21000FAFF0121169821F048F80021229813F016
:10D2200005FA1590229821F084FD143800B20146C9
:10D230001390159821F06CF94FF49671159821F020
:10D2400048F81E2000230D220090DDE915011FF093
:10D25000B3FFC84A0021159813F0D5FF0121159896
:10D2600021F023F8002122981CF070FD1490C24A8E
:10D27000002114981DF052FDC0A114981DF060FD0E
:10D28000052000230D220090DDE914011FF094FF1A
:10D29000199800287ED000200E907FE00E9800EBB9
:10D2A000C00101EB0010142101EB400080B20F908F
:10D2B000002119981BF0C6F81390B8490E9851F840
:10D2C000200001460D9013981BF054FF0F9802B2F6
:10D2D0001421139821F067F8002119981CF036FDED
:10D2E0001290A54A002112981DF018FDAC490E9825
:10D2F00051F8200001460D9012981DF021FD0020EC
:10D300000A2313220090DDE912011FF055FF0021CE
:10D3100019981CF01BFD1090A24A002110981DF0D6
:10D32000FDFCA1490E9851F8200001460D9010987F
:10D330001DF006FD012110981DF0B0FB3221109860
:10D3400021F0E6F800200F23132200901299109884
:10D350001FF032FF002119981CF0F8FC1190934A3D
:10D36000002111981DF0DAFC91490E9851F8200027
:10D3700001460D9011981DF0E3FC3221119821F027
:10D38000C7F80F98801C02B24FF4AF71119821F0CA
:10D390000AF800E007E00E98401C0E900E98032853
:10D3A000FFF47CAF00BF189800287CD000200E90BE
:10D3B00064200D900021189813F038F90C902298F1
:10D3C00021F0B7FC143800B201460A900C9821F005
:10D3D0009FF864210C9820F07CFF664A00210C988D
:10D3E00013F011FF01210C9820F05FFF00210C9831
:10D3F0001DF0AAFE0F90322200210F9820F0D3FFDB
:10D400006C4A00210F981EF09DF806226A490F9879
:10D410001EF050F801210F981EF09DF808200623F9
:10D42000654A00900C990F9805F09EF80623624A11
:10D430000C990F9805F060F800200B900A9082E09C
:10D440000A98C0EBC00000EB80011E2000EB4100F9
:10D4500080B20E90002118981AF0F4FF13905749EB
:10D4600013981BF087FE0E98801F00B209900D984C
:10D47000401D02B20999139820F095FF00211898D9
:10D480001CF064FC1190474A002111981DF046FCE5
:10D490004BA111981DF054FC0D9802B20E98801DFE
:10D4A00001B2119800E053E020F07DFF00211898B0
:10D4B0001CF04CFC10903B4A002110981DF02EFCF3
:10D4C00041A110981DF03CFC012110981DF0E6FAD6
:10D4D0000D981E3002B20E9801B2109820F063FF32
:10D4E000002118981CF032FC12902E4A002112984C
:10D4F0001DF014FC9DF893100A980844C0B20B90DC
:10D500000B98182803DB0B981838C0B20B909DF8C5
:10D51000940003460990AFF2D03126A80B9AFBF78E
:10D5200005FF26A912981DF00BFC0E98083800B2D2
:10D5300009900D983C3002B20999129820F033FFFF
:10D540000A98401C0A900A980628FFF479AF00BF99
:10D55000179800287ED000200F9096200E9014225D
:10D560001B4909A8F2F71CFF194B14330FCBCDE967
:10D5700007232FE00C960220E0940220E5A4A9E600
:10D58000B094E695B0E68DAEE98787E794A8E6A863
:10D59000A1E68B9FE695B0E68DAE0000580C00200A
:10D5A000640C00201C9502207C0C00204896022070
:10D5B000700C0020C09602209CEC0508F48102202B
:10D5C00032E7BAA700000000E4BC98E889AF000089
:10D5D00044F20508CDE905010020049000211798C8
:10D5E0001DF09EFC0390B34A002103981DF076FDC8
:10D5F00014221146039820F02FFFAF49049801EB45
:10D600008000B0F90200C0F17D0000B201900498E2
:10D61000233000900146019A039820F0C4FE0222B4
:10D620003221A648039B26F0E5FDA54908600021AC
:10D6300017981DF089FD02901E222D21029820F0DE
:10D64000B2FEA04A002102981DF07CFF40F25F125A
:10D65000994900E083E002981DF02CFF0121029817
:10D660001DF079FF002117981CF070FB1190964A6D
:10D67000002111981DF052FB94A111981DF060FB40
:10D680000E983738322301220090179911981FF015
:10D6900093FD002117981CF059FB10908A4A002135
:10D6A00010981DF03BFB8DA110981DF049FB0E98C2
:10D6B00037386FF0310303220090179910981FF04C
:10D6C0007BFD0020019046E0019800EBC001C1EB1A
:10D6D00080101E2101EB400080B20F9000211798AE
:10D6E0001CF034FB1290784A002112981DF016FBB2
:10D6F00005A9019851F820000146009012981DF0EC
:10D700001FFB0E981E3002B20F9801B2129820F043
:10D710004AFE002117981CF019FB1390734A002150
:10D7200013981DF0FBFA09A9019851F82000014651
:10D73000009013981DF004FB012113981DF098F937
:10D74000002003460A220090DDE912101FF034FD8C
:10D750000198401C019001980428B5D300BF169889
:10D76000002846D000201190C8201090142011905D
:10D7700000200F9039E00F210F9801EB801080B24C
:10D780001090002116981AF05DFE139058490F98DA
:10D7900051F8200001460E9013981BF0EBFC1098F6
:10D7A000401D02B2119801B2139820F0FCFD002137
:10D7B00016981CF0CBFA12904E4A002112981DF0D8
:10D7C000ADFA4D490F9851F8200001460E9012987D
:10D7D0001DF0B6FA00200A2313220090DDE91201A1
:10D7E0001FF0EAFC0F98401C0F900F980328C2D33B
:10D7F00000BF1598002859D000201190C820109023
:10D8000000200F904EE003210F98B0FBF1F0C0EB29
:10D81000C00000EB80011E2000EB810080B2109060
:10D8200003210F98B0FBF1F201FB1200C0EB0010D6
:10D8300000EB8001232000EB41001190002115989E
:10D840001AF000FE13902D490F9851F82000014660
:10D850000E9013981BF08EFC1098401D02B2119888
:10D8600001B2139820F09FFD002115981CF06EFA6C
:10D870001290204A002112981DF050FA20490F986A
:10D8800051F8200001460E9012981DF059FA0A2016
:10D8900000230D220090DDE912011FF08DFC0F988E
:10D8A000401C0F900F980528ADD300BF23983BB0C4
:10D8B00000BD0000FC960220B4EC0508359E02086D
:10D8C000B00C0020C09602201C950220E697A5E52A
:10D8D00087BA2030373A303200000000E697A5E8DA
:10D8E00090BD2031373A33320000000048960220C4
:10D8F0004C0C0020E0940220400C0020880C0020FA
:10D900009C0C00202DE9F04F89B00024002500BFB9
:10D9100014F044FE804614F085FE0746FEA10EF08A
:10D92000B9F806460021304625F0FAFFFC490860A8
:10D930003C220021FA48006820F035FD14F02EFE4C
:10D94000009014F07AFE8C3807B214F027FE009095
:10D9500014F02AFE80463A464146F148006820F01D
:10D960007BFD0121EE48006826F0D7F9ED49EE482D
:10D9700023F0FAFE0021EC4881810246E848006865
:10D9800026F0DAF9E9A1E648006825F07FFE059067
:10D99000E8A1E348006825F079FE0490E8A1E0489A
:10D9A000006825F073FE0390E8A1DD48006825F0CB
:10D9B0006DFE0290E649E74823F0D6FEE64812F0F5
:10D9C000FFF80090E348BDF800104180E24812F0F3
:10D9D000F7F80090DF48BDF800108180FF21017248
:10D9E00000210183C182418381830246059821F091
:10D9F000C1FFD84A0121059821F0BCFF00210598FC
:10DA000021F05AFFD34A0021049821F0B3FFD14AF4
:10DA10000121049821F0AEFF0021049821F04CFF71
:10DA2000CC4A0021039821F0A5FFCA4A012103989E
:10DA300021F0A0FF0021039821F03EFFC54A0021FC
:10DA4000029821F097FFC34A0121029821F092FF2A
:10DA50000021029821F030FF002105981DF046FFBB
:10DA60000190002014F0E9FD8C3807B2002014F07A
:10DA70009BFD80463A464146019820F0EDFC00218E
:10DA800001981EF075F9B549B54823F06DFEB5490A
:10DA9000B3484162AE49B44823F066FEAE4812F086
:10DAA0008FF80090B048BDF800104180AA4812F0ED
:10DAB00087F80090AC48BDF8001081800021C1803B
:10DAC000FF2101720121818140F6BB3012F0CAF9B9
:10DAD0000090A548BDF800104181FF21C173A34803
:10DAE00000680890A048BDF820100182002101754F
:10DAF000418241838183C1820183C1839C499D48C6
:10DB000023F032FE944812F05BF800909948BDF87B
:10DB100000104180904812F053F800909548BDF8ED
:10DB200000108180002141838183C1820183C183F0
:10DB30009149924823F018FE8C48001D0068079018
:10DB40008E48BDF81C104180884808300068069057
:10DB50008A48BDF8181081800021C180FF21017220
:10DB600040F6BB3012F07EF900908448BDF80010FA
:10DB70004181012181818173FF21C1730021418293
:10DB80000A2141838183C18201830F21C183014620
:10DB90007B4823F0E9FD79497A4823F0E5FD6E489A
:10DBA00012F00EF800907648BDF800104180014652
:10DBB00049888180684812F003F800907148BDF8E8
:10DBC000001041800146498881806A4A01210198FC
:10DBD0001EF0D6F8644A002101981EF0D1F8684A78
:10DBE000052101981EF0CCF8644A042101981EF02A
:10DBF000C7F8644A082101981EF0C2F800BF23E06C
:10DC0000614800EB04100022016801981DF0F6FC49
:10DC10008146002148461CF099F88246504A00216E
:10DC200050461DF033F8584800EB04108168504608
:10DC30001DF086F80020C823072249460090504670
:10DC40001FF0BAFA601CC4B2142CD9D30021049876
:10DC50001DF04CFE0190002014F0EFFC8C3807B250
:10DC6000002014F0A1FC80463A464146019820F07D
:10DC7000F3FB002101981EF07BF83E4A0121019838
:10DC80001EF07EF8384A002101981EF079F83C4ACF
:10DC9000052101981EF074F8384A042101981EF0FD
:10DCA0006FF8384A082101981EF06AF8002423E032
:10DCB000364800EB04100022016801981DF09EFC1C
:10DCC0008146002148461CF041F88246244A002142
:10DCD00050461CF0DBFF2D4800EB041081685046D5
:10DCE0001DF02EF80020C823072249460090504618
:10DCF0001FF062FA601CC4B2042CD9D30022114672
:10DD000001981DF07BFC81461421484620F0E1FA81
:10DD1000042148463CE00000E5BEAEE4BFA100009F
:10DD2000CC0A0020C0A00020EC8802204368617467
:10DD300073000000436F6E74616374730000000031
:10DD4000446973636F766572000000004D650000E2
:10DD500048A00020B0880220EDEDED000CA00020CE
:10DD6000C087022034060020648902205CEA05088E
:10DD700038A10020A0890220B0A10020DC89022067
:10DD8000188A0220548A02201C0700205C08002008
:10DD90000EF048FE002423E0CC4800EB04100022E3
:10DDA000016801981DF02AFC8146002148461BF0BD
:10DDB000CDFF8246C64A002150461CF067FFC3488B
:10DDC00000EB0410816850461CF0BAFF0020C82305
:10DDD00007224946009050461FF0EEF9601CC4B27D
:10DDE0000C2CD9D3BB49BC4823F0BEFCBB4811F076
:10DDF000E7FE0090B848BDF80010018400210398A8
:10DE00001DF074FD0190002014F017FC8C3807B24F
:10DE1000002014F0C9FB80463A464146019820F0A4
:10DE20001BFB002101981DF0A3FFAD4A01210198C1
:10DE30001DF0A6FFAB4A002101981DF0A1FFAA4AE0
:10DE4000052101981DF09CFFA84A042101981DF0AE
:10DE500097FFA74A082101981DF092FF0025002492
:10DE600051E0012C07D0042C05D0072C03D0092C3D
:10DE700001D00B2C0ED10022114601981DF0BEFBE3
:10DE800081460F21484620F024FA042148460EF02E
:10DE9000C9FD36E0974800EB0510002201680198A3
:10DEA0001DF0ACFB8146002148461BF04FFF824627
:10DEB000874A002150461CF0E9FE8E4800EB051011
:10DEC000816850461CF03CFF681CC5B200214846E2
:10DED0000EF0A0FD002148461BF038FF824686A1C7
:10DEE00050461CF02DFF7C4A002150461CF0CEFE0F
:10DEF00005206FF0090308224946009050461FF0A4
:10DF00005BF9601CC4B20D2CABD3002102981DF04C
:10DF1000EDFC0190002014F090FB8C3807B200203B
:10DF200014F042FB80463A464146019820F094FAAC
:10DF3000002101981DF01CFF694A012101981DF084
:10DF40001FFF684A002101981DF01AFF664A05214B
:10DF500001981DF015FF654A042101981DF010FF7E
:10DF6000634A082101981DF00BFF002500244DE0B5
:10DF7000012C03D0032C01D0082C0ED10022114615
:10DF800001981DF03BFB81460F21484620F0A1F986
:10DF9000042148460EF046FD36E0584800EB0510D7
:10DFA0000022016801981DF029FB814600214846A6
:10DFB0001BF0CCFE8246464A002150461CF066FE0D
:10DFC0004E4800EB0510816850461CF0B9FE681CF5
:10DFD000C5B2002148460EF01DFD002148461BF049
:10DFE000B5FE824644A150461CF0AAFE3A4A0021E2
:10DFF00050461CF04BFE05206FF0090308224946ED
:10E00000009050461FF0D8F8601CC4B20A2CAFD361
:10E0100030493B4823F0A8FB3A4811F0D1FD00906D
:10E020003748BDF800104180364811F0C9FD009016
:10E030003348BDF80010818000243BE000213046C9
:10E040000EF012FC834650227821584620F004FA44
:10E0500014F0A4FA804614F0F0FA503807B2C4EB7A
:10E060000410C1003A46584620F09DF9244A002188
:10E0700058460EF0EEFC224A012158460EF0E9FC0B
:10E080002146584620F042FA1F49584620F01FF911
:10E09000002158461AF0D6F91C4941F824001C4AC0
:10E0A00002EB04121168194A52F824001BF062F8BE
:10E0B000601CC4B2042CC1DB154A116C134A1068F1
:10E0C0001BF058F8304609B0BDE8F08F9C080020DE
:10E0D000C0870220D09F002028890220ACACAC0071
:10E0E000A089022064890220188A0220DC8902208B
:10E0F000548A02205C090020EF819400DC09002092
:10E1000084870220F7F7F7008DFC0108748702204E
:10E110004C0A00202DE9FF5FDA4807F04DFF22F09E
:10E1200072FD0646D8A10DF0B5FC0446002120463C
:10E1300024F0A6F9D6490860D2480168D44800689E
:10E1400025F07CF80121D248006824F02CFF14F05F
:10E1500025FA834614F028FA064600EBD6704010E4
:10E16000143807B23946CA48006820F0D1F9502265
:10E170000521C748006820F016F9C649C448006860
:10E1800020F0A5F81021C248006824F002FF002109
:10E1900020461BF0DBFD8046BFA140461CF0D0FDB1
:10E1A0000020034609220090B948016840461FF04C
:10E1B00003F80021204624F063F9B9490860B1480A
:10E1C0004168B748006825F039F80121B448006873
:10E1D00024F0E9FE14F0E2F9834614F0E5F906466E
:10E1E00000EBD6704010143807B23946AC480068CE
:10E1F00020F08EF90921AA48006824F0A9FE282001
:10E2000000230D220090A2480168A54800681EF076
:10E21000D3FFA049A248006820F059F80121A04886
:10E22000006824F068FF10219D48006824F0B1FECA
:10E230004FF47A719A48006824F0BBFF0021204611
:10E240001BF084FD814697A148461CF079FD002013
:10E250000346092200909248016848461EF0ACFF30
:10E260000021204624F00CF9904908608548816817
:10E270008E48006824F0E2FF01218C48006824F0F9
:10E2800092FE14F08BF9834614F08EF9064600EBEB
:10E29000D6704010143807B239468448006820F020
:10E2A00037F909218148006824F052FE78200023C4
:10E2B0000D220090764801687C4800681EF07CFFC3
:10E2C00074497A48006820F002F810217748006805
:10E2D00024F05FFE76A17548006824F051FD00210E
:10E2E00020461BF033FD824674A150461CF028FDE9
:10E2F00000200346092200906C48016850461EF039
:10E300005BFF0021204624F0BBF86F4908605D48A0
:10E31000C1686D48006824F091FF01216A480068D7
:10E3200024F041FE14F03AF9834614F03DF9064614
:10E3300000EBD6704010143807B2394662480068C6
:10E3400020F0E6F809216048006824F001FEC820AA
:10E3500000230D2200904E4801685B4800681EF0C3
:10E360002BFF4C49584800681FF0B1FF0521564863
:10E37000006824F00EFE55A15348006824F000FD0B
:10E3800055A15148006824F092FE002120461BF060
:10E39000DDFC029052A102981CF0D2FC0020034642
:10E3A000092200904848016802981EF005FF0021EC
:10E3B00020460EF059FA019014F0F0F8074614F0D8
:10E3C000F3F8143806B23146019820F0A1F8484914
:10E3D00001981FF07CFF4FF4C870002302222146F1
:10E3E000009001981EF0E8FE4249434823F0BCF932
:10E3F000002003904048BDF80C1001843F49416261
:10E40000002101981BF0A2FC05462E463A4F3946E2
:10E41000304620F070F800BF39A128461CF090FC6F
:10E42000002120461BF0DEF9394908603949384897
:10E4300000681FF04CFF14F0B1F8074614F0FDF827
:10E44000032190FBF1F006B23146314800681FF01D
:10E4500040FF002003460522014600902C4800683A
:10E460001EF0AAFE0A480168294800681BF0E4FB78
:10E470000121274800681BF083FB204604B0BDE85B
:10E48000F09F0000088B0220574C414E0000000016
:10E49000D80A002081C30408535349443A000000BD
:10E4A000DC0A00205057443A00000000E00A002037
:10E4B000303132333435363738392E0053455256E1
:10E4C00045525F49503A0000E40A002030313233AF
:10E4D0003435363738390000302D36353533350090
:10E4E0005345525645525F504F52543A0000000077
:10E4F0009D080208FCA00020208B0220340600208A
:10E50000E4BF9DE5AD98E9858DE7BDAE0000000054
:10E51000D40A0020A57B020808B51449144823F04A
:10E5200023F908211248C1865A2246211148008841
:10E5300011F0B4FC00900E48BDF800108186012156
:10E5400080F839100221818140F2555011F088FB8A
:10E5500000900748BDF80010418103214183818369
:10E56000C18201830449086708BD000074BF002010
:10E57000F4C60020A8050020C4BD002008B513493A
:10E58000134823F0F1F80A211148C1865A22114696
:10E590001048008811F082FC00900D48BDF8001072
:10E5A00081860A2181815A221E210A48008811F0A1
:10E5B00075FC00900648BDF80010418100214183A0
:10E5C0008183C18201830449086708BD78D3002094
:10E5D00054D90020B8050020C8D1002008B50D4945
:10E5E0000D4823F0C1F80A210B48C1865A22462162
:10E5F0000A48008811F052FC00900748BDF800104E
:10E600008186012180F83910002181810449086741
:10E6100008BD000098E9002018F10020C405002082
:10E62000E8E7002008B51549154823F09DF80821B2
:10E630001348C186462250211248008811F02EFC52
:10E6400000900F48BDF800108186012180F8391034
:10E650000721818130220B210A48008811F01EFC1D
:10E6600000900748BDF8001041810121418381835A
:10E67000C18201830449086708BD00001CF900201D
:10E6800090FD0020CC0500206CF7002001480249D5
:10E6900008677047C00601201005012008B50D4924
:10E6A0000D4823F061F80A210B48C1865A2228211F
:10E6B0000A48008811F0F2FB00900748BDF80010EE
:10E6C0008186012180F83910002181810449086781
:10E6D00008BD0000AC080120980D0120DC050020D9
:10E6E000FC06012000B585B03849394823F03CF8D4
:10E6F0004C213748017247F61841C18035480068FF
:10E7000004903348BDF8101041803248001D006865
:10E7100003902F48BDF80C108180022181812D4883
:10E720000830006802902A48BDF808104181332162
:10E73000C1730021418381830A21C18201830021A9
:10E74000C1832249244823F00FF847F61841224894
:10E75000C180022181811F480C30006801901E4851
:10E76000BDF804104181B221C1730021418381832E
:10E77000C1820183052141825A2214211748008851
:10E7800011F08CFB00901448BDF80010018250225B
:10E7900028211248008811F081FB00900E48BDF836
:10E7A00000104180502228210C48008811F076FB8F
:10E7B00000900948BDF80010818005480849486567
:10E7C00005490748816505B000BD000074BF002001
:10E7D000CCC10020DCD6050808C20020A805002016
:10E7E000C4BD0020034804494865044902488165C6
:10E7F0007047000038A1002048CD002074A10020FF
:10E8000008B51C491C4822F0AFFF5F220F211B48AE
:10E81000008811F043FB00901748BDF800104180BC
:10E820000146498881800321C18000218181062120
:10E8300041838183C18201830146114822F094FF04
:10E84000462255210D48008811F028FB00900C4805
:10E85000BDF8001041800146498881800021418334
:10E860008183C182018304480649486504490548FB
:10E87000816508BD78D3002038D70020B805002076
:10E8800074D70020C8D1002010B51049104822F0DC
:10E890006BFF06210E4841838183C182018347F6C5
:10E8A0001841C1800B490C4822F05EFF03210A4841
:10E8B00041838183C182018347F61841C1800448A6
:10E8C0000649486504490548816510BD18E50020E2
:10E8D000CCE5002054E5002008E6002078E2002086
:10E8E00000B585B03849394822F03EFF4C21374801
:10E8F000017247F61841C1803548006804903348DA
:10E90000BDF8101041803248001D006803902F4868
:10E91000BDF80C108180022181812D4808300068EB
:10E9200002902A48BDF8081041813321C1730021AB
:10E93000418381830A21C18201830021C18322494D
:10E94000244822F011FF47F618412248C1800221D5
:10E9500081811F480C30006801901E48BDF80410EA
:10E960004181B221C173002141838183C18201832E
:10E97000052141825A2214211748008811F08EFA8D
:10E9800000901448BDF8001001825022282112483E
:10E99000008811F083FA00900E48BDF80010418005
:10E9A000502228210C48008811F078FA009009487C
:10E9B000BDF80010818005480849486505490748A9
:10E9C000816505B000BD000098E90020F0EB002053
:10E9D000ACD705082CEC0020C4050020E8E7002097
:10E9E00008B52249224822F0BFFE06212048418373
:10E9F0008183C182018347F61841C1801D491E48A9
:10EA000022F0B2FE462250211C48008811F046FA3E
:10EA100000901948BDF80010418046225021174847
:10EA2000008811F03BFA00901348BDF80010818077
:10EA30000F2214211148008811F030FA00900E487E
:10EA4000BDF80010418101218181FF21C17347F68A
:10EA50001841C180002141838183C1820183044820
:10EA60000749486504490648816508BD0CFA00203D
:10EA700064FC00201CF90020A0FC0020CC05002034
:10EA80006CF7002003480449486501460248816547
:10EA900070470000C00601201005012008B51E497E
:10EAA0001E4822F061FE00211C48017247F6184101
:10EAB000C18002218181FF21C1735A222821184877
:10EAC000008811F0EBF900901448BDF80010418166
:10EAD0001149144822F048FE47F618411148C180F8
:10EAE0005A2228210E48008811F0D8F900900D48CC
:10EAF000BDF8001041800146498881800021818154
:10EB0000052141838183C182018304480649486508
:10EB100004490548816508BDAC080120300C01207E
:10EB2000DC0500206C0C0120FC06012000B585B03E
:10EB30008C498D4822F018FEFF218B48017200207D
:10EB40008949087040F2222011F08AF80090864826
:10EB5000BDF80010418040F2222011F081F80090B1
:10EB60008148BDF8001081800021C1800C214183C3
:10EB70008183C1820183C1837C48006804907A4804
:10EB8000BDF81010418101218181FF21C1737748B7
:10EB9000001D006803907448BDF80C10018200212C
:10EBA00041820121017540F6DD5011F059F80090C5
:10EBB0006D48BDF8001001846D4801686A484162E3
:10EBC000012101850221418540F6DD5011F048F810
:10EBD00000906548BDF800100186002180F83210D1
:10EBE00040F6DD5011F03CF800905F48BDF8001091
:10EBF00081860121C18601465E4822F0B5FD40F2C2
:10EC0000333011F02DF800905A48BDF800104180C3
:10EC100040F2333011F024F800905648BDF800104F
:10EC200081800221818140F2666011F019F8009024
:10EC30005048BDF8001041814C48083000680290EF
:10EC40004C48BDF80810018201464B4822F08CFD6B
:10EC5000002149480183C182418381834249474859
:10EC600022F082FD0A214548C18040F2666010F022
:10EC7000F7FF00904148BDF80010418040F2666007
:10EC800010F0EEFF00903D48BDF80010818040F686
:10EC9000CC4010F0E5FF00903848BDF800104181ED
:10ECA000022181819921C1736022082134480088A2
:10ECB00011F0F4F800903148BDF800100184602292
:10ECC00008212F48008811F0E9F800902B48BDF882
:10ECD00000100186462214212948008811F0DEF830
:10ECE00000902648BDF8001081861F49254822F073
:10ECF0003BFD7F212348017247F61841C1801B4824
:10ED00000C30006801901F48BDF804104181662155
:10ED1000C173012181815C2221211948008811F0F1
:10ED2000BDF800901748BDF8001041805C222121F9
:10ED30001348008811F0B2F800901248BDF8001096
:10ED40008180012141838183C18201830621C183A6
:10ED500008480D494860084808600848886005B0C0
:10ED600000BD0000C0A0002074BF0020CCD6050864
:10ED7000AC050020B0BF0020ECBF002028C0002060
:10ED8000A805002064C00020C4BD002008B51E49AD
:10ED90001E4822F0E9FC1D491D4822F0E5FC002137
:10EDA0001B480183C182418381831A491A4822F09A
:10EDB000DBFC19480146498881800146B1F91C00F5
:10EDC00000EBD0714A1014498A83B1F9180000EBA6
:10EDD000D0714A1010490A831049114822F0C4FC2E
:10EDE00002210F48818140F6BB3010F067FF009090
:10EDF0000B48BDF80010418108480A4948600448A2
:10EE000008600148886008BD38A10020F8CE0020C5
:10EE100034CF002074A1002070CF0020C0A00020BB
:10EE2000ACCF002048CD002000B585B0454946480C
:10EE300022F09AFC45480168434841620421C180A0
:10EE40000146434822F090FC424810F08AFE0090B0
:10EE50003F48BDF80010418001464988818000216B
:10EE6000C18001463C4822F07FFC00213A480183E2
:10EE7000C182418381833449384822F075FC0421E2
:10EE80003648C1803648006804903448BDF81010F8
:10EE900041803348001D006803903048BDF80C10D5
:10EEA00081800121818140F6BB3010F035FF009058
:10EEB0002A48BDF800104181FF21C17340F6AA2005
:10EEC00010F02AFF00902548BDF8001001820021B3
:10EED0000175042141820C2141838183C182018318
:10EEE0000821C18340F2333010F016FF00901B4818
:10EEF000BDF80010018440F2333010F00DFF009097
:10EF00001648BDF8001001860F49164822F02CFC67
:10EF1000002002901348BDF80810418000200190A5
:10EF20001048BDF80410818066210172042181839C
:10EF3000018307480C494860074808600748886013
:10EF400005B000BDC0A0002078D30020BC05002083
:10EF5000F0D30020F0F0F00068D400202CD4002082
:10EF60006CD70508B4D30020C8D1002000B58DB0FF
:10EF70005049514822F0F8FB504800680C904E4828
:10EF8000BDF8301041804D48001D00680B904A4884
:10EF9000BDF82C1081800021C180FF2101720A215F
:10EFA00041838183C1820183C18300200A9042484A
:10EFB000BDF82810418101218181FF21C1730F21FA
:10EFC00081733F4801683C484162002009903A48FB
:10EFD000BDF824100184012101854185002008909D
:10EFE0003548BDF820108186FF2180F838100121B6
:10EFF000C186002007903048BDF81C100186002112
:10F0000080F83210FF2180F833102E492E4822F06C
:10F01000ABFB00212C480183C182418381832649B7
:10F02000284822F0A1FB2749284822F09DFB052112
:10F030002648C1802349264822F096FB00200690EE
:10F040002348BDF818104180002005902048BDF8E5
:10F050001410818019480830006804901C48BDF8DD
:10F060001010418115480C30006803901848BDF815
:10F070000C10018411481030006802901448BDF84B
:10F08000081081860D481430006801901048BDF8C2
:10F090000410018601460F4822F066FB05210D4849
:10F0A000C18005480C4948600748086007488860E7
:10F0B0000DB000BDC0A0002028E4002080D70508C6
:10F0C000C0050020A0E4002064E4002018E5002032
:10F0D000DCE4002054E5002078E2002000B585B093
:10F0E0008549864822F040FBFF21844801720020B8
:10F0F0008249087040F2222010F02AFE00907F48DA
:10F10000BDF80010418040F2222010F021FE009056
:10F110007A48BDF8001081800021C1800C21418314
:10F120008183C1820183C18375480068049073485C
:10F13000BDF81010418101218181FF21C173704808
:10F14000001D006803906D48BDF80C10018200217D
:10F1500041820121017540F6DD5010F0F9FD00906B
:10F160006648BDF800100184664801686348416242
:10F17000012101850221418540F6DD5010F0E8FDB6
:10F1800000905E48BDF800100186002180F8321022
:10F1900040F6DD5010F0DCFD00905848BDF800103E
:10F1A00081860121C1860146574822F0DDFA0520FB
:10F1B00010F0CEFD00905448BDF80010418045206D
:10F1C00010F0C6FD00905048BDF80010818002216B
:10F1D000818140F2666010F0BBFD00904A48BDF8A6
:10F1E0000010418146480830006802904648BDF84A
:10F1F000081001820146454822F0B6FA0021434832
:10F200000183C182418381833C49414822F0ACFAA9
:10F210000A213F48C180C80110F09AFD00903C4887
:10F22000BDF80010418040F2055010F091FD0090B3
:10F230003748BDF80010818040F6CC4010F088FDC2
:10F2400000903348BDF8001041810221818199214D
:10F25000C173602208212F48008810F01FFE009023
:10F260002B48BDF80010018446221421294800884B
:10F2700010F014FE00902648BDF8001081861F494A
:10F28000254822F071FA7F212348017247F6184180
:10F29000C1801B480C30006801901F48BDF8041065
:10F2A00041816621C173012181815C22212119489C
:10F2B000008810F0F3FD00901748BDF80010418061
:10F2C0005C2221211348008810F0E8FD00901248CC
:10F2D000BDF800108180012141838183C1820183B7
:10F2E0000621C18308480D4948600848086008485D
:10F2F000886005B000BD0000C0A0002098E9002093
:10F300009CD70508C8050020D4E9002010EA002099
:10F310004CEA0020C405002088EA0020E8E700202D
:10F3200008B55949594822F01FFA59480168574809
:10F3300041625849584822F017FA1E220B215748BB
:10F34000008810F0ABFD00905348BDF800104180DC
:10F350001E220B215148008810F0A0FD00904E485D
:10F36000BDF8001081805F2205214C48008810F014
:10F3700095FD00904848BDF800100184444801689C
:10F38000454841625F2205214448008810F086FD0F
:10F3900000904148BDF8001001860146404822F027
:10F3A000E3F900213E480183C182418381833749CB
:10F3B0003C4822F0D9F93C221E213848008810F040
:10F3C0006DFD00903748BDF8001041803C221E21A1
:10F3D0003248008810F062FD00903248BDF80010FD
:10F3E0008180002181810521C183002141838183A6
:10F3F000C18201830321C180FF21017226492A486D
:10F4000022F0B2F912220B212448008810F046FDA8
:10F4100000902548BDF80010418012220B211F48A2
:10F42000008810F03BFD00901F48BDF8001081805F
:10F430000521C18019220A211848008810F02EFDEC
:10F4400000901948BDF80010418101218181FF2100
:10F45000C1730A2141838183C1820183282214213F
:10F460000E48008810F01AFD00900F48BDF80010FB
:10F4700081860121C1860A480C4908600648486017
:10F480000248886008BD000038A100201CF9002057
:10F49000D0050020C0A0002094F90020CC05002059
:10F4A00058F90020D0F900200CFA00206CF7002059
:10F4B00010B50649064822F057F906480168044885
:10F4C0004162054908604860886010BD38A100208D
:10F4D000C0060120D8050020100501200EB54449C2
:10F4E000444822F041F9FF214248C1734248016873
:10F4F0004048416240F2444010F086FC00903D4894
:10F50000BDF80010018440F2444010F07DFC0090F2
:10F510003848BDF8001001860146384822F024F929
:10F520003748006802903548BDF8081041803448DB
:10F53000001D006801903148BDF804108180002151
:10F54000C1808181418201462E4822F00DF90021BF
:10F550002C480183C1824183818328492A4822F0B3
:10F5600003F90A212848C180022181815A221E21E3
:10F570002648008810F092FC00902348BDF8001047
:10F580004181FF21C1730421418240F6DD5010F01A
:10F590003BFC00901C48BDF8001001821021418303
:10F5A00081830C21C18201830A21C183114918483A
:10F5B00022F0DAF85A221E211448008810F06EFC5E
:10F5C00000901348BDF800104180014649888180B1
:10F5D0000021818147F61841C1800621C183094875
:10F5E0000C49086005484860074888600EBD000067
:10F5F00038A10020AC080120E005002024090120EA
:10F6000048D80508600901209C090120DC0500207C
:10F61000E8080120FC0601200D4991ED000A80ED6B
:10F62000000A91ED010A80ED010A097C0174084984
:10F63000897C81740649497C4174054991ED020A2F
:10F6400080ED020A91ED030A80ED030A7047000085
:10F65000E40B002000B52DED068B81B008213C485D
:10F66000F2F73CFB08B9012000E00020394988741A
:10F6700020213948F2F732FB08B9012000E00020D0
:10F6800034494874FAF7E4FB00EE100AB8EE400A79
:10F69000304880ED000AD0ED000AB0EE600A062185
:10F6A000684600F065F80098F1F77FF841EC1A0B16
:10F6B0009FED2A0B53EC102BF0F796FF41EC190B42
:10F6C0009FED280B53EC102BF0F78EFF41EC180B3D
:10F6D000F1F77EF81F494860084690ED010AD0ED29
:10F6E000020AB4EEE00AF1EE10FA04DB90ED020A31
:10F6F00080ED010A0DE0174890ED010AD0ED030AF4
:10F70000B4EEE00AF1EE10FA03D890ED030A80EDB2
:10F71000010A104890ED010AD0ED030A30EE600AAC
:10F72000D0ED020A90ED031A70EEC10A80EE201AA5
:10F730009FED0E0A21EE000ABCEEC00A10EE100A80
:10F74000044908740846007C01B0BDEC068B00BD7E
:10F7500000000240E40B0020001C02406666666662
:10F7600066664A3F00000000000000400000C842FA
:10F7700010B502469FED1E1AF0EE410A1D4B1E4CBD
:10F78000247803EB840383ED000A1B4B1B785B1C7E
:10F79000194C237023461B788B4205DA174B1B78D4
:10F7A00013B182ED000A10BD0023144C2370002019
:10F7B0000AE0104B03EB800393ED001A31EE201AA0
:10F7C000F0EE410A431CD8B28842F2DB0A4B1B78A8
:10F7D0008B4202DB0023084C237001EE101AB8EEB6
:10F7E000411AC0EE811AC2ED001A00BFDBE700002B
:10F7F000000000008C910220F90B0020FA0B002081
:10F8000000B587B0142102A8F0F7E5FD00BF002085
:10F8100001901C48006840F080001A4908600846C2
:10F82000006800F08000019000BF00BF00BF002012
:10F8300001900846006840F0010008600846006832
:10F8400000F00100019000BF00BF202002900020C6
:10F850000390012004900220059002A90A48F2F7C3
:10F860002FF908200290002003900120049002202C
:10F87000059002A90548F2F723F9FFF7EBFE07B060
:10F8800000BD000030380240001C02400000024071
:10F8900000EE100AB8EE400A9FED091AC0EE010A08
:10F8A0000849096800EE101AB8EE400A20EE800AF6
:10F8B000BCEEC00A10EE101A024A103211607047F6
:10F8C0000000C8422C0C004030B10749096841F0E3
:10F8D0000101054A116005E00349096821F00101B1
:10F8E000014A116070470000000C004000B587B06D
:10F8F000142102A8F0F76FFD00BF002001903B48E3
:10F90000006840F00800394908600846006800F0C7
:10F910000800019000BF00BF00BF002001903348E5
:10F920001038006840F0010030491039086008467E
:10F93000006800F00100019000BF00BF04200290A9
:10F94000022003900020049002200590069002A956
:10F950002748F2F7B5F82548006840F00800234929
:10F9600008602448006840082349B0FBF1F0401EBD
:10F97000224908607C20091D08602048143800686E
:10F9800040F001001D4914390860081F006820F08C
:10F990000100091F086019480C38006840F0600039
:10F9A00016490C3908600846006840F008000860F5
:10F9B000081D006840F48070091D08600846006852
:10F9C00020F40070086000200C49143108600B48D6
:10F9D0002838006840F08000084928390860084647
:10F9E000006820F00100086007B000BD4038024008
:10F9F000000002407400002020A10700280C0040F5
:10FA0000F0B503460C460025661E11E0A81900EB70
:10FA1000D077791033F81100904201DD4E1E07E0D7
:10FA200033F81100904201DA4D1C01E00846F0BDA8
:10FA3000B542EBDD4FF0FF30F9E7000000B587B0CD
:10FA4000182101A8F0F7C7FC00F04AF808F0D6FE2C
:10FA50002EF040FE08F0E4FA03F0CCF906F098FB33
:10FA600006F000F8F6F75EF905F038FA0BF096FEAE
:10FA70002BF024F82AF092FE04F0D0FCFAF764FA96
:10FA8000FFF734FF2AF08AFE2AF0D8FD07F00EFFB8
:10FA900008F05CF8FFF7B4FEFAF71EFB01A82AF0A5
:10FAA000E5FE9DF8140008F0ABFD00214FF07F400B
:10FAB0000BF016FE002206A1064804F0DBF9002236
:10FAC00005A1064804F0D6F927F0DCFB07B000BD1D
:10FAD000303A0000AC9C0220313A000010BD0220F8
:10FAE00010B51B48006840F0040019490860194827
:10FAF0000068400842F21071B0FBF1F0164908604E
:10FB00006320091D086014481438006840F00100A3
:10FB1000114914390860081F006820F00100091F0E
:10FB20000860081F006840F00100091F08600A48CB
:10FB30002838006840F00100074928390860002291
:10FB40000F211E20F3F7BDF81E20F3F7ADF810BD0E
:10FB500040380240740000202808004070B5054677
:10FB60000C46062C19D101200C49087000221121E5
:10FB70000B48006817F058F828461EF0D2F90646E0
:10FB800030461EF0CEF9064630461EF0CAF906464B
:10FB90000021304626F036FB00BF70BD240C00204B
:10FBA000100C002070B505460C46062C19D101201A
:10FBB0000C490870002212210B48006817F034F835
:10FBC00028461EF0AEF9064630461EF0AAF9064653
:10FBD00030461EF0A6F906460021304626F012FBFC
:10FBE00000BF70BD250C0020100C002070B506462B
:10FBF0000C46062C05D121F00DF805460021FAF738
:10FC0000D9FB70BD70B505460C46072C05D12846BA
:10FC10001EF087F906461DF0B5FF70BDF8B5054624
:10FC20000C4600260E2C29D128460CF0DFFE0228B7
:10FC30000CD1012006F098F80021114880F832100C
:10FC400002461048006819F03AFB17E028460CF00D
:10FC5000CDFE98B9002006F087F80B4800680090A8
:10FC60000748BDF800100186FF2180F832100246D7
:10FC700000210448006819F022FB00BFF8BD000015
:10FC8000908A0220D00A002070EA05082DE9F04190
:10FC900006460D460024072D2AD11648006824F098
:10FCA0002BF8154901EB001007681248006824F092
:10FCB00023F8124951F820803946404619F05AFA83
:10FCC00030461EF0A5F9C4B20B4B221D03EB021205
:10FCD00011680A4A52F8240019F04CFA0022214611
:10FCE0000448006824F088F8214605A0F9F70EFBC7
:10FCF000BDE8F081CC0A00204C0A00207487022065
:10FD0000696E6465783A25640A00000008B5964972
:10FD1000964821F029FD002094490870002193485D
:10FD2000017247F61841C180022181815A22462181
:10FD30008F48008810F0B2F800908C48BDF8001091
:10FD40004181CC21C1731921418381831021C1825A
:10FD500001830A21C183602208218548008810F0B0
:10FD60009DF800908148BDF8001001848148016829
:10FD70007E484162602208217D48008810F08EF89C
:10FD800000907A48BDF80010018601467A4821F0BB
:10FD9000EBFCFF217848017232221146744800883A
:10FDA00010F07CF800907448BDF8001041803222B9
:10FDB00011466F48008810F071F800906E48BDF849
:10FDC000001081809921C1736A4801686A484162C4
:10FDD00064220A216648008810F060F800906648A6
:10FDE000BDF80010018464220A216148008810F0E7
:10FDF00055F800906048BDF80010018601465F4844
:10FE000021F0B2FCFF215D4801723C2232215848AA
:10FE1000008810F043F800905848BDF80010418069
:10FE20003C2232215248008810F038F800905348A4
:10FE3000BDF8001081809921C1735A2250214C488D
:10FE4000008810F02BF800904C48BDF8001041815C
:10FE500048480168494841626422002144480088BA
:10FE600010F01CF800904548BDF800100184642291
:10FE700000213F48008810F011F800903F48BDF87D
:10FE80000010018601463E4821F06EFCFF213C48EF
:10FE9000017232221146364800880FF0FFFF0090B1
:10FEA0003748BDF8001041803222114630480088A2
:10FEB0000FF0F4FF00903248BDF8001081809921C6
:10FEC000C173462250212A4800880FF0E7FF0090B6
:10FED0002B48BDF80010418126480168284841623E
:10FEE0005A220A21224800880FF0D8FF00902448A7
:10FEF000BDF8001001845A220A211D4800880FF025
:10FF0000CDFF00901E48BDF80010018617491D481E
:10FF100021F02AFC99211B48C17332220A2114487E
:10FF200000880FF0BBFF00901648BDF8001041811B
:10FF300010480168134841625A220A210C4800887F
:10FF40000FF0ACFF00900F48BDF800100184074887
:10FF50000D49086108490C48416108498161084917
:10FF6000C1610849016208BD74BF0020A0C0002023
:10FF7000A8050020AC050020DCC0002018C100202E
:10FF800054C1002090C10020C4BD0020064807498C
:10FF90000861074905484161064981610649C16117
:10FFA0000649016270470000B0A1002048CD002042
:10FFB000ECA1002028A2002064A20020A0A2002022
:10FFC00008B55849584821F0CFFB46225A215748D6
:10FFD00000880FF063FF00905348BDF80010418087
:10FFE0000146498881800421C18010214183818399
:10FFF0000C21C18201830A21C18340F6AA200FF09F
:020000040802F0
:100000008BFE00904848BDF8001001820021017568
:10001000062141825F220521444800880FF03EFFFF
:1000200000904148BDF8001001845F2205213F483F
:1000300000880FF033FF00903B48BDF800100186A8
:1000400001463B4821F090FB3C225A21374800886A
:100050000FF024FF00903648BDF8001041800146A3
:1000600049888180042141822F49324821F07CFB5C
:1000700032225F212D4800880FF010FF00902D489C
:10008000BDF80010418001464988818004214182E9
:100090000146294821F068FB28225F212348008877
:1000A0000FF0FCFE00902448BDF80010418001468E
:1000B00049888180022141821B49204821F054FB5C
:1000C00040F6CC400FF028FE00901C48BDF8001010
:1000D00041800146498881800021418205225F21BB
:1000E000124800880FF0DAFE00901448BDF80010A6
:1000F000018405225F210D4800880FF0CFFE00909B
:100100000E48BDF80010018607480D4908610849EE
:100110000B484161074981610749C1610749016293
:1001200008BD000078D30020A4D40020B80500202A
:10013000E0D400201CD5002058D5002094D5002004
:10014000C8D10020054806490861064904484161B4
:1001500081610249C16101627047000018E5002019
:1001600078E2002054E5002008B58049804821F05D
:10017000FBFA00207E49087000217D48017247F695
:100180001841C180022181815A2246217948008884
:100190000FF084FE00907648BDF800104181CC211C
:1001A000C1731921418381831021C18201830A21F6
:1001B000C183602208216F4800880FF06FFE009015
:1001C0006B48BDF8001001846B48016868484162C3
:1001D00001466A4821F0C8FAFF21684801723222BC
:1001E0001146644800880FF059FE00906348BDF83E
:1001F00000104180322211465E4800880FF04EFE0A
:1002000000905E48BDF8001081809921C1735A4862
:1002100001685A48416264220A21564800880FF05A
:100220003DFE00905548BDF8001001840146544839
:1002300021F09AFAFF21524801723C2232214D48A6
:1002400000880FF02BFE00904D48BDF80010418053
:100250003C223221474800880FF020FE0090484899
:10026000BDF8001081809921C1735A225021414864
:1002700000880FF013FE00904148BDF80010418146
:100280003D4801683E4841626422002139480088A7
:100290000FF004FE00903A48BDF8001001840146BA
:1002A000384821F061FAFF213648017232221146A6
:1002B000304800880FF0F2FD00903248BDF8001081
:1002C0004180322211462B4800880FF0E7FD009054
:1002D0002C48BDF8001081809921C173462250211D
:1002E000244800880FF0DAFD00902648BDF8001081
:1002F000418121480168234841625A220A211D4850
:1003000000880FF0CBFD00901E48BDF8001001845E
:1003100017491D4821F028FA99211B48C173322240
:100320000A21144800880FF0B9FD00901648BDF866
:100330000010418110480168134841625A220A2185
:100340000C4800880FF0AAFD00900F48BDF800107F
:10035000018407480D49086108490C484161084972
:1003600081610849C1610849016208BD98E900201E
:10037000C4EA0020C4050020C805002000EB0020CE
:100380003CEB002078EB0020B4EB0020E8E70020F5
:1003900008B57E497E4821F0E7F928220A217D48E8
:1003A00000880FF07BFD00907948BDF80010418077
:1003B00014220A21774800880FF070FD00907448DD
:1003C000BDF80010818040F211100FF0EFFC00909A
:1003D0006F48BDF80010418101218181B221C173B4
:1003E0001921418381830C21C18201830021017580
:1003F00040F211100FF0DAFC00906548BDF80010D3
:1004000001820321418240F6EE600FF0CFFC0090A4
:100410005F48BDF80010018440F6EE600FF0C6FCA6
:1004200000905B48BDF80010018601465A4821F053
:100430009BF91E220A21574800880FF02FFD0090DB
:100440005548BDF8001041800A22114651480088E5
:100450000FF024FD00905048BDF8001081804C49F9
:100460004E4821F081F914220A214A4800880FF0F1
:1004700015FD00904948BDF80010418028220A214E
:10048000444800880FF00AFD00904448BDF8001071
:1004900081800221418240F6DD500FF087FC009000
:1004A0003E48BDF80010018440F6DD500FF07EFCA0
:1004B00000903A48BDF8001001863549384821F0CF
:1004C00053F90A221146334800880FF0E7FC0090E8
:1004D0003348BDF8001041801E220A212D480088B3
:1004E0000FF0DCFC00902E48BDF800108180032145
:1004F000418240F6DD500FF059FC00902848BDF8CD
:100500000010018440F6DD500FF050FC00902448AC
:10051000BDF8001001861E49224821F025F9142259
:100520000A211C4800880FF0B9FC00901D48BDF856
:100530000010418014220A21164800880FF0AEFCFA
:1005400000901848BDF8001081800021418240F6DB
:10055000AA200FF02BFC00901248BDF80010018477
:1005600040F6AA200FF022FC00900E48BDF80010C3
:10057000018607480C49086107490B484161074952
:1005800081610749C1610749016208BD1CF900206A
:10059000FCFA0020CC05002038FB002074FB002072
:1005A000B0FB0020ECFB00206CF70020044805495C
:1005B00008610146034841618161C1610162704780
:1005C000C00601201005012008B55B495B4821F0F9
:1005D000CBF800215948017247F61841C180022129
:1005E00081815A222821564800880FF057FC00903C
:1005F0005248BDF800104181FF21C173042141829E
:1006000040F6DD500FF000FC00904C48BDF80010A3
:1006100001821921418381830C21C18201835A22E5
:100620002821474800880FF039FC00904348BDF866
:10063000001001845A222821414800880FF02EFC26
:1006400000903E48BDF80010018601463D4821F06B
:100650008BF83C2228213A4800880FF01FFC0090BC
:100660003848BDF800104181002141823C222821F8
:10067000334800880FF012FC00903248BDF800109B
:1006800001843C2228212E4800880FF007FC0090AE
:100690002C48BDF80010018601462B4821F064F873
:1006A00032222821264800880FF0F8FB00902648C7
:1006B000BDF80010418132222821214800880FF026
:1006C000EDFB00902048BDF8001001843222282163
:1006D0001B4800880FF0E2FB00901B48BDF800109B
:1006E00001860146194821F03FF840F6BB300FF073
:1006F0008BFB00901548BDF80010418140F6BB30DF
:100700000FF082FB00901148BDF80010018440F604
:10071000BB300FF079FB00900C48BDF8001001864B
:1007200006480B490861074909484161816106494A
:10073000C1610649016208BDAC080120D809012049
:10074000DC050020140A0120500A01208C0A012037
:10075000FC06012070B505460C46072C09D1284639
:100760001DF056FC401CC6B200223146104605F072
:10077000B7FB70BD7FB505460C46072C3ED120481F
:1007800000681FF0FDFF1330C0B28DF808001D484F
:1007900000681FF0F5FF401CC0B28DF809001A4830
:1007A00000681FF0EDFF401CC0B28DF80A0017482A
:1007B00000681FF0E5FFC0B28DF80B001448006818
:1007C0001FF0DEFFC0B28DF80C009DF80C009DF804
:1007D0000B10CDE900109DF80A309DF809209DF816
:1007E00008100CA0F8F792FD02A805F0D7FB2846E8
:1007F0001DF097FB06461DF0C5F900BF7FBD000048
:10080000280C00202C0C0020300C0020340C002080
:10081000380C002025642D25642D25642025643A9C
:1008200025640000F8B505460C46062C17D128466D
:100830001DF077FB064630461DF073FB064630463A
:100840001DF06FFB064601200549087005A007A3AF
:1008500008A20FA10090304625F040FE00BFF8BD71
:10086000F40A0020E58F96E6B6880000E7A1AEE521
:10087000AE9A0000E7A1AEE5AE9AE9878DE696B0A4
:10088000E590AFE58AA8E59097EFBC9F00000000D7
:1008900020EF809120494E464F0000002DE9F041A5
:1008A00007460C46072C4BD1264805F085FB264809
:1008B000006822F0BBF805462348006822F0F4F8EF
:1008C000064620492A4608683146EFF769FD1F4869
:1008D000006822F0ABF805461C48006822F0E4F8F6
:1008E000064618492A4648683146EFF759FD184828
:1008F000006822F09BF805461548006822F0D4F8FD
:10090000064610492A4688683146EFF749FD1148E6
:10091000006822F08BF805460E48006822F0C4F803
:10092000064608492A46C8683146EFF739FD0548AA
:1009300005F068FB20F067F9054607A125F042FDA8
:10094000BDE8F081088B0220D80A0020DC0A0020D4
:10095000E00A0020E40A0020E4BF9DE5AD98E688A7
:1009600090E58A9F0000000070B505460C46072CF4
:1009700009D1054805F046FB28461DF0D2FA064687
:1009800002A125F01FFD70BD5C8B0220E4BF9DE538
:10099000AD98E68890E58A9F0000000070B5064695
:1009A0000C46062C05D120F035F905460021FBF751
:1009B00033FB70BDF8B505460C46062C17D128460A
:1009C0001DF0AFFA064630461DF0ABFA064630463B
:1009D0001DF0A7FA064600200549087005A007A3E8
:1009E00008A212A10090304625F078FD00BFF8BDA6
:1009F000F40A0020E58F96E6B6880000E7A1AEE590
:100A0000AE9A0000E7A1AEE8AEA4E9878DE590AF0D
:100A1000E8BF9BE585A5E7B3BBE7BB9FE69BB4E6D4
:100A200096B0E59097EFBC9F0000000020EF80910A
:100A300020494E464F00000008B54749474820F07E
:100A400093FE01214548818150223C214448008881
:100A50000FF024FA00904148BDF800104181FF21B9
:100A6000C1730C21C1803F493F4820F07DFE002129
:100A70003D4801720C21C18050223C213848008839
:100A80000FF00CFA00903848BDF800100184374888
:100A90000168354841623349354820F065FE4622F9
:100AA00028212F4800880FF0F9F900903048BDF850
:100AB0000010418046222821294800880FF0EEF9D5
:100AC00000902B48BDF8001081800C21C1802822A5
:100AD0001146234800880FF0E1F900902448BDF842
:100AE0000010018421480168214841621E492148C3
:100AF00020F03AFE50221146194800880FF0CEF936
:100B000000901C48BDF800104181032181811649E5
:100B1000194820F029FE3C220A21114800880FF0D4
:100B2000BDF900901448BDF8001001840B4813492A
:100B3000C1F8C4000C491148C0F8C8100C49C0F8ED
:100B4000CC100C49C0F8D0100949C0F8D4100A499B
:100B5000C0F8D81008BD000084A0002034C30020D5
:100B6000A8050020C0A0002070C30020AC05002014
:100B7000ACC30020E8C3002024C40020C4BD002072
:100B80000A480B49C1F8C4000A490948C0F8C8100E
:100B90000949C0F8CC100949C0F8D0100849C0F87C
:100BA000D4100849C0F8D8107047000038A10020C0
:100BB00048CD0020B0A10020ECA1002028A20020F8
:100BC00064A20020A0A2002008B54C4881684C48CF
:100BD00020F0CAFD00214A4841838183C1820183FC
:100BE000C18340F255500FF097F800904448BDF88B
:100BF0000010018441488168424820F0B5FD1F2162
:100C0000404881730121818140F6BB300FF084F8A8
:100C100000903C48BDF800104181002101724182E2
:100C20000146394820F0A0FD00203749087040F601
:100C3000DD500FF071F800903348BDF8001041808E
:100C400001464988818000218181FF21017201468E
:100C50002E4820F089FD46225A212D4800880FF0A9
:100C60001DF900902948BDF80010418001464988CF
:100C700081805F220521264800880FF00FF900903F
:100C80002248BDF8001001840146224820F06CFD86
:100C900041225F211E4800880FF000F900901D4896
:100CA000BDF8001041800146498881800021818182
:100CB0001549194820F058FD40F6CC400FF02CF8AB
:100CC00000901548BDF80010418001464988818098
:100CD0000B480A49C1F8C4000A490848C0F8C810BE
:100CE0000949C0F8CC100949C0F8D0100949C0F82A
:100CF000D4100A49C0F8D81008BD0000C8D100209F
:100D0000ACDB0020E8DB002024DC002060DC0020DD
:100D1000B80500209CDC0020D8DC002078D300201F
:100D200009480A49C1F8C40001460848C0F8C8107B
:100D30000749C0F8CC10C0F8D0100349C0F8D4104F
:100D4000C0F8D8107047000018E5002078E20020B5
:100D500054E5002008B54749474820F005FD01212A
:100D60004548818150223C21444800880FF096F884
:100D700000904148BDF800104181FF21C1730C2152
:100D8000C1803F493F4820F0EFFC00213D480172FF
:100D90000C21C18050223C21384800880FF07EF899
:100DA00000903848BDF80010018437480168354884
:100DB00041623349354820F0D7FC462228212F488C
:100DC00000880FF06BF800903048BDF800104180AB
:100DD00046222821294800880FF060F800902B480F
:100DE000BDF8001081800C21C180282211462348C3
:100DF00000880FF053F800902448BDF800100184DB
:100E000021480168214841621E49214820F0ACFC7C
:100E100050221146194800880FF040F800901C48F5
:100E2000BDF800104181032181811649194820F045
:100E30009BFC3C220A21114800880FF02FF80090FB
:100E40001448BDF8001001840B481349C1F8C400D0
:100E50000C491148C0F8C8100C49C0F8CC100C4916
:100E6000C0F8D0100949C0F8D4100A49C0F8D81009
:100E700008BD000084A0002058ED0020C40500201B
:100E8000C0A0002094ED0020C8050020D0ED002077
:100E90000CEE002048EE0020E8E7002010B53A48AC
:100EA00001693A4820F060FC02213848418381837F
:100EB000C18201830021C1830121818132480169FE
:100EC000334820F051FC1F21314881730121818179
:100ED0000221C1802C4841692E4820F045FC2C4855
:100EE000817B2C4881732A4881892A48818128483E
:100EF000C1882848C18024488169274820F034FCF3
:100F00002348817B2448817321488189224881813B
:100F10001F48C1882048C1801B4841691F4820F0F4
:100F200023FC1B48817B1D488173194881891B481C
:100F300081811748C1881948C1801348016A18483F
:100F400020F012FC1248817B15488173104881897A
:100F5000134881810E48C1881148C1800B480A4955
:100F6000C1F8C4000A490848C0F8C8100949C0F8C7
:100F7000CC100949C0F8D0100849C0F8D41008496D
:100F8000C0F8D81010BD00006CF7002060000120F0
:100F90009C000120D80001201401012050010120F3
:100FA0008C01012008480949C1F8C40001460748DE
:100FB000C0F8C810C0F8CC10C0F8D010C0F8D410D9
:100FC000C0F8D81070470000C006012010050120AD
:100FD00008B55049504820F0C7FB00204E49087022
:100FE00000214D4841838183C18201830621C18351
:100FF0004A4801684848416249494A4820F0B4FBE0
:1010000000214848017281814549474820F0ACFBE6
:101010000021454801726421C180022181813C2266
:101020002821424800880EF039FF00903E48BDF864
:1010300000104181FF21C1733C2228213B480088D8
:101040000EF02CFF00903848BDF8001001840146D6
:10105000374820F089FBFF21354801725F220F21BC
:10106000324800880EF01AFF00903148BDF8001099
:1010700041800146498881800021818128223C21CC
:101080002A4800880EF00AFF00902948BDF8001099
:1010900001840146274820F067FB46221E21234891
:1010A00000880EF0FBFE00902248BDF80010418041
:1010B0000146498881801C491F4820F055FB40F6B5
:1010C00088000EF0A1FE00901B48BDF80010418082
:1010D00018494988818040F688000EF095FE0090FE
:1010E0001548BDF8001001840B481449C1F8C4002C
:1010F0000C491248C0F8C8100B49C0F8CC100C4974
:10110000C0F8D0100B49C0F8D4100B49C0F8D81063
:1011100008BD00000CA00020B40F0120E005002055
:10112000AC080120F00F01202C100120DC0500206C
:1011300068100120A4100120E0100120FC0601200D
:1011400010B520A027F038FE2148017821A027F013
:1011500033FE1F48007800F0010010B123A027F0F3
:101160002BFE1B48007800F0020010B122A027F0EF
:1011700023FE1748007800F0040010B121A027F0EA
:101180001BFE1348007800F0080010B121A027F0E2
:1011900013FE0F48007800F0100010B120A027F0D7
:1011A0000BFE0B48007800F0800030B108480F308B
:1011B00001681DA027F000FE02E01FA027F0FCFD43
:1011C00010BD0000627573206661756C743A0A0088
:1011D00029ED00E05343425F434653525F4246537A
:1011E000523A307825303258200000004942555399
:1011F0004552522000000000505245434953455289
:1012000052200000494D5052454349534552522007
:1012100000000000554E53544B4552522000000030
:1012200053544B45525220005343422D3E424641B7
:10123000523A253038580A000A00000010B5002440
:1012400007E0204600F01BF808B160B210BD601C3A
:10125000C4B2022CF5DB4FF0FF30F7E70146C1F3D3
:10126000C010704770470146C1F300207047014627
:10127000C1F3C00070470146C1F3401070470146FA
:10128000002070470146C1F3001070470146C1F3CA
:101290008010704770B506460C46FFF7CFFF054635
:1012A000002D04DB0120A07304490D7001E0002033
:1012B000A07302480078A060002070BD0C060020DA
:1012C00008B54049404820F04FFA00213E48C1800F
:1012D0000821418381830721C18201833C221E2191
:1012E0003A4800880EF0DAFD00903748BDF800104B
:1012F00041800146498881803548C17B3248C173AD
:101300003348818930488181502214212F48008838
:101310000EF0C4FD00902C48BDF8001041816422FD
:1013200005212A4800880EF0B9FD00902648BDF836
:10133000001001840146274820F016FA4622282191
:10134000224800880EF0AAFD00902248BDF8001047
:1013500041800146498881800021017219491E4857
:1013600020F002FA50221E21184800880EF096FD47
:1013700000901948BDF8001001841249174820F068
:10138000F3F941220A21114800880EF087FD0090F0
:101390001248BDF8001001840D481149C1F88C00B5
:1013A00009490F48C0F89010C0F8A4100949C0F8C6
:1013B000A8100949C0F89810C0F89C100749C0F857
:1013C000A01008BD74BF002030C70020A805002071
:1013D00028C00020E4C700206CC70020A8C7002058
:1013E000C4BD00200EB54049404820F0BDF946225A
:1013F00000213F4800880EF051FD00903B48BDF8A9
:101400000010018438493B4820F0AEF95A2250219F
:10141000374800880EF042FD00903648BDF80010B5
:1014200001843149344820F09FF964222821304852
:1014300000880EF033FD00902F48BDF80010418069
:10144000642228212A4800880EF028FD00902A48AE
:10145000BDF8001081800521C18201832748806882
:10146000418B2548418325488068818B22488183B0
:1014700022488068204940894881204880688189C5
:101480001D4881810C2181730021C18016491C48AF
:1014900020F06AF91B48006802901948BDF808104E
:1014A00041801848001D006801901548BDF80410DF
:1014B00081800521C18201830021C1800F4880689D
:1014C0000E49C1F88C0010490C48C0F8901007492B
:1014D000C0F8A0100749C0F89C100749C0F8A41034
:1014E0000749C0F8A8100EBD78D3002090D900207D
:1014F000B8050020CCD9002008DA0020C8D100208F
:1015000044DA002074D705080CA0002010B5074964
:10151000074820F029F905210548C18201830146C9
:101520000448C0F8A410C0F8A81010BDA0E4002022
:10153000F8E6002078E200200EB52F492F4820F071
:1015400013F9322200212E4800880EF0A7FC0090EB
:101550002A48BDF80010018427492A4820F004F9E0
:101560005A223221264800880EF098FC0090254827
:10157000BDF8001001842049234820F0F5F800212F
:1015800021480172214880681F494089488105210E
:101590001D48C182018318491D4820F0E5F81D4807
:1015A000006802901A48BDF8081041801948001DD3
:1015B000006801901648BDF8041081800521C182A1
:1015C00001830021C180114880681049C1F88C0056
:1015D0000846816BC0F89010016CC0F8A010C16B78
:1015E000C0F89C100849C0F8A410C0F8A810816B7E
:1015F000C0F894100EBD000098E9002054F10020BE
:10160000C405002090F10020CCF10020E8E7002084
:1016100008F20020C8D7050808B56949694820F0D4
:10162000A3F828220A21684800880EF037FC0090B1
:101630006448BDF80010418028220A2162480088D1
:101640000EF02CFC00905F48BDF80010818040F245
:1016500033300EF0ABFB00905A48BDF800104181CA
:10166000012181810521C1800A2141838183C182B9
:1016700001835349554820F077F814220A21524833
:1016800000880EF00BFC00905048BDF8001041801F
:1016900014220A214C4800880EF000FC00904B48B0
:1016A000BDF8001081800021C1800121818140F2BC
:1016B00033300EF07BFB00904448BDF800104181B0
:1016C0000A2141838183C18201834149414820F03D
:1016D0004BF82D221E213C4800880EF0DFFB0090C5
:1016E0003C48BDF8001041802D221E21364800885C
:1016F0000EF0D4FB00903748BDF800108180052122
:10170000C180012181810521418381830421C1821E
:1017100001830146304820F027F8462250212A480C
:1017200000880EF0BBFB00902B48BDF800104180F4
:1017300046225021244800880EF0B0FB0090264835
:10174000BDF8001081800521C1800721418381837C
:10175000C18201831A49214820F006F8502228212D
:10176000194800880EF09AFB00901C48BDF8001044
:10177000018413491A481FF0F7FF3C220021124848
:1017800000880EF08BFB00901548BDF80010018416
:101790000C481449C1F88C000C491248C0F890104C
:1017A0000C49C0F8A4100C49C0F8A8100B49C0F8A7
:1017B0009C100449C0F898100949C0F8A01008BD51
:1017C00094F90020CCFD0020CC05002008FE00206C
:1017D0000CFA002044FE002080FE0020BCFE002009
:1017E000F8FE00206CF700200A4880680949C1F81B
:1017F0008C0009490748C0F89010C0F8A010C0F844
:101800009C10C0F8A410C0F8A810C0F89410C0F83C
:101810009810704710050120C006012008B5234923
:1018200023481FF0A1FF46220021224800880EF025
:1018300035FB00901E48BDF8001001841B491E486E
:101840001FF092FF5A2232211A4800880EF026FB20
:1018500000901948BDF800100184144917481FF082
:1018600083FF00211548017215488068134940899B
:10187000488105211148C182018347F61841C18082
:101880000F4880680E49C1F88C000E490C48C0F81A
:1018900090100749C0F8A0100749C0F89C100A49E9
:1018A000C0F8A4100549C0F8A81008BDAC08012074
:1018B000D40D0120DC050020100E01204C0E01206B
:1018C000FC0601200CA0002048A0002000B589B033
:1018D000664967481FF048FF05216548C18001211E
:1018E00081816448006808906148BDF820104181FA
:1018F0006048001D006807905D48BDF81C104180DD
:101900005C480830006806905948BDF8181081807E
:10191000564959481FF028FF00215748017281811C
:101920000C21C183002141838183C18201835348FB
:101930000168514841624E4951481FF015FF5A2233
:101940000A21504800880EF0A9FA00904C48BDF8D2
:101950000010418052220A214A4800880EF09EFA67
:1019600000904748BDF800104180414946481FF0AB
:10197000FBFE0421444881813E480C3000680590FC
:101980004148BDF8141041819921C173522232217E
:101990003C4800880EF082FA00903B48BDF80010E9
:1019A00041803E223221374800880EF077FA0090BD
:1019B0003548BDF800108180014634481FF0D4FE40
:1019C0002C481030006804903048BDF81010418158
:1019D000B221C173482232212A4800880EF05EFAF3
:1019E00000902A48BDF80010418034223221254859
:1019F00000880EF053FA00902448BDF80010818052
:101A0000214923481FF0B0FE012121488181194856
:101A10001430006803901E48BDF80C104181154831
:101A20001830006802901A48BDF80810418011482B
:101A30001C30006801901648BDF8041081800E48E3
:101A40001449C1F8AC000A491248C0F8B0100C495A
:101A5000C0F8B4100C49C0F8B8100C49C0F8BC105C
:101A60000B49C0F8C01009B000BD0000B0BF002095
:101A70005CC80020F8D6050820C80020AC0500206E
:101A800098C80020A8050020D4C8002010C9002054
:101A90004CC90020C4BD00200A480B49C1F8AC0065
:101AA0000A490948C0F8B0100949C0F8B4100949FA
:101AB000C0F8B8100849C0F8BC100849C0F8C010F8
:101AC000704700000CA0002048CD002038A1002065
:101AD000ECA1002028A2002064A20020A0A20020E7
:101AE00008B53048816830481FF03EFE00212E487E
:101AF00001750321418201462C481FF035FE40F656
:101B0000CC400EF009F900902848BDF80010418043
:101B100001464988818000214182234924481FF0E1
:101B200023FE55224B21234800880EF0B7F9009080
:101B30001F48BDF80010418001464988818001217D
:101B400001750021418201461B481FF00DFE412214
:101B50004B21184800880EF0A1F900901648BDF8F6
:101B600000104180014649888180002141820D4852
:101B7000016A12481FF0F8FD11480A49C1F8AC008B
:101B800009490848C0F8B0100849C0F8B41008491D
:101B9000C0F8B8100849C0F8BC100849C0F8C01017
:101BA00008BD0000C8D1002080DA0020BCDA002087
:101BB000F8DA0020B805002034DB002070DB0020BC
:101BC0000CA0002009480A49C1F8AC00094908489E
:101BD000C0F8B0100849C0F8B410C0F8B8100549F2
:101BE000C0F8BC10C0F8C010704700000CA0002066
:101BF00078E2002018E5002054E5002000B589B007
