:020000040801F1
:10000000C8B30220C101010853720108C7020108E8
:100010004F720108190C0108D18D01080000000081
:10002000000000000000000000000000DF83010865
:10003000730D01080000000013020108E1830108AC
:10004000DB010108DB010108DB010108DB0101081C
:10005000DB010108DB010108DB010108DB0101080C
:10006000DB010108DB010108DB010108DB010108FC
:10007000DB010108DB010108DB010108DB010108EC
:10008000DB010108DB010108DB010108DB010108DC
:10009000DB010108DB010108DB010108DB010108CC
:1000A000DB010108DB010108DB010108DB010108BC
:1000B000DB0101086585010875850108DB01010880
:1000C000DB010108DB010108DB010108DB0101089C
:1000D000DB010108198D0108318D0108DB010108E0
:1000E000750D0108DB010108DB010108DB010108D6
:1000F000DB010108DB010108DB010108DB0101086C
:10010000DB01010851730108DB010108DB01010873
:10011000DB010108DB010108DB010108DB0101084B
:10012000DB010108DB010108DB010108490C0108C2
:10013000DB010108DB010108DB010108DB0101082B
:10014000DB010108DB010108DB010108DB0101081B
:10015000DB010108590C0108DB010108818D010850
:10016000DB010108DB010108DB010108DB010108FB
:10017000DB010108DB010108DB01010800000000D0
:10018000DB010108DB010108DB010108DB010108DB
:10019000DB010108DB010108DB010108DB010108CB
:1001A000DB010108DB0101081D0C0108DFF80CD0A0
:1001B00000F0CAFA00480047C3070108C8B302208C
:1001C0000648804706480047FEE7FEE7FEE7FEE7F1
:1001D000FEE7FEE7FEE7FEE7FEE7FEE70185010832
:1001E000AD010108EFF3108072B6704780F31088FC
:1001F0007047434A1368012B04D04FF0010313608A
:10020000404A1060404A116040484FF08051016000
:100210007047EFF3108272B63948016851B34FF05E
:10022000000101603748016891B1EFF309811EF0C8
:10023000100F08BF21ED108B21E9F00F4FF00004E3
:100240001EF0100F08BF012441F8044D0068016042
:100250002D490968096808C9B1E8F00F002B18BFDB
:10026000B1EC108B81F309884EF0100E002B18BFF3
:100270002EF0100E82F310884EF0040E70472249C3
:100280000860EFF3148222F0040282F314881D49FF
:100290004FF0000008601A494FF0010008601C4848
:1002A0004FF47F01D0F8002041EA020101601748B5
:1002B0004FF08051016017480068006880F308889B
:1002C00061B662B670471EF0040F0CBFEFF30880F2
:1002D000EFF3098020E9F00F40F804ED40F804ED59
:1002E0001EF0040F0CBF80F3088880F3098800B566
:1002F00034F074FD5DF804EB4EF0040E704700001E
:100300008C0E0020840E0020880E002004ED00E0FA
:1003100020ED00E008ED00E02DE9F05F054600204B
:1003200092469B4688460646814640241BE0284666
:1003300041464746224600F063F953465A46C01AE2
:10034000914110D311461846224600F04AF92D1A61
:1003500067EB01084F4622460120002100F041F9D9
:1003600017EB00094E41201EA4F10104DFDC4846D2
:1003700031462A464346BDE8F09F10B540EA0104E5
:100380000346A40703D009E010C9121F10C3042AB2
:10039000FAD203E011F8014B03F8014B521EF9D2D7
:1003A00010BDD2B201E000F8012B491EFBD270470C
:1003B0000022F6E710B513460A4604461946FFF731
:1003C000F0FF204610BD421E12F8013F002BFBD16A
:1003D00011F8013B02F8013B002BF9D1704730B511
:1003E00005462A460B4612F8010B13F8014B08B1DB
:1003F000A042F8D01CB1002802D06D1CF1E72846BD
:1004000030BD10B5044604E00B7800F8013B03B1A1
:10041000491C521EF8D2204610BD421C10F8011B88
:100420000029FBD1801A704710B5002200E0521C51
:10043000835C8C5CA34201D1002BF8D1D8B2E1B22D
:10044000401A10BD034611F8012B00F8012B002AB9
:10045000F9D11846704730B505460020034600E044
:100460005B1C934205D2EC5CC85C201A01D1002CC5
:10047000F6D130BD2DE9FE4F81EA030404F00044BB
:1004800021F0004100944FF0000B23F0004350EAAC
:1004900001045ED052EA03045BD0C3F30A54C1F3F3
:1004A0000A552C44A4F2F3340194A0FB0254C1F386
:1004B000130141F48011C3F3130343F4801301FBD0
:1004C000024400FB034E840A970A44EA815447EA37
:1004D0008357A4FB076802958D0A05FB07854FEA41
:1004E000932C04FB0C542705029D4FEA065847EA5B
:1004F0001637B5EB08056EEB070C870E920E47EA30
:10050000811742EA8312A7FB0201B6EB0B0164EBF1
:1005100000042B0D43EA0C335E1844EB1C50DA4602
:100520005146E7FB0201C5F313044FEA0B3343EADC
:1005300014534FEA0432019C43EA0603A4F10C046D
:100540000294009CCDE900B400F0B0F803B0BDE81F
:10055000F08F00200146F9E700F0004230F0004043
:100560000AD0C10D01F56071C0F3160042EA0151D5
:10057000C20840071143704700200146704701F050
:10058000004330B421F0004150EA010206D00A0DC8
:10059000A2F56072C1F31301002A02DC30BC002016
:1005A0007047440F44EAC104C100E01830BC00EBBE
:1005B000C25000F035B830B50B460146002020226D
:1005C000012409E021FA02F59D4205D303FA02F560
:1005D000491B04FA02F52844151EA2F10102F1DCC0
:1005E00030BD202A04DB203A00FA02F100207047D7
:1005F0009140C2F1200320FA03F319439040704761
:10060000202A04DB203A21FA02F00021704721FA67
:1006100002F3D040C2F120029140084319467047CE
:100620000029A8BF7047401C490008BF20F0010006
:10063000704710B4B0FA80FC00FA0CF050EA0104E4
:1006400004BF10BC704749B1CCF1200421FA04F476
:1006500011FA0CF118BF012121430843A3EB0C014F
:10066000CB1D4FEA00614FEA102042BF002010BCB2
:10067000704700EBC35010440029A4BF10BC704762
:10068000401C490008BF20F0010010BC704710B5A5
:10069000141E73F1000408DA401C41F100019218A5
:1006A0005B411A4301D120F0010010BD2DE9F04D4E
:1006B00092469B4611B1B1FA81F202E0B0FA80F2A3
:1006C00020329046FFF78DFF04460F4640EA0A00AD
:1006D00041EA0B0153465A46084313D0114653EAE8
:1006E000010019D0C8F140025046FFF789FF0546C6
:1006F0000E46504659464246FFF773FF084305D061
:10070000012004E020463946BDE8F08D0020054375
:1007100046EAE0762C4337430A986305E40AA0EBE7
:1007200008000022FD0A44EA47540A3002D500209E
:100730000146E9E7010510196941DDE9084500199D
:100740006941BDE8F04DA2E7064C074D06E0E068C0
:1007500040F0010394E8070098471034AC42F6D308
:10076000FFF728FD6C8008088C80080870B58C188D
:1007700010F8015B15F0070301D110F8013B2A11B5
:1007800006D110F8012B03E010F8016B01F8016BA2
:100790005B1EF9D12B0705D40023521E0DD401F89E
:1007A000013BFAE710F8013BCB1A921C03E013F867
:1007B000015B01F8015B521EF9D5A142D8D300209C
:1007C00070BD10B5FFF70EFD36F01AFA002010BD0F
:1007D00054494A6822F440324A604A6843681A43DE
:1007E0004A600268526822F4807203685A600268A4
:1007F0005368026943EA022203685A600268526839
:1008000022F0407203685A600268526883681A4393
:1008100003685A600268926822F4006203689A6072
:1008200002689268C3681A4303689A603E4B826A02
:100830009A4218D00268926822F0706203689A6047
:1008400002689268836A1A4303689A600268926831
:1008500022F0405203689A6002689268C36A1A43A1
:1008600003689A600BE00268926822F07062036885
:100870009A600268926822F0405203689A600268A7
:10088000926822F0020203689A60026893688269A3
:1008900043EA420203689A60026AA2B1026852689F
:1008A00042F4006203685A600268526822F46042AF
:1008B00003685A6002685368426A521E43EA423231
:1008C00003685A6005E00268526822F40062036817
:1008D0005A600268D26A22F470020368DA6202681F
:1008E000D36A828B521E43EA02520368DA620268BC
:1008F000926822F4007203689A6002689368026B3F
:1009000043EA422203689A600268926822F4806295
:1009100003689A6002689368426943EA8222036826
:100920009A607047002301400100000F70470000EB
:1009300010B504462146024803F077FA10BD0000C6
:10094000888A002010B5044803F082FA042801D0F8
:10095000012010BD0020FCE7888A002010B5104857
:10096000104908600020486000210E488160C16085
:10097000016141618161002400F016F8012801D075
:10098000012010BD074803F077FB044634B94FF44B
:100990000061044803F0FCF800B101242046F0E7B0
:1009A000002C0140888A002008B5012000909DF8A5
:1009B000000008BD2DE9F04104460D46164600270B
:1009C00033462A462146044803F098FC00B101272B
:1009D0003846BDE8F0810000888A002001200149E6
:1009E00008707047580000202DE9F04706468946F8
:1009F00017464FF0010A394807F0FCF8002802DAE0
:100A00005046BDE8F08706F00300002864D13A465E
:100A100049463046FFF7CEFF48BB002030490870FA
:100A200001F018F8044600BF2D48007828B901F0FD
:100A300011F8001B29498842F6D32948007810B9DB
:100A40004FF0010A48E000202549087001F002F843
:100A5000044605E0FFF776FF10B94FF0000A05E005
:100A600000F0F8FF001B1D498842F3D334E04FF03B
:100A7000000828E0494609F1010901221948FFF759
:100A800099FF0546E5B900201549087000F0E2FF1E
:100A9000044600BF1248007828B900F0DBFF001BB5
:100AA0000E498842F6D30E48007800B90DE04FF4A5
:100AB00000720C493046FFF760FC06F5007600E056
:100AC00003E008F10108B845D4D300BFB84502D10E
:100AD0000DB94FF0000A00BF504692E700E1F5055E
:100AE00058000020CC8B00202DE9F04104460D4633
:100AF0001646002733462A462146044803F09CFC4C
:100B000000B101273846BDE8F0810000888A002046
:100B10000120014908707047570000202DE9F04777
:100B20000746894690464FF0010A00203749087071
:100B3000374807F05FF8002802DA5046BDE8F08732
:100B400007F0030000285ED1424649463846FFF7C9
:100B5000CBFF30BB00F07EFF044600BF2B4800787F
:100B600028B900F077FF001B29498842F6D32748AF
:100B7000007810B94FF0010A45E0002023490870C1
:100B800000F068FF044605E0FFF7DCFE10B94FF007
:100B9000000A05E000F05EFF001B1D498842F3D308
:100BA00031E0002627E0002018490870494609F185
:100BB000010901221748FFF797FF0546CDB900F05C
:100BC00049FF044600BF1148007828B900F042FFF1
:100BD000001B0F498842F6D30C48007800B90CE09E
:100BE0004FF400720B493846FFF7C7FB07F5007753
:100BF00000E002E0761C4645D5D300BF464502D151
:100C00000DB94FF0000A504698E700005700002049
:100C100000E1F505CC8B002000BFFEE710B50848C9
:100C2000406800F0020048B10548806840F00200CA
:100C300003498860034800681FF0C8FD10BD00002C
:100C400000B002406405002010B5024800F0D4FB5B
:100C500010BD00000C8B002010B5024800F0CCFB4A
:100C600010BD00006C8B0020014608781038182356
:100C7000B0FBF3F20848805CC865032A05D9086810
:100C80006FF30900001D886503E008686FF3090031
:100C90008865886D70470000106D080801460020C7
:100CA0008A6A8B69CBB932B1012A0DD0022A03D0EE
:100CB000032A10D10EE000BFCB6A03F08073B3F1BA
:100CC000807F00D1012007E0CB6AB3F1C07F00D163
:100CD000012001E000E000BF34E08B69B3F5005F64
:100CE0001AD132B1012A07D0022A03D0032A11D126
:100CF0000AE000BF01200EE0CB6A03F08073B3F17D
:100D0000807F00D1012006E0CB6AB3F1C07F00D123
:100D1000012000E000BF15E032B1012A05D0022A0F
:100D200004D0032A0CD103E000BF00BF012008E07B
:100D3000CB6A03F08073B3F1807F00D1012000E023
:100D400000BF00BF704730B50468246824F48024D5
:100D500005682C60046863608468402C04D10468D2
:100D6000A2600468E16003E00468A1600468E260D6
:100D700030BD704710B54FF4806000F041FD10BDEC
:100D8000704730B504460D4600222946204600F043
:100D900001F830BDF0B50346012500241148807BE1
:100DA00002281CDA00200F4EB67B0E4FB85538468D
:100DB000867B001D40F82630001F867B0C30825554
:100DC0003E46B07B461CBE73044604F130000870FA
:100DD0003A2048702F2088700020C87000252846CF
:100DE000F0BD0000D469022030B502460023002483
:100DF0000868012816D013686FF30E03D1E90105C6
:100E00002843CD6828430D6928434D6928438D69DF
:100E10002843CD6928430D6A28434D6A284303437C
:100E2000136019E0136823F4F843D1E90705284358
:100E30004D6A2843034354686FF30E04D1E901055A
:100E40002843CD6828430D6928434D6928438D699F
:100E50002843044313605460002030BD02465069AB
:100E600040EA4100506100207047F8B506460C4644
:100E70001546002000900027D4E900010843A1682E
:100E8000491E40EA4110E16840EA41200090009884
:100E9000306100F0DFFD074609E0681C38B125B17C
:100EA00000F0D8FDC01BA84201D90320F8BDB069ED
:100EB00000F020000028F0D100BFF7E770B503462E
:100EC000154600220024012D1FD09A6802F07042BE
:100ED0000868401E4E68761E40EA06168868401E66
:100EE00046EA0026C868401E46EA0036088A401EC8
:100EF00046EA0046888A401E46EA0056087E401EA2
:100F000046EA006002439A6022E09A681148024073
:100F1000C868401E0603888A401E46EA0050024305
:100F2000DC6804F070440868401E4E68761E40EA93
:100F300006168868401E46EA0026088A401E46EAD1
:100F40000046087E401E46EA006004439A60DC606A
:100F5000002070BDFF0F0FFF38B502460020009043
:100F600000BF92F83C00012801D1022038BD0120C9
:100F700082F83C0000BF0868092816D91068C068CC
:100F80000C780A3C04EB44050724AC40A0431468E9
:100F9000E0600C780A3C04EB44048868A0401468C4
:100FA000E46820431468E06013E0106800690C787E
:100FB00004EB44050724AC40A043146820610C787E
:100FC00004EB44048868A040146824692043146832
:100FD00020614868072817D21068406B0C79641E9E
:100FE00004EB84051F24AC40A043146860630888A8
:100FF00080B20C79641E04EB8404A0401468646B16
:1010000020431468606331E048680D2817D21068E7
:10101000006B0C79E41F04EB84051F24AC40A04353
:1010200014682063088880B20C79E41F04EB840400
:10103000A0401468246B20431468206316E01068F5
:10104000C06A0C790D3C04EB84051F24AC40A0431E
:101050001468E062088880B20C790D3C04EB8404CB
:10106000A0401468E46A20431468E0621A4B1B4CE9
:101070001068A04206D10868122803D1586840F4CD
:1010800080005860154C1068A0421ED1144C0868AE
:10109000A04202D00868112817D1586840F4000017
:1010A00058600F4C0868A0420FD10E4800680E4CE3
:1010B000B0FBF4F000EB80004000009002E00098EC
:1010C000401E009000980028F9D100BF002082F84F
:1010D0003C0000BF00BF49E7002301400020014061
:1010E000120000109800002040420F0001460868DE
:1010F000C06C704770B5044600250CB9012070BD66
:101100001549A06A884200D000BF206C30B9002089
:10111000606484F83C00204600F020F8206C00F069
:10112000100088B9206C20F4885040F00200206440
:101130002046FFF74DFB00206064206C20F0020089
:1011400040F00100206400E0012500BF002084F889
:101150003C0000BF2846D2E70100000F10B586B062
:101160000446142101A8FFF723F926492068884284
:1011700045D100BF002000902348006840F4806003
:10118000214908600846006800F48060009000BFB4
:1011900000BF00BF002000901B481438006840F0DA
:1011A00020001949143908600846006800F0200042
:1011B000009000BF00BF00BF0020009008460068FC
:1011C00040F0040008600846006800F00400009049
:1011D00000BF00BF4FF44070019003200290002038
:1011E000039001A9094800F019FB02200190032097
:1011F00002900020039001A9054800F00FFB06B003
:1012000010BD00000022014044380240001402409A
:101210000008024070B504460D460026206880682C
:1012200000F4806078B12068806800F4807050B16C
:10123000206C40F02000206400BF002084F83C00B7
:1012400000BF012070BD00F005FC064612E0681CDE
:1012500080B125B100F0FEFB801BA8420AD9206CAA
:1012600040F00400206400BF002084F83C0000BF70
:101270000320E7E72068006800F002000228E6D1BA
:101280006FF0120021680860206C40F40070206448
:101290002068806800F04050B8B9A069A8B92068FB
:1012A000C06A00F4700020B12068806800F480609B
:1012B00058B9206C20F480702064206C00F48050B9
:1012C00018B9206C40F0010020640020BAE700004B
:1012D00008B501460020009000BF91F83C000128AD
:1012E00001D1022008BD012081F83C0000BF086840
:1012F000806800F00100A0B90868806840F0010033
:101300000B6898602E4800682E4BB0FBF3F000EBA2
:101310004000009002E00098401E009000980028D5
:10132000F9D10868806800F00100002845D0086CF9
:1013300040F20163984340F4807008640868406894
:1013400000F4806028B1086C20F4005040F4805014
:101350000864086C00F4805020B1486C20F006004E
:10136000486401E00020486400BF002081F83C0090
:1013700000BF154A6FF022000B681860506800F03B
:101380001F0058B90868806800F04050A8B9086884
:10139000806840F080400B6898600EE00B4B086856
:1013A00098420AD10868806800F0405028B908685F
:1013B000806840F080400B689860002092E7000051
:1013C0009800002040420F0000230140002001400F
:1013D000014691F83500022803D08020486501209D
:1013E0007047052081F835000868006820F001008A
:1013F0000A6810600020F3E7F8B50446002000906A
:101400008C4800684FF41651B0FBF1F7A56D2E68BB
:1014100094F85C1008208840304098B1206800683B
:1014200000F0040070B12068006820F0040021681A
:10143000086094F85C1008208840A860606D40F057
:101440000100606594F85C1001208840304068B16C
:101450002068406900F0800040B194F85C100120E1
:101460008840A860606D40F00200606594F85C10F0
:1014700004208840304068B12068006800F0020015
:1014800040B194F85C1004208840A860606D40F082
:101490000400606594F85C1010208840304078B3F8
:1014A0002068006800F0080050B394F85C10102029
:1014B0008840A8602068006800F4802080B120681F
:1014C000006800F4002028B9206CC8B12046216CC7
:1014D000884715E0A06C98B12046A16C88470FE0C2
:1014E0002068006800F4807028B92068006820F047
:1014F000080021680860206C10B12046216C8847E4
:1015000094F85C10202088403040002865D0206886
:10151000006800F0100000285FD094F85C102020D4
:101520008840A86094F83500052828D12068006814
:1015300020F01600216808602068406920F08000D3
:1015400021684861206C08B9A06C28B12068006847
:1015500020F008002168086094F85C103F20884063
:10156000A86000BF002084F8340000BF012084F888
:101570003500206D10B12046216D8847F8BD2068E8
:10158000006800F4802080B12068006800F400202A
:1015900028B9606C10B12046616C88471DE0E06B93
:1015A000D8B12046E16B884717E02068006800F456
:1015B000807068B92068006820F010002168086019
:1015C00000BF002084F8340000BF012084F83500FB
:1015D000E06B10B12046E16B8847606D38B3606DF9
:1015E00000F00100F0B1052084F8350020680068A3
:1015F00020F001002168086000BF0098401C0090A6
:10160000B84200D905E02068006800F00100002819
:10161000F3D100BF00BF002084F8340000BF0120D8
:1016200084F83500E06C10B12046E16C884700BFBB
:10163000A4E70000980000202DE9F04104460025B1
:1016400000F008FA074614B90120BDE8F081606A8D
:1016500000B100BF00BF002084F8340000BF0220AA
:1016600084F835002068006820F0010021680860D7
:101670000AE000F0EFF9C01B052805D920206065BD
:10168000032084F83500E0E72068006800F00100DE
:101690000028EED12068056821480540D4E9010101
:1016A0000843E16808432169084361690843A16967
:1016B0000843E1690843216A08430543606A042836
:1016C00003D1D4E90B010843054320680560206875
:1016D000456925F00705606A0543606A04280DD155
:1016E000A06A0543E06A48B12046FFF7D7FA28B15F
:1016F00040206065012084F83500A6E72068456138
:101700002046FFF7B1FA064694F85C103F20884067
:10171000B06000206065012084F83500002094E767
:101720003F8010F02DE9F04704460D4616461F464F
:101730004FF00008D4F8589000BF94F83400012806
:1017400002D10220BDE8F087012084F8340000BFF8
:1017500094F8350001282BD1022084F835000020B0
:1017600060653B46324629462046FFF7ECFA94F87E
:101770005C103F208840C9F808002068006840F0ED
:101780001600216808602068406940F080002168E8
:101790004861206C28B12068006840F0080021688A
:1017A00008602068006840F001002168086006E0D9
:1017B00000BF002084F8340000BF4FF0020840460C
:1017C000C0E7000070B5044600F044F9064625461F
:1017D000681C10B104480078054400BF00F03AF9D5
:1017E000801BA842FAD370BD280F0020B0F5806F8F
:1017F00002D10121014A1175704700001C8A0020A6
:1018000010B5044604480068204020B10248046036
:101810002046FFF7EBFF10BD143C0140F8B502462F
:101820000B460025002400200021E6E0012606FAF0
:1018300001F51E6806EA0504AC4273D15E68022E0B
:1018400002D05E68122E13D1CF0802F1200656F89E
:1018500027004E07F70E0F26BE40B0434F07FF0E7E
:101860001E69BE403043CF0802F1200646F827002B
:1018700010684F000326BE40B0431E7906F00306F1
:101880004F00BE40304310605E68012E08D05E6895
:10189000022E05D05E68112E02D05E68122E13D182
:1018A00090684F000326BE40B0434F00DE68BE4044
:1018B00030439060506801268E40B0431E79C6F3D5
:1018C00000168E4030435060D0684F000326BE4063
:1018D000B0434F009E68BE403043D0605E6806F063
:1018E0008056B6F1805FA8D100BF00260096454E15
:1018F000366846F48046434F3E603E46366806F4FE
:101900008046009600BF00BF3F4E8F0856F8270064
:101910008E07370F0F26BE40B0433C4EB24202D175
:1019200000262EE068E03A4EB24201D1012628E0BE
:10193000384EB24201D1022623E0374EB24201D1E5
:1019400003261EE0354EB24201D1042619E0344E82
:10195000B24201D1052614E0324EB24201D1062630
:101960000FE0314EB24201D107260AE02F4EB242BB
:1019700001D1082605E02E4EB24201D1092600E031
:101980000A268F073F0FBE4030431F4E8F0846F890
:101990002700284E3068A0435E6806F48036B6F50E
:1019A000803F00D12043234E3060361D3068A04375
:1019B0005E6806F40036B6F5003F00D120431D4EA8
:1019C000361D3060361D3068A0435E6806F4801610
:1019D000B6F5801F00D12043164E08363060361D04
:1019E0003068A0435E6806F40016B6F5001F00D10B
:1019F0002043104E0C363060491C1029FFF416AFFE
:101A0000F8BD0000443802400838014000000240A0
:101A10000004024000080240000C02400010024096
:101A20000014024000180240001C02400020024046
:101A300000240240003C0140024613690B400BB1F8
:101A4000012000E0002070470AB1816101E00B0431
:101A5000836170470148006870470000200F002034
:101A6000024692F83D0020281ED1242082F83D0035
:101A70001068006820F00100136818601068406A60
:101A800020F01000136858621068406A0843136819
:101A900058621068006840F0010013681860202048
:101AA00082F83D00002070470220FCE710B5024696
:101AB0000B46002192F83D0020281DD1242082F8F9
:101AC0003D001068006820F0010014682060106874
:101AD000406A81B221F00F0141EA030081B210682F
:101AE00041621068006840F0010014682060202006
:101AF00082F83D00002010BD0220FCE770B50446CE
:101B0000002600250CB9012070BD94F83D0028B9CD
:101B1000002084F83C00204600F03AFD242084F8A0
:101B20003D002068006820F001002168086001F095
:101B300041FA05463948B5FBF0F620684660384959
:101B40006068884201D8701C07E04FF496707043BB
:101B50004FF47A71B0FBF1F0401C21680862304903
:101B6000606888420ED860684000B5FBF0F0C0F3B2
:101B70000B00042801D204202DE060684000B5FB72
:101B8000F0F028E0A06828B9606800EB4000B5FBE1
:101B9000F0F008E0606800EBC00101EB0010B5FB5D
:101BA000F0F040F48040C0F30B0008B9012012E0CF
:101BB000A06828B9606800EB4000B5FBF0F008E0D1
:101BC000606800EBC00101EB0010B5FBF0F040F4E1
:101BD000804040F400402168C861D4E9070108430F
:101BE00021680860D4E90310084321688860D4E9BB
:101BF000050108432168C8602068006840F00100C2
:101C00002168086000202064202084F83D00002026
:101C1000206384F83E0000BF76E7000040420F00DA
:101C2000A08601002DE9F8430446894617469846E8
:101C3000089E0025FFF70EFF054694F83D0020287A
:101C40007CD119230122BE492046009503F0D7FD1F
:101C500010B10220BDE8F88300BF94F83C000128D1
:101C600001D10220F6E7012084F83C0000BF206883
:101C7000006800F0010028B92068006840F0010009
:101C8000216808602068006820F40060216808600E
:101C9000222084F83D00102084F83E0000202064BB
:101CA0006762A4F82A80A748E062608D20852B46F1
:101CB00032464946204603F063FB80B1206C04287D
:101CC00006D100BF002084F83C0000BF0120C1E71E
:101CD00000BF002084F83C0000BF0320BAE7208D3D
:101CE00088B900BF002000902068406900902068FB
:101CF0008069009000BF00BF2068006840F4007059
:101D00002168086046E0208D012818D1206800680D
:101D100020F480602168086000BF002000902068E7
:101D20004069009020688069009000BF00BF206873
:101D3000006840F40070216808602BE0FEE0208D10
:101D4000022816D12068006820F4806021680860AD
:101D50002068006840F400602168086000BF00202F
:101D6000009020684069009020688069009000BF62
:101D700010E02068006840F480602168086000BFBF
:101D800000200090206840690090206880690090E1
:101D900000BF00BFC3E0208D032872D8208D01282A
:101DA0001AD12A463146204603F0BDFD30B1206CE1
:101DB000202801D103204DE701204BE7206800696E
:101DC000C1B2626A501C60621170208D401E208575
:101DD000608D401E6085A2E0208D02282AD1334606
:101DE000002259492046009503F009FD08B103205F
:101DF00030E72068006840F40070216808602068BF
:101E00000069C1B2626A501C60621170208D401E70
:101E10002085608D401E608520680069C1B2626ABD
:101E2000501C60621170208D401E2085608D401E08
:101E3000608574E03346002243492046009503F054
:101E4000DEFC08B1032005E72068006820F480600C
:101E50002168086020680069C1B2626A501C606233
:101E60001170208D401E2085608D401E6085334698
:101E7000002235492046009503F0C1FC10B1032033
:101E8000E8E620E02068006840F4007021680860FF
:101E900020680069C1B2626A501C60621170208DB6
:101EA000401E2085608D401E608520680069C1B29B
:101EB000626A501C60621170208D401E2085608D0A
:101EC000401E60852BE02A463146204603F02BFD5C
:101ED00030B1206C202801D10320BBE60120B9E6F7
:101EE00020680069C1B2626A501C60621170208D66
:101EF000401E2085608D401E608520684069C0F3CB
:101F0000800060B120680069C1B2626A501C6062E2
:101F10001170208D401E2085608D401E6085208DB3
:101F200000287FF438AF202084F83D00002084F89A
:101F30003E0000BF84F83C0000BF8BE6022089E62B
:101F4000020010000000FFFF040001002DE9F8432B
:101F50000446894616461F46DDF820800025FFF717
:101F600079FD054694F83D0020287DD119230122F2
:101F700059492046009503F042FC10B10220BDE80B
:101F8000F88300BF94F83C00012801D10220F6E755
:101F9000012084F83C0000BF2068006800F00100C8
:101FA00028B92068006840F00100216808602068B6
:101FB000006820F4006021680860212084F83D005A
:101FC000102084F83E000020206466626785434844
:101FD000E062608D20852B4642464946204603F04C
:101FE00067FA80B1206C042806D100BF002084F875
:101FF0003C0000BF0120C2E700BF002084F83C0085
:1020000000BF0320BBE700BF0020009020684069AC
:10201000009020688069009000BF00BF46E02A461B
:102020004146204603F0B6FC60B1206C042807D17D
:102030002068006840F400702168086001209EE775
:1020400003209CE7616A481C606208782168086187
:10205000608D401E6085208D401E2085206840696F
:10206000C0F3800078B100E034E0208D58B1616A9F
:10207000481C6062087821680861608D401E608598
:10208000208D401E20852A464146204603F08CFBC9
:1020900060B1206C042807D12068006840F400700B
:1020A0002168086001206AE7032068E7208D002886
:1020B000B5D12068006840F40070216808602020D5
:1020C00084F83D00002084F83E0000BF84F83C0006
:1020D00000BF54E7022052E7020010000000FFFF9B
:1020E0002DE9FC5F04460F4690469946DDE90CABAE
:1020F0000E9E0025FFF7AEFC054694F83D00202813
:102100007ED119230122BD492046009503F077FBBB
:1021100010B10220BDE8FC9F00BF94F83C000128EC
:1021200001D10220F6E7012084F83C0000BF2068BE
:10213000006800F0010028B92068006840F0010044
:10214000216808602068006820F400602168086049
:10215000222084F83D00402084F83E0000202064C6
:10216000C4F824A0A4F82AB0A548E062608D2085B8
:102170004B46424639462046CDE9006503F0F8F962
:1021800080B1206C042806D100BF002084F83C00F8
:1021900000BF0120BEE700BF002084F83C0000BF64
:1021A0000320B7E7208D88B900BF00200190206888
:1021B0004069019020688069019000BF00BF2068DD
:1021C000006840F400702168086041E0208D01281B
:1021D00019D12068006820F480602168086000BF81
:1021E000002001902068406901902068806901907A
:1021F00000BF00BF2068006840F40070216800E064
:10220000FAE0086024E0208D022816D120680068DA
:1022100020F48060216808602068006840F4006055
:102220002168086000BF002001902068406901908B
:1022300020688069019000BF0AE000BF0020019083
:1022400020684069019020688069019000BF00BF4C
:10225000C3E0208D032872D8208D01281AD12A4688
:102260003146204603F05FFB30B1206C202801D1BD
:1022700003204FE701204DE720680069C1B2626A80
:10228000501C60621170208D401E2085608D401EA4
:102290006085A2E0208D02282AD1334600225949C8
:1022A0002046009503F0ABFA08B1032032E720681E
:1022B000006840F400702168086020680069C1B2BD
:1022C000626A501C60621170208D401E2085608DF6
:1022D000401E608520680069C1B2626A501C60625D
:1022E0001170208D401E2085608D401E608574E039
:1022F0003346002243492046009503F080FA08B196
:10230000032007E72068006820F4806021680860E7
:1023100020680069C1B2626A501C60621170208D31
:10232000401E2085608D401E608533460022354961
:102330002046009503F063FA10B10320EAE620E09E
:102340002068006840F40070216808602068006917
:10235000C1B2626A501C60621170208D401E2085DF
:10236000608D401E608520680069C1B2626A501CA1
:1023700060621170208D401E2085608D401E60853A
:102380002BE02A463146204603F0CDFA30B1206CCE
:10239000202801D10320BDE60120BBE620680069AA
:1023A000C1B2626A501C60621170208D401E20858F
:1023B000608D401E608520684069C0F3800060B178
:1023C00020680069C1B2626A501C60621170208D81
:1023D000401E2085608D401E6085208D00287FF482
:1023E00038AF202084F83D00002084F83E0000BF74
:1023F00084F83C0000BF8DE602208BE6020010004E
:102400000000FFFF040001002DE9FC5F04460F46B9
:1024100090469946DDE90CAB0E9E0025FFF71AFBAE
:10242000054694F83D0020287ED119230122564903
:102430002046009503F0E3F910B10220BDE8FC9FAF
:1024400000BF94F83C00012801D10220F6E70120EA
:1024500084F83C0000BF2068006800F0010028B943
:102460002068006840F0010021680860206800686A
:1024700020F4006021680860212084F83D0040209D
:1024800084F83E0000202064C4F824A0A4F82AB0F8
:102490003E48E062608D20854B46424639462046E4
:1024A000CDE9006503F010F980B1206C042806D155
:1024B00000BF002084F83C0000BF0120BEE700BF41
:1024C000002084F83C0000BF0320B7E733E02A4631
:1024D0003146204603F05EFA60B1206C042807D133
:1024E0002068006840F40070216808600120A5E7BA
:1024F0000320A3E7616A481C6062087821680861CC
:10250000208D401E2085608D401E608520684069BA
:10251000C0F3800078B1208D68B1616A481C6062A8
:1025200008782168086100E02CE0208D401E20859D
:10253000608D401E6085208D0028C8D12A46314616
:10254000204603F031F960B1206C042807D12068DF
:10255000006840F400702168086001206EE70320E5
:102560006CE72068006840F4007021680860202053
:1025700084F83D00002084F83E0000BF84F83C0051
:1025800000BF5BE7022059E7020010000000FFFFD8
:1025900010B586B00446142101A8FDF709FF1B49B8
:1025A0002068884230D100BF0020009018480068A1
:1025B00040F08000164908600846006800F080007E
:1025C000009000BF00BF4FF4C07001901220029035
:1025D00001200390032004900420059001A90D48D8
:1025E000FFF71CF900BF0020009009481030006878
:1025F00040F400000649103108600846006800F405
:102600000000009000BF00BF06B010BD005C00409D
:1026100030380240001C0240034800680349097832
:102620000844014908607047200F0020280F00204F
:1026300010B50D48006840F400700B49086008466A
:10264000006840F4806008600846006840F48070CC
:102650000860032000F022FA002000F007F800F0E4
:102660009FF9002010BD0000003C024070B50446F8
:102670000E4800784FF47A71B1FBF0F00C4909680C
:10268000B1FBF0F5284602F03EF908B1012070BD1B
:10269000102C07D200222146501E00F0C0F9054838
:1026A000046001E00120F2E70020F0E7280F00209D
:1026B00098000020240F002070B504460E461546F1
:1026C00000BF94F8A000012801D1022070BD0120B4
:1026D00084F8A00000BF022084F8A10005EB85016A
:1026E00001EBC50204F1380101EB820034223146CE
:1026F000FDF743FE2A463146204604F09FFC0120A8
:102700002168486284F8A10000BF002084F8A0007E
:1027100000BF00BFDAE7000070B5044600250026C0
:102720000CB9012070BD94F8A10028B9002084F8EC
:10273000A000204600F07EF8022084F8A100206866
:10274000806920F0704021688861D4E90101084364
:10275000E1680843216908432168896908432168C1
:102760008861206880683249084021688860A08AB2
:10277000050420688068A1692943084321688860AE
:102780002068C0682A4908402168C860A08B0504F9
:102790002068C068216A294308432168C86020680E
:1027A00000692349084021680861A08C050420685D
:1027B0000069A16A294308432168086120684069CB
:1027C0001B49084021684861A08D050420684069C4
:1027D000216B294308432168486194F835000502BC
:1027E00094F8360006042068C06A00F07F40216833
:1027F000C86246EA050094F8341008432168C96AA3
:1028000008432168C8622068406B40F006002168D8
:1028100048632068806940F00100216888610020D9
:10282000C4F8A400012084F8A10000207AE7000089
:1028300000F800F010B586B00446142101A8FDF799
:10284000B7FD5149206888427ED100BF002000902A
:102850004E48006840F080604C49086008460068B7
:1028600000F08060009000BF00BF00BF002000901B
:1028700046481438006840F40000444914390860A0
:102880000846006800F40000009000BF00BF00BFD1
:10289000002000900846006840F4807008600846F8
:1028A000006800F48070009000BF00BF00BF0020EF
:1028B00000900846006840F0200008600846006864
:1028C00000F02000009000BF00BF00BF002000907B
:1028D0000846006840F0800008600846006800F084
:1028E0008000009000BF00BF00BF0020009008469D
:1028F000006840F0400008600846006800F04000B2
:10290000009000BF00BF40F2F760019002200290EB
:1029100000200390022004900E20059001A91C487D
:10292000FEF77CFF4FF480600190022002900020AF
:102930000390022004900E20059001A91548FEF78F
:102940006DFF4FF47E4000E01BE0019002200290FA
:1029500000200390022004900E20059001A90E484B
:10296000FEF75CFF4FF40C60019002200290002003
:102970000390022004900E20059001A90748FEF75D
:102980004DFF06B010BD0000006801404438024011
:102990000020024000140240001C024000180240C7
:1029A00008B500BF002000900E48006840F4804049
:1029B0000C4908600846006800F48040009000BFA1
:1029C00000BF00BF00200090081F006840F080504A
:1029D000091F08600846006800F08050009000BFA2
:1029E00000BF08BD4438024000BF00F01F020121B3
:1029F0009140034A430942F8231000BF704700008A
:102A000080E100E000BF00F01F0201219140420977
:102A1000920002F1E022C2F8001100BF70472DE9D8
:102A2000F05F80460D461646002704F013FC07466B
:102A300039462A46334601F00700C0F1070ABAF1C9
:102A4000040F02D94FF0040A01E0C0F1070AD14691
:102A500000F1040ABAF1070F02D24FF0000A01E0B8
:102A6000A0F1030AD4464FF0010A0AFA09FAAAF1C2
:102A7000010A0AEA020A0AFA0CFA4FF0010B0BFAF1
:102A80000CFBABF1010B0BEA030B4AEA0B042146EA
:102A9000404604F0E7FBBDE8F09F000000BF00F0F7
:102AA0000702064B19684FF6FF031940044B0B430E
:102AB00043EA0221014B196000BF70470CED00E0B2
:102AC0000000FA0538B5002400BF002000901D4822
:102AD000006840F080501B4908600846006800F01C
:102AE0008050009000BF00BF012017490864FEF726
:102AF000B1FF044607E0FEF7ADFF001BB0F57A7F9B
:102B000001D9032038BD1148406800F48030B0F589
:102B1000803FF0D101200C494864FEF79BFF04463A
:102B200007E0FEF797FF001BB0F57A7F01D903207D
:102B3000E8E70648406800F40030B0F5003FF0D107
:102B40000020DFE74038024000000E4200700040E5
:102B5000F8B5044600250026207800F0010020B9D1
:102B6000207800F00200022852D10020A84988668F
:102B7000FEF770FF054606E0FEF76CFF401B0228DB
:102B800001D90320F8BDA3480068C0F3C060002845
:102B9000F2D1207800F0010038B160688101207A1C
:102BA00041EA00709B4984310860207800F00200FF
:102BB000022819D1974884300068C0F30276606813
:102BC0008101207B41EA006040EA0670914984312E
:102BD000086090488C30006820F01F00E169491EB1
:102BE00008438C498C310860012089498866FEF7CA
:102BF00031FF054606E0FEF72DFF401B022801D9F4
:102C00000320BFE783480068C0F3C0600028F2D00B
:102C1000207800F00400042804D0207800F0080098
:102C2000082863D100207A490867FEF713FF05469C
:102C300006E0FEF70FFF401B022801D90320A1E7A1
:102C400074480068C0F340700028F2D1207800F08A
:102C50000400042819D16F4888300068C0F3027658
:102C600020698101207D41EA006040EA06706949DF
:102C700088310860081D006820F4F851206A401E61
:102C800041EA002063498C310860207800F0080098
:102C9000082817D15F4888300068C0F303662069B0
:102CA000800140EA0661207E41EA0070594988317E
:102CB0000860081D006820F44030616A08435549E7
:102CC0008C310860012052490867FEF7C3FE0546B3
:102CD00006E0FEF7BFFE401B022801D9032051E7A2
:102CE0004C480068C0F340700028F2D0207800F013
:102CF000200020287ED100BF0020009045484030B1
:102D0000006840F080504349403108600846006840
:102D100000F08050009000BF00BF3F48006840F4C2
:102D200080703D490860FEF795FE054606E0FEF717
:102D300091FE401B022801D9032023E73648006892
:102D400000F480700028F2D032487030006800F43F
:102D500040764EB3208D00F44070B04224D02D4810
:102D60007030006820F4407601202C490860002073
:102D70000860284870300660006800F0010098B1D3
:102D8000FEF768FE054608E0FEF764FE401B41F2D0
:102D90008831884201D90320F4E61E48703000686B
:102DA000C0F340000028EFD000BF208D00F4407039
:102DB000B0F5407F0CD117480830006820F4F810B7
:102DC000174AA16A1140084312490831086007E018
:102DD00010480830006820F4F8100E4908310860E7
:102DE0000C4870300068218DC1F30B01084309497C
:102DF000703100E001E0086000BF207800F01000B2
:102E0000102803D194F82C00064908600020B9E688
:102E1000000047420038024000700040400E474228
:102E2000FFFCFF0FE011474270B504460D460CB998
:102E3000012070BD5848006800F00F00A84209D278
:102E400055490D700846006800F00F00A84201D0F7
:102E50000120EEE7207800F0020002281DD1207842
:102E600000F00400042805D14C48006840F4E0500C
:102E70004A490860207800F00800082805D1474832
:102E8000006840F46040454908604448006820F00C
:102E9000F000A168084341490860207800F0010073
:102EA000A8B36068012807D13C4808380068C0F31F
:102EB0004040B8B90120BCE76068022802D06068D1
:102EC000032807D1354808380068C0F3406048B986
:102ED0000120AEE7314808380068C0F3400008B967
:102EE0000120A6E72D48006820F003006168084330
:102EF0002A490860FEF7AEFD064609E0FEF7AAFD86
:102F0000801B41F28831884202D9032091E707E013
:102F10002248006800F00C006168B0EB810FEDD131
:102F20001D48006800F00F00A84209D91A490D7029
:102F30000846006800F00F00A84201D0012078E7A1
:102F4000207800F00400042807D11448006820F419
:102F5000E050E168084311490860207800F008005B
:102F6000082808D10D48006820F46040216940EA33
:102F7000C1000A49086000F03DF808490968C1F33A
:102F80000311074A515CC840064908600020FFF75A
:102F90006DFB00204DE70000003C02400838024075
:102FA0008AB30408980000200148006870470000B8
:102FB0009800002000B5FFF7F7FF04490968C1F346
:102FC0008221034A515CC84000BD0000083802401D
:102FD0009AB3040800B5FFF7E7FF04490968C1F395
:102FE0004231034A515CC84000BD0000083802402D
:102FF0009AB304082DE9F047002400250026A146D5
:103000002548006800F00C0020B1042805D00828ED
:103010003AD105E0DFF8849039E0DFF8849036E0BB
:103020001D48001F006800F03F041B48001F006897
:1030300000F4800078B11A481749091F0968C1F3E4
:103040008811A0FB01700146224600233846FDF797
:1030500063F905460EE011480F49091F0968C1F3DD
:103060008811A0FB01700146224600233846FDF777
:1030700053F905460848001F0068C0F30140401C92
:103080004600B5FBF6F902E0DFF8109000BF00BF84
:103090004846BDE8F0870000083802400024F400EC
:1030A00040787D01F8B504460CB90120F8BD2078C0
:1030B00000F00100002874D0F948006800F00C000E
:1030C00004280DD0F648006800F00C00082813D141
:1030D000F348001F006800F48000B0F5800F0BD1AA
:1030E000EF4808380068C0F34040002859D06068B5
:1030F000002856D10120D9E700BF6068B0F5803FB5
:1031000008D1E7480838006840F48030E4490839BD
:1031100008601EE06068B0F5A02F0DD1E0480838C7
:10312000006840F48020DE490839086008460068DD
:1031300040F4803008600CE0D9480838006820F47A
:103140008030D749083908600846006820F480209C
:10315000086000BF606890B1FEF77CFC054606E0A1
:10316000FEF778FC401B642801D903209EE7CC4879
:1031700008380068C0F340400028F1D011E0FEF7A5
:1031800069FC054606E0FEF765FC401B642801D992
:1031900003208BE7C24808380068C0F3404000288D
:1031A000F1D1207800F0020002285FD1BC4800680D
:1031B00000F00C0058B1BA48006800F00C00082874
:1031C0001CD1B748001F006800F48000B0B9B448B3
:1031D00008380068C0F3400020B1E068012801D041
:1031E000012063E7AE480838006820F0F800216944
:1031F00040EAC100AA490839086037E0E06800B336
:103200000120A8490860FEF725FC054606E0FEF708
:1032100021FC401B022801D9032047E7A0480838B9
:103220000068C0F340000028F1D09D4808380068CD
:1032300020F0F800216940EAC10099490839086086
:1032400014E0002097490860FEF704FC054606E0FC
:10325000FEF700FC401B022801D9032026E7904816
:1032600008380068C0F340000028F1D1207800F051
:10327000080008282CD16069A8B101208A4908609B
:10328000FEF7E8FB054606E0FEF7E4FB401B0228DC
:1032900001D903200AE782486C300068C0F340007F
:1032A0000028F1D014E000207F490860FEF7D2FB2F
:1032B000054606E0FEF7CEFB401B022801D903209D
:1032C000F4E677486C300068C0F340000028F1D184
:1032D000207800F00400042870D1002670483830AF
:1032E000006800F0805090B900BF002000906C484A
:1032F0003830006840F0805069493831086008462D
:10330000006800F08050009000BF00BF01266748B1
:10331000006800F48070B0B96448006840F48070C0
:1033200062490860FEF796FB054606E0FEF792FB51
:10333000401B022801D90320B8E65C48006800F46D
:1033400080700028F2D000BFA068012808D154483E
:103350006830006840F001005149683108601DE0A4
:10336000A06805280DD14E486830006840F0040080
:103370004B49683108600846006840F00100086069
:103380000CE047486830006820F00100444968318B
:1033900008600846006820F00400086000BFA068CC
:1033A000A8B1FEF757FB054609E0FEF753FB401BAB
:1033B00041F28831884202D9032077E626E0384876
:1033C00068300068C0F340000028EED013E0FEF73C
:1033D00041FB054608E0FEF73DFB401B41F288310A
:1033E000884201D9032061E62D4868300068C0F3A7
:1033F00040000028EFD1012E07D12948383000685D
:1034000020F0805026493831086000BFA069B8B369
:103410002348006800F00C0008285ED0A06902284C
:1034200046D100201F490866FEF714FB054606E05A
:10343000FEF710FB401B022801D9032036E618488E
:1034400008380068C0F340600028F1D1D4E90701D2
:103450000843616A40EA81110122A06AC2EB500070
:1034600041EA00412C20005D41EA00600C49091F3F
:10347000086001200B490866FEF7ECFA054607E0F4
:103480002DE0FEF7E7FA401B022801D903200DE6E4
:10349000034808380068C0F340600028F1D01EE0FF
:1034A0000838024000004742800E4742007000404A
:1034B00000200C490866FEF7CDFA054606E0FEF747
:1034C000C9FA401B022801D90320EFE5064800682D
:1034D000C0F340600028F2D101E00120E6E50020C1
:1034E000E4E50000000047420038024002460023A5
:1034F000106800F1500303EB81031868704710B5A2
:103500000023046804F1500303EB81031A6010BD2B
:1035100070B505460B4616460024286840680E49DB
:1035200000EA0104200CD870C4F30420587004F0A1
:103530003F009870C4F3423018705EB9D87803F039
:10354000A5FED870587803F0A1FE5870987803F063
:103550009DFE9870002070BD3FFFFF0070B50446CF
:103560000B46164600252068806A5860206800696E
:10357000C0F30E009860206800680F4900EA01055A
:10358000C5F305401870C5F30620587005F07F009C
:10359000987005F48000000CD8705EB9187803F0BC
:1035A00075FE1870587803F071FE5870987803F023
:1035B0006DFE9870002070BD7F7F7F0010B50446BF
:1035C0000CB9012010BD607F20B900202077204673
:1035D00000F060F80220607700BFCA2021684862CE
:1035E00053202168486200BF204603F067FE40B1C7
:1035F00000BFFF202168486200BF042060770120DF
:10360000E0E72068806822490840216888602169D5
:103610006068084361690843216889680843216834
:1036200088602168E068086120680169208941EAB2
:103630000040216808612068C06820F0800021688F
:10364000C8602068806800F0200060B9204600F063
:1036500053F940B100BFFF202168486200BF042039
:1036600060770120AEE72068006C20F4802021689C
:1036700008642068006CA16908432168086400BFE1
:10368000FF202168486200BF01206077002099E791
:10369000BFFF8FFF10B504460749206888420AD152
:1036A000012006490860002203210846FFF7B7F908
:1036B0000320FFF7A7F910BD002800403C0E474249
:1036C0002DE9F04104460D461646002700BF207F35
:1036D000012802D10220BDE8F0810120207700BF3F
:1036E000022060774EB9687800F01000102804D1ED
:1036F000687800F0EF000A30687086B9E87803F067
:10370000D0FD0304687803F0CCFD43EA0023A878D9
:1037100003F0C7FD0343287843EA403709E0E8781F
:103720000004697840EA0120A9780843297840EA32
:10373000413700BFCA20216848625320216848628F
:1037400000BF204603F0BAFD60B100BFFF20216832
:10375000486200BF0420607700BF0020207700BFD0
:103760000120B8E716483840216848602068C068E2
:1037700020F080002168C8602068806800F0200088
:1037800080B9204600F0B8F860B100BFFF20216882
:10379000486200BF0420607700BF0020207700BF90
:1037A000012098E700BFFF202168486200BF012088
:1037B000607700BF0020207700BF00BF8BE70000CC
:1037C0003FFFFF002DE9F04104460D461646002755
:1037D00000BF207F012802D10220BDE8F081012036
:1037E000207700BF02206077CEB92068806800F0A3
:1037F000400000B102E00020E87000BF287803F02C
:1038000050FD0304687803F04CFD43EA0023A878D8
:1038100003F047FD0343E87843EA004716E02068D9
:10382000806800F0400020B1287803F02FFD0746A3
:1038300002E00020E87000BF28780004697840EAC0
:103840000120A9780843E97840EA014700BFCA206F
:103850002168486253202168486200BF204603F077
:103860002DFD60B100BFFF202168486200BF042029
:10387000607700BF0020207700BF0120ADE71D4822
:103880003840216808602068806820F48020216822
:103890008860D5E9030108432168896808432168E5
:1038A00088602068C06820F080002168C8602068B7
:1038B000806800F0200080B9204600F01DF860B15B
:1038C00000BFFF202168486200BF0420607700BF6E
:1038D0000020207700BF01207FE700BFFF20216884
:1038E000486200BF0120607700BF0020207700BF42
:1038F00000BF72E77F7F7F0070B504460025206817
:10390000C06820F0A0002168C860FEF7A3F8054653
:1039100007E0FEF79FF8401BB0F57A7F01D903203E
:1039200070BD2068C06800F020000028F1D00020A1
:10393000F6E770B504460D460CB9012070BD94F849
:103940002C0028B9002084F82D00204600F012F841
:10395000022084F82C00211D2068FDF745FA294635
:10396000D4E90002FDF7AAFA012084F82C00002017
:10397000E4E7000010B586B0044600BF00200090C8
:103980006248006840F0010060490860084600682D
:1039900000F00100009000BF00BF00BF00200090B9
:1039A0005A480838006840F004005849083908604F
:1039B0000846006800F00400009000BF00BF00BF90
:1039C000002000900846006840F02000086008468B
:1039D000006800F02000009000BF00BF00BF002082
:1039E00000900846006840F08000086008460068C3
:1039F00000F08000009000BF00BF00BF00200090DA
:103A00000846006840F0400008600846006800F082
:103A10004000009000BF00BF00BF0020009008469B
:103A2000006840F0100008600846006800F01000D0
:103A3000009000BF00BF00BF002000900846006853
:103A400040F0080008600846006800F00800009098
:103A500000BF00BF00BF002000900846006840F093
:103A6000010008600846006800F00100009000BFF7
:103A700000BF4FF63F00019002200290002003900B
:103A8000032004900C20059001A92148FDF7C6FEF3
:103A90000D2001900220029000200390032004904A
:103AA0000C20059001A91B48FDF7B8FE48F237101D
:103AB00001900220029000200390032004900C202B
:103AC000059001A91448FDF7A9FE4FF683700190F7
:103AD0000220029000200390032004900C20059007
:103AE00001A90E48FDF79AFE4CF2037001900220E6
:103AF000029000200390032004900C20059001A95F
:103B00000748FDF78BFE06B010BD000038380240B4
:103B10000014024000080240001802400010024059
:103B2000000C024070B504460D4694F82C000228A3
:103B300000D170BD022084F82C0029462068FDF7D2
:103B40008DF9012084F82C000020F2E770B50446BE
:103B50000D46164694F82C00022800D170BD0220B4
:103B600084F82C00324629462068FDF77EF9286843
:103B7000022803D1052084F82C0002E0012084F8FB
:103B80002C000020EAE710B50446FCF7CFFE10BD7C
:103B900070B58AB004460D460026032084F8340030
:103BA000606C032820D0B5F5805F04D1A06B40F095
:103BB0008050A0631CE0B5F5006F07D1204604F0EB
:103BC000BEFA0646A06B3043A06311E03DB9204623
:103BD00004F080FA0646A06B3043A06308E0A06BB7
:103BE00040F00060A06303E0A06B40F08050A06351
:103BF000A06B40B140F2FF5021688863012084F837
:103C000034000AB070BD60680490A0680590E06858
:103C10000690079560690890A069099007A807C8F1
:103C20008DE80700206804A90EC903F099FB012064
:103C300084F834000020E4E7704730B503460022E2
:103C4000586E020E90090870C2F38300487002F0AB
:103C500003008870586EC0F30742CA70B3F864005E
:103C6000C0F307220A7193F864204A71986E020E1D
:103C70004FF6FF7000EA0210C880986EC0F307424A
:103C8000C88840EA1210C88002F00F00087268204D
:103C9000C05AC0F30722D0094872C2F3801088725C
:103CA000C2F34010C872C2F30010087300204873BA
:103CB000586C00283ED19007000D08616820C25C56
:103CC000086940EA82000861D86E020E086940EA7D
:103CD00092100861C2F3C200087502F0070048752F
:103CE000D86EC0F3074250098875C2F38200C875C8
:103CF0009007400F08766C20C05AC0F30722087E58
:103D000040EAD21008760869401C58650C7E586D50
:103D1000A41C0125A540684358650C7A0120A040E9
:103D20009865D3E91504640A6043D8654FF40074BC
:103D30001C6630E0586C012821D16820C25C9006D6
:103D4000800A0861D86E020E086940EA0220086104
:103D5000D86EC0F307420869104308616C20C05A4E
:103D6000C0F307220869441C4FF48060A4FB0004E0
:103D70005865D8654FF400749C651C660BE040F2F2
:103D8000FF501C68A063986B40F08050986301203E
:103D900083F8340030BDC2F3801001F8190F90068B
:103DA000400E48706C20C25C487840EAD2104870DF
:103DB00002F07F008870186F020ED009C870C2F33D
:103DC00041100871C2F3820048719007000F88719A
:103DD000186FC0F30742887940EA92108871C2F3E5
:103DE0004010C8710020087202F001004872702073
:103DF000C05AC0F30722D0098872C2F38010C8727B
:103E0000C2F340100873C2F300104873C2F381007C
:103E1000887302F00300C8737020C25C50080874F5
:103E20000120487419390020B4E70246506C08603C
:103E3000906C4860D06C8860106DC860506D0861EF
:103E4000906D4861D06D8861106EC8610020704728
:103E5000F8B5044604260025002000906946204657
:103E600004F01FF9054615B1A06B2843A063009824
:103E7000C0F343263046F8BD70B5044600252068DF
:103E8000406BC0F30020002863D04FF4807021689D
:103E900088632068C06B40F23A3188432168C86368
:103EA000206B00F0080048B3206B00F0020018B946
:103EB000206B00F0200050B1206803F019FC05468B
:103EC0002DB1A06B2843A0632046FFF7B5FE40F25A
:103ED000FF5021688863012084F83400206B00F0D3
:103EE000010018B9206B00F0020018B1204600F064
:103EF00099FABCE0204600F09AFAB8E0206B00F096
:103F000080000028F5D0206B00F0200050B1206820
:103F100003F0EEFB05462DB1A06B2843A0632046BD
:103F2000FFF78AFE206B00F001000028E1D1206B32
:103F300000F002000028DCD12068C06A20F00800F0
:103F40002168C862012084F83400204600F06FFA2E
:103F50008DE02068406BC0F3803038B14FF4804072
:103F600021688863204604F01FF980E02068406BD8
:103F7000C0F3C03038B14FF4004021688863204658
:103F800004F07CF873E02068406B40F23A2108406E
:103F900008B1012000E00020002868D02068406BB4
:103FA000C0F3400018B1A06B40F00200A06320688D
:103FB000406BC0F3C00018B1A06B40F00800A063D4
:103FC0002068406BC0F3401018B1A06B40F0200097
:103FD000A0632068406BC0F3001018B1A06B40F0E4
:103FE0001000A0632068406BC0F3402018B1A06BA4
:103FF00040F00800A06340F2FF70216888632068E9
:10400000C06B40F23A3188432168C863206B00F0EE
:10401000800010B3206C50B11548216C0865206CED
:10402000FDF7D6F910B1206C03F077FE1FE0E06BCE
:1040300050B11048E16B0865E06BFDF7C9F9B0B10C
:10404000E06B03F03BFE12E00020A063012084F847
:1040500034002046FFF797FD09E0206B00F00800D0
:1040600028B1012084F834002046FFF7E5FD70BD3B
:104070001B7D0108BD7C010810B504460CB9012068
:1040800010BD94F8340020B900202077204600F0BD
:1040900051F8032084F83400204600F009F800208D
:1040A000A0632063012084F834000020E8E70000CA
:1040B00030B589B004460025002003900490059097
:1040C000069007907620089006A807C88DE807009C
:1040D000206803A90EC903F043F9002014490860C1
:1040E000206803F057F901201149A039C1F8A00058
:1040F0000220FDF767FB204603F049FF054645B166
:10410000012084F83400A06B2843A063012009B08B
:1041100030BD204603F0BDFE05463DB1012084F8C8
:104120003400A06B2843A0630120F0E70020EEE7F5
:10413000A080254210B586B00446142101A8FCF7E2
:1041400037F96749206888427ED100BF002000907F
:104150006448006840F400606249086008460068EE
:1041600000F40060009000BF00BF00BF002000907E
:104170005C481438006840F480005A4914390860DB
:104180000846006800F48000009000BF00BF00BF38
:10419000002000900846006840F0040008600846CF
:1041A000006800F00400009000BF00BF00BF0020C6
:1041B00000900846006840F0080008600846006863
:1041C00000F00800009000BF00BF4FF4F8500190CD
:1041D0000220029000200390032004900C20059000
:1041E00001A94148FDF71AFB04200190022002902A
:1041F00000200390032004900C20059001A93B4867
:10420000FDF70CFB3A483B4908604FF000604860FE
:10421000002138488160C1604FF4806101618900EC
:104220004161890081612021C16100210162042175
:104230004162032181624FF40001C1628910016370
:10424000FDF7FAF918B100E048E0FCF799FD00BF6E
:104250002848E063846300BF254848302649086049
:104260004FF0006048604021234881600021C16018
:104270004FF48061016189004161890081612021E1
:10428000C1610021016204214162032181624FF476
:104290000001C16289100163FDF7CEF908B1FCF796
:1042A0006FFD00BF14482064846300BF0022062114
:1042B0003120FEF7B4FB3120FEF7A4FB01220621DA
:1042C0003B20FEF7ACFB3B20FEF79CFB01220621C6
:1042D0004520FEF7A4FB4520FEF794FB06B010BD79
:1042E000002C01404438024000080240000C02400B
:1042F000586402400C8B00206C8B00202DE9F041AB
:1043000086B00446884616461D460027B8F1000FC1
:1043100007D1A06B40F00060A063012006B0BDE8AB
:10432000F08194F83400012873D10020A063711942
:10433000E06D814205D9A06B40F00070A0630120C0
:10434000ECE7032084F8340000202168C86220686C
:10435000C06B40F495702168C8632F48E16BC86357
:104360002E48E16BC8640020E16B08656A0293087F
:10437000226802F180014246E06BFDF7D3F901208B
:1043800027490860606C012800D076024FF0FF30AA
:10439000009068020190902002900220039000207B
:1043A0000490012005906946206802F0A6FF4FF4B2
:1043B0000071206803F04CF8074657B140F2FF50F7
:1043C00021688863A06B3843A063012084F834001F
:1043D000A4E7012D07D9822020633146206803F02D
:1043E000A3F8074606E0812020633146206803F0E9
:1043F000B8F807465FB140F2FF5021688863A06BB0
:104400003843A063012084F8340087E701E00020EE
:1044100084E7022082E70000777C01081B7C01080A
:104420008C85254200B50246FCF7D8FA00BD00B5E0
:104430000246FCF76DFB00BD2DE9F04186B0044655
:10444000884616461D460027B8F1000F07D1A06B1D
:1044500040F00060A063012006B0BDE8F08194F850
:104460003400012872D10020A0637119E06D8142EF
:1044700005D9A06B40F00070A0630120ECE7032099
:1044800084F8340000202168C8622068C06B40F0C6
:104490001A002168C8632E48216CC8632D48216C1E
:1044A000C8640020216C0865606C012800D0760289
:1044B0004FF40071206802F0CBFF074657B140F27D
:1044C000FF5021688863A06B3843A063012084F803
:1044D0003400C1E7012D07D9A020206331462068B0
:1044E00003F024F9074606E0902020633146206857
:1044F00003F039F9074657B140F2FF50216888634D
:10450000A06B3843A063012084F83400A4E70120A5
:104510001149086069028B08216801F18002414657
:10452000206CFDF7FFF84FF0FF300090680201901B
:10453000902002900020039004900120059069468D
:10454000206802F0DAFE002086E7FFE7022083E71A
:10455000097D01081B7C01088C85254210B50446A5
:104560000CB9012010BD606A00B900BF0021A16232
:1045700094F8510028B9002084F85000204600F03B
:1045800033F8022084F851002068006820F04000D1
:1045900021680860D4E901010843E1680843216902
:1045A000084361690843218B01F400710843E16904
:1045B0000843216A0843A16A08432168086004216E
:1045C000A06901EA1040616A0843216848602068D8
:1045D000C06920F400602168C86100206065012086
:1045E00084F851000020BDE710B586B004461421C0
:1045F00001A8FBF7DDFE37492068884230D100BFB3
:10460000002000903448006840F4001032490860EF
:104610000846006800F40010009000BF00BF00BF13
:10462000002000902C481438006840F040002A49CF
:10463000143908600846006800F04000009000BF90
:1046400000BF4FF4E0400190022002900020039050
:10465000032004900520059001A92048FDF7DEF80D
:104660001F492068884232D100BF002000901A48BC
:10467000001F006840F480401749091F0860084681
:10468000006800F48040009000BF00BF00BF002021
:10469000009011481438006840F002000E491439A7
:1046A00008600846006800F00200009000BF00BFEC
:1046B0004FF46040019002200290002003900320FC
:1046C00004900520059001A90648FDF7A7F806B05B
:1046D00010BD000000540140443802400018024060
:1046E00000380040000402402DE9FE4F04460D460C
:1046F00016461F46DDF830804FF0000A0020029079
:1047000081464FF0010B019000BF94F85000012842
:1047100002D10220BDE8FE8F012084F8500000BFC6
:10472000FDF798F9814694F851A060680290BAF1BB
:10473000010F0BD00298B0F5827F04D1A06810B9A8
:10474000BAF1040F02D002200190D2E00DB106B1FF
:1047500017B901200190CCE094F85100012802D152
:10476000052084F8510000206065A663E787A787CD
:104770002563E786A786206460642068006800F0EF
:104780004000402805D02068006840F040002168C3
:104790000860E068B0F5006F43D1606810B1E08E4A
:1047A000012806D128882168C860AD1CE08E401E13
:1047B000E0862FE0BBF1000F10D0E08E70B12068D2
:1047C000806800F00200022808D128882168C860AB
:1047D000AD1CE08E401EE0864FF0000BE08F68B10C
:1047E0002068806800F0010040B12068C068308017
:1047F000B61CE08F401EE0874FF0010B08F101006E
:1048000040B1FDF727F9A0EB0900404502D3032092
:1048100001906EE0E08E0028CCD1E08F0028C9D155
:1048200042E0606810B1E08E012806D12878216846
:1048300008736D1CE08E401EE0862FE0BBF1000F78
:1048400010D0E08E70B12068806800F0020002286D
:1048500008D115F8010B21680873E08E401EE08630
:104860004FF0000BE08F68B12068806800F0010015
:1048700040B12068C06806F8010BE08F401EE08759
:104880004FF0010B08F1010040B1FDF7E3F8A0EB98
:104890000900404502D3032001902AE0E08E002861
:1048A000CCD1E08F0028C9D1434601220221204605
:1048B000CDF8009003F03EFD10B10320019018E008
:1048C0004A464146204603F021FD20B101200190D7
:1048D000202060650DE0A06850B900BF0020009066
:1048E0002068C068009020688068009000BF00BF0A
:1048F00000BF012084F8510000BF002084F8500060
:1049000000BF019806E770B504462546681EB0F161
:10491000807F01D301200FE0681E4FF0E021486145
:104920000F214FF0FF3002F09DFC00204FF0E021FE
:10493000886107200861002070BD70477047000043
:1049400010B5044602214F48FDF776F8D8B14E481D
:104950000068006A45F6FF7108404B490968086223
:1049600049480068006A40F40050474909680862F5
:1049700000204549096848624448007840F010002A
:10498000424908707CE00C213F4800F091FA404910
:1049900008803D480068006A45F6FF7108403A49C2
:1049A0000968086238480068006A3749096808627F
:1049B0003648007800F0100000285BD033480078BB
:1049C00000F08000F0B332480088B0F5967F0DDD2E
:1049D0002F480088B0F5487F08DA2E48006840006C
:1049E0002C49086008460068086043E028480088B1
:1049F000B0F5AF6F0FDD26480088B0F5E16F0ADA39
:104A0000244800684000234908600846006840F0D8
:104A1000010008602EE01E48008840F69801884298
:104A200028DD1B48008840F62821884222DA1A48EF
:104A30000078401C184908701448007800F0F00015
:104A4000124900E001E0087014E01148008841F2CA
:104A5000680188420EDD0E48008841F25C218842E0
:104A600008DA0A48007840F0800008490870002001
:104A7000094908700548007820F0100003490870C3
:104A800010BD000000040240E4A0002070000020DF
:104A90007200002074000020780000202DE9F04111
:104AA00004460D46164600BF94F83800012802D18E
:104AB0000220BDE8F081012084F8380000BF022008
:104AC00084F8390096B9EB68D5E90012206803F044
:104AD000E5FD2068806920F00C002168886120686D
:104AE0008069A9680843216888613DE0042E13D1DC
:104AF000EB68D5E90012206803F01CFE206880698D
:104B000020F440602168886120688069A96840EAD3
:104B100001202168886127E0082E12D1EB68D5E9D1
:104B20000012206803F025FE2068C06920F00C0008
:104B30002168C8612068C069A96808432168C86104
:104B400012E0EB68D5E90012206803F030FE20681F
:104B5000C06920F440602168C8612068C069A96804
:104B600040EA01202168C861012084F8390000BFB3
:104B7000002084F8380000BF00BF9AE710B5044653
:104B80000CB9012010BD94F8390028B9002084F830
:104B90003800204600F00CF8022084F83900211D6E
:104BA000206803F0FBFC012084F839000020E9E7CD
:104BB00010B586B00446142101A8FBF7F9FB1C4987
:104BC0002068884232D100BF002000901948006858
:104BD00040F00200174908600846006800F0020033
:104BE000009000BF00BF00BF0020009011481038A7
:104BF000006840F002000F4910390860084600685C
:104C000000F00200009000BF00BF0220019002905F
:104C10000120039002200490059001A90648FCF7AA
:104C2000FDFD00220F211D20FDF7F9FE06B010BD8D
:104C300000040040403802400004024030B5044601
:104C40000D4635B1042D0BD0082D10D00C2D1CD1E4
:104C500014E02068C06840F002002168C86015E0D8
:104C60002068C06840F004002168C8600EE0206839
:104C7000C06840F008002168C86007E02068C0688C
:104C800040F010002168C86000E000BF00BF0122B2
:104C90002946206803F0F4FC2068006840F0010019
:104CA00021680860002030BD10B504462068006906
:104CB000C0F34000D8B12068C068C0F34000B0B174
:104CC0006FF0020021680861012020762068806969
:104CD00000F0030018B12046FFF732FE05E0204641
:104CE00000F0ADF8204600F0ABF8002020762068F8
:104CF0000069C0F38000D8B12068C068C0F38000AC
:104D0000B0B16FF0040021680861022020762068AD
:104D1000806900F4407018B12046FFF711FE05E0ED
:104D2000204600F08CF8204600F08AF8002020761B
:104D300020680069C0F3C000D8B12068C068C0F323
:104D4000C000B0B16FF0080021680861042020762F
:104D50002068C06900F0030018B12046FFF7F0FD9D
:104D600005E0204600F06BF8204600F069F80020CE
:104D7000207620680069C0F30010D8B12068C068B0
:104D8000C0F30010B0B16FF0100021680861082076
:104D900020762068C06900F4407018B12046FFF703
:104DA000CFFD05E0204600F04AF8204600F048F824
:104DB000002020762068006900F0010058B12068CA
:104DC000C06800F0010030B16FF001002168086197
:104DD000204600F037F820680069C0F3C01058B1D1
:104DE0002068C068C0F3C01030B16FF08000216847
:104DF00008612046FFF7A1FD20680069C0F380101C
:104E000058B12068C068C0F3801030B16FF0400026
:104E100021680861204600F075F820680069C0F339
:104E2000401058B12068C068C0F3401030B16FF036
:104E30002000216808612046FFF780FD10BD704703
:104E400070470000184A016891422BD11749097830
:104E500001F0800131B31549097821F01001134A9E
:104E600011701146097801F00F0121B91146097836
:104E700041F0400111700D49097801F00F010E2930
:104E800005DA0A490978491C084A11700AE00749FD
:104E9000097821F08001054A11701146097801F066
:104EA000F001117070470000000400407000002005
:104EB0000246002300BF92F83800012801D10220E9
:104EC0007047012082F8380000BF31B1042907D0B3
:104ED000082908D00C290CD108E01068436B09E0C0
:104EE0001068836B06E01068C36B03E01068036C06
:104EF00000E000BF00BF00BF002082F8380000BF04
:104F00001846DDE7704770472DE9F04704462068F2
:104F100005682068C668206847694FF00008C146E8
:104F200005F00F08B8F1000F0AD105F0200038B1E4
:104F300006F0200020B1204603F083FCBDE8F08796
:104F4000B8F1000F6DD007F0010018B906F49070A9
:104F5000002866D005F0010030B106F4807018B169
:104F6000E06B40F00100E06305F0040030B107F0B1
:104F7000010018B1E06B40F00200E06305F00200B0
:104F800030B107F0010018B1E06B40F00400E063BD
:104F900005F0080030B107F0010018B1E06B40F0F7
:104FA0000800E063E06B68B305F0200028B106F06C
:104FB000200010B1204603F044FC20684069C0F393
:104FC0008019E06B00F0080010B9B9F1000F22D091
:104FD000204603F016FC2068406900F04000B0B1A4
:104FE0002068406920F0400021684861606B50B142
:104FF0001748616B0865606BFCF7EAF910B1606BEC
:10500000016D88470CE02046FFF77DFF08E0204651
:10501000FFF779FF04E02046FFF775FF0020E0630B
:105020008CE705F0800030B106F0800018B1204612
:1050300003F008FE82E705F0400030B106F04000C2
:1050400018B1204603F0EDFB78E700BF76E70000DB
:10505000EF87010810B504460CB9012010BDA06906
:1050600000B100E000BF94F8390028B9002084F8AE
:105070003800204600F028F8242084F83900206801
:10508000C06820F400502168C860204603F026FC68
:105090002068006920F49040216808612068406918
:1050A00020F02A00216848612068C06840F4005060
:1050B0002168C8600020E063202084F8390084F86B
:1050C0003A000020CAE7000010B586B0044614215B
:1050D00001A8FBF76DF95F492068884231D100BF14
:1050E000002000905C48006840F010005A490860B9
:1050F0000846006800F01000009000BF00BF00BF2D
:105100000020009054481438006840F001005249D3
:10511000143908600846006800F00100009000BFE4
:1051200000BF4FF4C0600190022002900120039064
:10513000032004900720059001A94848FCF76EFB66
:1051400086E04749206888423ED100BF0020009099
:105150004148006840F020003F4908600846006868
:1051600000F02000009000BF00BF00BF00200090B2
:1051700039481438006840F0040037491439086091
:105180000846006800F00400009000BF00BFC02087
:105190000190022002900120039003200490082037
:1051A000059001A92F48FCF739FB03220F21472066
:1051B000FDF735FC4720FDF725FC2068C06840F06E
:1051C00020002168C86043E02749206888423FD119
:1051D00000BF002000902048001F006840F400300D
:1051E0001D49091F08600846006800F4003000905F
:1051F00000BF00BF00BF00200090174814380068AF
:1052000040F008001449143908600846006800F0AE
:105210000800009000BF00BF6020019002200290B3
:1052200001200390032004900720059001A90F4856
:10523000FCF7F4FA00220F212620FDF7F0FB2620D0
:10524000FDF7E0FB2068C06840F020002168C860DE
:1052500006B010BD0010014044380240000002407A
:10526000001401400008024000440040000C0240CD
:1052700070472DE9F84304460D4616461F464FF089
:10528000000994F8390020285CD105B116B9012035
:10529000BDE8F88300BF94F83800012801D102204E
:1052A000F6E7012084F8380000BF0020E0632120E9
:1052B00084F83900FCF7CEFB8146A684E6842BE017
:1052C000E08C401EE084A068B0F5805F16D14B46AC
:1052D000002280212046009703F0E8FC08B103205B
:1052E000D6E7A846B8F80000C0F308002168486077
:1052F000206908B9AD1C0FE06D1C0DE04B46002283
:1053000080212046009703F0D1FC08B10320BFE7BD
:1053100015F8010B21684860E08C0028D0D14B467D
:10532000002240212046009703F0C0FC08B1032072
:10533000AEE7202084F8390000BF002084F8380050
:1053400000BFA5E70220A3E770470146086840694F
:10535000C0F3802088B16FF480600A685061042037
:10536000086400200863202081F83D0000BF002071
:1053700081F83C0000BF012070470020FCE70000DE
:105380002DE9F84304460D4690461E46E76A20681C
:10539000006840F4806021680860042F04D0012F69
:1053A00002D017F5803F06D12068006840F4807075
:1053B0002168086008E0206B112805D1206800688A
:1053C00040F4807021680860434600224FF00111CC
:1053D0002046009600F013FA10B10320BDE8F883D0
:1053E0002069B0F5804F05D1E8B240F00100216896
:1053F000086149E005F44070F02141EAE0102168BD
:105400000861334642462949204600F036FA30B159
:10541000206C042801D10120E0E70320DEE7E8B298
:1054200021680861334642462049891F204600F022
:1054300024FA30B1206C042801D10120CEE70320EA
:10544000CCE700BF002000902068406900902068F1
:105450008069009000BF00BF2068006840F4807041
:1054600021680860434600224FF001112046009653
:1054700000F0C5F908B10320B0E705F44070F12150
:1054800041EAE01021680861334642460749891F16
:10549000204600F0F2F930B1206C042801D101203F
:1054A0009CE703209AE7002098E70000080001002D
:1054B0002DE9F84304460D4617469846E66A042E41
:1054C00004D0012E02D016F5803F06D12068006876
:1054D00040F480702168086008E0206B122805D134
:1054E0002068006840F48070216808603B46002214
:1054F0004FF001112046CDF8008000F080F910B186
:105500000320BDE8F8832069B0F5804F04D105F091
:10551000FE002168086117E005F44070F02141EABF
:10552000E0102168086143463A461049204600F0E1
:10553000A4F930B1206C042801D10120E1E7032057
:10554000DFE7E8B22168086143463A460749891F08
:10555000204600F092F930B1206C042801D10120DE
:10556000CFE70320CDE70020CBE7000008000100D3
:105570002DE9F84304460F4615469946DDE90886AD
:105580002068006840F48060216808602068006836
:1055900040F4807021680860434600224FF00111FA
:1055A0002046009600F02BF910B10320BDE8F883E7
:1055B00007F0FE0021680861334642464149204613
:1055C00000F05BF930B1206C042801D10120EDE737
:1055D0000320EBE700BF00200090206840690090A6
:1055E00020688069009000BF00BF324641462046D7
:1055F00000F0D0F960B1206C042807D12068006861
:1056000040F40070216808600120CFE70320CDE757
:10561000B9F1010F03D1E8B22168086119E0C5F3BF
:1056200007202168086132464146204600F0B2F961
:1056300060B1206C042807D12068006840F4007035
:10564000216808600120B1E70320AFE7E8B22168D4
:10565000086132464146204600F09CF960B1206C5A
:10566000042807D12068006840F4007021680860B1
:1056700001209BE7032099E72068006840F48070D0
:1056800021680860434600224FF001112046009631
:1056900000F0B5F808B1032088E7F8B240F0010047
:1056A00021680861334642460649204600F0E5F885
:1056B00030B1206C042801D1012077E7032075E781
:1056C000002073E7020001002DE9F84304468846F4
:1056D00015469946DDE908672068006840F4807047
:1056E00021680860334600224FF0011120460097E0
:1056F00000F085F810B10320BDE8F88308F0FE0043
:10570000216808613B4632462649204600F0B5F83C
:1057100030B1206C042801D10120EDE70320EBE734
:1057200000BF0020009020684069009020688069D8
:10573000009000BF00BF3A463146204600F02AF9EB
:1057400060B1206C042807D12068006840F4007024
:10575000216808600120CFE70320CDE7B9F1010FF0
:1057600003D1E8B22168086119E0C5F30720216878
:1057700008613A463146204600F00CF960B1206CD1
:10578000042807D12068006840F400702168086090
:105790000120B1E70320AFE7E8B2216808610020EB
:1057A000AAE700000200010070B504460D46164647
:1057B0001DE02046FFF7C9FD08B1012070BD681C3F
:1057C000A8B125B1FCF746F9801BA8420FD9206C7F
:1057D00040F02000206400202063202084F83D0059
:1057E00000BF002084F83C0000BF0320E6E72068EB
:1057F0004069C0F380000028DBD00020DEE72DE9FF
:10580000F04104460D4617461E46DDF8188017E0A5
:10581000701CA8B12EB1FCF71DF9A0EB0800B04236
:105820000ED900202063202084F83D00002084F859
:105830003E0000BF84F83C0000BF0320BDE8F081BB
:10584000C5F3074001280AD120684069A9B2084081
:10585000A9B2884201D101200BE0002009E02068B4
:105860008069A9B20840A9B2884201D1012000E0B4
:105870000020B842CCD00020E0E72DE9F0410446FA
:105880000D4616461F4631E020684069C0F380206F
:10589000C0B12068006840F40070216808606FF4AF
:1058A000806021684861042020640020206320205B
:1058B00084F83D0000BF002084F83C0000BF0120B8
:1058C000BDE8F081701C88B126B1FCF7C3F8C01B9D
:1058D000B0420BD900202063202084F83D0000BF97
:1058E000002084F83C0000BF0320E9E7C5F307402F
:1058F00001280AD120684069A9B20840A9B28842AB
:1059000001D101200BE0002009E020688069A9B2E4
:105910000840A9B2884201D1012000E000200028FF
:10592000B2D00020CCE770B504460D46164629E0FB
:1059300020684069C0F3001080B16FF0100021684A
:105940004861002020642063202084F83D0000BFCF
:10595000002084F83C0000BF012070BD25B1FCF799
:1059600079F8801BA8420DD9206C40F020002064FB
:10597000202084F83D0000BF002084F83C0000BFD8
:105980000320EAE720684069C0F380100028CFD0E8
:105990000020E2E770B504460D4616461DE020469D
:1059A000FFF7D3FC08B1012070BD681CA8B125B178
:1059B000FCF750F8801BA8420FD9206C40F0200063
:1059C000206400202063202084F83D0000BF0020D8
:1059D00084F83C0000BF0320E6E720684069C0F37C
:1059E000C0100028DBD00020DEE7000010B58021C9
:1059F0000348FCF721F808B9002010BD0120FCE79E
:105A0000000C02400120704710B504210348FCF748
:105A100013F808B9002010BD0120FCE7001C02406B
:105A200010B501210448FCF707F8012801D1002036
:105A300010BD0120FCE700000000024000B587B067
:105A4000142102A8FAF7B4FC00BF00200190FE4820
:105A5000006840F00400FC4908600846006800F057
:105A60000400019000BF00BF00BF00200190084665
:105A7000006840F0010008600846006800F001007E
:105A8000019000BF00BF00BF0020019008460068E1
:105A900040F0020008600846006800F00200019033
:105AA00000BF00BF802002900120039004900320DB
:105AB000059002A9E548FBF7B1FE3020029002A94B
:105AC000E348FBF7ABFE0120029002A9E148FBF797
:105AD000A5FE01228021DD48FBF7B6FF02200BF076
:105AE000E7FD00228021D948FBF7AEFF02200BF032
:105AF000DFFD01228021D548FBF7A6FF14200BF023
:105B0000D7FD4FF4704003F065F9552003F084F998
:105B10004FF2010003F05EF9AA2003F07DF94FF285
:105B2000020003F057F9522003F076F94FF2030018
:105B300003F050F9082003F06FF94FF2040003F06E
:105B400049F9012003F068F94FF4304003F042F9BD
:105B50000D2003F061F94BF2010003F03BF90D2039
:105B600003F05AF94BF2020003F034F90D2003F070
:105B700053F94FF4364003F02DF9342003F04CF97B
:105B80004BF2016003F026F9342003F045F94BF2A3
:105B9000026003F01FF9342003F03EF94FF4314066
:105BA00003F018F90D2003F037F94BF2011003F060
:105BB00011F90D2003F030F94BF2021003F00AF94D
:105BC0000D2003F029F94FF4374003F003F9342096
:105BD00003F022F94BF2017003F0FCF8342003F0DB
:105BE0001BF94BF2027003F0F5F8342003F014F9BE
:105BF0004FF4324003F0EEF8002003F00DF94BF2C1
:105C0000012003F0E7F8002003F006F94BF2022030
:105C100003F0E0F8002003F0FFF84FF4384003F001
:105C2000D9F8242003F0F8F84BF6010003F0D2F87D
:105C3000242003F0F1F84BF6020003F0CBF8242007
:105C400003F0EAF84FF43F4003F0C4F8012003F0FA
:105C5000E3F84FF4334003F0BDF80F2003F0DCF815
:105C60004BF2013003F0B6F80F2003F0D5F84BF2F9
:105C7000023003F0AFF80F2003F0CEF84FF43940B4
:105C800003F0A8F8342003F0C7F84BF6011003F036
:105C9000A1F8342003F0C0F84BF6021003F09AF894
:105CA000342003F0B9F84FF4354003F093F808209E
:105CB00003F0B2F84BF2015003F08CF8082003F027
:105CC000ABF84BF2025003F085F8082003F0A4F87B
:105CD0004FF4424003F07EF8032003F09DF84FF4A8
:105CE0003A4003F077F8242003F096F84BF60120B1
:105CF00003F070F8242003F08FF84BF6022003F035
:105D000069F8242003F088F84FF43C4003F062F86F
:105D1000002003F081F84BF6014003F05BF8782097
:105D200003F07AF84BF6024003F054F8002003F039
:105D300073F84FF43D4003F04DF8002003F06CF889
:105D40004BF6015003F046F8782003F065F84BF667
:105D5000025003F03FF8002003F05EF84FF43E409D
:105D600003F038F8002003F057F84BF6016003F019
:105D700031F8642003F050F84FF4514003F02AF852
:105D8000002003F049F84DF2011003F023F833200E
:105D900003F042F84DF2021003F01CF8002003F06B
:105DA0003BF84DF2031003F015F8342003F034F8FB
:105DB0004DF2041003F00EF8002003F02DF84DF220
:105DC000051003F007F83A2003F026F84DF206100C
:105DD00003F000F8002003F01FF84DF2071002F066
:105DE000F9FF4A2003F018F84DF2081002F0F2FF14
:105DF000002003F011F84DF2091002F0EBFF5C20D7
:105E000003F00AF84DF20A1002F0E4FF002003F05C
:105E100003F84DF20B1002F0DDFF812002F0FCFFD1
:105E20004DF20C1002F0D6FF002002F0F5FF4DF20B
:105E30000D1002F0CFFFA62002F0EEFF4DF20E1083
:105E400002F0C8FF002007E03038024000000240A6
:105E5000000802400004024002F0DEFF4DF20F1085
:105E600002F0B8FFE52002F0D7FF4DF2101002F06B
:105E7000B1FF012002F0D0FF4DF2111002F0AAFF95
:105E8000132002F0C9FF4DF2121002F0A3FF01200F
:105E900002F0C2FF4DF2131002F09CFF542002F0FA
:105EA000BBFF4DF2141002F095FF012002F0B4FF89
:105EB0004DF2151002F08EFF822002F0ADFF4DF280
:105EC000161002F087FF012002F0A6FF4DF2171016
:105ED00002F080FFCA2002F09FFF4DF2181002F07E
:105EE00079FF022002F098FF4DF2191002F072FFC4
:105EF000002002F091FF4DF21A1002F06BFF022019
:105F000002F08AFF4DF21B1002F064FF012002F044
:105F100083FF4DF21C1002F05DFF022002F07CFFB7
:105F20004DF21D1002F056FF342002F075FF4DF2C5
:105F30001E1002F04FFF022002F06EFF4DF21F1004
:105F400002F048FF672002F067FF4DF2201002F0D8
:105F500041FF022002F060FF4DF2211002F03AFFF3
:105F6000842002F059FF4DF2221002F033FF02208C
:105F700002F052FF4DF2231002F02CFFA42002F099
:105F80004BFF4DF2241002F025FF022002F044FFE7
:105F90004DF2251002F01EFFB72002F03DFF4DF23A
:105FA000261002F017FF022002F036FF4DF22710F4
:105FB00002F010FFCF2002F02FFF4DF2281002F068
:105FC00009FF022002F028FF4DF2291002F002FF23
:105FD000DE2002F021FF4DF22A1002F0FBFE02202B
:105FE00002F01AFF4DF22B1002F0F4FEF22002F044
:105FF00013FF4DF22C1002F0EDFE022002F00CFF18
:106000004DF22D1002F0E6FEFE2002F005FF4DF2EB
:106010002E1002F0DFFE032002F0FEFE4DF22F10E4
:1060200002F0D8FE102002F0F7FE4DF2301002F020
:10603000D1FE032002F0F0FE4DF2311002F0CAFE54
:10604000332002F0E9FE4DF2321002F0C3FE0320CD
:1060500002F0E2FE4DF2331002F0BCFE6D2002F0C1
:10606000DBFE4FF4524002F0B5FE002002F0D4FEF9
:106070004DF2012002F0AEFE332002F0CDFE4DF2D3
:10608000022002F0A7FE002002F0C6FE4DF203201F
:1060900002F0A0FE342002F0BFFE4DF2042002F018
:1060A00099FE002002F0B8FE4DF2052002F092FEAB
:1060B0003A2002F0B1FE4DF2062002F08BFE0020E5
:1060C00002F0AAFE4DF2072002F084FE4A2002F000
:1060D000A3FE4DF2082002F07DFE002002F09CFE9F
:1060E0004DF2092002F076FE5C2002F095FE4DF2A2
:1060F0000A2002F06FFE002002F08EFE4DF20B200F
:1061000002F068FE812002F087FE4DF20C2002F0C2
:1061100061FE002002F080FE4DF20D2002F05AFEDA
:10612000A62002F079FE4DF20E2002F053FE002070
:1061300002F072FE4DF20F2002F04CFEE52002F05C
:106140006BFE4DF2102002F045FE012002F064FECD
:106150004DF2112002F03EFE132002F05DFE4DF2E2
:10616000122002F037FE012002F056FE4DF21320FD
:1061700002F030FE542002F04FFE4DF2142002F0E7
:1061800029FE012002F048FE4DF2152002F022FE09
:10619000822002F041FE4DF2162002F01BFE01208B
:1061A00002F03AFE4DF2172002F014FECA2002F06F
:1061B00033FE4DF2182002F00DFE022002F02CFEFC
:1061C0004DF2192002F006FE002002F025FE4DF2ED
:1061D0001A2002F0FFFD022002F01EFE4DF21B20ED
:1061E00002F0F8FD012002F017FE4DF21C2002F033
:1061F000F1FD022002F010FE4DF21D2002F0EAFD3A
:10620000342002F009FE4DF21E2002F0E3FD0220D0
:1062100002F002FE4DF21F2002F0DCFD672002F0CA
:10622000FBFD4DF2202002F0D5FD022002F0F4FD2E
:106230004DF2212002F0CEFD842002F0EDFD4DF262
:10624000222002F0C7FD022002F0E6FD4DF22320DD
:1062500002F0C0FDA42002F0DFFD4DF2242002F088
:10626000B9FD022002F0D8FD4DF2252002F0B2FD6A
:10627000B72002F0D1FD4DF2262002F0ABFD022046
:1062800002F0CAFD4DF2272002F0A4FDCF2002F05B
:10629000C3FD4DF2282002F09DFD022002F0BCFD5E
:1062A0004DF2292002F096FDDE2002F0B5FD4DF200
:1062B0002A2002F08FFD022002F0AEFD4DF22B20CD
:1062C00002F088FDF22002F0A7FD4DF22C2002F032
:1062D00081FD022002F0A0FD4DF22D2002F07AFD9A
:1062E000FE2002F099FD4DF22E2002F073FD0320F6
:1062F00002F092FD4DF22F2002F06CFD102002F012
:106300008BFD4DF2302002F065FD032002F084FD8C
:106310004DF2312002F05EFD332002F07DFD4DF2A2
:10632000322002F057FD032002F076FD4DF23320BB
:1063300002F050FD6D2002F06FFD4FF4534002F06B
:1063400049FD002002F068FD4DF2013002F042FDEF
:10635000332002F061FD4DF2023002F03BFD0020DF
:1063600002F05AFD4DF2033002F034FD342002F009
:1063700053FD4DF2043002F02DFD002002F04CFDE3
:106380004DF2053002F026FD3A2002F045FD4DF2B7
:10639000063002F01FFD002002F03EFD4DF20730F6
:1063A00002F018FD4A2002F037FD4DF2083002F0ED
:1063B00011FD002002F030FD4DF2093002F00AFD1F
:1063C0005C2002F029FD4DF20A3002F003FD0020AE
:1063D00002F022FD4DF20B3002F0FCFC812002F0B5
:1063E0001BFD4DF20C3002F0F5FC002002F014FD14
:1063F0004DF20D3002F0EEFCA62002F00DFD4DF244
:106400000E3002F0E7FC002002F006FD4DF20F30E6
:1064100002F0E0FCE52002F0FFFC4DF2103002F04B
:10642000D9FC012002F0F8FC4DF2113002F0D2FC50
:10643000132002F0F1FC4DF2123002F0CBFC0120EF
:1064400002F0EAFC4DF2133002F0C4FC542002F0DA
:10645000E3FC4DF2143002F0BDFC012002F0DCFC44
:106460004DF2153002F0B6FC822002F0D5FC4DF260
:10647000163002F0AFFC012002F0CEFC4DF21730D6
:1064800002F0A8FCCA2002F0C7FC4DF2183002F05E
:10649000A1FC022002F0C0FC4DF2193002F09AFC7F
:1064A000002002F0B9FC4DF21A3002F093FC0220F9
:1064B00002F0B2FC4DF21B3002F08CFC012002F025
:1064C000ABFC4DF21C3002F085FC022002F0A4FC73
:1064D0004DF21D3002F07EFC342002F09DFC4DF2A6
:1064E0001E3002F077FC022002F096FC4DF21F30C5
:1064F00002F070FC672002F08FFC4DF2203002F0B9
:1065000069FC022002F088FC4DF2213002F062FCAE
:10651000842002F081FC4DF2223002F05BFC02206C
:1065200002F07AFC4DF2233002F054FCA42002F079
:1065300073FC4DF2243002F04DFC022002F06CFCA2
:106540004DF2253002F046FCB72002F065FC4DF21A
:10655000263002F03FFC022002F05EFC4DF22730B4
:1065600002F038FCCF2002F057FC4DF2283002F048
:1065700031FC022002F050FC4DF2293002F02AFCDE
:10658000DE2002F049FC4DF22A3002F023FC02200A
:1065900002F042FC4DF22B3002F01CFCF22002F023
:1065A0003BFC4DF22C3002F015FC022002F034FCD2
:1065B0004DF22D3002F00EFCFE2002F02DFC4DF2CB
:1065C0002E3002F007FC032002F026FC4DF22F30A3
:1065D00002F000FC102002F01FFC4DF2303002F0FF
:1065E000F9FB032002F018FC4DF2313002F0F2FB0F
:1065F000332002F011FC4DF2323002F0EBFB0320AD
:1066000002F00AFC4DF2333002F0E4FB6D2002F0A0
:1066100003FC4FF4544002F0DDFB002002F0FCFBD1
:106620004DF2014002F0D6FB332002F0F5FB4DF2B3
:10663000024002F0CFFB002002F0EEFB4DF20340DF
:1066400002F0C8FB342002F0E7FB4DF2044002F0F8
:10665000C1FB002002F0E0FB4DF2054002F0BAFB66
:106660003A2002F0D9FB4DF2064002F0B3FB0020C5
:1066700002F0D2FB4DF2074002F0ACFB4A2002F0E0
:10668000CBFB4DF2084002F0A5FB002002F0C4FB5A
:106690004DF2094002F09EFB5C2002F0BDFB4DF282
:1066A0000A4002F097FB002002F0B6FB4DF20B40CF
:1066B00002F090FB812002F0AFFB4DF20C4002F0A3
:1066C00089FB002002F0A8FB4DF20D4002F082FB96
:1066D000A62002F0A1FB4DF20E4002F07BFB002051
:1066E00002F09AFB4DF20F4002F074FBE52002F03D
:1066F00093FB4DF2104002F06DFB012002F08CFB89
:106700004DF2114002F066FB132002F085FB4DF2C2
:10671000124002F05FFB012002F07EFB4DF21340BD
:1067200002F058FB542002F077FB4DF2144002F0C7
:1067300051FB012002F070FB4DF2154002F04AFBC4
:10674000822002F069FB4DF2164002F043FB01206B
:1067500002F062FB4DF2174002F03CFBCA2002F04F
:106760005BFB4DF2184002F035FB022002F054FBB7
:106770004DF2194002F02EFB002002F04DFB4DF2CD
:106780001A4002F027FB022002F046FB4DF21B40AC
:1067900002F020FB012002F03FFB4DF21C4002F012
:1067A00019FB022002F038FB4DF21D4002F012FBF3
:1067B000342002F031FB4DF21E4002F00BFB0220B0
:1067C00002F02AFB4DF21F4002F004FB672002F0AA
:1067D00023FB4DF2204002F0FDFA022002F01CFBE8
:1067E0004DF2214002F0F6FA842002F015FB4DF242
:1067F000224002F0EFFA022002F00EFB4DF223409D
:1068000002F0E8FAA42002F007FB4DF2244002F067
:10681000E1FA022002F000FB4DF2254002F0DAFA24
:10682000B72002F0F9FA4DF2264002F0D3FA022026
:1068300002F0F2FA4DF2274002F0CCFACF2002F03B
:10684000EBFA4DF2284002F0C5FA022002F0E4FA19
:106850004DF2294002F0BEFADE2002F0DDFA4DF2E0
:106860002A4002F0B7FA022002F0D6FA4DF22B408D
:1068700002F0B0FAF22002F0CFFA4DF22C4002F012
:10688000A9FA022002F0C8FA4DF22D4002F0A2FA55
:10689000FE2002F0C1FA4DF22E4002F09BFA0320D6
:1068A00002F0BAFA4DF22F4002F094FA102002F0F2
:1068B000B3FA4DF2304002F08DFA032002F0ACFA48
:1068C0004DF2314002F086FA332002F0A5FA4DF283
:1068D000324002F07FFA032002F09EFA4DF233407C
:1068E00002F078FA6D2002F097FA4FF4554002F06A
:1068F00071FA002002F090FA4DF2015002F06AFAAB
:10690000332002F089FA4DF2025002F063FA0020BF
:1069100002F082FA4DF2035002F05CFA332002F0EA
:106920007BFA4DF2045002F055FA002002F074FA9E
:106930004DF2055002F04EFA3A2002F06DFA4DF297
:10694000065002F047FA002002F066FA4DF20750B6
:1069500002F040FA4A2002F05FFA4DF2085002F0CD
:1069600039FA002002F058FA4DF2095002F032FADA
:106970005C2002F051FA4DF20A5002F02BFA00208E
:1069800002F04AFA4DF20B5002F024FA812002F094
:1069900043FA4DF20C5002F01DFA002002F03CFACE
:1069A0004DF20D5002F016FAA62002F035FA4DF223
:1069B0000E5002F00FFA002002F02EFA4DF20F50A6
:1069C00002F008FAE52002F027FA4DF2105002F02A
:1069D00001FA012002F020FA4DF2115002F0FAF90A
:1069E000132002F019FA4DF2125002F0F3F90120CF
:1069F00002F012FA4DF2135002F0ECF9542002F0BA
:106A00000BFA4DF2145002F0E5F9012002F004FAFD
:106A10004DF2155002F0DEF9822002F0FDF94DF240
:106A2000165002F0D7F9012002F0F6F94DF2175096
:106A300002F0D0F9CA2002F0EFF94DF2185002F03E
:106A4000C9F9022002F0E8F94DF2195002F0C2F93A
:106A5000002002F0E1F94DF21A5002F0BBF90220D9
:106A600002F0DAF94DF21B5002F0B4F9012002F005
:106A7000D3F94DF21C5002F0ADF9022002F0CCF92E
:106A80004DF21D5002F0A6F9342002F0C5F94DF286
:106A90001E5002F09FF9022002F0BEF94DF21F5085
:106AA00002F098F9672002F0B7F94DF2205002F099
:106AB00091F9022002F0B0F94DF2215002F08AF96A
:106AC000842002F0A9F94DF2225002F083F902204D
:106AD00002F0A2F94DF2235002F07CF9A42002F05A
:106AE0009BF94DF2245002F075F9022002F094F95E
:106AF0004DF2255002F06EF9B72002F08DF94DF2FB
:106B0000265002F067F9022002F086F94DF2275074
:106B100002F060F9CF2002F07FF94DF2285002F028
:106B200059F9022002F078F94DF2295002F052F999
:106B3000DE2002F071F94DF22A5002F04BF90220EA
:106B400002F06AF94DF22B5002F044F9F22002F003
:106B500063F94DF22C5002F03DF9022002F05CF98D
:106B60004DF22D5002F036F9FE2002F055F94DF2AB
:106B70002E5002F02FF9032002F04EF94DF22F5063
:106B800002F028F9102002F047F94DF2305002F0DF
:106B900021F9032002F040F94DF2315002F01AF9C8
:106BA000332002F039F94DF2325002F013F903208C
:106BB00002F032F94DF2335002F00CF96D2002F080
:106BC0002BF94FF4564002F005F9002002F024F9A9
:106BD0004DF2016002F0FEF8332002F01DF94DF293
:106BE000026002F0F7F8002002F016F94DF203609F
:106BF00002F0F0F8342002F00FF94DF2046002F0D8
:106C0000E9F8002002F008F94DF2056002F0E2F820
:106C10003A2002F001F94DF2066002F0DBF80020A4
:106C200002F0FAF84DF2076002F0D4F84A2002F0C0
:106C3000F3F84DF2086002F0CDF8002002F0ECF815
:106C40004DF2096002F0C6F85C2002F0E5F84DF262
:106C50000A6002F0BFF8002002F0DEF84DF20B608F
:106C600002F0B8F8812002F0D7F84DF20C6002F083
:106C7000B1F8002002F0D0F84DF20D6002F0AAF851
:106C8000A62002F0C9F84DF20E6002F0A3F8002031
:106C900002F0C2F84DF20F6002F09CF8E52002F01D
:106CA000BBF84DF2106002F095F8012002F0B4F844
:106CB0004DF2116002F08EF8132002F0ADF84DF2A3
:106CC000126002F087F8012002F0A6F84DF213607E
:106CD00002F080F8542002F09FF84DF2146002F0A8
:106CE00079F8012002F098F84DF2156002F072F880
:106CF000822002F091F84DF2166002F06BF801204C
:106D000002F08AF84DF2176002F064F8CA2002F02F
:106D100083F84DF2186002F05DF8022002F07CF872
:106D20004DF2196002F056F8002002F075F84DF2AD
:106D30001A6002F04FF8022002F06EF84DF21B606C
:106D400002F048F8012002F067F84DF21C6002F0F2
:106D500041F8022002F060F84DF21D6002F03AF8AE
:106D6000342002F059F84DF21E6002F033F8022090
:106D700002F052F84DF21F6002F02CF8672002F08A
:106D80004BF84DF2206002F025F8022002F044F8A2
:106D90004DF2216002F01EF8842002F03DF84DF221
:106DA000226002F017F8022002F036F84DF223605C
:106DB00002F010F8A42002F02FF84DF2246002F047
:106DC00009F8022002F028F84DF2256002F002F8DE
:106DD000B72002F021F84DF2266001F0FBFF0220FF
:106DE00002F01AF84DF2276001F0F4FFCF2002F014
:106DF00013F84DF2286001F0EDFF022002F00CF8CC
:106E00004DF2296001F0E6FFDE2002F005F84DF2B8
:106E10002A6001F0DFFF022001F0FEFF4DF22B603F
:106E200001F0D8FFF22001F0F7FF4DF22C6001F0E5
:106E3000D1FF022001F0F0FF4DF22D6001F0CAFFFA
:106E4000FE2001F0E9FF4DF22E6001F0C3FF0320A8
:106E500001F0E2FF4DF22F6001F0BCFF102001F0C5
:106E6000DBFF4DF2306001F0B5FF032001F0D4FFED
:106E70004DF2316001F0AEFF332001F0CDFF4DF255
:106E8000326001F0A7FF032001F0C6FF4DF233602E
:106E900001F0A0FF6D2001F0BFFF4FF4704001F042
:106EA00099FF552001F0B8FF4FF2010001F092FF69
:106EB000AA2001F0B1FF4FF2020001F08BFF522037
:106EC00001F0AAFF4FF2030001F084FF082001F057
:106ED000A3FF4FF2040001F07DFF002001F09CFFB2
:106EE0004FF4334001F076FF002001F095FF4FF49E
:106EF000354001F06FFF502001F08EFF4FF431401C
:106F000001F068FFCC2001F087FF4BF2011001F087
:106F100061FF002001F080FF4FF4364001F05AFF7E
:106F2000052001F079FF4FF4374001F053FF702046
:106F300001F072FF4BF2017001F04CFF702001F084
:106F40006BFF4FF4384001F045FF012001F064FF72
:106F50004BF6010001F03EFF032001F05DFF4BF610
:106F6000020001F037FF032001F056FF4BF603004B
:106F700001F030FF032001F04FFF4FF43C4001F0DF
:106F800029FF022001F048FF4BF6014001F022FFEB
:106F9000002001F041FF4BF6024001F01BFF0020F2
:106FA00001F03AFF4FF4494001F014FFD02001F006
:106FB00033FF4CF6011001F00DFF022001F02CFF11
:106FC0004CF6021001F006FF502001F025FF4CF6B0
:106FD000031001F0FFFE502001F01EFF4CF60410DC
:106FE00001F0F8FE502001F017FF4FF4585001F067
:106FF000F1FE002001F010FF4FF4545001F0EAFEC2
:10700000002001F009FF4FF4685001F0E3FE552025
:1070100001F002FF4FF4885001F0DCFE78200AF006
:1070200047FB4FF4245001F0D5FE0A200AF040FB44
:107030004FF4305001F0CEFE07B000BDF0B5002394
:10704000002400258E880768FF68C7F30B473E447D
:10705000330406688436802707FB0266766806F4E8
:107060007047066884364FF0800C0CFB0266776030
:107070000E680768FF68C7F30B473E44761C1E4343
:10708000076884370CFB02777E608E890768FF688B
:10709000C7F30A073E44330406688436802707FB9B
:1070A0000266B66806F47047066884360CFB026612
:1070B000B7608E680768FF68C7F30A073E44761C0E
:1070C0001E43076884370CFB0277BE60066884366F
:1070D000802707FB0266366926F0070706688436B4
:1070E0000CFB026637610F69066884360CFB02668A
:1070F00037613126765C33023226765C34040E7EAC
:10710000350606688436802707FB0266B6690027C5
:10711000066884360CFB0266B76191F830601E4346
:1071200026432E43076884370CFB0277BE6106684E
:107130008436802707FB0266766926F0FF0706681B
:1071400084360CFB026677614F69066884360CFB57
:107150000266776106688436802707FB0266F76956
:1071600040F20776B743066884360CFB0266F76187
:10717000D1E907673E43076884370CFB0277FE615D
:1071800006688436802707FB0266B66A0027066811
:1071900084360CFB0266B7624F6A066884360CFBC5
:1071A0000266B7620E690EB9042313E00E69012E60
:1071B00001D103230EE00E69042E08D00E69022EC1
:1071C00005D00E69032E02D00E69072E01D10223CD
:1071D00000E0012306688436802707FB0266F66A12
:1071E00006F0E027066884364FF0800C0CFB026640
:1071F000F762D1E90076F61B5E43F71C0E8D5E4305
:1072000047EA0647066884360CFB0266F7620668A2
:107210008436802707FB0266366BF70AFF02066892
:1072200084360CFB02663763CF6A066884360CFB33
:107230000266376306688436D701F65946F00107BF
:10724000066884364FEAC21C46F80C70F0BD00BFD9
:10725000FEE7704702480068C0F302207047000054
:107260000CED00E010B5002807DA0A07140E054AF5
:1072700000F00F031B1FD45403E00A07130E024A49
:10728000135410BD18ED00E000E400E0014600BF1B
:10729000080900EB8000420001F00F001044C0B26A
:1072A00070470146002203E0521CA1F10A00C1B25E
:1072B0000A29F9D2100741EA1060704770B50446F8
:1072C00000252068C06800F04000A0B9681E216851
:1072D000C860FAF7BFFB054607E0FAF7BBFB401BA7
:1072E000B0F57A7F01D9032070BD2068C06800F036
:1072F00040000028F1D00020F6E710B50246002338
:107300000868506248689062D1E9020420430C6921
:1073100020434C6920430343D06A20F0F700184310
:10732000D062002010BD01460869C0B27047014616
:10733000086800F00300704708B50246002000907E
:1073400002F11400084400900098006808BD000095
:1073500010B50248FCF790FD10BD0000888A00209F
:107360000FB410B504460021DDE903021043059A6D
:107370001043069A1043079A1043089A104301439A
:10738000606847F6FF62904308436060002010BCCD
:107390005DF814FB01460320086000207047014699
:1073A000D1F88000704710B502460023086890604D
:1073B000D1E901042043CC6820430C6920430343F6
:1073C000D0686FF30B001843D060002010BD024658
:1073D0000868C2F880000020704770B586B0054686
:1073E0000C46002601943720029040200390002094
:1073F00004904FF48060059001A92846FFF7D3FF61
:1074000041F288323721284600F0EAF90646304634
:1074100006B070BD70B586B005460C4600260B4818
:1074200020430190292002904020039000200490E6
:107430004FF48060059001A92846FFF7B4FF284665
:1074400000F0CEFA0646304606B070BD000010804F
:1074500070B586B005460C460026019410200290B7
:1074600040200390002004904FF48060059001A913
:107470002846FFF798FF41F288321021284600F095
:10748000AFF90646304606B070BD70B586B0054609
:107490000C46002601940620029040200390002014
:1074A00004904FF48060059001A92846FFF77BFF08
:1074B00041F288320621284600F092F9064630460D
:1074C00006B070BD30B585B00446002500200090A0
:1074D0000190029003904FF480600490694620462A
:1074E000FFF761FF204600F05BF90546284605B02E
:1074F00030BD30B585B0044600254FF4D5700090FE
:107500000820019040200290002003904FF48060FA
:10751000049069462046FFF746FF204600F0E0FA57
:107520000546284605B030BD70B586B005460C4608
:107530000026019412200290402003900020049025
:107540004FF48060059001A92846FFF72CFF41F217
:1075500088321221284600F043F90646304606B02C
:1075600070BD70B586B005460C460026019411200A
:10757000029040200390002004904FF4806005901A
:1075800001A92846FFF70FFF41F288321121284652
:1075900000F026F90646304606B070BDF0B585B05D
:1075A000064614461D4600270094072001904020FF
:1075B0000290002003904FF48060049069463046AA
:1075C000FFF7F1FE41F288320721304600F008F95A
:1075D0000746384605B0F0BD30B585B004460025F5
:1075E0000020009002200190C02002900020039013
:1075F0004FF48060049069462046FFF7D4FE204691
:1076000000F0C0F90546284605B030BD70B586B01B
:1076100005460C460026019409200290C0200390E4
:10762000002004904FF48060059001A92846FFF7E0
:10763000BAFE284600F0A6F90646304606B070BDF0
:1076400030B585B00446002500200090332001901D
:1076500040200290002003904FF48060049069461F
:107660002046FFF7A0FE41F288323321204600F089
:10767000B7F80546284605B030BD70B586B005465A
:107680000C46002601940D2002904020039000201B
:1076900004904FF48060059001A92846FFF783FE0F
:1076A00041F288320D21284600F09AF8064630460D
:1076B00006B070BD70B586B005460C4600260020A9
:1076C00001900320029040200390002004904FF48A
:1076D0008060059001A92846FFF765FE2246032138
:1076E000284600F0A5F90646304606B070BD0000F9
:1076F00030B585B004460025002000900C20019094
:1077000040200290002003904FF48060049069466E
:107710002046FFF748FE044A0C21204600F060F89E
:107720000546284605B030BD00E1F50570B586B0C8
:1077300005460C4600260194192002904020039033
:10774000002004904FF48060059001A92846FFF7BF
:107750002AFE41F288321921284600F041F80646F7
:10776000304606B070BD70B586B005460C460026A2
:1077700001941820029040200390002004904FF4C0
:107780008060059001A92846FFF70DFE41F288327E
:107790001821284600F024F80646304606B070BD91
:1077A00001460E480068C0084FF47A73B0FBF3F04E
:1077B00041F2883300FB03F200BF101EA2F1010268
:1077C00002D14FF000407047486B00F08000002865
:1077D000F3D040F2FF5088630020F4E798000020C7
:1077E0002DE9F04105460E46174664480068C0087A
:1077F0004FF47A71B0FBF1F000FB07F800BFB8F16D
:107800000000A8F1010803D14FF00040BDE8F0816D
:10781000686B00F045000028F1D0686B00F00400B0
:1078200010B10420A863F1E7686B00F0010010B10B
:107830000120A863EAE72846FFF775FDB04201D0B2
:107840000120E3E740F2FF50A86300212846FFF73C
:1078500073FD04464A48204008B90020D6E704F0EA
:107860000040B0F1004F02D14FF00070CEE704F0BD
:107870008040B0F1804F01D14020C7E704F00050B4
:10788000B0F1005F01D18020C0E704F08050B0F17A
:10789000805F02D14FF48070B8E704F00060B0F16F
:1078A000006F02D14FF40070B0E704F08060B0F1D7
:1078B000806F02D14FF48060A8E704F08070B0F1CF
:1078C000807F02D14FF40060A0E704F40000B0F51F
:1078D000000F02D14FF4805098E704F48000B0F517
:1078E000800F02D14FF4005090E704F40010B0F57F
:1078F000001F02D14FF4804088E704F48010B0F5F7
:10790000801F02D14FF4004080E704F48020B0F5DE
:10791000802F02D14FF4003078E704F40030B0F546
:10792000003F02D14FF4802070E704F48030B0F5BE
:10793000803F02D14FF4002068E704F40040B0F526
:10794000004F02D14FF4801060E704F48040B0F59E
:10795000804F02D14FF4001058E704F40050B0F506
:10796000005F02D14FF4800050E704F008000828BF
:1079700001D100054AE74FF4803047E79800002026
:1079800008E0FFFD014615480068C0084FF47A730F
:10799000B0FBF3F041F2883300FB03F200BF101E8E
:1079A000A2F1010202D14FF000407047486B00F095
:1079B00045000028F3D0486B00F0040010B104200B
:1079C0008863F2E7486B00F0010010B10120886382
:1079D000EBE740F2FF5088630020E6E798000020C4
:1079E000014612480068C0084FF47A73B0FBF3F008
:1079F00041F2883300FB03F200BF101EA2F1010226
:107A000002D14FF000407047486B00F0450000285D
:107A1000F3D0486B00F0040010B104208863F2E753
:107A200040F2FF5088630020EDE70000980000203E
:107A30002DE9F04104460E46174628480068C00864
:107A40004FF47A71B0FBF1F041F2883100FB01F89C
:107A500000BFB8F10000A8F1010803D14FF00040C9
:107A6000BDE8F081606B00F045000028F1D0606B4C
:107A700000F0040010B10420A063F1E7606B00F097
:107A8000010010B10120A063EAE72046FFF74BFC9C
:107A9000B04201D00120E3E740F2FF50A063002193
:107AA0002046FFF749FC054605F4604018B9280C4C
:107AB00038800020D4E705F48040B0F5804F02D133
:107AC0004FF40050CCE705F40040B0F5004F02D170
:107AD0004FF48050C4E74FF48030C1E79800002095
:107AE000014614480068C0084FF47A73B0FBF3F005
:107AF00041F2883300FB03F200BF101EA2F1010225
:107B000002D14FF000407047486B00F0450000285C
:107B1000F3D0486B00F0040018B1402088630420C3
:107B2000F1E7486B00F0400008B140208863002076
:107B3000E9E700009800002010B586B00446002058
:107B40000590012001901020029001200390002058
:107B500004904FF4805201A92046FBF7F7FF642000
:107B6000F9F730FE022001901020029001200390CE
:107B7000002004904FF4805201A92046FBF7E6FF55
:107B80000320019010200290082003900020049010
:107B90004FF4805201A92046FBF7D8FF40F2312074
:107BA0000590042001901020029001200390059878
:107BB00004904FF4805201A92046FBF7C7FF40F222
:107BC000AB212046FBF7AEFF06B010BD10B5044652
:107BD000012007490870F8F7B5FE28B90448007875
:107BE00020F00100024908700148007810BD000033
:107BF0001C0F002070B50446F9F72CFF054604E081
:107C0000F8F7A0FE08B9002070BDF9F723FF401B6C
:107C1000A042F5D34FF0FF30F6E770B50646B46BDF
:107C2000E06B406D012803D0206C406D01281ED10F
:107C300040F2FF50216888632068C06B20F49D707B
:107C40002168C863A06B40F08040A0632046FCF729
:107C5000FFF80546062D01D0052D05D12068FFF758
:107C600047FDA16B0843A063012084F8340020463F
:107C7000FBF7E2FF70BD70B50546AC6B0026206BCC
:107C800082280AD12068FFF733FD06462EB1A06B8B
:107C90003043A0632046FBF7CFFF2068C06A20F086
:107CA00008002168C86240F2FF5021688863012003
:107CB00084F834002046FCF7B5FB70BD70B506466D
:107CC000B46BE06B08B10020E063206CD8B92046AB
:107CD000FCF7BEF805460020A063012084F83400BC
:107CE000062D01D0052D0ED12068FFF701FDA16BF7
:107CF0000843A063A06B18B12046FBF744FF02E0E5
:107D00002046FBF799FF70BD0146886B0268D26B75
:107D100042F480720368DA63704770B50646B46B4C
:107D2000206C08B100202064E06BD8B92046FCF735
:107D30008FF805460020A063012084F83400062D4A
:107D400001D0052D0ED12068FFF7D2FCA16B0843AE
:107D5000A063A06B18B12046FBF715FF02E0204698
:107D6000FBF76AFF70BD2DE9F04188B004460E466E
:107D70000025F9F76FFE8046002700200090019053
:107D800008212068FFF764FB05461DB1284608B0AE
:107D9000BDE8F0815022125B11042068FFF71DFB43
:107DA00005460DB12846F2E74FF0FF30029008205B
:107DB00003903020049002200590002006900120BE
:107DC000079002A92068FFF798FA2068FFF738FCAF
:107DD00005460DB12846DAE713E02068406B00F451
:107DE000001028B12068FFF7DAFA4DF827007F1C51
:107DF000F9F730FEA0EB0800401C10B94FF000402E
:107E0000C5E72068406B40F22A4108400028E4D0D2
:107E10002068406B00F0080018B1082021688863D2
:107E2000B5E72068406B00F0020018B1022021681D
:107E30008863ACE72068406B00F0200018B1202078
:107E400021688863A3E740F2FF50216888630098A7
:107E50000006009901F47F4140EA0120009901F4F5
:107E60007F0140EA1120009940EA1160706001989A
:107E70000006019901F47F4140EA0120019901F4D3
:107E80007F0140EA1120019940EA11603060002032
:107E90007DE730B58FB004460025012003902068AF
:107EA000FFF745FA18B94FF080600FB030BD606C35
:107EB00003281BD02068FFF78FFB05460DB128462D
:107EC000F3E700212068FFF737FA60670421206894
:107ED000FFF732FAA06708212068FFF72DFAE06764
:107EE0000C212068FFF728FA80210851606C0328D4
:107EF00007D003A92068FFF7DDFB05460DB1284632
:107F0000D3E7606C032820D0BDF80C102165502207
:107F1000125B11042068FFF779FB05460DB1284676
:107F2000C3E700212068FFF707FA60660421206894
:107F3000FFF702FAA06608212068FFF7FDF9E06666
:107F40000C212068FFF7F8F9206704212068FFF76B
:107F5000F3F9010DE16404A92046FBF76EFE502001
:107F6000005B01040A4600232068FFF717FB054663
:107F70000DB1284699E7D4E90412A069CDE90012B1
:107F8000029094E80F00FFF7EBF900208DE7F8B5B9
:107F90000446002000900026002700252068FFF7F7
:107FA00091FA05460DB12846F8BD2068FFF7A1FA01
:107FB00005466DB30021A16425E00098411C0091A5
:107FC0004FF6FF71884202D14FF08070ECE700213C
:107FD0002068FFF702FA054615B14FF08050E3E73D
:107FE00000212068FFF716FA054615B14FF08050C2
:107FF000DAE700212068FFF79FF90646012080EAB2
:10800000D67080F00107002FD7D00020606433E0E5
:108010000121A16424E00098411C00914FF6FF71FA
:10802000884202D14FF08070BEE700212068FFF740
:10803000D4F905460DB12846B6E74FF080412068D7
:10804000FFF7E8F905460DB12846ADE700212068A5
:10805000FFF772F90646012080EAD67080F001072A
:10806000002FD8D006F08040B0F1804F02D101201F
:10807000606401E000206064002095E770B504466C
:108080000025A66A00BF05E02068FFF788F946F8DA
:1080900025006D1C082DF7D3A06A2030A0620020B7
:1080A00070BD70B504460D46002615B94FF000604E
:1080B00070BD5022125B11042068FFF7DEFA0646FD
:1080C0000EB13046F4E700212068FFF735F928604B
:1080D0000020EDE77CB504460020009001900025CB
:1080E00000212068FFF728F900F00070B0F1007F50
:1080F00002D14FF400607CBD69462046FFF733FE95
:1081000005460DB12846F6E7019800F4803098B195
:108110005022125B11042068FFF75FF905460DB18C
:108120002846E8E700212068FFF7AFF905460DB1C2
:108130002846E0E70020DEE74FF08060DBE77CB513
:108140000446002000900190002500212068FFF7E0
:10815000F3F800F00070B0F1007F02D14FF400603E
:108160007CBD69462046FFF7FEFD05460DB1284659
:10817000F6E7019800F4802098B15022125B1104B8
:108180002068FFF72AF905460DB12846E8E70221E5
:108190002068FFF77AF905460DB12846E0E7002090
:1081A000DEE74FF08060DBE770B504460025266A05
:1081B00000BF05E006EB85012068FFF708F96D1C9C
:1081C000082DF7D3206A20302062002070BD000007
:1081D00010B50446F8F7C2FB20B92046FFF7F6FCBD
:1081E000024908700148007810BD00001C0F0020F3
:1081F000F0B589B007460D461446012616480078AA
:1082000000F0010010B1032009B0F0BD35B1012D1F
:1082100006D0022D0BD0032D18D10FE0002617E059
:1082200001A8F8F785FB07982060002610E001A858
:10823000F8F77EFB08982080002609E001A8F8F7EF
:1082400077FB0898400A2060002601E0042600BF62
:1082500000BF3046D8E700001C0F00202DE9F04198
:1082600080460C4615461E460127324629462046C2
:10827000F8F7BAFB07463846BDE8F08110B504466A
:108280002046FFF7A3FC10BD2DE9F04180460C46C7
:1082900015461E460127324629462046F8F73EFC81
:1082A00007463846BDE8F08170B50446002220211B
:1082B0001448F9F7C9FB002521E004F0800028B13B
:1082C000012211461048F9F7BFFB04E0002201210A
:1082D0000D48F9F7B9FB002220210A48F9F7B4FB51
:1082E000012009F01BFA012220210648F9F7ACFB16
:1082F000012009F013FA6006040E681CC5B2082DAF
:10830000DBDB70BD0008024000040240F8B5044603
:108310000D4616462B46002280212046009600F08E
:1083200009F828B1606D40F0200060650320F8BDB9
:108330000020FCE72DE9F04104460E4617461D4695
:10834000DDF818803FE0681CE0B32DB1F9F782FB3F
:10835000A0EB0800A84236D32068406820F0E00077
:10836000216848606068B0F5827F0DD1A068B0F5E3
:10837000004F03D0A068B0F5806F05D12068006879
:1083800020F0400021680860A06AB0F5005F0ED1BF
:1083900000BF206800684DF6FF7108402168086042
:1083A0002068006840F400502168086000BF012088
:1083B00084F8510000BF002084F8500000BF032063
:1083C000BDE8F081FFE7206880683040B04201D10D
:1083D000012000E00020B842B5D10020F0E770474E
:1083E00010B52CF0CDFEFAF717F9012028F026FF82
:1083F0002EF0BAF82CF0E2FE10BD000000B5ABB0D4
:1084000030211FA8F7F7D4FF14211AA8F7F7D0FFDF
:1084100030210EA8F7F7CCFF302102A8F7F7C8FFEC
:1084200000BF002001903448006840F0805032497D
:1084300008600846006800F08050019000BF00BF4F
:1084400000BF002001902D48006840F440402B49B7
:1084500008600846006800F44040019000BF00BF7B
:1084600005201F904FF480302090012021900220A1
:10847000259041051FA8C161192101624FF4C07107
:108480004162022181620821C162FAF70BFE08B144
:10849000F8F776FCFAF716FB08B1F8F771FC0F2035
:1084A0001A9002201B9000201C904FF4A0501D90A9
:1084B0004FF480501E9005211AA8FAF7B5FC08B1B8
:1084C000F8F75EFC08200E9084201290022114918F
:1084D000002017900EA8FAF73BFB08B1F8F750FC04
:1084E00020200290C0000C9002A8FAF731FB08B1DE
:1084F000F8F746FC2BB000BD403802400070004049
:108500001448006840F4700012490860124800687E
:1085100040F001001049086000200F490831086050
:108520000D4800680D4908400B4908600C48091DBA
:108530000860081F006820F48020091F08600020E0
:1085400005490C3108604FF000600249803908602D
:108550007047000088ED00E000380240FFFFF6FEA3
:108560001030002410B50248FCF79EFB10BD00003F
:10857000E4A0002010B50848006800F0010020B118
:108580000EF032F908B10EF047F90348006820F008
:1085900001000149086010BD100800400022026877
:1085A0002C4B98420ED0B0F1804F0BD02A4B984202
:1085B00008D02A4B984205D0294B984202D0294B2B
:1085C000984201D1012300E000231BB122F0700288
:1085D0004B681A431F4B984220D0B0F1804F1DD0FA
:1085E0001D4B98421AD01D4B984217D01C4B9842F5
:1085F00014D01C4B984211D01B4B98420ED01B4BF1
:1086000098420BD01A4B984208D01A4B984205D08A
:10861000194B984202D0194B984201D1012300E036
:1086200000231BB122F44072CB681A4302608B68AE
:10863000C3620B688362074B984202D0094B984291
:1086400001D1012300E000230BB10B690363012377
:1086500043617047000001400004004000080040F2
:10866000000C004000040140004001400044014073
:108670000048014000180040001C0040002000405D
:1086800030B50023012404FA01F3046A9C43046218
:10869000046A02FA01F52C43046230BD70B50C4641
:1086A000154600210022066A26F00106066281694D
:1086B000026A194EB04214D0B0F1804F11D0174E5B
:1086C000B0420ED0164EB0420BD0164EB04208D07B
:1086D000154EB04205D0154EB04202D0144EB042F5
:1086E00001D1012600E000261EB121F0030129433B
:1086F00003E021F0030141F0010121F0F001F02637
:1087000006EA0316314322F00A0204F00A06324355
:108710008161026270BD0000000001400004004061
:1087200000080040000C00400004014000400140EF
:108730000018004070B50C46154600210022066A5C
:1087400026F0100606628169026A21F4407141EA4E
:10875000052121F470414FF4704606EA0336314397
:1087600022F0A002A02606EA0416324381610262CA
:1087700070BD70B50C46154600210022066A26F42D
:1087800080760662C169026A21F00301294321F063
:10879000F001F02606EA0316314322F420624FF47A
:1087A000206606EA04263243C161026270BD70B5DC
:1087B0000C46154600210022066A26F48056066201
:1087C000C169026A21F4407141EA052121F4704136
:1087D0004FF4704606EA0336314322F420424FF448
:1087E000204606EA04363243C161026270BD70B5AC
:1087F0000546AC6B0020E085E0842046FCF783FB57
:1088000070BD0168C96821F490710268D160016887
:10881000496921F0010102685161202180F83A1074
:10882000704710B504462068C06820F040002168F9
:10883000C860202084F839002046FCF785FD002020
:1088400010BD70B5044694F83A00222844D1A068BF
:10885000B0F5805F13D1A56A206940B920684068EF
:10886000C0F308002880A06A801CA06219E020687C
:108870004068C0B22880A06A401CA06211E0206954
:1088800038B920684068C1B2A26A501CA062117059
:1088900007E02068406800F07F01A26A501CA062D7
:1088A0001170E08D401E80B2E08598B92068C068E4
:1088B00020F490702168C8602068406920F00100B1
:1088C00021684861202084F83A002046FCF7D0FC5B
:1088D000002070BD0020FCE70220FAE72DE9F041FE
:1088E000044600252068056925F44055E0680543E5
:1088F000206805612068C56849F20C6085432169DC
:10890000A068084361690843E1690843054320689A
:10891000C5602068456925F44075A0690543206855
:108920004561E069B0F5004F7ED1C44920688842B6
:1089300003D0C349206888425DD1FAF74BFB00EBB6
:10894000C00101EB001061684900B0FBF1F0642147
:10895000B0FBF1F00601FAF73DFB00EBC00101EBC3
:10896000001061684900B0FBF1F7FAF733FB00EB48
:10897000C00101EB001061684900B0FBF1F0642117
:10898000B0FBF1F000EBC00101EB0010A7EB8000A1
:10899000322101EBC0006421B0FBF1F000F0F800DF
:1089A00006EB4006FAF716FB00EBC00101EB0010E6
:1089B00061684900B0FBF1F7FAF70CFB00EBC0016E
:1089C00001EB001061684900B0FBF1F06421B0FBDD
:1089D000F1F000EBC00101EB0010A7EB80003221A9
:1089E00001EBC0006421B0FBF1F000F0070030445F
:1089F0002168886020E1FAF7DDFA00EBC00101EBA5
:108A0000001061684900B0FBF1F06421B0FBF1F0A7
:108A10000601FAF7CFFA00EBC00101EB0010616824
:108A20004900B0FBF1F700E045E0FAF7C3FA00EBCC
:108A3000C00101EB001061684900B0FBF1F0642156
:108A4000B0FBF1F000EBC00101EB0010A7EB8000E0
:108A5000322101EBC0006421B0FBF1F000F0F8001E
:108A600006EB4006FAF7A6FA00EBC00101EB001096
:108A700061684900B0FBF1F7FAF79CFA00EBC0011E
:108A800001EB001061684900B0FBF1F06421B0FB1C
:108A9000F1F000EBC00101EB0010A7EB80003221E8
:108AA00001EBC0006421B0FBF1F000F0070030449E
:108AB00021688860C0E061492068884203D060492D
:108AC000206888425CD1FAF785FA00EBC00101EB1F
:108AD000001061688900B0FBF1F6FAF77BFA00EB51
:108AE000C00101EB001061688900B0FBF1F0642166
:108AF000B0FBF1F000EBC00101EB0010A6EB800031
:108B0000322101EB00106421B0FBF1F000F0F0061F
:108B1000FAF760FA00EBC00101EB00106168890010
:108B2000B0FBF1F06421B0FBF1F006EB0016FAF7B0
:108B300051FA00EBC00101EB001061688900B0FB45
:108B4000F1F7FAF747FA00EBC00101EB001061689A
:108B50008900B0FBF1F06421B0FBF1F000EBC00143
:108B600001EB0010A7EB8000322101EB0010642123
:108B7000B0FBF1F000F00F003044216888605BE04A
:108B8000FAF718FA00EBC00101EB001061688900E8
:108B9000B0FBF1F6FAF70EFA00EBC00101EB0010A2
:108BA00061688900B0FBF1F06421B0FBF1F000EBEB
:108BB000C00101EB0010A6EB8000322101EB001098
:108BC0006421B0FBF1F000F0F006FAF7F3F900EBE6
:108BD000C00101EB001061688900B0FBF1F0642175
:108BE000B0FBF1F006EB0016FAF7E4F900EBC00178
:108BF00001EB001061688900B0FBF1F7FAF7DAF9D0
:108C000000EBC00101EB001061688900B0FBF1F0DE
:108C10006421B0FBF1F000EBC00101EB0010A7EB09
:108C20008000322101EB00106421B0FBF1F000F074
:108C30000F00304421688860BDE8F08100100140D9
:108C400000140140014691F8390021282CD1886890
:108C5000B0F5805F0FD10A6A1088C0F308000B6876
:108C60005860086918B9086A801C086209E0086A37
:108C7000401C086205E00B6A581C086218780B68F3
:108C80005860C88C401E80B2C88458B90868C06853
:108C900020F080000B68D8600868C06840F0400091
:108CA0000B68D860002070470220FCE72DE9F041F6
:108CB00004460D4617469846069E21E0701CF8B102
:108CC0002EB1F8F7C7FEA0EB0800B04218D9206813
:108CD000C06820F4D0702168C8602068406920F026
:108CE000010021684861202084F8390084F83A00A6
:108CF00000BF002084F8380000BF0320BDE8F081E9
:108D0000206800682840A84201D1012000E000202E
:108D1000B842D3D00020F1E710B52CF031FA034867
:108D200031F016FD2CF04AFA10BD000074690220E3
:108D300008B5114800680068C0F3401028B10F4919
:108D40000968C8B231F072FE12E00B480068006892
:108D5000C0F3001060B100BF00200090064800681A
:108D600000680090044800684068009000BF00BFA1
:108D70000148FCF7C9F808BDC08800200444004041
:108D800008B5114800680068C0F3401028B10F49C9
:108D90000968C8B231F082FE12E00B480068006832
:108DA000C0F3001060B100BF0020009006480068CA
:108DB00000680090044800684068009000BF00BF51
:108DC0000148FCF7A1F808BD808800200414014088
:108DD00000BFFEE710B50446002210210D48F8F749
:108DE00033FE012008F09AFC2020FFF75DFA2012E4
:108DF000FFF75AFA0020FFF757FAE0B2FFF754FAEC
:108E0000012008F08BFC012210210248F8F71CFE1B
:108E100010BD00000008024010B5044600221021D9
:108E20000A48F8F711FE012008F078FC4020FFF70F
:108E30003BFA2046FFF738FA012008F06FFC0122C8
:108E400010210248F8F700FE10BD000000080240A3
:108E50000FB4054B10B503A9044A029800F004FBB7
:108E600010BC5DF814FB0000653802082C0F0020D0
:108E70000FB41CB50246002007AC00290BD0491ED8
:108E8000CDE90021054B6A462146069800F0ECFA30
:108E9000009A002111701CBC5DF814FB11990108A7
:108EA0000FB4084B10B504A902AA039800F0DCFA2D
:108EB000044602A9002000F036FD204610BC5DF8F3
:108EC00014FB000027990108014609B900207047EA
:108ED000C8B220B1C8B20E4A105C401CF7E701F4DA
:108EE0007F4028B10A48C1F30722805C0930EEE7D1
:108EF00001F47F0028B10648C1F30742805C1130BD
:108F0000E5E7034800EB116000781930DFE7000067
:108F100022BE050802E008C8121F08C1002AFAD1C3
:108F200070477047002001E001C1121F002AFBD1E9
:108F3000704700002DE9F04782460C461E484088E5
:108F400050B90821002000F025FA07461A48396870
:108F500001607968416000BF17484088A04203D390
:108F600015480088A04202D90020BDE8F0871248C9
:108F70000088201A082101EB80060421304600F009
:108F800009FA05462868A0B12F680221384600F08A
:108F900001FA814699F801000749097910FB01F8A7
:108FA0004FEAE87008EB5070C110B81C00F0F2F9FD
:108FB000DBE70020D9E70000900500202DE9F0470D
:108FC00082460C461E48408850B90821002000F017
:108FD000E5F907461A48396801607968416000BFC1
:108FE00017484088A04203D315480088A04202D900
:108FF0000020BDE8F08712480088201A082101EB04
:1090000080060421304600F0C9F905462868A0B161
:109010002F680221384600F0C1F9814699F8010015
:109020000749097910FB01F84FEAE87008EB507026
:10903000C110B81C00F0B2F9DBE70020D9E700004E
:10904000AC0500202DE9F04782460C461E484088BA
:1090500050B90821002000F0A7F907461A483968DE
:1090600001607968416000BF17484088A04203D37F
:1090700015480088A04202D90020BDE8F0871248B8
:109080000088201A082101EB80060421304600F0F8
:109090008BF905462868A0B12F680221384600F0F8
:1090A00083F9814699F801000749097910FB01F815
:1090B0004FEAE87008EB5070C110B81C00F074F96A
:1090C000DBE70020D9E70000C80500202DE9F047C4
:1090D00082460C461E48408850B90821002000F006
:1090E00069F907461A48396801607968416000BF2C
:1090F00017484088A04203D315480088A04202D9EF
:109100000020BDE8F08712480088201A082101EBF2
:1091100080060421304600F04DF905462868A0B1CC
:109120002F680221384600F045F9814699F8010080
:109130000749097910FB01F84FEAE87008EB507015
:10914000C110B81C00F036F9DBE70020D9E70000B9
:10915000E40500202DE9F04707460C4615469A46DF
:109160001F48408860B90821002000F013F98146AB
:109170001B48D9F800100160D9F80410416000BF05
:1091800017484088A84203D315480088A84202D94E
:109190000020BDE8F08712480088281A082101EB5A
:1091A00080080421404600F0F5F806463068A0B17A
:1091B0000221306800F0EEF8814699F80000208026
:1091C000387AE07099F80100A07000202071607179
:1091D00003480079A0710120DBE70020D9E70000F7
:1091E000900500202DE9F04707460C4615469A46A3
:1091F0001F48408860B90821002000F0CFF8814660
:109200001B48D9F800100160D9F80410416000BF74
:1092100017484088A84203D315480088A84202D9BD
:109220000020BDE8F08712480088281A082101EBC9
:1092300080080421404600F0B1F806463068A0B12D
:109240000221306800F0AAF8814699F800002080D9
:10925000387AE07099F80100A070002020716071E8
:1092600003480079A0710120DBE70020D9E7000066
:10927000AC0500202DE9F04707460C4615469A46F6
:109280001F48408860B90821002000F08DF8814611
:109290001B48D9F800100160D9F80410416000BFE4
:1092A00017484088A84203D315480088A84202D92D
:1092B0000020BDE8F08712480088281A082101EB39
:1092C00080080421404600F06FF806463068A0B1DF
:1092D0000221306800F068F8814699F8000020808B
:1092E000387AE07099F80100A07000202071607158
:1092F00003480079A0710120DBE70020D9E70000D6
:10930000C80500202DE9F04707460C4615469A4649
:109310001F48408860B90821002000F04BF88146C2
:109320001B48D9F800100160D9F80410416000BF53
:1093300017484088A84203D315480088A84202D99C
:109340000020BDE8F08712480088281A082101EBA8
:1093500080080421404600F02DF806463068A0B190
:109360000221306800F026F8814699F8000020803C
:10937000387AE07099F80100A070002020716071C7
:1093800003480079A0710120DBE70020D9E7000045
:10939000E40500200246A2F17D50704702460148D4
:1093A000104470478EDDCBC0024601481044704720
:1093B0005AA8E0C00246014810447047E8FA07C1C5
:1093C00070B5044606480068FFF77EFD451E054857
:1093D00050F83500A0F120062560304670BD000031
:1093E000600E0020F067022003490868884201D01F
:1093F000012070470020FCE7700E00202DE9F043AB
:1094000089B0064688469146002400E0641C305D21
:10941000202804D0305D092801D04445F6D324B972
:109420004FF0FF3009B0BDE8F0832146304628F008
:10943000EDFF054615B94FF0FF30F3E7202101A8F5
:10944000F6F7B6FF01AA4146304629F049F807462B
:1094500017B94FF0FF30E5E701A93846A847C9F82A
:1094600000000020DEE700002DE9FF4F8BB08846AA
:109470000546002606E025280BD0DDE90D129047B1
:109480006D1C761C28780028F5D10FB03046BDE859
:10949000F08F0024A146A2460122AE4900E0044319
:1094A00015F8013F203B02FA03F00842F7D1287873
:1094B0002A2810D06FF02F022878A0F13001092956
:1094C00015D809EB890102EB410144F0020400EBDD
:1094D00001096D1CF0E758F8041B5FEA010903D588
:1094E00044F40054C9F1000944F002046D1C2878CA
:1094F0002E2817D115F8010F44F004042A280ED0A5
:109500006FF02F022878A0F1300109290AD80AEB60
:109510008A0102EB410100EB010A6D1CF2E758F8E9
:1095200004AB6D1C28786C280FD006DC4C2817D0B3
:1095300068280DD06A2814D104E0742810D07A2845
:109540000FD10DE044F400140AE044F4801401E06B
:1095500044F440146978814202D104F580146D1CF2
:109560006D1C2878692865D006DC00288DD063281A
:1095700027D0642806D15DE06E2808D073282AD051
:10958000752877D0DDE90D129047761CE0E0C4F332
:109590000250022809D003280DD0D8F80010042862
:1095A0000DD00E6008F10408D2E0D8F80010F217D0
:1095B000C1E90062F6E7D8F800100E80F2E70E70FD
:1095C000F0E718F8041B8DF8001000208DF801005A
:1095D000EB46012003E058F804BB4FF0FF30610771
:1095E0004FF0000701D40AE07F1C57450DDA87428F
:1095F000FADB1BF807100029F6D106E07F1C874232
:10960000FCDB1BF807100029F8D1DDE90D23A9EBDD
:1096100007008146214600F0B1F83044C61904E045
:10962000DDE90D121BF8010B90477F1EF8D2214691
:10963000484688E058F8040BC4F302514FF00A0B77
:10964000032900D100B2042900D140B2002802DA77
:1096500040422D2102E0210505D52B218DF8241053
:10966000012104E006E0E10710D02021F6E708AF71
:10967000089113E058F8040BC4F302514FF00A0BA1
:10968000032900D180B2042900D1C0B20021EEE745
:109690005946F6F790FF303107F8011D0028F7D141
:1096A000ADEB070000F1200B600702D524F48034F5
:1096B00001E04FF0010ADA4502DDAAEB0B0000E001
:1096C0000020824600EB0B0108980144A9EB010041
:1096D0000A90E00306D4DDE90D2321460A9800F044
:1096E0004DF806444FF0000908E009A911F80900F7
:1096F000DDE90D12904709F10109761C08998945A9
:10970000F3DBE0030CD5DDE90D2321460A9800F0D8
:1097100035F8064404E0DDE90D1230209047761C50
:10972000BAF10001AAF1010AF5DC05E0DDE90D124C
:1097300017F8010B9047761CBBF10001ABF1010B50
:10974000F4DC0A982146DDE90D2300F005F8064413
:109750006D1C97E6092801002DE9F041044600251B
:109760001E461746880404D405E039462020B04739
:109770006D1C641EF9D52846BDE8F0812DE9F04145
:10978000044600251E469046C80301D5302700E058
:109790002027880404D505E041463846B0476D1CB3
:1097A000641EF9D52846BDE8F08100002DE9FC5F74
:1097B00004468B4615461E46DDE90C9ADDE90E7817
:1097C00004F120004060006000BF28346560A6609E
:1097D000C4F80C90C4F810A02321D4E903022BF0A4
:1097E00002FFD4E9033C63441A1F0F4BD4E9010183
:1097F0002BF09EFC2060A77667760020E061C4F81D
:109800002880C4F82C8060612076A066E066283C41
:1098100000902346054A2146019004F158002CF09F
:1098200025FF0020BDE8FC9F8D6204083165040817
:109830002DE9F04704460E4617469846DDF820907D
:1098400084F81590607D20F001006075A662E762E3
:1098500000206063C4F83080002506E004F1200198
:1098600001EBC5002BF056FD6D1C012DF6DBBDE8AC
:10987000F08710B50246002001460EE002F12003F9
:1098800003EBC100D0E900436360D0E900342360FA
:109890004060006000BF481C01460129EEDB10BD9E
:1098A0002DE9F04706460F461546A946B46D28E057
:1098B000F6F798FC8246E088A188884205D1A06826
:1098C00018B95046F6F792FC1DE0E188206810F8C0
:1098D0000180E088401CE080E188706DC0F38F203B
:1098E000814201DB0020E080A068012801D1002036
:1098F000A0605046F6F77AFC87F800807F1C6D1E4A
:1099000000BF002DD4D100BFA9EB0500BDE8F08752
:109910004A68002A06D00A68531C0B601070486819
:10992000401E486070470A68531C0B6010707047F7
:1099300030B52DED048B85B00025002001900290FC
:109940000390049000241AE00B2001900120029063
:109950000720039001A91E48F7F7FEFA1C48F7F705
:10996000B7FC0A211A48F7F755FC1948F7F7BEFB70
:1099700018490880084600880544601CC4B20A2CB7
:10998000E2DB0A20B5FBF0F01249088008460088A7
:1099900000EE100AB8EE400A10EE100AF6F7DCFDF1
:1099A00041EC190B9FED0C0B53EC102BF6F762FDFD
:1099B00041EC180BF6F7E3FD00EE100A084880EDC5
:1099C000000A0448008805B0BDEC048B30BD0000DF
:1099D0007CA00020640000206666666666664A3FDA
:1099E0006C0000201FB500200090019002900390B1
:1099F000062000900120019003200290694609484A
:109A0000F7F7AAFA08B1F7F7BBF90648F7F760FCD1
:109A10000A210448F7F7FEFB0248F7F767FB80B21C
:109A200004B010BD7CA000201FB500200090019064
:109A3000029003901C481D4908604FF48030486034
:109A400000211A4881600161017680F82010C1620E
:109A5000174981620021C1600121C161002180F8A4
:109A6000301001214161F7F745FB08B1F7F788F99C
:109A700006200090012001900320029069460B48C7
:109A8000F7F76AFA08B1F7F77BF90B20009001208D
:109A900001900720029069460448F7F75DFA08B183
:109AA000F7F76EF91FBD0000002201407CA00020E6
:109AB0000100000F2DE9F04180460E4600250027E9
:109AC00009E056F827001EA1F6F7AEFC08B1681CA5
:109AD00085B2781C87B256F82700F6F79EFC00285E
:109AE000EFD1404620F0FEFC0446606820B160687B
:109AF0001FF010FE00206060A06820B1A0681FF079
:109B000009FE0020A060E8001FF0DEFD60606068D4
:109B100008B900BFFEE768001FF0D6FDA060A0688E
:109B200008B900BFFEE7606808B1A06800B9002569
:109B30006900A068F6F73CFC2584BDE8F0810000D0
:109B40000A00000010B58AB0044694F82400C0F35F
:109B5000400020B994F8240000F0010070B194F89E
:109B60002400C0F34000F0B994F8240000F0010094
:109B7000C8B194F82400C0F38000A0B12822214687
:109B80006846F6F7FAFB214619481FF0D4F920463B
:109B90001FF0C0FD012017490870039810B16846F6
:109BA000039988471FE0E08B404200B2608394F83D
:109BB000240000F00100B0B194F82410C1F380013A
:109BC00019B9A18B494209B261831034217D8908FA
:109BD000C943227D61F38202227520686168216099
:109BE0006060103C00BF034800780AB010BD000060
:109BF00008A90020B00100202DE9F04107462F48B8
:109C00001FF0B2F8044608E0606A20F008006062C5
:109C100021462A481FF0ADF80446002CF4D128480C
:109C2000006827F0EDFA064624481FF09DF8044628
:109C30003CE000202349087094F82400C0F3C000E1
:109C400038BB606A20F0080008306062608B3044E6
:109C500000B26083B4F91A0000281ADBB4F91A00C4
:109C6000218B884202DD208B00B260832046A168F0
:109C700088470546606818B129B2D4E900029047C8
:109C8000B4F91A00218B884202DB2046FFF75AFF05
:109C900000BF0C48007820B108481FF065F8044662
:109CA00004E0214605481FF064F80446002CC0D1AA
:109CB00027F0B4FA02490860BDE8F08108A9002045
:109CC000AC010020B001002030B50346022B04D1C6
:109CD0000E48405C5043001230BD032B04D10C48A9
:109CE000405C50430012F7E7042B04D10948405C64
:109CF00050430012F0E7C1EBC105581EB5FBF0F070
:109D0000C4B20548005D5043000AE5E70EB40408FC
:109D100010B4040813B4040817B404082DE9F04F74
:109D200085B00446FD49FE4824F056F8FD49FE483A
:109D300024F052F8FB49FD4824F04EF8F749FC485E
:109D400024F04AF8FB48010CC0F30722C3B24FEAE3
:109D5000D30ABDF800C06AF3040CCDF800C04FEA86
:109D6000920ABDF800C06AF34A1CCDF800C04FEA61
:109D7000D10ABDF800C06AF3CF2CCDF800C0BDF801
:109D800000A0D446CDF804C0BDF804201146E84830
:109D90000291BDF808100186FF2180F83210E648D4
:109DA0000078042807D1E54800680290DF48BDF834
:109DB0000810018406E000200290DC48BDF808107D
:109DC000018400BFDE49D9484162DB48007804289D
:109DD00008D1DA48001D00680290D348BDF8081089
:109DE000018406E000200290CF48BDF808100184ED
:109DF00000BFD449CC4841620021204620F088F8B9
:109E0000054616F0FBFC029016F047FD824616F060
:109E1000F5FC029016F0F8FC834652465946284657
:109E200020F05EFE0021284611F048FA06463C224A
:109E30006421304620F054FEC349304620F08BFDAB
:109E4000B74A0021304611F02EFBB54A01213046B9
:109E500011F029FB002128461CF0E8FF0746B34A11
:109E6000002138461DF099FFB8A138461DF0A7FF24
:109E70000020142307223146009038461FF0E0FCF2
:109E8000002128461CF0D2FF8046A74A0021404608
:109E90001DF083FFAEA140461DF091FF102000236E
:109EA00002222946009040461FF0CAFC00212846A5
:109EB00014F01AFD03903C220021039820F0B7FD16
:109EC000039820F072FB834620F0E9FB824664226F
:109ED0005146039820F004FE002103981BF022FB5A
:109EE00081469F4948461CF0B5F9122003460122DD
:109EF0000090484603991FF0A3FC8B49994823F032
:109F00006BFF904997484162002103981CF08EFF37
:109F10000490944A002104981DF03FFF6FF01D004B
:109F2000142313224946009004981FF089FC8EA147
:109F300004981DF044FF002103981CF077FF049063
:109F4000884A002104981DF028FF002014231322C2
:109F50004946009004981FF073FC88A104981DF0F6
:109F60002EFF002103981CF061FF04907D4A002120
:109F700004981DF012FF1E2014231322494600905E
:109F800004981FF05DFC83A104981DF018FF66493A
:109F9000864823F021FF6449854823F01DFF854949
:109FA000824841628449824841620021284614F077
:109FB0009BFC0390A0220021039820F038FD039819
:109FC00020F0F3FA029020F06AFB032190FBF1F0FD
:109FD0000FFA80FA039820F0E8FA029020F05FFB75
:109FE000032190FBF1F00FFA80FB5246594603988B
:109FF00020F076FD002103981BF094FA81464C4A2C
:10A00000002148461CF0D4F96C4948461CF022F95E
:10A010006FF0130000231A460090484603991FF082
:10A020000FFC002103981CF001FF0490604A0021FE
:10A0300004981DF0B2FE0520034601220090DDE9E0
:10A0400003101FF0FDFB5EA104981DF0B8FE002177
:10A0500003981CF0EBFE0490544A002104981DF074
:10A060009CFE6420052301220090DDE903101FF00F
:10A07000E7FB54A104981DF0A2FE002103981CF0F8
:10A08000D5FE0490494A002104981DF086FE7820F0
:10A09000052301220090DDE903101FF0D1FB4DA143
:10A0A00004981DF08CFE002103981CF0BFFE049064
:10A0B0003E4A002104981DF070FE8C2005230122E9
:10A0C0000090DDE903101FF0BBFB46A104981DF0D2
:10A0D00076FE0021284614F007FC0390039820F038
:10A0E00064FA834620F0DBFA032190FBF1F00FFACB
:10A0F00080FAA0225146039820F099FC039820F0A2
:10A1000054FA029020F0CBFA032190FBF1F00FFA01
:10A1100080FA039820F049FA02906BE0FCA5002039
:10A12000A4620220ECA600201C630220E062022050
:10A1300048640220E87448005306002090BD0508DA
:10A140008C010020B405002069A40208EF8193006F
:10A15000E585B3E4BA8EE69CACE69CBA000000004C
:10A16000E44E022094630220E59381E7898C3AE86B
:10A17000B7B3E58594E7A791E68A800052544F5320
:10A180003A52542D5468726561642D56342E302E27
:10A19000300000004755493A4C6974746C65764745
:10A1A0004C2D56362E302E3000000000D063022099
:10A1B0000C6402202C0100205C010020204F0220B2
:10A1C0004D43550053544D33324634323949475488
:10A1D00036000000464C4153483A314D427974658F
:10A1E000000000005352414D3A3139324B427974EC
:10A1F0006500000020F053FA032190FBF1F00FFA04
:10A2000080FB52465946039820F06AFC00210398CF
:10A210001BF088F98146FE4A002148461CF0C8F828
:10A22000FC4948461CF016F86FF0130000231A464C
:10A230000090484603991FF003FB002103981CF08F
:10A24000F5FD0490F44A002104981DF0A6FD0520B8
:10A25000034601220090DDE903101FF0F1FAEFA19F
:10A2600004981DF0ACFD002103981CF0DFFD049064
:10A27000EC4A002104981DF090FD64200523012282
:10A280000090DDE903101FF0DBFAE7A104981DF050
:10A2900096FD002103981CF0C9FD0490E14A0021BD
:10A2A00004981DF07AFD7820052301220090DDE955
:10A2B00003101FF0C5FAE0A104981DF080FD0021F5
:10A2C00003981CF0B3FD0490D64A002104981DF0B9
:10A2D00064FD8C20052301220090DDE903101FF0AE
:10A2E000AFFAD9A104981DF06AFD0021284614F0A8
:10A2F000FBFA0390039820F058F9834620F0CFF939
:10A30000032190FBF1F040000FFA80FAA0225146A1
:10A31000039820F08CFB039820F047F9029020F07E
:10A32000BEF9032190FBF1F00FFA80FA039820F0B8
:10A330003CF9029020F0B3F9032190FBF1F00FFA01
:10A3400080FB52465946039820F0CAFB002103982F
:10A350001BF0E8F88146AE4A002148461CF028F878
:10A36000BC4948461BF076FF6FF0130000231A46E5
:10A370000090484603991FF063FA002103981CF0EF
:10A3800055FD0490A44A002104981DF006FD052007
:10A39000034601220090DDE903101FF051FAAEA13F
:10A3A00004981DF00CFD002103981CF03FFD049063
:10A3B0009C4A002104981DF0F0FC64200523012232
:10A3C0000090DDE903101FF03BFAA4A104981DF0F2
:10A3D000F6FC002103981CF029FD0490914A00210D
:10A3E00004981DF0DAFC7820052301220090DDE9B5
:10A3F00003101FF025FA9CA104981DF0E0FC002139
:10A4000003981CF013FD0490864A002104981DF067
:10A41000C4FC8C20052301220090DDE903101FF00D
:10A420000FFA94A104981DF0CAFC0021284614F0EC
:10A430005BFA0390039820F0B8F8834620F02FF9D8
:10A44000032190FBF1F04FF0000A4FF4A072514647
:10A45000039820F0ECFA039820F0A7F8029020F07F
:10A460001EF9032190FBF1F00FFA80FA039820F017
:10A470009CF8029020F013F9032190FBF1F00FFA01
:10A4800080FB52465946039820F02AFB002103988E
:10A490001BF048F881465E4A002148461BF088FFC1
:10A4A000794948461BF0D6FE6FF0130000231A4688
:10A4B0000090484603991FF0C3F9002103981CF04F
:10A4C000B5FC0490544A002104981DF066FC052058
:10A4D000034601220090DDE903101FF0B1F96BA1E2
:10A4E00004981DF06CFC002103981CF09FFC049064
:10A4F0004C4A002104981DF050FC642005230122E1
:10A500000090DDE903101FF09BF962A104981DF093
:10A5100056FC002103981CF089FC0490414A00215C
:10A5200004981DF03AFC7820052301220090DDE913
:10A5300003101FF085F959A104981DF040FC00217B
:10A5400003981CF073FC0490364A002104981DF017
:10A5500024FC8C20052301220090DDE903101FF06C
:10A560006FF953A104981DF02AFC0021284614F02D
:10A57000BBF90390039820F018F8834620F08FF879
:10A58000032190FBF1F00FFA80FA4FF4A0725146CC
:10A59000039820F04CFA039820F007F8029020F07E
:10A5A0007EF8032190FBF1F00FFA80FA03981FF078
:10A5B000FCFF029020F073F8032190FBF1F00FFAFA
:10A5C00080FB52465946039820F08AFA00210398EE
:10A5D0001AF0A8FF81460E4A002148461BF0E8FE0B
:10A5E000374948461BF036FE6FF0130000231A4629
:10A5F0000090484603991FF023F9002103981CF0AE
:10A6000015FC0490044A002104981DF0C6FB59E093
:10A6100048640220144F02200C6402204D454D4F27
:10A6200052590000D0630220454550524F4D3A42E6
:10A630004C32344330320000464C4153483A584D76
:10A6400032355148313238005344434152443A4D37
:10A650004D430000084F022052414D005739383217
:10A660003547364B482D3600534452414D3A33322C
:10A670004D000000446174612077696474683A3168
:10A680003662697400000000FC4E022053435245BC
:10A69000454E00004C43442D524742005265736FB3
:10A6A0006C7574696F6E3A3830302A343830000077
:10A6B000546F7563683A47543931343700000000ED
:10A6C0002C4F02200520034601220090DDE90310F3
:10A6D0001FF0B6F875A104981DF071FB00210398D6
:10A6E0001CF0A4FB0490734A002104981DF055FB54
:10A6F0006420052301220090DDE903101FF0A0F87B
:10A700006DA104981DF05BFB002103981CF08EFBEB
:10A710000490684A002104981DF03FFB782005232F
:10A7200001220090DDE903101FF08AF866A1049869
:10A730001DF045FB002103981CF078FB04905D4A56
:10A74000002104981DF029FB8C2005230122009094
:10A75000DDE903101FF074F85DA104981DF02FFBD4
:10A760000021284614F0C0F8039003981FF01DFF45
:10A7700083461FF094FF032190FBF1F040000FFA95
:10A7800080FA4FF4A0725146039820F050F90398D4
:10A790001FF00BFF02901FF082FF032190FBF1F0EE
:10A7A0000FFA80FA03981FF000FF02901FF077FF66
:10A7B000032190FBF1F00FFA80FB524659460398B3
:10A7C00020F08EF9002103981AF0ACFE8146424A2F
:10A7D000002148461BF0ECFD404948461BF03AFD7D
:10A7E0006FF0130000231A460090484603991FF0AB
:10A7F00027F8002103981CF019FB0490384A002127
:10A8000004981DF0CAFA0520034601220090DDE9F4
:10A8100003101FF015F833A104981DF0D0FA0021A1
:10A8200003981CF003FB0490224A002104981DF0B9
:10A83000B4FA6420052301220090DDE903101EF024
:10A84000FFFF2BA104981DF0BAFA002103981CF019
:10A85000EDFA0490174A002104981DF09EFA782022
:10A86000052301220090DDE903101EF0E9FF24A179
:10A8700004981DF0A4FA002103981CF0D7FA049064
:10A880000C4A002104981DF088FA8C20052301222F
:10A890000090DDE903101EF0D3FF1CA104981DF009
:10A8A0008EFA284605B0BDE8F08F000042415454AE
:10A8B00045525900D06302206C69746869756D2037
:10A8C0006261747465727900333030306D61680094
:10A8D000332E37560000000048640220F04E02205C
:10A8E0000C640220574952454C4553530000000068
:10A8F00049522053656E642026205265637600001D
:10A90000574946493A45535031325300322E344765
:10A910003A4E524632344C30315000002DE9FC5F43
:10A9200081468A4600BF15F069FF834615F0AAFFED
:10A93000064651A10FF0A4FD05465149284620F0D6
:10A940000AF80021284610F0B9FC07466422114697
:10A95000384620F0C5F84B200023022229460090FB
:10A9600038461EF06DFF0121384610F0C2FD454902
:10A9700038461FF0F0FF444A0021384610F093FD9E
:10A98000424A0121384610F08EFD3F4A02213846E6
:10A9900010F089FD3D4A0321384610F084FD002166
:10A9A00038461AF0BFFD3A4908603A49384800680D
:10A9B0001BF050FC3648066830461FF009FE8346FF
:10A9C0005946354823F008FA344800680190324867
:10A9D000BDF804100186FF2180F8321002460021E4
:10A9E0002B4800681BF0DBFC0021284622F0ACFC61
:10A9F0008046C820002302222946009040461EF0CF
:10AA00001FFF274940461FF0A6FF2649264823F08E
:10AA1000E3F926480078042808D12048001D006882
:10AA200000902148BDF80010018406E0002000904D
:10AA30001D48BDF80010018400BF1D491A4841623D
:10AA4000002128461CF0F2F904461AA120461DF008
:10AA5000B6F9FA206FF081030222294600902046C1
:10AA60001EF0EEFE104E3146204620F088F800BF62
:10AA70002846BDE8FC9F000042454550000000000C
:10AA80004533040871E70108FCA5002090A80020C8
:10AA90001C0B0020904E02207C57022044BD05086C
:10AAA00069720408ECA60020B85702205306002063
:10AAB000B4050020E68993E5BC80E6B58BE8AF9548
:10AAC000E58DB3E58FAF2CE58BBFE995BFE697B673
:10AAD000E997B4E68993E5BC800000002DE9F84FC2
:10AAE000074600240025002609F026FD60A138460F
:10AAF0000FF0C6FC8146604948461FF02CFF5F49B5
:10AB00005F4823F069F95F495D4841625E4800781B
:10AB1000042807D15D48006800905948BDF800102E
:10AB2000018406E0002000905548BDF80010018423
:10AB300000BF002148461CF079F95549086055A12D
:10AB4000534800681DF03BF94D4A00215048006809
:10AB50001DF008F9502000230222494600904C487D
:10AB600000681EF06DFE26F09BF8D0F8408041464C
:10AB70004A4823F031F926F093F8D0F81480414682
:10AB8000474823F029F926F08BF8D0F81080414689
:10AB9000444823F021F947F618414148C180414813
:10ABA000C18038493D484162002453E0032094FBB2
:10ABB000F0F100FB114000EBC00101EB001064213B
:10ABC00001EB800085B2032094FBF0F0C0EB001095
:10ABD00000EB4000AA2101EB400086B2002148466C
:10ABE00010F06CFB8246002150461CF01FF9834692
:10ABF0002A4A002158461DF0B5F82B4850F8241079
:10AC000058461DF0DCF8264A0121504610F04BFC56
:10AC1000244A0021504610F046FC32B229B2504678
:10AC20001FF005FF5022114650461FF059FF2146E4
:10AC300050461FF0AFFF1D4950461FF08CFE122CEE
:10AC400006D132B205F1640001B250461FF0EFFEAA
:10AC5000601CC4B2132CA9DB0D48022264210368D6
:10AC6000134825F0A1FD134908604846BDE8F88F58
:10AC7000E7BAA2E5A496000089330408ECA60020F8
:10AC8000385A02208C010020530600205CBD0508C4
:10AC90005C0C00205245433A00000000285B022073
:10ACA000EC5A0220B05A0220640C0020ADF20108D8
:10ACB00031600208600C00202DE9F0478CB080461E
:10ACC0008946CE49CE4823F087F8CE48007804283C
:10ACD00007D1CD4800680190C948BDF8041001842F
:10ACE00006E000200190C648BDF80410018400BFB2
:10ACF000C649C3484162C149C54823F06DF8C148FF
:10AD00000078042808D1C048001D00680190C048A0
:10AD1000BDF80410018406E000200190BC48BDF895
:10AD20000410018400BF00BF15F068FD824615F0D5
:10AD3000A9FD0646B7A10FF0A3FB0546B949284671
:10AD40001FF009FE002128461CF070F80746AC4AA7
:10AD5000002138461DF00FF8B3A138461DF02FF83A
:10AD60004620002302222946009038461EF068FD46
:10AD70000021284611F024FE044678201E230122DB
:10AD80000021009020461EF05BFD0A21204612F0B3
:10AD90003FFF0421204612F0DDFF642200212046FF
:10ADA00012F0BEFF05220921204612F0B2FE322128
:10ADB000204612F0C6FE0521204612F0E6FF0123D0
:10ADC0001A46A1480168204612F0FFFF4FF4967220
:10ADD000114620461FF084FE0A221146204612F03A
:10ADE000E5FF01231A4699480168204613F00BF845
:10ADF0000A221146204612F0F9FF854E31462046C0
:10AE00001FF0BDFE00BF8048083000680B90204650
:10AE10000B9911F08FFD8E4908607B480C3000685B
:10AE20000A9020460A9911F085FD8A490860764803
:10AE30001030006809902046099911F07BFD864981
:10AE400008606E49854822F0C7FF002008908348BB
:10AE5000BDF8201001840A21C1800146804822F0FB
:10AE6000BBFF7E497F4822F0B7FF67481430006877
:10AE700007907A48BDF81C1041806348183000687C
:10AE800006907648BDF8181081805F481C30006835
:10AE900005907348BDF8141041805B48203000686D
:10AEA00004906F48BDF81010818057482430006826
:10AEB00003906C48BDF80C1041805348283000685E
:10AEC00002906848BDF808108180002128461BF0D8
:10AED000ADFF0746614A002138461CF04CFF0121B6
:10AEE00038461CF035FE60A138461CF068FF6FF054
:10AEF0001D00142313222146009038461EF0A0FCAA
:10AF0000002128461BF092FF0746554A002138468B
:10AF10001CF031FF012138461CF01AFE55A13846BD
:10AF20001CF04DFF002014231322214600903846C8
:10AF30001EF086FC002128461BF078FF0746494A90
:10AF4000002138461CF017FF012138461CF000FE96
:10AF50004AA138461CF033FF1E2014231322214639
:10AF6000009038461EF06CFC0021284611F00CFBC6
:10AF7000454908603CA14448006811F060FC50203D
:10AF80006FF095030022294600903F4800681EF0AC
:10AF900057FC0021284611F0F7FA3C49086032A11D
:10AFA0003A48006811F04BFC502000231A4629460D
:10AFB0000090364800681EF043FC0021284611F03E
:10AFC000E3FA334908602DA13148006811F037FCDD
:10AFD000502096230022294600902D4800681EF03C
:10AFE0002FFC2346022264212A4825F0DDFB2A4952
:10AFF000086028460CB0BDE8F0870000ECA60020F1
:10B00000645B02205306002060BD0508B4050020E3
:10B01000A05B0220E68C89E994AEE6B58BE8AF959B
:10B0200000000000B1330408E68C89E4B88BE68C9C
:10B0300089E994AEE59BBEE8A1A8E58F91E7949FCE
:10B04000E58F98E58C9600001C0D0020200D002057
:10B05000000D0020040D0020080D0020DC5B022004
:10B06000185C0220545C02204B45595F4C45465405
:10B07000000000004B45595F4D4944004B45595F66
:10B0800052494748540000000C0D0020100D0020CC
:10B09000140D0020A5A70408180D00202DE9FF5F5E
:10B0A00000BF15F0ABFB834615F0ECFB054663A132
:10B0B0000FF0E6F904466249624822F08DFE6248CC
:10B0C0000078042807D16148006800905D48BDF809
:10B0D0000010018406E0002000905A48BDF80010DE
:10B0E000018400BF5A4957484162002120461CF0A4
:10B0F00057FF58490860642000230222214600902F
:10B10000544800681EF09CFB5248056828461FF012
:10B110005FFA83465946504822F05EFE00200390B5
:10B120004D48BDF80C104180002002904A48BDF8FF
:10B130000810818002460021464800681DF005F88D
:10B140000021204623F0FEF80646C82000230222F4
:10B150002146009030461EF073FB404930461FF0F8
:10B16000FAFB002120461BF061FE8146354A002192
:10B1700048461CF0DCFD3AA148461CF020FE0020A9
:10B180006FF0090310223146009048461EF058FB2C
:10B190000021204623F0D6F807464FF4967000238E
:10B1A00002222146009038461EF04AFB2E493846BE
:10B1B0001FF0D1FB002120461BF038FE8246214AB9
:10B1C000002150461CF0B3FD28A150461CF0F7FDAD
:10B1D00000206FF0090310223946009050461EF0FF
:10B1E0002FFB0021204623F0ADF880464FF4C870B5
:10B1F000002302222146009040461EF021FB1D49FB
:10B2000040461FF0A8FB002120461BF00FFE0190D6
:10B210000C4A002101981CF08AFD17A101981CF02E
:10B22000CEFD00206FF009031022414600900198E6
:10B230001EF006FB204604B0BDE8F09F4C454400DC
:10B24000ECA60020AC5302205306002040BD0508A8
:10B250008C01002064060020F8520220F5800408CA
:10B260005245443A000000006181040847524545B8
:10B270004E3A0000CD810408424C55453A0000008A
:10B280002DE9FC478046894600BF15F0B7FA824693
:10B2900015F0F8FA074659A10FF0F2F80646594999
:10B2A00030461FF058FB5849584822F095FD584841
:10B2B0000078042807D15748006800905348BDF82B
:10B2C0000010018406E0002000905048BDF80010F6
:10B2D000018400BF50494D4841624B494F4822F01C
:10B2E0007BFD4B480078042808D14A48001D0068BF
:10B2F00000904A48BDF80010018406E0002000904C
:10B300004648BDF80010018400BF002130461BF004
:10B310008DFD05463D4F394628461FF030FC00BFE5
:10B320003FA128461CF04BFD462000230222314657
:10B33000009028461EF084FA0021304611F040FBB0
:10B3400004467820002302221946009020461EF071
:10B3500077FA0A21204612F05BFC0421204612F005
:10B36000F9FC64220021204612F0DAFC05220921B2
:10B37000204612F0CEFB3221204612F0E2FB0521DE
:10B38000204612F002FD01231A462D48016820468E
:10B3900012F01BFD4FF49672114620461FF0A0FBE1
:10B3A0000A221146204612F001FD01231A462548C3
:10B3B0000168204612F027FD0A221146204612F0AD
:10B3C00015FD164F394620461FF0D9FB00BF114826
:10B3D0000830006801902046019911F0ABFA1A4933
:10B3E0000860234602224FF4FA71184825F0DCF970
:10B3F000174908603046BDE8FC870000E58589E70D
:10B4000085A7000065330408ECA60020C05902207F
:10B410005306002050BD0508B4050020FC59022049
:10B42000E59BBEE8A1A8E58F8DE698A0E78EAFE585
:10B43000A283E58589E785A7E5BCBAE5BAA6000041
:10B440004C0C0020500C0020540C002089A704084C
:10B45000580C00202DE9FC5FD521FEA0FDF7F8FC7B
:10B46000002500241426FE49FE4822F0B5FCFE48C3
:10B4700012F0A5FD0090FB48BDF800104180FA488D
:10B4800012F09DFD0090F748BDF80010818000BFCC
:10B4900015F0B4F9814615F0F5F98046F3A10EF0E8
:10B4A000EFFF0746F54938461FF055FAED49384693
:10B4B0001FF065FBF249F34822F08EFCF248007859
:10B4C000042807D1F14800680090EE48BDF800104C
:10B4D000018406E000200090EA48BDF800100184D5
:10B4E00000BFEB49E7484162002138461FF0B0FB3E
:10B4F000E849086038461EF0FBFF3C380FFA80F838
:10B5000038461FF0CCF8814642464946E14800687B
:10B510001FF0E6FA3C200023022239460090DD4865
:10B5200000681EF08DF90A250A240021D948006818
:10B530001BF07CFCD8490860D24A0021D64800683C
:10B540001CF022FCD5A1D44800681CF038FC22462F
:10B550002946D14800681FF06AFA0021CD480068EA
:10B560001BF064FCD14908600121D04800681CF040
:10B5700099FBC44A0021CD4800681CF005FCCCA111
:10B58000CA4800681CF01BFC22468221C74800689C
:10B590001FF04DFAA01984B20021BE4800681BF0CC
:10B5A00045FCC74908600121C54800681CF07AFBCA
:10B5B000B44A0021C24800681CF0E6FBC1A1C048A3
:10B5C00000681CF0FCFB22B22946BD4800681FF051
:10B5D0002EFAA01984B20021AE4800681BF026FCA8
:10B5E000BC4908600121BB4800681CF05BFBA54A10
:10B5F0000021B84800681CF0C7FBB7A1B548006837
:10B600001CF0DDFB22B22946B24800681FF00FFA99
:10B61000A01984B200219F4800681BF007FCB249C2
:10B6200008600121B04800681CF03CFB954A0021ED
:10B63000AD4800681CF0A8FBACA1AB4800681CF04A
:10B64000BEFB22B22946A84800681FF0F0F9A019F5
:10B6500084B200218F4800681BF0E8FBAA4908600B
:10B660000121A94800681CF01DFB864A0021A6485C
:10B6700000681CF089FBA5A1A34800681CF09FFB93
:10B6800022B22946A04800681FF0D1F9A01984B25F
:10B690000021804800681BF0C9FBA2490860012115
:10B6A000A04800681CF0FEFA764A00219D48006818
:10B6B0001CF06AFB9CA19B4800681CF080FB22B236
:10B6C0002946984800681FF0B2F9A01984B20021F9
:10B6D000704800681BF0AAFB99490860012198484E
:10B6E00000681CF0DFFA674A0021954800681CF0EA
:10B6F0004BFB94A1924800681CF061FB22B22946E2
:10B700008F4800681FF093F9A01984B200216148A6
:10B7100000681BF08BFB9149086001218F4800688D
:10B720001CF0C0FA574A00218C4800681CF02CFB22
:10B730008BA18A4800681CF042FB22B22946874848
:10B7400000681FF074F9A01984B200215148006804
:10B750001BF06CFB884908600121874800681CF0D9
:10B76000A1FA484A0021844800681CF00DFB83A11F
:10B77000814800681CF023FB22B229467E480068FD
:10B780001FF055F9A01984B20021424800681BF04F
:10B790004DFB8149086001217F4800681CF082FA56
:10B7A000384A00217C4800681CF0EEFA7BA17A48F8
:10B7B00000681CF004FB22B22946774800681FF09D
:10B7C00036F9A01984B20021324800681BF02EFB24
:10B7D000784908600121774800681CF063FA294A1B
:10B7E0000021744800681CF0CFFA73A1714800680A
:10B7F0001CF0E5FA22B229466E4800681FF017F9DE
:10B80000A01984B20021234800681BF00FFB6E4989
:10B81000086001216C4800681CF044FA194A0021B4
:10B82000694800681CF0B0FA68A1674800681CF01D
:10B83000C6FA22B229B2644800681FF0F8F8A019CD
:10B8400084B20021134800681BF0F0FA64490860D4
:10B850000121C7E00A2073697A653A2564200A004D
:10B86000C0A50020F05E0220E87448004E42E4BF0C
:10B87000A1E58FB7E6B58BE8AF9500003534040835
:10B88000ECA60020B45E0220530600208CBD050803
:10B89000B4050020640D0020280D0020E8BF90E8CA
:10B8A00090A5E59586E5AEB600000000340D0020B9
:10B8B0004353513A20234646303030302020230075
:10B8C000300D0020E58DA1E58FB720696D65693ADF
:10B8D000000000002C0D0020E6A8A1E7BB84E58F46
:10B8E000B720696D73693A00380D0020E4BFA1E507
:10B8F0008FB7E58A9FE78E87205369676E616C205A
:10B90000706F7765720000003C0D0020E680BBE59B
:10B910008A9FE78E8720546F74616C20706F776503
:10B9200072000000400D0020E58F91E5B084E58AAB
:10B930009FE78E8720545820706F77657200000053
:10B94000440D0020E58F91E5B084E697B6E997B401
:10B950002054582074696D6500000000480D0020D7
:10B96000E68EA5E694B6E697B6E997B4205258203D
:10B9700074696D65000000004C0D0020E59FBAE77A
:10B98000AB99E5B08FE58CBAE6A087E8AF86204397
:10B99000656C6C2049440000500D0020E8A686E745
:10B9A0009B96E5A29EE5BCBAE7AD89E7BAA720451C
:10B9B000434C0000540D0020E4BFA1E599AAE6AF76
:10B9C0009420534E52000000580D0020E4B8ADE51D
:10B9D000BF83E9A291E782B92045415246434E0018
:10B9E0005C0D0020AE4800681CF05CF9AD4A0021F7
:10B9F000AB4800681CF0C8F9ABA1A94800681CF06E
:10BA0000DEF922B229B2A64800681FF010F8A0198A
:10BA100084B20021AA4800681BF008FAA94908600E
:10BA20000121A84800681CF03DF99E4A0021A54864
:10BA300000681CF0A9F9A4A1A24800681CF0BFF995
:10BA400022B229B29F4800681EF0F1FF00219C48F5
:10BA500000681FF0FDF8A4490860994800681EF0CE
:10BA600047FD804600EBD87040101E380FFA80F971
:10BA7000934800681FF0A1FC83464A4659469A48FD
:10BA800000681FF02DF84FF49671974800681FF07A
:10BA90009DF80021944800681BF0C8F9934908609C
:10BAA0000121924800681CF09DF88F4800681FF043
:10BAB00084FC804641468D4800681FF06DF88CA1DB
:10BAC0008A4800681CF07BF900217D4800680FF06F
:10BAD000F5FB894908600021874800681BF0A6F93A
:10BAE0008246704A002150461CF04EF983A1504610
:10BAF0001CF065F9052000230C2200907A480168AB
:10BB00007D4800681DF09CFE28217B4800681EF0DF
:10BB100024FF7E49784800681EF01DFF0021684818
:10BB2000006810F031FD7A4908607A497A4822F0BD
:10BB300053F97A4978484162002001907648BDF86F
:10BB4000041001840021017202467148006810F05F
:10BB50002BFE73A16E48006810F071FE00200A23CE
:10BB60001322009064480168694800681DF068FE6F
:10BB70002821674800681EF0F0FE00215048006848
:10BB800010F002FD68490860634A002166480068B9
:10BB900010F00AFE65A16448006810F050FE002015
:10BBA0000A23132200905A4801685F4800681DF07C
:10BBB00047FE28215C4800681EF0CFFE0021404867
:10BBC000006822F095FF5D49086041215B480068EC
:10BBD0001EF0C3FE3A4800681FF0EFFB8046414666
:10BBE000564800681EF0D8FF322000230D22009036
:10BBF0003D480168514800681DF022FE50A14F48A1
:10BC0000006823F0F5FD19214C48006823F0F9FC89
:10BC100000212B4800681AF055FE4A4908604A493D
:10BC2000484800681EF097FE14F0E8FD814614F0C5
:10BC300034FE032190FBF1F00FFA80F841464148B1
:10BC400000681EF08AFE052000230D2200903B486C
:10BC500001683C4800681DF0F3FD38480168394828
:10BC600000681BF059F80121364800681AF0F8FF07
:10BC7000002302220A21354824F096FD3449086049
:10BC8000002302224FF47A71324824F08DFD3249AC
:10BC900008602021314808F0B7FC3846BDE8FC9F19
:10BCA0005C0D0020B45E0220E789A9E79086E5B02C
:10BCB0008FE58CBAE6A087E8AF86205043490000A4
:10BCC000640D0020600D0020E58F82E88083E4BFD2
:10BCD000A1E58FB7E68EA5E694B6E8B4A8E9878F0C
:10BCE0002052535251000000680D00206C0D0020BE
:10BCF0007265636569766500780D0020E6B885E9B0
:10BD000099A4E68EA5E694B60000000051E701086C
:10BD1000800D0020ECA60020685F0220B405002002
:10BD2000E696B0E8A18C0000840D0020E69A82E53A
:10BD3000819CE68EA5E694B600000000740D0020FC
:10BD4000415400007C0D00202D62020841290408A6
:10BD50008C0D002011290408880D0020915E02201E
:10BD600070B505460E4621F085FA044602A126F07C
:10BD700021FA002070BD0000E68AB1E6AD892CE60C
:10BD800082A8E79A84E8AEBEE5A487E69A82E697A1
:10BD9000B6E4B88DE694AFE68C81E8AFA5E58A9F5E
:10BDA000E883BD002DE9F04F85B00024B74808F0C6
:10BDB00047FCB749B74822F00FF8B749B74822F017
:10BDC0000BF8B749B548416221F062FA8146B5A146
:10BDD0000EF056FB0746002138460FF06FFA04902C
:10BDE0003222642104981EF07BFEB04904981EF0B4
:10BDF000B2FD05206FF00903032239460090049834
:10BE00001DF01EFD002104981BF010F80390A34ABA
:10BE1000002103981BF09DFFA5A103981BF0CFFF05
:10BE2000002138461CF03EFB80463C220021404663
:10BE30001EF0FDFD38461EF05BFB3C380FFA80F922
:10BE400038461EF02CFC82464A46514640461EF0BB
:10BE500047FEC146A2465146484620F071F800BF51
:10BE60008D49974821F0B8FF8D4995484162954822
:10BE7000007858B193480078032807D0914800789B
:10BE8000052803D08F480078072806D100200090AD
:10BE90008B48BDF80010018400BF002429E0062C67
:10BEA00000DB24E004EB8400874A52F820100022D3
:10BEB00040461CF07FF90546002128461AF0B6FFDF
:10BEC00083467F4A002158461BF043FF04EB840061
:10BED0007D4A02EB8000816858461BF070FF4FF0EE
:10BEE00000094946284613F0CBFA00BF00BF601C8A
:10BEF000C4B20D2CD3D3754940461EF02CFD002151
:10BF000040461CF023FC05460021284621F01CFA7F
:10BF100006465E4890F810904FF0010A5246494696
:10BF200030460FF023F900BF694930461EF013FD7B
:10BF300008206FF0130302462946009030461DF09A
:10BF40007FFC294640461CF001FC0546002128469E
:10BF500013F09CFD029030461EF0A1FB814649463D
:10BF6000029814F0D3F90121029814F0ADF9594860
:10BF70000168029814F0EAF94448C17C029814F070
:10BF800032FA554902981EF0E6FC08206FF01303C0
:10BF900002462946009002981DF052FC2946404670
:10BFA0001CF0D4FB05460021284613F06FFD0290DB
:10BFB0000021029814F007F881464946474821F0CD
:10BFC0000BFF37494548416202460021029814F0B0
:10BFD0003BFA30461EF063FB81464946029814F056
:10BFE00095F90121029814F06FF93D480168029813
:10BFF00014F0ACF92548817C029814F0F4F9394921
:10C0000002981EF0A8FC08206FF013030246294690
:10C01000009002981DF014FC294640461CF096FB47
:10C0200005460021284622F08DF901901748407CF2
:10C0300020B10121019822F033FA03E00121019897
:10C0400022F01CFA08206FF01303024629460090E4
:10C0500001981DF0F5FB244901981EF07CFC29464F
:10C0600040461CF073FB0546204928461EF073FC31
:10C07000294640461CF06AFB05461D4928461EF02D
:10C080006AFC384605B0BDE8F08F00004458022035
:10C09000FCA5002058580220ECA60020945802204D
:10C0A000B4050020E8AEBEE7BDAE000049F40108CB
:10C0B000E4BF9DE5AD98E8AEBEE7BDAE0000000070
:10C0C000D058022053060020340B0020E99A0208C1
:10C0D0003D720408380C0020891502080C59022012
:10C0E0003C0C002059160208ED8604087DF4010876
:10C0F00021E701082DE9F04FEDB00546642150A875
:10C10000F4F756F9C8211EA8F4F752F9642105A8DE
:10C11000F4F74EF90024002002900390049069A8DF
:10C1200008F0E8F9EE49EF4821F056FE00206C9047
:10C13000EC48BDF8B0114180BDF8B01181807F217D
:10C140000172002128461DF0E3FE824614F056FBE2
:10C15000834614F0A2FB064614F050FB834614F00D
:10C1600053FB07463246394650461EF0B9FCDD49BE
:10C1700050461EF004FD012412E01F2C05DA224671
:10C18000D9A102A8FCF78CFE04E02246D7A102A8A0
:10C19000FCF786FE02A950A8F4F715F9601CC4B29A
:10C1A0001F2CEADD002412E0172C05DA2246CEA16E
:10C1B00002A8FCF775FE04E02246CCA102A8FCF719
:10C1C0006FFE02A905A8F4F7FEF8601CC4B2172C94
:10C1D000EADD002412E03B2C05DA2246C2A102A8C7
:10C1E000FCF75EFE04E02246C0A102A8FCF758FE60
:10C1F00002A91EA8F4F7E7F8601CC4B23B2CEADDE4
:10C2000024F04EFDD0F858613146B94821F0E4FDE4
:10C21000E521B74801720A21C1800021504620F073
:10C2200041FCB4490860C8220021B24800681EF0F1
:10C23000FEFB0122B049AF48006820F0AFFE642148
:10C24000AC48006820F0A2FE0821AA48006820F04F
:10C2500020FFAA49A74800681EF07DFB9DF8A401B5
:10C26000133881B20122A348006820F0E9FEA04AF9
:10C270000021A048006820F0F7FE0021504620F081
:10C2800011FC9F490860C82264219D4800681EF087
:10C29000CEFB01229B499A48006820F07FFE642172
:10C2A0009748006820F072FE08219548006820F049
:10C2B000F0FE9249924800681EF04DFB8C4A002126
:10C2C0008F48006820F0D0FE9DF8A51101228C480F
:10C2D000006820F0B5FE0021504620F0E3FB8A49BB
:10C2E0000860C8221146884800681EF0A0FB0122A1
:10C2F00050A98548006820F051FE642182480068FA
:10C3000020F044FE08218048006820F0C2FE7B49EE
:10C310007D4800681EF01FFB754A00217A480068BE
:10C3200020F0A2FE9DF8A61101227748006820F0B7
:10C3300087FE0021504620F0B5FB74490860C822F2
:10C340004FF49671714800681EF071FB012205A937
:10C350006E48006820F022FE5A216C48006820F0E8
:10C3600015FE08216948006820F093FE634967487C
:10C3700000681EF0F0FA9DF8A711012263480068DA
:10C3800020F05EFE5A4A00216048006820F06CFEF2
:10C390000021504620F086FB5D490860C8224FF41A
:10C3A000C3715B4800681EF042FB01221EA9584879
:10C3B000006820F0F3FD5A215548006820F0E6FDA2
:10C3C00008215348006820F064FE4C49504800683A
:10C3D0001EF0C1FA9DF8A81101224D48006820F016
:10C3E0002FFE434A00214A48006820F03DFE3C49A8
:10C3F000484821F0F1FC48494648416247480068F6
:10C400006B904448BDF8AC1101840A21C180002121
:10C4100050461AF00BFD4249086000214048006870
:10C420001BF0E0FB3FA13E4800681BF0C8FC012167
:10C430003B4800681BF08CFB364A002138480068F6
:10C440001BF0B4FC00220E213148006818F02CFBD0
:10C45000002150460EF032FF80464FF4E172142165
:10C4600040461EF0E4FAC82140461EF095FB00212C
:10C4700040461AF0DBFC0190264A002101981BF08F
:10C4800095FC29A101981BF09AFC294940461EF011
:10C4900062FA002150460EF011FF81464FF4E1721E
:10C4A0004FF4827148461EF0C2FAC82148461EF079
:10C4B00073FB002148461AF0B9FC0190154A00218F
:10C4C00001981BF073FC1BA101981BF078FC1B4921
:10C4D00048461EF040FA50466DB0BDE8F08F0000AF
:10C4E000ECA60020E864022025640A002564000010
:10C4F00060650220900D0020EEBD0508D1430408C0
:10C50000940D002098BD0508980D00209C0D00207A
:10C51000A00D002024650220B405002020BE0508DF
:10C52000A40D002000000000E4BF9DE5AD980000D0
:10C53000CDF20108E58F96E6B688000039E70108DC
:10C540002DE9F04F87B0002400250021D22024F0EF
:10C55000B3FB064600BF14F051F9814614F092F97E
:10C560008046FEA10DF08CFF07460021384623F0DF
:10C57000B1FCFC4908603C220021FA4800681EF02A
:10C5800056FA14F03BF9009014F087F98C380FFA42
:10C5900080F814F033F9009014F036F981464246E1
:10C5A0004946F04800681EF09BFA0121ED480068FA
:10C5B00023F08DFEEC49ED4821F00EFC0021EB4804
:10C5C00081810246E748006823F090FEE8A1E54833
:10C5D000006823F035FB0690E7A1E248006823F0ED
:10C5E0002FFB0590E7A1DF48006823F029FB0490AA
:10C5F000E7A1DC48006823F023FB0390E549E64807
:10C6000021F0EAFBE54811F0B9FC0090E248BDF8E2
:10C6100000104180E14811F0B1FC0090DE48BDF807
:10C6200000108180FF21017200210183C1824183BA
:10C630008183024606981FF0E1FCD74A0121069843
:10C640001FF0DCFC002106981FF07AFCD24A002182
:10C6500005981FF0D3FCD04A012105981FF0CEFCAD
:10C66000002105981FF06CFCCB4A002104981FF0B4
:10C67000C5FCC94A012104981FF0C0FC00210498A0
:10C680001FF05EFCC44A002103981FF0B7FCC24AA9
:10C69000012103981FF0B2FC002103981FF050FC09
:10C6A000002106981BF0FEFE0290002014F0F5F821
:10C6B0008C380FFA80F8002014F0A6F88146424624
:10C6C000494602981EF00CFA002102981CF02CF941
:10C6D000B349B44821F080FBB349B2484162B34842
:10C6E000D6F82C1121F078FB0021B04841838183DA
:10C6F000C1820183C1834FF498708159AC4821F005
:10C700006BFB4FF49C708159AA4821F065FBAA4845
:10C71000D6F83C1121F060FBA848D6F8481121F06A
:10C720005BFB0021A348C1800821C18201830A214B
:10C73000C1830021A048C1800821C18201830A2150
:10C74000C183964811F01AFC00909B48BDF8001078
:10C75000418001464988818000219848C180082194
:10C76000C1820183964811F009FC00909148BDF800
:10C77000001041800146498881808D4A012102983C
:10C780001CF0DAF8894A002102981CF0D5F88A4A90
:10C79000052102981CF0D0F8864A042102981CF06A
:10C7A000CBF8864A082102981CF0C6F800BF26E0A4
:10C7B00004EB8400834A52F82010002202981BF0F8
:10C7C000F9FC8246002150461AF030FB8346754A38
:10C7D000002158461BF0B4FA04EB8400794A02EBBE
:10C7E0008000816858461BF0EAFA0020C82307221F
:10C7F0005146009058461DF023F8601CC4B2142C1A
:10C80000D6D3002105981BF04DFE0290002014F0B5
:10C8100044F88C380FFA80F8002013F0F5FF8146B9
:10C820004246494602981EF05BF9002102981CF02E
:10C830007BF85F4A012102981CF07EF85B4A0021D8
:10C8400002981CF079F85C4A052102981CF074F8F3
:10C85000584A042102981CF06FF8584A082102989F
:10C860001CF06AF8002426E004EB8400564A52F8D3
:10C870002010002202981BF09DFC824600215046A9
:10C880001AF0D4FA8346474A002158461BF058FA5A
:10C8900004EB84004C4A02EB8000816858461BF090
:10C8A0008EFA0020C82307225146009058461CF0FB
:10C8B000C7FF601CC4B2042CD6D3002211460298D4
:10C8C0001BF078FC8246142150461EF046F80421E5
:10C8D00050460EF0D1FD002426E004EB84003B4AD4
:10C8E00052F82010002202981BF064FC82460021BE
:10C8F00050461AF09BFA83462A4A002158461BF0FC
:10C900001FFA04EB8400314A02EB8000816858462C
:10C910001BF055FA0020C8230722514600905846C4
:10C920001CF08EFF601CC4B20C2CD6D328492948B9
:10C9300021F052FA284811F021FB00902548BDF85B
:10C9400000100184002104981BF0ACFD029000202F
:10C9500013F0A3FF8C380FFA80F83FE0E5BEAEE499
:10C96000BFA10000040B0020B0A600201456022036
:10C970004368617473000000436F6E746163747385
:10C9800000000000446973636F7665720000000068
:10C990004D65000038A600209C550220EDEDED000D
:10C9A000FCA50020AC540220B4050020D85502207C
:10C9B000505602208C560220C856022004570220EE
:10C9C000D5D5D50068060020F807002048080020CB
:10C9D000C0A5002040570220ACACAC00002013F0F2
:10C9E00013FF81464246494602981EF079F800211D
:10C9F00002981BF099FFBB4A012102981BF09CFF93
:10CA0000B94A002102981BF097FFB84A0521029805
:10CA10001BF092FFB64A042102981BF08DFFB54A25
:10CA2000082102981BF088FF0025002454E0012C07
:10CA300007D0042C05D0072C03D0092C01D00B2CD7
:10CA40000ED10022114602981BF0B4FB82460F2142
:10CA500050461DF082FF042150460EF00DFD39E0D6
:10CA600005EB8500A44A52F82010002202981BF022
:10CA7000A1FB8246002150461AF0D8F983469F4A0E
:10CA8000002158461BF05CF905EB85009A4A02EB41
:10CA90008000816858461BF092F9681CC5B20021DD
:10CAA00050460EF0E1FC002150461AF0BFF98346D3
:10CAB00093A158461BF083F9924A002158461BF077
:10CAC0003FF905206FF009030822514600905846AF
:10CAD0001CF0B6FE601CC4B20D2CA8D30022114677
:10CAE00002981BF067FB8246482150461DF035FF37
:10CAF000042150460EF0C0FC002103981BF0D2FC2C
:10CB00000290002013F0C9FE8C380FFA80F8002044
:10CB100013F07AFE81464246494602981DF0E0FF36
:10CB2000002102981BF000FF6E4A012102981BF0C1
:10CB300003FF6D4A002102981BF0FEFE6B4A05219F
:10CB400002981BF0F9FE6A4A042102981BF0F4FED9
:10CB5000684A082102981BF0EFFE0025002450E0EF
:10CB6000012C03D0032C01D0082C0ED10022114639
:10CB700002981BF01FFB82460F2150461DF0EDFE70
:10CB8000042150460EF078FC39E005EB85005E4A42
:10CB900052F82010002202981BF00CFB8246002164
:10CBA00050461AF043F98346544A002158461BF078
:10CBB000C7F805EB8500544A02EB800081685846AF
:10CBC0001BF0FDF8681CC5B2002150460EF04CFC6D
:10CBD000002150461AF02AF9834649A158461BF015
:10CBE000EEF8484A002158461BF0AAF805206FF0DD
:10CBF000090308225146009058461CF021FE601C93
:10CC0000C4B20A2CACD30022114602981BF0D2FA0F
:10CC10008246872150461DF0A0FE042150460EF0AA
:10CC20002BFC3A493A4821F0D7F83A4811F0A6F9D6
:10CC300000903748BDF800104180364811F09EF949
:10CC400000903348BDF80010818000243DE00021B1
:10CC500038460EF033FB01905022782101981DF0E8
:10CC60003FFF13F0CBFD814613F017FE50380FFA4B
:10CC700080F8C4EB0410C100424601981DF0D7FEB5
:10CC8000234A002101980EF00EFC214A012101984F
:10CC90000EF009FC214601981DF07CFF1E49019809
:10CCA0001DF059FE0021019818F03CFC1B4941F889
:10CCB000240004EB84021A4B53F82210174A52F84E
:10CCC000240019F0C7FA601CC4B2042CBFDB144A5C
:10CCD000116D124A106819F0BDFA384607B0BDE868
:10CCE000F08F000050560220D8550220C85602206E
:10CCF0008C5602200457022038090020AC54022030
:10CD0000EF81940040570220D8090020C0A50020E0
:10CD100070540220F7F7F700E1E7010824540220DD
:10CD2000640A00202DE9FF5FD74807F089FC20F056
:10CD3000A8FA0646D5A10DF0A3FB04460021204623
:10CD400021F0D6FED3490860CF480168D148006879
:10CD500022F04EFD0121CF48006822F05CFC13F068
:10CD60004DFD834613F050FD064600EBD670401093
:10CD7000143807B23946C74800681DF00DFF50222D
:10CD80000521C44800681DF052FEC349C14800682F
:10CD90001DF0E1FD1021BF48006822F032FC0021A7
:10CDA00020461AF043F88046BCA140461BF007F825
:10CDB0000020034609220090B648016840461CF056
:10CDC0003FFD0021204621F093FEB6490860AE48A1
:10CDD0004168B448006822F00BFD0121B1480068A9
:10CDE00022F019FC13F00AFD834613F00DFD0646F0
:10CDF00000EBD6704010143807B23946A9480068D5
:10CE00001DF0CAFE0921A748006822F0D9FB28209E
:10CE100000230D2200909F480168A24800681CF082
:10CE20000FFD9D499F4800681DF095FD10219D480C
:10CE3000006822F0E6FB4FF47A719A48006822F00D
:10CE400092FC0021204619F0F1FF814696A1484648
:10CE50001AF0B5FF002003460922009091480168AE
:10CE600048461CF0EDFC0021204621F041FE90498F
:10CE70000860854881688E48006822F0B9FC01216D
:10CE80008B48006822F0C7FB13F0B8FC834613F010
:10CE9000BBFC064600EBD6704010143807B239468A
:10CEA000834800681DF078FE09218148006822F05F
:10CEB00087FB782000230D220090764801687C488B
:10CEC00000681CF0BDFC7449794800681DF043FD02
:10CED00010217748006822F094FB76A1744800681E
:10CEE00022F086FA0021204619F0A0FF824674A1A4
:10CEF00050461AF064FF00200346092200906C4857
:10CF0000016850461CF09CFC0021204621F0F0FDF9
:10CF10006E4908605C48C1686C48006822F068FC93
:10CF200001216A48006822F076FB13F067FC834613
:10CF300013F06AFC064600EBD6704010143807B2B6
:10CF40003946624800681DF027FE09215F480068E5
:10CF500022F036FBC82000230D2200904D480168C6
:10CF60005A4800681CF06CFC4B49584800681DF09A
:10CF7000F2FC05215548006822F043FB54A15348B8
:10CF8000006822F035FA55A15048006822F0C7FB2E
:10CF90000021204619F04AFF029052A102981AF08F
:10CFA0000EFF0020034609220090484801680298BD
:10CFB0001CF046FC002120460EF080F9019013F091
:10CFC0001DFC074613F020FC143806B231460198C8
:10CFD0001DF0E2FD474901981DF0BDFC4FF4C870FB
:10CFE000002302222146009001981CF029FC4249AE
:10CFF000424820F0F1FE002003904048BDF80C109C
:10D0000001843F4941620021019819F00FFF054654
:10D010002E463A4F394630461DF0B1FD00BF39A1CA
:10D0200028461AF0CCFE0021204619F04BFC394965
:10D0300008603949374800681DF08DFC13F0DEFBAD
:10D04000074613F02AFC032190FBF1F006B23146AB
:10D05000304800681DF081FC00200346052201468F
:10D0600000902C4800681CF0EBFB0A480168294836
:10D07000006819F051FE01212648006819F0F0FD02
:10D08000204604B0BDE8F09FF4570220574C414EB3
:10D0900000000000240B0020118804085353494469
:10D0A0003A000000280B00205057443A00000000CE
:10D0B0002C0B0020303132333435363738392E00DE
:10D0C0005345525645525F49503A0000300B0020FC
:10D0D000303132333435363738390000302D36357B
:10D0E000353335005345525645525F504F52543AEE
:10D0F000000000007DF30108ECA600200858022083
:10D10000B4050020E4BF9DE5AD98E9858DE7BDAE8F
:10D1100000000000200B00201D62020808B5144921
:10D12000144820F059FE08211248C1865A2246218F
:10D130001148008811F066F800900E48BDF8001004
:10D140008186012180F839100221818140F25550F9
:10D1500010F056FF00900748BDF8001041810321F0
:10D1600041838183C18201830449086708BD0000AF
:10D1700064C50020E4CC002028050020B4C30020B2
:10D1800008B51349134820F027FE0A211148C1862B
:10D190005A2211461048008811F034F800900D48CA
:10D1A000BDF8001081860A2181815A221E210A4879
:10D1B000008811F027F800900648BDF80010418162
:10D1C000002141838183C18201830449086708BD2E
:10D1D00068D9002044DF002038050020B8D700209F
:10D1E00008B50D490D4820F0F7FD0A210B48C1860E
:10D1F0005A2246210A48008811F004F80090074896
:10D20000BDF800108186012180F83910002181814C
:10D210000449086708BD000088EF002008F70020D7
:10D2200044050020D8ED002008B51549154820F028
:10D23000D3FD08211348C186462250211248008898
:10D2400010F0E0FF00900F48BDF80010818601212A
:10D2500080F839100721818130220B210A4800888B
:10D2600010F0D0FF00900748BDF800104181012167
:10D2700041838183C18201830449086708BD00009E
:10D280000CFF0020800301204C0500205CFD0020E5
:10D290000148024908677047B00C0120000B0120CB
:10D2A00008B50D490D4820F097FD0A210B48C186AD
:10D2B0005A2228210A48008810F0A4FF009007484D
:10D2C000BDF800108186012180F83910002181818C
:10D2D0000449086708BD00009C0E01208813012046
:10D2E0005C050020EC0C012000B585B038493948B8
:10D2F00020F072FD4C213748017247F61841C18079
:10D300003548006804903348BDF810104180324819
:10D31000001D006803902F48BDF80C108180022189
:10D3200081812D480830006802902A48BDF8081015
:10D3300041813321C1730021418381830A21C1824C
:10D3400001830021C1832249244820F045FD47F68E
:10D3500018412248C180022181811F480C30006899
:10D3600001901E48BDF804104181B221C173002113
:10D3700041838183C1820183052141825A22142184
:10D380001748008810F03EFF00901448BDF80010C8
:10D390000182502228211248008810F033FF0090AB
:10D3A0000E48BDF800104180502228210C4800880A
:10D3B00010F028FF00900948BDF800108180054852
:10D3C0000849486505490748816505B000BD00006A
:10D3D00064C50020BCC70020F4B90508F8C70020C8
:10D3E00028050020B4C300200348044948650449C7
:10D3F000024881657047000028A7002038D300202C
:10D4000064A7002008B51C491C4820F0E5FC5F22F9
:10D410000F211B48008810F0F5FE00901748BDF85A
:10D42000001041800146498881800321C18000218C
:10D430008181062141838183C18201830146114894
:10D4400020F0CAFC462255210D48008810F0DAFE73
:10D4500000900C48BDF80010418001464988818049
:10D46000002141838183C1820183044806494865C4
:10D4700004490548816508BD68D9002028DD0020E1
:10D480003805002064DD0020B8D7002010B5104911
:10D49000104820F0A1FC06210E4841838183C182FF
:10D4A000018347F61841C1800B490C4820F094FCD9
:10D4B00003210A4841838183C182018347F61841D1
:10D4C000C18004480649486504490548816510BD86
:10D4D00008EB0020BCEB002044EB0020F8EB002020
:10D4E00068E8002000B585B03849394820F074FC60
:10D4F0004C213748017247F61841C1803548006811
:10D5000004903348BDF8101041803248001D006877
:10D5100003902F48BDF80C108180022181812D4895
:10D520000830006802902A48BDF808104181332174
:10D53000C1730021418381830A21C18201830021BB
:10D54000C1832249244820F047FC47F6184122486D
:10D55000C180022181811F480C30006801901E4863
:10D56000BDF804104181B221C17300214183818340
:10D57000C1820183052141825A2214211748008863
:10D5800010F040FE00901448BDF8001001825022B7
:10D5900028211248008810F035FE00900E48BDF892
:10D5A00000104180502228210C48008810F02AFEEB
:10D5B00000900948BDF80010818005480849486579
:10D5C00005490748816505B000BD000088EF0020CF
:10D5D000E0F10020C4BA05081CF200204405002038
:10D5E000D8ED002008B52249224820F0F5FB06219D
:10D5F000204841838183C182018347F61841C1805D
:10D600001D491E4820F0E8FB462250211C48008896
:10D6100010F0F8FD00901948BDF800104180462236
:10D6200050211748008810F0EDFD00901348BDF818
:10D63000001081800F2214211148008810F0E2FDB3
:10D6400000900E48BDF80010418101218181FF2129
:10D65000C17347F61841C180002141838183C18293
:10D66000018304480749486504490648816508BDA7
:10D67000FCFF0020540201200CFF0020900201203A
:10D680004C0500205CFD0020034804494865014624
:10D690000248816570470000B00C0120000B01209A
:10D6A00008B51E491E4820F097FB00211C48017256
:10D6B00047F61841C18002218181FF21C1735A229E
:10D6C00028211848008810F09DFD00901448BDF8EE
:10D6D000001041811149144820F07EFB47F61841A3
:10D6E0001148C1805A2228210E48008810F08AFD76
:10D6F00000900D48BDF800104180014649888180A6
:10D7000000218181052141838183C18201830448F5
:10D710000649486504490548816508BD9C0E0120FD
:10D72000201201205C0500205C120120EC0C01207D
:10D7300000B585B08C498D4820F04EFBFF218B4809
:10D74000017200208949087040F2222010F058FC34
:10D7500000908648BDF80010418040F2222010F071
:10D760004FFC00908148BDF8001081800021C180ED
:10D770000C2141838183C1820183C1837C4800687D
:10D7800004907A48BDF81010418101218181FF2168
:10D79000C1737748001D006803907448BDF80C10F1
:10D7A0000182002141820121017540F6DD5010F017
:10D7B00027FC00906D48BDF8001001846D48016899
:10D7C0006A484162012101850221418540F6DD5010
:10D7D00010F016FC00906548BDF80010018600218D
:10D7E00080F8321040F6DD5010F00AFC00905F48DF
:10D7F000BDF8001081860121C18601465E4820F0F7
:10D80000EBFA40F2333010F0FBFB00905A48BDF8C1
:10D810000010418040F2333010F0F2FB0090564887
:10D82000BDF8001081800221818140F2666010F015
:10D83000E7FB00905048BDF8001041814C4808308B
:10D84000006802904C48BDF80810018201464B4820
:10D8500020F0C2FA002149480183C18241838183BB
:10D860004249474820F0B8FA0A214548C18040F2B1
:10D87000666010F0C5FB00904148BDF80010418083
:10D8800040F2666010F0BCFB00903D48BDF800100F
:10D89000818040F6CC4010F0B3FB00903848BDF8D2
:10D8A00000104181022181819921C17360220821E8
:10D8B0003448008810F0A6FC00903148BDF80010F4
:10D8C0000184602208212F48008810F09BFC009002
:10D8D0002B48BDF8001001864622142129480088F3
:10D8E00010F090FC00902648BDF8001081861F497A
:10D8F000254820F071FA7F212348017247F618412C
:10D90000C1801B480C30006801901F48BDF804100E
:10D9100041816621C173012181815C222121194845
:10D92000008810F06FFC00901748BDF8001041808F
:10D930005C2221211348008810F064FC00901248FA
:10D94000BDF800108180012141838183C182018360
:10D950000621C18308480D49486008480860084806
:10D96000886005B000BD0000B0A6002064C500209E
:10D97000E4B905082C050020A0C50020DCC5002066
:10D9800018C600202805002054C60020B4C300207B
:10D9900008B51E491E4820F01FFA1D491D4820F0F9
:10D9A0001BFA00211B480183C182418381831A49EC
:10D9B0001A4820F011FA1948014649888180014629
:10D9C000B1F91C0000EBD0714A1014498A83B1F9F7
:10D9D000180000EBD0714A1010490A831049114811
:10D9E00020F0FAF902210F48818140F6BB3010F097
:10D9F00035FB00900B48BDF80010418108480A49EA
:10DA00004860044808600148886008BD28A70020D5
:10DA1000E8D4002024D5002064A7002060D5002091
:10DA2000B0A600209CD5002038D3002000B585B0DA
:10DA30004549464820F0D0F94548016843484162CD
:10DA40000421C1800146434820F0C6F9424810F045
:10DA500066FA00903F48BDF80010418001464988B1
:10DA600081800021C18001463C4820F0B5F90021A9
:10DA70003A480183C182418381833449384820F088
:10DA8000ABF904213648C180364800680490344818
:10DA9000BDF8101041803348001D006803903048E5
:10DAA000BDF80C1081800121818140F6BB3010F05F
:10DAB00003FB00902A48BDF800104181FF21C1738B
:10DAC00040F6AA2010F0F8FA00902548BDF80010A2
:10DAD000018200210175042141820C21418381834F
:10DAE000C18201830821C18340F2333010F0E4FA8F
:10DAF00000901B48BDF80010018440F2333010F054
:10DB0000DBFA00901648BDF8001001860F49164850
:10DB100020F062F9002002901348BDF808104180FF
:10DB2000002001901048BDF8041081806621017228
:10DB300004218183018307480C4948600748086035
:10DB40000748886005B000BDB0A6002068D9002055
:10DB50003C050020E0D90020F0F0F00058DA002069
:10DB60001CDA002084BA0508A4D90020B8D7002008
:10DB700000B58DB05049514820F02EF9504800684A
:10DB80000C904E48BDF8301041804D48001D006893
:10DB90000B904A48BDF82C1081800021C180FF21E4
:10DBA00001720A2141838183C1820183C1830020E4
:10DBB0000A904248BDF82810418101218181FF214E
:10DBC000C1730F2181733F4801683C4841620020C6
:10DBD00009903A48BDF8241001840121018541854E
:10DBE000002008903548BDF820108186FF2180F87C
:10DBF00038100121C186002007903048BDF81C1064
:10DC00000186002180F83210FF2180F833102E4960
:10DC10002E4820F0E1F800212C480183C182418385
:10DC200081832649284820F0D7F82749284820F042
:10DC3000D3F805212648C1802349264820F0CCF896
:10DC4000002006902348BDF8181041800020059060
:10DC50002048BDF8141081801948083000680490ED
:10DC60001C48BDF81010418115480C300068039025
:10DC70001848BDF80C10018411481030006802905B
:10DC80001448BDF8081081860D48143000680190D2
:10DC90001048BDF80410018601460F4820F09CF89A
:10DCA00005210D48C18005480C49486007480860B7
:10DCB000074888600DB000BDB0A6002018EA00201B
:10DCC00098BA05084005002090EA002054EA002098
:10DCD00008EB0020CCEA002044EB002068E800209C
:10DCE00000B585B08549864820F076F8FF21844844
:10DCF000017200208249087040F2222010F0F8F9E9
:10DD000000907F48BDF80010418040F2222010F0C2
:10DD1000EFF900907A48BDF8001081800021C180A1
:10DD20000C2141838183C1820183C18375480068CE
:10DD300004907348BDF81010418101218181FF21B9
:10DD4000C1737048001D006803906D48BDF80C1049
:10DD50000182002141820121017540F6DD5010F061
:10DD6000C7F900906648BDF8001001846648016854
:10DD700063484162012101850221418540F6DD5061
:10DD800010F0B6F900905E48BDF800100186002141
:10DD900080F8321040F6DD5010F0AAF90090584893
:10DDA000BDF8001081860121C1860146574820F048
:10DDB00013F8052010F09CF900905448BDF80010AD
:10DDC0004180452010F094F900905048BDF80010B3
:10DDD00081800221818140F2666010F089F9009013
:10DDE0004A48BDF80010418146480830006802905A
:10DDF0004648BDF808100182014645481FF0ECFF77
:10DE0000002143480183C182418381833C494148C9
:10DE10001FF0E2FF0A213F48C180C80110F068F9F5
:10DE200000903C48BDF80010418040F2055010F0D1
:10DE30005FF900903748BDF80010818040F6CC4073
:10DE400010F056F900903348BDF8001041810221CE
:10DE500081819921C173602208212F48008810F028
:10DE6000D1F900902B48BDF80010018446221421FE
:10DE70002948008810F0C6F900902648BDF8001027
:10DE800081861F4925481FF0A7FF7F212348017283
:10DE900047F61841C1801B480C30006801901F48AC
:10DEA000BDF8041041816621C173012181815C228A
:10DEB00021211948008810F0A5F900901748BDF8F5
:10DEC000001041805C2221211348008810F09AF94B
:10DED00000901248BDF800108180012141838183A8
:10DEE000C18201830621C18308480D494860084862
:10DEF00008600848886005B000BD0000B0A600209A
:10DF000088EF0020B4BA050848050020C4EF0020BF
:10DF100000F000203CF000204405002078F00020B4
:10DF2000D8ED002008B5594959481FF055FF594808
:10DF3000016857484162584958481FF04DFF1E225A
:10DF40000B215748008810F05DF900905348BDF848
:10DF5000001041801E220B215148008810F052F918
:10DF600000904E48BDF8001081805F2205214C488A
:10DF7000008810F047F900904848BDF8001001846F
:10DF800044480168454841625F22052144480088B1
:10DF900010F038F900904148BDF8001001860146A4
:10DFA00040481FF019FF00213E480183C182418390
:10DFB000818337493C481FF00FFF3C221E2138481F
:10DFC000008810F01FF900903748BDF8001041801C
:10DFD0003C221E213248008810F014F9009032488B
:10DFE000BDF800108180002181810521C1830021BD
:10DFF00041838183C18201830321C180FF2101729A
:10E0000026492A481FF0E8FE12220B2124480088E6
:10E0100010F0F8F800902548BDF800104180122259
:10E020000B211F48008810F0EDF800901F48BDF844
:10E03000001081800521C18019220A21184800881A
:10E0400010F0E0F800901948BDF80010418101215E
:10E050008181FF21C1730A2141838183C1820183B0
:10E06000282214210E48008810F0CCF800900F48A8
:10E07000BDF8001081860121C1860A480C4908605C
:10E08000064848600248886008BD000028A70020B4
:10E090000CFF002050050020B0A6002084FF0020C7
:10E0A0004C05002048FF0020C0FF0020FCFF00209E
:10E0B0005CFD002010B5064906481FF08DFE06489D
:10E0C000016804484162054908604860886010BDE5
:10E0D00028A70020B00C012058050020000B0120CB
:10E0E0000EB5444944481FF077FEFF214248C173F2
:10E0F000424801684048416240F2444010F054F800
:10E1000000903D48BDF80010018440F2444010F0FA
:10E110004BF800903848BDF8001001860146384899
:10E120001FF05AFE3748006802903548BDF80810C5
:10E1300041803448001D006801903148BDF804104A
:10E1400081800021C1808181418201462E481FF0DB
:10E1500043FE00212C480183C182418381832849E9
:10E160002A481FF039FE0A212848C18002218181F6
:10E170005A221E212648008810F044F800902348B7
:10E18000BDF800104181FF21C1730421418240F696
:10E19000DD5010F009F800901C48BDF80010018215
:10E1A0001021418381830C21C18201830A21C18313
:10E1B000114918481FF010FE5A221E2114480088E9
:10E1C00010F020F800901348BDF80010418001467F
:10E1D000498881800021818147F61841C18006214C
:10E1E000C18309480C4908600548486007488860B1
:10E1F0000EBD000028A700209C0E01206005002015
:10E20000140F012060BB0508500F01208C0F012066
:10E210005C050020D80E0120EC0C01200D4991ED89
:10E22000000A80ED000A91ED010A80ED010A097CE7
:10E2300001740849897C81740649497C4174054907
:10E2400091ED020A80ED020A91ED030A80ED030AC6
:10E25000704700008000002000B52DED068B81B0D6
:10E2600008213C48F3F7E8FB08B9012000E0002052
:10E270003949887420213948F3F7DEFB08B90120B9
:10E2800000E0002034494874FBF752FB00EE100A0E
:10E29000B8EE400A304880ED000AD0ED000AB0EE3A
:10E2A000600A0621684600F065F80098F2F754F914
:10E2B00041EC1A0B9FED2A0B53EC102BF2F7DAF816
:10E2C00041EC190B9FED280B53EC102BF2F7D2F811
:10E2D00041EC180BF2F753F91F494860084690EDDE
:10E2E000010AD0ED020AB4EEE00AF1EE10FA04DB06
:10E2F00090ED020A80ED010A0DE0174890ED010A49
:10E30000D0ED030AB4EEE00AF1EE10FA03D890ED76
:10E31000030A80ED010A104890ED010AD0ED030ACE
:10E3200030EE600AD0ED020A90ED031A70EEC10AD9
:10E3300080EE201A9FED0E0A21EE000ABCEEC00A04
:10E3400010EE100A044908740846007C01B0BDECC8
:10E35000068B00BD0000024080000020001C02402F
:10E360006666666666664A3F000000000000004080
:10E370000000C84210B502469FED1E1AF0EE410A99
:10E380001D4B1E4C247803EB840383ED000A1B4BCA
:10E390001B785B1C194C237023461B788B4205DAD3
:10E3A000174B1B7813B182ED000A10BD0023144CEB
:10E3B000237000200AE0104B03EB800393ED001A5A
:10E3C00031EE201AF0EE410A431CD8B28842F2DB4B
:10E3D0000A4B1B788B4202DB0023084C237001EEB2
:10E3E000101AB8EE411AC0EE811AC2ED001A00BF31
:10E3F000DBE700000000000070A500209500002071
:10E400009600002000B587B0142102A8F1F7D0FFD4
:10E4100000BF002001901C48006840F080001A49AD
:10E4200008600846006800F08000019000BF00BF4F
:10E4300000BF002001900846006840F0010008601D
:10E440000846006800F00100019000BF00BF2020D6
:10E45000029000200390012004900220059002A960
:10E460000A48F3F7DBF9082002900020039001200E
:10E4700004900220059002A90548F3F7CFF9FFF7B1
:10E48000EBFE07B000BD000030380240001C024027
:10E490000000024000EE100AB8EE400A9FED091A93
:10E4A000C0EE010A0849096800EE101AB8EE400AE9
:10E4B00020EE800ABCEEC00A10EE101A024A10329A
:10E4C000116070470000C8422C0C004030B1074971
:10E4D000096841F00101054A116005E00349096836
:10E4E00021F00101014A116070470000000C00405A
:10E4F00000B587B0142102A8F1F75AFF00BF002031
:10E5000001903B48006840F008003949086008461F
:10E51000006800F00800019000BF00BF00BF0020AD
:10E52000019033481038006840F00100304910393C
:10E5300008600846006800F00100019000BF00BFBD
:10E5400004200290022003900020049002200590F5
:10E55000069002A92748F3F761F92548006840F0C2
:10E560000800234908602448006840082349B0FB9C
:10E57000F1F0401E224908607C20091D08602048F7
:10E580001438006840F001001D4914390860081F64
:10E59000006820F00100091F086019480C38006865
:10E5A00040F0600016490C3908600846006840F0E9
:10E5B00008000860081D006840F48070091D0860AC
:10E5C0000846006820F40070086000200C491431EF
:10E5D00008600B482838006840F080000849283956
:10E5E00008600846006820F00100086007B000BD20
:10E5F00040380240000002409800002020A107009F
:10E60000280C004000B585B014216846F1F7D0FE13
:10E6100000F048F808F030FE2CF064FA08F064F8D6
:10E6200003F072F806F0D4F805F0D6FDF7F706FA15
:10E6300005F00EF80BF0CCFD28F088FC28F022FB4A
:10E6400004F0A6FAFBF7F0F9FFF752FF28F01AFBE7
:10E6500028F068FA07F066FC07F0B4FDFFF7D2FE79
:10E66000684628F061FB9DF8100008F007FD0021C6
:10E670004FF07F400BF04EFD002206A1064804F04B
:10E6800013F8002205A1064804F00EF825F090F8D2
:10E6900005B000BD303A0000E4690220313A0000C4
:10E6A000488A022010B51B48006840F00400194950
:10E6B000086019480068400842F21071B0FBF1F0A0
:10E6C000164908606320091D086014481438006862
:10E6D00040F00100114914390860081F006820F05B
:10E6E0000100091F0860081F006840F00100091FB1
:10E6F00008600A482838006840F0010007492839B6
:10E70000086000220F211E20F4F789F91E20F4F77B
:10E7100079F910BD403802409800002028080040D8
:10E7200070B506460C46072C05D11EF0B1FD054616
:10E730000021FBF7F3FA70BD70B505460C46072CB7
:10E7400005D128461BF031FF06461BF05FFD70BD6A
:10E7500070B505460C46072C04D103A10348006898
:10E7600019F02DFB70BD0000000000006C0D0020B2
:10E77000F8B505460C4600260E2C29D128460CF08B
:10E780005FFE02280CD1012005F0A8FE00211148EF
:10E7900080F8321002461048006817F000FE17E0BB
:10E7A00028460CF04DFE98B9002005F097FE0B4866
:10E7B000006800900748BDF800100186FF2180F82E
:10E7C0003210024600210448006817F0E8FD00BF3F
:10E7D000F8BD00007C5702201C0B00204CBD050832
:10E7E0002DE9F04106460D460024072D2CD117488F
:10E7F000006821F05BFD00EB8000154951F82070A6
:10E800001248006821F052FD124951F82080394623
:10E81000404617F01FFD30461BF03EFFC4B2221DDC
:10E8200002EB82020A4B53F822100A4A52F82400E3
:10E8300017F010FD002221460448006821F0B6FDC3
:10E84000214605A0FAF704FBBDE8F081040B002087
:10E85000640A002024540220696E6465783A2564B5
:10E860000A00000008B5964996481FF0B5FA002046
:10E870009449087000219348017247F61841C180FD
:10E88000022181815A2246218F4800880FF0BAFC6C
:10E8900000908C48BDF800104181CC21C173192132
:10E8A000418381831021C18201830A21C1836022B7
:10E8B0000821854800880FF0A5FC00908148BDF82C
:10E8C00000100184814801687E484162602208216D
:10E8D0007D4800880FF096FC00907A48BDF8001043
:10E8E000018601467A481FF077FAFF2178480172C5
:10E8F00032221146744800880FF084FC009074485E
:10E90000BDF800104180322211466F4800880FF098
:10E9100079FC00906E48BDF8001081809921C17388
:10E920006A4801686A48416264220A216648008890
:10E930000FF068FC00906648BDF800100184642266
:10E940000A21614800880FF05DFC00906048BDF826
:10E950000010018601465F481FF03EFAFF215D4826
:10E9600001723C223221584800880FF04BFC009085
:10E970005848BDF8001041803C223221524800889E
:10E980000FF040FC00905348BDF8001081809921A1
:10E99000C1735A2250214C4800880FF033FC00907C
:10E9A0004C48BDF80010418148480168494841621F
:10E9B00064220021444800880FF024FC0090454860
:10E9C000BDF800100184642200213F4800880FF048
:10E9D00019FC00903F48BDF80010018601463E48F2
:10E9E0001FF0FAF9FF213C480172322211463648E5
:10E9F00000880FF007FC00903748BDF800104180F8
:10EA000032221146304800880FF0FCFB009032485B
:10EA1000BDF8001081809921C173462250212A48F7
:10EA200000880FF0EFFB00902B48BDF800104181EB
:10EA300026480168284841625A220A212248008853
:10EA40000FF0E0FB00902448BDF8001001845A222A
:10EA50000A211D4800880FF0D5FB00901E48BDF824
:10EA60000010018617491D481FF0B6F999211B486F
:10EA7000C17332220A21144800880FF0C3FB0090B2
:10EA80001648BDF8001041811048016813484162E2
:10EA90005A220A210C4800880FF0B4FB00900F485E
:10EAA000BDF80010018407480D49086108490C4869
:10EAB0004161084981610849C1610849016208BD95
:10EAC00064C5002090C60020280500202C050020E9
:10EAD000CCC6002008C7002044C7002080C7002003
:10EAE000B4C3002006480749086107490548416149
:10EAF000064981610649C16106490162704700000B
:10EB0000A0A7002038D30020DCA7002018A80020F0
:10EB100054A8002090A8002008B5584958481FF074
:10EB20005BF946225A21574800880FF06BFB009092
:10EB30005348BDF800104180014649888180042176
:10EB4000C1801021418381830C21C18201830A216C
:10EB5000C18340F6AA200FF0AFFA00904848BDF8F4
:10EB60000010018200210175062141825F220521EA
:10EB7000444800880FF046FB00904148BDF8001063
:10EB800001845F2205213F4800880FF03BFB009085
:10EB90003B48BDF80010018601463B481FF01CF9B8
:10EBA0003C225A21374800880FF02CFB0090364851
:10EBB000BDF80010418001464988818004214182CE
:10EBC0002F4932481FF008F932225F212D48008872
:10EBD0000FF018FB00902D48BDF800104180014651
:10EBE0004988818004214182014629481FF0F4F8B8
:10EBF00028225F21234800880FF004FB009024485E
:10EC0000BDF800104180014649888180022141827F
:10EC10001B4920481FF0E0F840F6CC400FF04CFABA
:10EC200000901C48BDF80010418001464988818051
:10EC30000021418205225F21124800880FF0E2FA8C
:10EC400000901448BDF80010018405225F210D4892
:10EC500000880FF0D7FA00900E48BDF8001001862A
:10EC600007480D49086108490B484161074981611E
:10EC70000749C1610749016208BD000068D9002049
:10EC800094DA002038050020D0DA00200CDB0020C8
:10EC900048DB002084DB0020B8D700200548064967
:10ECA000086106490448416181610249C16101620C
:10ECB0007047000008EB002068E8002044EB0020CB
:10ECC00008B5804980481FF087F800207E49087009
:10ECD00000217D48017247F61841C18002218181DF
:10ECE0005A224621794800880FF08CFA0090764825
:10ECF000BDF800104181CC21C1731921418381836A
:10ED00001021C18201830A21C183602208216F483A
:10ED100000880FF077FA00906B48BDF8001001846E
:10ED20006B4801686848416201466A481FF054F820
:10ED3000FF216848017232221146644800880FF0B2
:10ED400061FA00906348BDF80010418032221146FC
:10ED50005E4800880FF056FA00905E48BDF800103B
:10ED600081809921C1735A4801685A4841626422DE
:10ED70000A21564800880FF045FA00905548BDF822
:10ED800000100184014654481FF026F8FF21524824
:10ED900001723C2232214D4800880FF033FA009076
:10EDA0004D48BDF8001041803C2232214748008880
:10EDB0000FF028FA00904848BDF800108180992192
:10EDC000C1735A225021414800880FF01BFA00906D
:10EDD0004148BDF8001041813D4801683E4841620C
:10EDE00064220021394800880FF00CFA00903A485C
:10EDF000BDF800100184014638481EF0EDFFFF21E8
:10EE00003648017232221146304800880FF0FAF974
:10EE100000903248BDF800104180322211462B4844
:10EE200000880FF0EFF900902C48BDF800108180A9
:10EE30009921C17346225021244800880FF0E2F93D
:10EE400000902648BDF80010418121480168234800
:10EE500041625A220A211D4800880FF0D3F9009020
:10EE60001E48BDF80010018417491D481EF0B4FF6C
:10EE700099211B48C17332220A21144800880FF0DF
:10EE8000C1F900901648BDF8001041811048016892
:10EE9000134841625A220A210C4800880FF0B2F947
:10EEA00000900F48BDF80010018407480D49086123
:10EEB00008490C484161084981610849C161084914
:10EEC000016208BD88EF0020B4F000204405002056
:10EED00048050020F0F000202CF1002068F100200F
:10EEE000A4F10020D8ED002008B57E497E481EF030
:10EEF00073FF28220A217D4800880FF083F90090D3
:10EF00007948BDF80010418014220A217748008812
:10EF10000FF078F900907448BDF80010818040F23D
:10EF200011100FF013F900906F48BDF800104181E7
:10EF300001218181B221C1731921418381830C2177
:10EF4000C18201830021017540F211100FF0FEF81B
:10EF500000906548BDF8001001820321418240F60F
:10EF6000EE600FF0F3F800905F48BDF800100184E8
:10EF700040F6EE600FF0EAF800905B48BDF8001034
:10EF8000018601465A481EF027FF1E220A215748D3
:10EF900000880FF037F900905548BDF80010418007
:10EFA0000A221146514800880FF02CF90090504871
:10EFB000BDF8001081804C494E481EF00DFF142210
:10EFC0000A214A4800880FF01DF900904948BDF811
:10EFD0000010418028220A21444800880FF012F9CD
:10EFE00000904448BDF8001081800221418240F623
:10EFF000DD500FF0ABF800903E48BDF800100184E2
:10F0000040F6DD500FF0A2F800903A48BDF800102D
:10F010000186354938481EF0DFFE0A221146334882
:10F0200000880FF0EFF800903348BDF800104180E1
:10F030001E220A212D4800880FF0E4F800902E4887
:10F04000BDF8001081800321418240F6DD500FF0B1
:10F050007DF800902848BDF80010018440F6DD508E
:10F060000FF074F800902448BDF8001001861E4986
:10F0700022481EF0B1FE14220A211C4800880FF01D
:10F08000C1F800901D48BDF80010418014220A21EB
:10F09000164800880FF0B6F800901848BDF8001028
:10F0A00081800021418240F6AA200FF04FF80090A5
:10F0B0001248BDF80010018440F6AA200FF046F86F
:10F0C00000900E48BDF80010018607480C49086101
:10F0D00007490B484161074981610749C1610749F7
:10F0E000016208BD0CFF0020EC0001204C0500204F
:10F0F0002801012064010120A0010120DC01012080
:10F100005CFD00200448054908610146034841614F
:10F110008161C16101627047B00C0120000B0120C8
:10F1200008B55B495B481EF057FE00215948017243
:10F1300047F61841C180022181815A222821564870
:10F1400000880FF05FF800905248BDF80010418130
:10F15000FF21C1730421418240F6DD500FF024F8F5
:10F1600000904C48BDF80010018219214183818331
:10F170000C21C18201835A222821474800880FF0C0
:10F1800041F800904348BDF8001001845A2228211C
:10F19000414800880FF036F800903E48BDF8001056
:10F1A000018601463D481EF017FE3C2228213A48C0
:10F1B00000880FF027F800903848BDF80010418112
:10F1C000002141823C222821334800880FF01AF8A0
:10F1D00000903248BDF8001001843C2228212E48BE
:10F1E00000880FF00FF800902C48BDF80010018641
:10F1F00001462B481EF0F0FD3222282126480088C7
:10F200000FF000F800902648BDF80010418132222E
:10F210002821214800880EF0F5FF00902048BDF815
:10F2200000100184322228211B4800880EF0EAFFDA
:10F2300000901B48BDF800100186014619481EF0D9
:10F24000CBFD40F6BB300EF0AFFF00901548BDF887
:10F250000010418140F6BB300EF0A6FF009011482F
:10F26000BDF80010018440F6BB300EF09DFF009009
:10F270000C48BDF80010018606480B490861074993
:10F280000948416181610649C1610649016208BDC1
:10F290009C0E0120C80F01205C05002004100120F5
:10F2A000401001207C100120EC0C012070B50546B7
:10F2B0000C46072C09D128461BF0EEF9401CC6B2BB
:10F2C00000223146104605F03FF970BD7FB5054676
:10F2D0000C46072C3ED1204800681DF08FFD1330EE
:10F2E000C0B28DF808001D4800681DF087FD401C65
:10F2F000C0B28DF809001A4800681DF07FFD401C5F
:10F30000C0B28DF80A00174800681DF077FDC0B242
:10F310008DF80B00144800681DF070FDC0B28DF828
:10F320000C009DF80C009DF80B10CDE900109DF825
:10F330000A309DF809209DF808100CA0F9F788FD07
:10F3400002A805F06FF928461BF02FF906461AF0BF
:10F350005DFF00BF7FBD0000900D0020940D0020D8
:10F36000980D00209C0D0020A00D002025642D2567
:10F37000642D25642025643A256400002DE9F041C0
:10F3800007460C46072C4BD1264805F059F926486C
:10F3900000681FF083FE0546234800681FF0BCFE8E
:10F3A000064620492A4608683146F0F7E6FF1F481E
:10F3B00000681FF073FE05461C4800681FF0ACFE95
:10F3C000064618492A4648683146F0F7D6FF1848DD
:10F3D00000681FF063FE0546154800681FF09CFE9C
:10F3E000064610492A4688683146F0F7C6FF11489C
:10F3F00000681FF053FE05460E4800681FF08CFEA3
:10F40000064608492A46C8683146F0F7B6FF05485F
:10F4100005F036F91DF035FF054607A122F0CAFEBA
:10F42000BDE8F081F4570220240B0020280B0020B7
:10F430002C0B0020300B0020E4BF9DE5AD98E68842
:10F4400090E58A9F0000000070B505460C46072C29
:10F4500009D1054805F014F928461BF0A6F8064620
:10F4600002A122F0A7FE70BD44580220E4BF9DE532
:10F47000AD98E68890E58A9F0000000070B50646CA
:10F480000C46072C05D11DF003FF05460021FCF7B3
:10F4900031FE70BD08B5474947481EF09DFC01216B
:10F4A0004548818150223C21444800880EF0AAFE44
:10F4B00000904148BDF800104181FF21C1730C212B
:10F4C000C1803F493F481EF087FC00213D48017242
:10F4D0000C21C18050223C21384800880EF092FE59
:10F4E00000903848BDF8001001843748016835485D
:10F4F0004162334935481EF06FFC462228212F48CF
:10F5000000880EF07FFE00903048BDF8001041806A
:10F5100046222821294800880EF074FE00902B48CE
:10F52000BDF8001081800C21C1802822114623489B
:10F5300000880EF067FE00902448BDF8001001849A
:10F5400021480168214841621E4921481EF044FCBF
:10F5500050221146194800880EF054FE00901C48B5
:10F56000BDF80010418103218181164919481EF020
:10F5700033FC3C220A21114800880EF043FE009023
:10F580001448BDF8001001840B481349C1F8C400A9
:10F590000C491148C0F8C8100C49C0F8CC100C49EF
:10F5A000C0F8D0100949C0F8D4100A49C0F8D810E2
:10F5B00008BD000074A6002024C9002028050020F2
:10F5C000B0A6002060C900202C0500209CC90020A6
:10F5D000D8C9002014CA0020B4C300200A480B492F
:10F5E000C1F8C4000A490948C0F8C8100949C0F860
:10F5F000CC100949C0F8D0100849C0F8D410084907
:10F60000C0F8D8107047000028A7002038D3002089
:10F61000A0A70020DCA7002018A8002054A80020E4
:10F6200090A8002008B54C4881684C481EF0D4FBD7
:10F6300000214A4841838183C1820183C18340F212
:10F6400055500EF039FD00904448BDF8001001847B
:10F650004148816842481EF0BFFB1F21404881732A
:10F660000121818140F6BB300EF026FD00903C4820
:10F67000BDF80010418100210172418201463948E4
:10F680001EF0AAFB00203749087040F6DD500EF04E
:10F6900013FD00903348BDF80010418001464988B1
:10F6A000818000218181FF21017201462E481EF0D8
:10F6B00093FB46225A212D4800880EF0A3FD0090AE
:10F6C0002948BDF8001041800146498881805F22A9
:10F6D0000521264800880EF095FD00902248BDF8CF
:10F6E00000100184014622481EF076FB41225F2172
:10F6F0001E4800880EF086FD00901D48BDF80010E1
:10F70000418001464988818000218181154919483D
:10F710001EF062FB40F6CC400EF0CEFC0090154887
:10F72000BDF8001041800146498881800B480A4994
:10F73000C1F8C4000A490848C0F8C8100949C0F80F
:10F74000CC100949C0F8D0100949C0F8D4100A49B2
:10F75000C0F8D81008BD0000B8D700209CE10020F8
:10F76000D8E1002014E2002050E2002038050020FB
:10F770008CE20020C8E2002068D9002009480A492C
:10F78000C1F8C40001460848C0F8C8100749C0F8CD
:10F79000CC10C0F8D0100349C0F8D410C0F8D8106D
:10F7A0007047000008EB002068E8002044EB0020D0
:10F7B00008B5474947481EF00FFB012145488181A4
:10F7C00050223C21444800880EF01CFD0090414826
:10F7D000BDF800104181FF21C1730C21C1803F4958
:10F7E0003F481EF0F9FA00213D4801720C21C1800A
:10F7F00050223C21384800880EF004FD0090384823
:10F80000BDF800100184374801683548416233492A
:10F8100035481EF0E1FA462228212F4800880EF0D4
:10F82000F1FC00903048BDF80010418046222821AC
:10F83000294800880EF0E6FC00902B48BDF8001027
:10F8400081800C21C18028221146234800880EF0B7
:10F85000D9FC00902448BDF80010018421480168BB
:10F86000214841621E4921481EF0B6FA5022114635
:10F87000194800880EF0C6FC00901C48BDF8001026
:10F88000418103218181164919481EF0A5FA3C22C5
:10F890000A21114800880EF0B5FC00901448BDF80C
:10F8A000001001840B481349C1F8C4000C491148E9
:10F8B000C0F8C8100C49C0F8CC100C49C0F8D010E2
:10F8C0000949C0F8D4100A49C0F8D81008BD000092
:10F8D00074A6002048F3002044050020B0A60020B4
:10F8E00084F3002048050020C0F30020FCF3002032
:10F8F00038F40020D8ED002010B53A4801693A48A4
:10F900001EF06AFA0221384841838183C182018353
:10F910000021C183012181813248016933481EF0F1
:10F920005BFA1F2131488173012181810221C1804D
:10F930002C4841692E481EF04FFA2C48817B2C48F8
:10F9400081732A4881892A4881812848C1882848AA
:10F95000C1802448816927481EF03EFA2348817BF4
:10F960002448817321488189224881811F48C188A8
:10F970002048C1801B4841691F481EF02DFA1B48D2
:10F98000817B1D488173194881891B4881811748F3
:10F99000C1881948C1801348016A18481EF01CFA32
:10F9A0001248817B154881731048818913488181F1
:10F9B0000E48C1881148C1800B480A49C1F8C400EB
:10F9C0000A490848C0F8C8100949C0F8CC100949CC
:10F9D000C0F8D0100849C0F8D4100849C0F8D810B1
:10F9E00010BD00005CFD0020500601208C060120A7
:10F9F000C806012004070120400701207C070120E0
:10FA000008480949C1F8C40001460748C0F8C810B1
:10FA1000C0F8CC10C0F8D010C0F8D410C0F8D8107E
:10FA200070470000B00C0120000B012008B55049C0
:10FA300050481EF0D1F900204E49087000214D4871
:10FA400041838183C18201830621C1834A480168C1
:10FA50004848416249494A481EF0BEF900214848D9
:10FA600001728181454947481EF0B6F90021454899
:10FA700001726421C180022181813C2228214248F7
:10FA800000880EF0BFFB00903E48BDF80010418199
:10FA9000FF21C1733C2228213B4800880EF0B2FBB5
:10FAA00000903848BDF800100184014637481EF028
:10FAB00093F9FF21354801725F220F2132480088F7
:10FAC0000EF0A0FB00903148BDF8001041800146C7
:10FAD000498881800021818128223C212A48008890
:10FAE0000EF090FB00902948BDF8001001840146FB
:10FAF00027481EF071F946221E21234800880EF087
:10FB000081FB00902248BDF80010418001464988E1
:10FB100081801C491F481EF05FF940F688000EF0F6
:10FB200043FB00901B48BDF80010418018494988EC
:10FB3000818040F688000EF037FB00901548BDF834
:10FB4000001001840B481449C1F8C4000C49124844
:10FB5000C0F8C8100B49C0F8CC100C49C0F8D01040
:10FB60000B49C0F8D4100B49C0F8D81008BD0000EC
:10FB7000FCA50020A4150120600500209C0E01209A
:10FB8000E01501201C1601205C05002058160120FC
:10FB900094160120D0160120EC0C012010B520A0F5
:10FBA00025F07EFB2148017821A025F079FB1F4834
:10FBB000007800F0010010B123A025F071FB1B4874
:10FBC000007800F0020010B122A025F069FB174870
:10FBD000007800F0040010B121A025F061FB13486B
:10FBE000007800F0080010B121A025F059FB0F4863
:10FBF000007800F0100010B120A025F051FB0B4858
:10FC0000007800F0800030B108480F3001681DA076
:10FC100025F046FB02E01FA025F042FB10BD0000CE
:10FC2000627573206661756C743A0A0029ED00E014
:10FC30005343425F434653525F424653523A3078F1
:10FC40002530325820000000494255534552522079
:10FC500000000000505245434953455252200000D5
:10FC6000494D50524543495345525220000000002F
:10FC7000554E53544B4552522000000053544B45AF
:10FC8000525220005343422D3E424641523A2530C3
:10FC900038580A000A00000010B5002407E020468A
:10FCA00000F01BF808B160B210BD601CC4B2022C99
:10FCB000F5DB4FF0FF30F7E70146C1F3C0107047A6
:10FCC00070470146C1F3002070470146C1F3C000F0
:10FCD00070470146C1F3401070470146002070474D
:10FCE0000146C1F3001070470146C1F38010704710
:10FCF00070B506460C46FFF7CFFF0546002D04DB26
:10FD00000120A07304490D7001E00020A073024897
:10FD10000078A060002070BD8C05002008B5404927
:10FD200040481EF059F800213E48C1800821418317
:10FD300081830721C18201833C221E213A48008829
:10FD40000EF060FA00903748BDF80010418001467F
:10FD5000498881803548C17B3248C17333488189E5
:10FD600030488181502214212F4800880EF04AFA31
:10FD700000902C48BDF800104181642205212A48DA
:10FD800000880EF03FFA00902648BDF8001001846C
:10FD9000014627481EF020F84622282122480088E4
:10FDA0000EF030FA00902248BDF800104180014664
:10FDB000498881800021017219491E481EF00CF803
:10FDC00050221E21184800880EF01CFA0090194895
:10FDD000BDF800100184124917481DF0FDFF4122B3
:10FDE0000A21114800880EF00DFA00901248BDF863
:10FDF000001001840D481149C1F88C0009490F48D1
:10FE0000C0F89010C0F8A4100949C0F8A81009491A
:10FE1000C0F89810C0F89C100749C0F8A01008BDA1
:10FE200064C5002020CD00202805002018C6002031
:10FE3000D4CD00205CCD002098CD0020B4C300209C
:10FE40000EB5404940481DF0C7FF462200213F48FB
:10FE500000880EF0D7F900903B48BDF800100184EF
:10FE600038493B481DF0B8FF5A22502137480088D6
:10FE70000EF0C8F900903648BDF8001001843149F1
:10FE800034481DF0A9FF64222821304800880EF074
:10FE9000B9F900902F48BDF8001041806422282154
:10FEA0002A4800880EF0AEF900902A48BDF80010EC
:10FEB00081800521C182018327488068418B2548C4
:10FEC000418325488068818B22488183224880684D
:10FED0002049408948812048806881891D48818166
:10FEE0000C2181730021C18016491C481DF074FF4C
:10FEF0001B48006802901948BDF808104180184856
:10FF0000001D006801901548BDF80410818005218E
:10FF1000C18201830021C1800F4880680E49C1F869
:10FF20008C0010490C48C0F890100749C0F8A01088
:10FF30000749C0F89C100749C0F8A4100749C0F849
:10FF4000A8100EBD68D9002080DF002038050020F1
:10FF5000BCDF0020F8DF0020B8D7002034E000200C
:10FF60008CBA0508FCA5002010B5074907481DF00C
:10FF700033FF05210548C182018301460448C0F8CA
:10FF8000A410C0F8A81010BD90EA0020E8EC0020F2
:10FF900068E800200EB52F492F481DF01DFF3222C2
:10FFA00000212E4800880EF02DF900902A48BDF857
:10FFB0000010018427492A481DF00EFF5A223221E1
:10FFC000264800880EF01EF900902548BDF8001064
:10FFD0000184204923481DF0FFFE002121480172C1
:10FFE000214880681F494089488105211D48C182F8
:10FFF000018318491D481DF0EFFE1D48006802905E
:020000040802F0
:100000001A48BDF8081041801948001D0068019089
:100010001648BDF8041081800521C18201830021AA
:10002000C180114880681049C1F88C000846816B76
:10003000C0F89010016CC0F8A010C16BC0F89C1003
:100040000849C0F8A410C0F8A810816BC0F894103B
:100050000EBD000088EF002044F70020440500207A
:1000600080F70020BCF70020D8ED0020F8F7002032
:10007000E0BA050808B5694969481DF0ADFE2822B7
:100080000A21684800880EF0BDF800906448BDF869
:100090000010418028220A21624800880EF0B2F840
:1000A00000905F48BDF80010818040F233300EF0C0
:1000B0004DF800905A48BDF800104181012181811E
:1000C0000521C1800A2141838183C1820183534973
:1000D00055481DF081FE14220A21524800880EF076
:1000E00091F800905048BDF80010418014220A2178
:1000F0004C4800880EF086F800904B48BDF8001080
:1001000081800021C1800121818140F233300EF0D5
:100110001DF800904448BDF8001041810A21418338
:100120008183C1820183414941481DF055FE2D2242
:100130001E213C4800880EF065F800903C48BDF850
:10014000001041802D221E21364800880EF05AF8FA
:1001500000903748BDF8001081800521C180012141
:1001600081810521418381830421C182018301466C
:1001700030481DF031FE462250212A4800880EF0FA
:1001800041F800902B48BDF80010418046225021D4
:10019000244800880EF036F800902648BDF800107C
:1001A00081800521C180072141838183C182018330
:1001B0001A4921481DF010FE5022282119480088B4
:1001C0000EF020F800901C48BDF80010018413497F
:1001D0001A481DF001FE3C220021124800880EF052
:1001E00011F800901548BDF8001001840C4814491E
:1001F000C1F88C000C491248C0F890100C49C0F8A6
:10020000A4100C49C0F8A8100B49C0F89C10044970
:10021000C0F898100949C0F8A01008BD84FF00205C
:10022000BC0301204C050020F8030120FCFF002046
:100230003404012070040120AC040120E8040120F2
:100240005CFD00200A4880680949C1F88C00094912
:100250000748C0F89010C0F8A010C0F89C10C0F873
:10026000A410C0F8A810C0F89410C0F898107047F7
:10027000000B0120B00C012008B5234923481DF0D4
:10028000ABFD46220021224800880DF0BBFF009004
:100290001E48BDF8001001841B491E481DF09CFD3E
:1002A0005A2232211A4800880DF0ACFF00901948FC
:1002B000BDF800100184144917481DF08DFD002180
:1002C0001548017215488068134940894881052105
:1002D0001148C182018347F61841C1800F488068E8
:1002E0000E49C1F88C000E490C48C0F8901007491F
:1002F000C0F8A0100749C0F89C100A49C0F8A41023
:100300000549C0F8A81008BD9C0E0120C4130120A7
:100310005C050020001401203C140120EC0C01209D
:10032000FCA5002038A6002000B589B066496748C2
:100330001DF052FD05216548C1800121818164487D
:10034000006808906148BDF8201041816048001D98
:10035000006807905D48BDF81C1041805C4808307B
:10036000006806905948BDF81810818056495948D0
:100370001DF032FD00215748017281810C21C1839B
:10038000002141838183C182018353480168514820
:1003900041624E4951481DF01FFD5A220A21504822
:1003A00000880DF02FFF00904C48BDF800104180F0
:1003B00052220A214A4800880DF024FF0090474845
:1003C000BDF800104180414946481DF005FD04215B
:1003D000444881813E480C30006805904148BDF892
:1003E000141041819921C173522232213C48008866
:1003F0000DF008FF00903B48BDF8001041803E2200
:100400003221374800880DF0FDFE00903548BDF8D8
:1004100000108180014634481DF0DEFC2C4810306D
:10042000006804903048BDF810104181B221C173BA
:10043000482232212A4800880DF0E4FE00902A4824
:10044000BDF80010418034223221254800880DF08B
:10045000D9FE00902448BDF800108180214923482E
:100460001DF0BAFC0121214881811948143000682F
:1004700003901E48BDF80C104181154818300068E3
:1004800002901A48BDF80810418011481C300068DD
:1004900001901648BDF8041081800E481449C1F837
:1004A000AC000A491248C0F8B0100C49C0F8B410AA
:1004B0000C49C0F8B8100C49C0F8BC100B49C0F882
:1004C000C01009B000BD0000A0C500204CCE002027
:1004D00010BA050810CE00202C05002088CE002080
:1004E00028050020C4CE002000CF00203CCF0020F3
:1004F000B4C300200A480B49C1F8AC000A490948B6
:10050000C0F8B0100949C0F8B4100949C0F8B810D3
:100510000849C0F8BC100849C0F8C0107047000076
:10052000FCA5002038D3002028A70020DCA700204D
:1005300018A8002054A8002090A8002008B5304832
:10054000816830481DF048FC00212E4801750321C8
:10055000418201462C481DF03FFC40F6CC400DF096
:10056000ABFD00902848BDF8001041800146498845
:10057000818000214182234924481DF02DFC552211
:100580004B21234800880DF03DFE00901F48BDF828
:1005900000104180014649888180012101750021B8
:1005A000418201461B481DF017FC41224B2118488F
:1005B00000880DF027FE00901648BDF8001041801D
:1005C000014649888180002141820D48016A124814
:1005D0001DF002FC11480A49C1F8AC00094908485D
:1005E000C0F8B0100849C0F8B4100849C0F8B810F5
:1005F0000849C0F8BC100849C0F8C01008BD000088
:10060000B8D7002070E00020ACE00020E8E0002037
:100610003805002024E1002060E10020FCA5002036
:1006200009480A49C1F8AC0009490848C0F8B010A7
:100630000849C0F8B410C0F8B8100549C0F8BC109B
:10064000C0F8C01070470000FCA5002068E800203A
:1006500008EB002044EB002000B589B066496748EC
:100660001DF0BAFB05216548C180012181816448E4
:10067000006808906148BDF8201041816048001D65
:10068000006807905D48BDF81C1041805C48083048
:10069000006806905948BDF818108180564959489D
:1006A0001DF09AFB00215748017281810C21C18302
:1006B000002141838183C1820183534801685148ED
:1006C00041624E4951481DF087FB5A220A21504889
:1006D00000880DF097FD00904C48BDF80010418057
:1006E00052220A214A4800880DF08CFD00904748AC
:1006F000BDF800104180414946481DF06DFB0421C2
:10070000444881813E480C30006805904148BDF85E
:10071000141041819921C173522232213C48008832
:100720000DF070FD00903B48BDF8001041803E2266
:100730003221374800880DF065FD00903548BDF83E
:1007400000108180014634481DF046FB2C481030D3
:10075000006804903048BDF810104181B221C17387
:10076000482232212A4800880DF04CFD00902A488A
:10077000BDF80010418034223221254800880DF058
:1007800041FD00902448BDF8001081802149234894
:100790001DF022FB01212148818119481430006895
:1007A00003901E48BDF80C104181154818300068B0
:1007B00002901A48BDF80810418011481C300068AA
:1007C00001901648BDF8041081800E481449C1F804
:1007D000AC000A491248C0F8B0100C49C0F8B41077
:1007E0000C49C0F8B8100C49C0F8BC100B49C0F84F
:1007F000C01009B000BD0000C4EF002070F8002058
:10080000E8BA050834F8002048050020ACF80020BC
:1008100044050020E8F8002024F9002060F90020B9
:10082000D8ED002008B5654965481DF0D5FA0521C9
:100830006348C1805F220A21624800880DF0E2FC13
:1008400000905F48BDF8001041805F220A215D489A
:1008500000880DF0D7FC00905948BDF80010818049
:1008600032220A21574800880DF0CCFC00905448F1
:10087000BDF80010418102218181014652481DF0DE
:10088000ABFA50220A214F4800880DF0BBFC0090C3
:100890004D48BDF80010418050220A214948008887
:1008A0000DF0B0FC00904848BDF800108180142283
:1008B0000A21444800880DF0A5FC00904248BDF88C
:1008C00000104181012181813D4940481DF084FA99
:1008D0005A2250213B4800880DF094FC00903B4880
:1008E000BDF8001041805A225021364800880DF092
:1008F00089FC00903548BDF80010818032225021DB
:10090000304800880DF07EFC00903048BDF80010A3
:10091000418101462E481DF05FFA462250212948A8
:1009200000880DF06FFC00902948BDF80010418050
:1009300046225021234800880DF064FC0090244892
:10094000BDF8001081801E2250211E4800880DF045
:1009500059FC00901E48BDF80010418101218181A1
:1009600017491C481DF038FA40F277700DF0EEFB85
:1009700000901848BDF80010418040F277700DF0EB
:10098000E5FB00901348BDF80010818000218181B3
:1009900011481249C1F8AC0009491048C0F8B0101C
:1009A0000949C0F8B4100949C0F8B8100849C0F89E
:1009B000BC100249C0F8C01008BD00000CFF0020A8
:1009C000240501204C050020600501209C05012024
:1009D000D805012014060120FCA500205CFD0020A4
:1009E00008480949C1F8AC0001460748C0F8B010F2
:1009F000C0F8B410C0F8B810C0F8BC10C0F8C010EF
:100A000070470000B00C0120000B012008B54749D9
:100A100047481DF0E1F905214548C1800021418288
:100A200003218181FF21C173502223214148008885
:100A30000DF0E8FB00903E48BDF80010418140F603
:100A4000FF700DF0B1FB00903948BDF800104180F7
:100A5000014649888180014637481DF0BDF946228C
:100A60002321344800880DF0CDFB00903248BDF8BA
:100A7000001041812E4931481DF0AEF950222D2140
:100A80002C4800880DF0BEFB00902C48BDF80010EB
:100A900041815A222821274800880DF0B3FB00909D
:100AA0002648BDF8001041800146498881802049D0
:100AB00023481DF091F946222D211E4800880DF093
:100AC000A1FB00901E48BDF8001041815022282152
:100AD000184800880DF096FB00901948BDF80010EA
:100AE0004180014649888180114916481DF074F9FA
:100AF00040F6AA200DF058FB00901248BDF80010F7
:100B0000418111481149C1F8AC0009490F48C0F8AA
:100B1000B0100949C0F8B4100849C0F8B810084925
:100B2000C0F8BC100749C0F8C01008BD9C0E0120D9
:100B3000781401205C050020B4140120F014012079
:100B40002C15012068150120FCA50020EC0C0120CB
:100B5000F8B507460E46384619F0C4FC0446E06B6B
:100B600020B9B4F8400008B90120F8BDB4F840003D
:100B700000280CDD38461EF0CFFA05460F490968FB
:100B80008847B4F84010884201D30020EDE7E06BBD
:100B900090B10020009009E06946094AE06B1268B4
:100BA00090470546B54201D10120DEE7E06B009990
:100BB000405C0028F0D1D8E70120D6E7F8010020FA
:100BC000E801002002480349C1F88800704700008E
:100BD00018C60020B4C3002002480349C1F88800A9
:100BE0007047000028A7002038D300200248806802
:100BF0000149C1F888007047B8D70020024803496E
:100C0000C1F888007047000008EB002068E8002069
:100C100002480349C1F88800704700003CF00020FA
:100C2000D8ED002002480349C1F888007047000051
:100C3000FCFF00205CFD002002480349C1F8880049
:100C400070470000B00C0120000B012002488068B2
:100C50000149C1F888007047EC0C012070B50446CA
:100C60000D460020E070401E60632946204621F0BA
:100C70002DFB08B1042070BD04F2362006F0B9FA4D
:100C80004AF65521884201D00320F4E794F8380051
:100C9000E92807D094F83800EB2817D13A20005DF6
:100CA000902813D104F16E0006F097FA20F07F40EF
:100CB0000749884201D10020DDE704F18A0006F0EF
:100CC0008CFA0449884201D10020D4E70220D2E7FF
:100CD0004641540046415433024600E0521C10780D
:100CE00010B110788842F9D110787047F0B50346FA
:100CF0000D461E68986A021DB089B5FBF0F0778931
:100D0000B0FBF7F400BF02CA09B90020F0BD8C4265
:100D100000D202E0641A121DF5E700BF10682044FB
:100D2000F4E70246891ED069801E884201D800205F
:100D300070475389106B01FB0300F9E770B5044657
:100D40000D4608F01FFC002070BD70B504460D462E
:100D500008F0CCFE002070BD024600207047000065
:100D60002DE9F04780460C4604F11A0006F041FADE
:100D700010B10020BDE8F087207800F03F00401E51
:100D800000EB800101EBC0054FF00109002621E0D6
:100D90001849895D081906F02CFA0746B9F1000FC9
:100DA00011D0FF2D0BD2384601F04AFF824629466A
:100DB0006D1C38F8110001F043FF824501D000207E
:100DC000D8E7B94605E04FF6FF70874201D0002012
:100DD000D0E7761C0D2EDBD3207800F0400038B130
:100DE000B9F1000F04D038F8150008B10020C1E7B0
:100DF0000120BFE71CC1050830B501460020CCB278
:100E0000C1F30723C1F30742204300021843000245
:100E1000104330BD01480249C860704718C6002021
:100E2000B4C30020024880680149C86070470000D0
:100E3000B8D7002001480249C860704718EA00206E
:100E400068E8002001480249C8607047FCFF0020A4
:100E50005CFD002001480249C8607047B00C0120C9
:100E6000000B0120024880680149C86070470000FB
:100E7000EC0C01202DE9F04782468946DAF8004063
:100E8000B9F1000F06D1676917B1E069B84215D80A
:100E9000012713E04946504602F09BFF0646022E0A
:100EA00002D20120BDE8F087701C08B93046F9E78E
:100EB000E069B04201D93046F4E74F463D4600BFF5
:100EC0006D1CE069A84204D80225BD4201D900206A
:100ED000E8E72946504602F07CFF064606B909E0DD
:100EE000012E01D0701C08B93046DBE7BD42E7D1C6
:100EF0000020D7E700BF4FF0FF322946204622F0FE
:100F000047FD8046B8F1000F08D1B9F1000F05D0B8
:100F10002A464946204622F03BFD8046B8F1000FA4
:100F20000DD16561D4E90610801E814202D8A06906
:100F3000401EA061207940F00100207107E0B8F167
:100F4000010F02D14FF0FF3000E001200546284696
:100F5000A8E700002DE9F34F83B0814604980068AC
:100F60000190D9F80000D0F810A0002006460546F0
:100F700000BF28466D1C01990C5C202C00DA41E072
:100F80002F2C01D05C2C0AD100E06D1C0198405D33
:100F90002F28FAD00198405D5C28F6D032E0FF2E71
:100FA00003D3062005B0BDE8F08FE4B2812C13DB3B
:100FB000E0B2FE2810DC28466D1C01990F5C07EB9F
:100FC000042084B2402F01DB7E2F05DD802F01DB62
:100FD000FE2F01DD0620E5E70121204601F0F2FDAC
:100FE00004460CB90620DDE7802C06DA21466FA006
:100FF000FFF772FE08B10620D4E73046761C2AF8C7
:101000001040B6E700BF0198411904980160202CF8
:1010100001DA042000E00020804608E0701E3AF863
:101020001040202C02D02E2C00D002E0761E002E84
:10103000F4D100BF00202AF816000EB90620B1E74F
:101040000B22202109F1200021F0AAF8002500E060
:101050006D1C3AF815002028FAD03AF815002E2811
:10106000F6D00DB148F0030800E0761E26B1701EE0
:101070003AF810002E28F8D10020074602904FF0D1
:10108000080B00BF28466D1C3AF8104004B963E015
:10109000202C03D02E2C04D1B54202D048F00308F6
:1010A000F0E70298584501D2B54214D1BBF10B0FBD
:1010B00002D148F003084FE0B54201D048F00308E0
:1010C000B54200D948E03546082002904FF00B0B9E
:1010D000B806070ED6E7802C09DB204601F0B0FDEC
:1010E0000021009001F06EFD044648F00208FF2C3C
:1010F00011DDABF101000299884204D848F00308E1
:10110000CDF808B0BEE722120298411C029109F105
:1011100020010A5419E024B1214627A0FFF7DCFD85
:1011200018B15F2448F003080FE0412C04DB5A2C6F
:1011300002DC47F0020708E0612C06DB7A2C04DCB5
:1011400047F00107A4F1200084B20298411C0291EB
:1011500009F120010C5495E700BF99F82000E5281B
:1011600002D1052089F82000BBF1080F01D1B80693
:10117000070E07F00C000C2803D007F0030003282B
:1011800001D148F0020808F0020058B907F0030046
:10119000012801D148F0100807F00C00042801D103
:1011A00048F0080889F82B800020FBE6222A3A3C08
:1011B0003E3F7C7F000000002B2C3B3D5B5D000030
:1011C0002DE9FC4106460D46304619F08BF90446E0
:1011D0005820005DC0F30010A84240D00DB101209E
:1011E00000E000205821095D60F3041158200155EA
:1011F000005D00F00F0090B35820005D00F0080083
:1012000068BB304619F028F9074604F14E016846DC
:1012100009F035FBBDF80000216B098A084400B2D3
:10122000ADF80000BDF80210206B408A084400B2FF
:10123000ADF80200BDF80400216B098A084400B231
:10124000ADF80400BDF80610206B408A084400B2D7
:10125000ADF806006946384615F0C4FA00BFBDE88F
:10126000FC81000008B51B491B481CF0B5FD0C2192
:1012700019484185102141838183C1820183154929
:1012800016481CF0A9FD46222D21154800880CF0B7
:10129000B9FF00901148BDF80010418046222D2171
:1012A0000F4800880CF0AEFF00900C48BDF800100D
:1012B0008180FF2101720021C18007480949C1F8DE
:1012C0004C0106490748C0F850110749C0F85411AD
:1012D00008BD000018C60020ACC80020E8C80020E7
:1012E00028050020B4C3002054C600200548064944
:1012F000C1F84C0105490448C0F850110449C0F830
:101300005411704728A7002038D30020ECA60020F5
:1013100060D5002008B51C4881681C481CF05CFDA5
:1013200010211A4841838183C18201830C214185A8
:10133000014617481CF050FD46225A2115480088E6
:101340000CF060FF00901248BDF80010418001468B
:10135000498881800021818141825F2205210D48D9
:1013600000880CF04FFF00900948BDF80010018480
:1013700006480549C1F84C0105490348C0F8501119
:101380000549C0F8541108BDB8D700205CE500201D
:1013900098E5002038050020A4D9002010B509499F
:1013A00009481CF019FD0821074841850749C1F883
:1013B0004C0107490548C0F850110649C0F85411BE
:1013C00010BD000008EB002024ED002068E800209C
:1013D000CCEA002044EB002008B51B491B481CF058
:1013E000FBFC0C2119484185102141838183C18276
:1013F0000183154916481CF0EFFC46222D211548A3
:1014000000880CF0FFFE00901148BDF800104180EC
:1014100046222D210F4800880CF0F4FE00900C4865
:10142000BDF800108180FF2101720021C1800748B2
:101430000949C1F84C0106490748C0F8501107494D
:10144000C0F8541108BD00003CF00020D0F200208C
:101450000CF3002044050020D8ED002078F0002097
:1014600008B51B4801691B481CF0B6FC0C21194843
:101470004185C1820183418381830321C180144856
:10148000016915481CF0A8FC322214211348008879
:101490000CF0B8FE00901048BDF8001041803222D8
:1014A00014210E4800880CF0ADFE00900A48BDF8EB
:1014B000001081800021C18006480549C1F84C0117
:1014C00005490348C0F850110549C0F8541108BD3A
:1014D0005CFD00205C090120980901204C050020DA
:1014E0000CFF002005480649C1F84C01014604489C
:1014F000C0F85011C0F8541170470000B00C012022
:10150000000B012008B51B4881681B481CF064FCD7
:101510000C21194841851021418381830C21C1820E
:10152000018340F266600CF03FFE00901248BDF867
:1015300000100184114912481CF04EFC0021104893
:1015400001728181502232210E4800880CF05AFE2F
:1015500000900B48BDF80010018407480549C1F808
:101560004C0107490348C0F850110449C0F8541110
:1015700008BD0000EC0C0120CC1A01209C0E0120BB
:10158000081B01205C0500202DE9F04106460D46B0
:1015900000240E2D59D130460EF0CEFCC4B22C489A
:1015A000C474C07C2B490870082C45D2DFE804F0D5
:1015B000040C141C242C343C0021D2201FF07CFB92
:1015C00007461FF009FD3FE00021D2201FF09CFCE0
:1015D00007461FF001FD37E00021D2201FF09CFAE2
:1015E00007461FF0F9FC2FE00021D2201FF0A0FDDC
:1015F00007461FF0F1FC27E00021D2201FF01EFC5F
:1016000007461FF0E9FC1FE00021D2201FF0BCFBC1
:1016100007461FF0E1FC17E00021D2201FF0E4FA9A
:1016200007461FF0D9FC0FE00021D2201FF01AFD61
:1016300007461FF0D1FC07E00021D2201FF0D4FAAA
:1016400007461FF0C9FC00BF00BFBDE8F0810000E5
:10165000445802205306002070B588B006460C4658
:1016600000250E2C13D130460EF066FCC5B2094899
:10167000857420216846EEF79BFE2A4606A168463F
:10168000F7F70EFC6946094817F0B0FC00BF08B038
:1016900070BD000044580220303A2F6C76676C2FE2
:1016A0006267253032642E62696E0000784B02203A
:1016B0001349096849084FF4FA62B1FBF2F1491E77
:1016C000104A91621146496941F0010151610021BE
:1016D00011614100D1621146096841F008011160B1
:1016E0001146096841F00101116000BF054909690F
:1016F00001F001010029F9D00021024A116170476F
:1017000098000020001000400348006840F01000DE
:1017100001490860704700004038024012490968DA
:101720004908124AB1FBF2F1491E114A9162114671
:10173000496941F001015161002111611146C862FE
:10174000096841F0080111601146096841F0010182
:10175000116000BF0649096901F001010029F9D0B3
:101760000021034A116170479800002040420F0099
:10177000001000402DE9F0470446201D17F0F4FA50
:101780000646204618F0B1FE8046B8F1000F02D0A0
:10179000204613F0AFFC08E03146201D17F0E9FAAF
:1017A00007463046FFF7E6FF3E46002EF4D1002202
:1017B0001321204613F078F9204613F065F9002133
:1017C000204608F0D5FD002014F0B2FE05461BE0CF
:1017D000A86BA04202D0E86BA04202D1284614F0C8
:1017E0009FFF286CA04201D100212964A86D4045CB
:1017F00006D114F0ABFEA04202D1284614F090FFAF
:10180000284614F095FE0546002DE1D1204618F03B
:10181000CCFE8146214609F1040017F08CFB002222
:1018200011462046E3699847606A10B1606A17F074
:1018300071FF204617F06EFFBDE8F0872DE9F041FB
:1018400004460E46D4F800800021204600F0D2F96C
:101850000546EDB9002700BF4046A16920F036FDDE
:10186000054605B113E0E0690078E52802D0E0699B
:10187000007820B9781C0746B04201D107E0002764
:101880000121204600F088F80546002DE4D000BF75
:10189000042D00D107252846BDE8F0812DE9F04749
:1018A0000446D4F800A00021204600F0A3F9064623
:1018B00016B13046BDE8F0874FF0FF08C1464FF043
:1018C000FF30E06200BF5046A16920F0FFFC0646F1
:1018D00006B15EE0E06905780DB9042659E0E069DB
:1018E000C07A00F03F07A771E52D04D007F008008B
:1018F00038B10F2F05D04FF0FF084FF0FF30E062F6
:1019000040E00F2F22D12B20005D00F0400098BB5B
:1019100005F0400038B1E06990F80D9005F0BF0582
:10192000A8462069E06245450CD1E069407B484506
:1019300008D1E169DAF81000FFF712FA10B1A8F146
:10194000010000E0FF2000F0FF081BE0B8F1000FED
:1019500005D1E06926F0BEFB484500D119E02B20F7
:10196000005D00F0010040B90B2204F12001E069A4
:1019700020F082FB08B90CE004E04FF0FF084FF0C4
:10198000FF30E0620021204600F006F80646002EF7
:1019900099D000BF30468DE72DE9F04705468946CE
:1019A0002C68286900F12007A86910B1B7F5001F5D
:1019B00002D30420BDE8F087A089B7FBF0F100FB5B
:1019C0001170002869D1A869401CA861686938B9FC
:1019D0002089B0EB571F60D80020A8610420E9E7F8
:1019E000A089B7FBF0F06189491E0840002854D156
:1019F0002846696902F0EDF90646012E01D8022059
:101A0000D8E7701C08B90120D4E7E069B0423ED89D
:101A1000B9F1000F03D10020A8610420CAE72846CD
:101A20006969FFF727FA06460EB90720C2E7012EBB
:101A300001D10220BEE7701C08B90120BAE7204698
:101A400026F0BCFE08B10120B4E7A289002104F110
:101A5000380020F0A5FB4FF0000831462046FFF784
:101A600060F960630CE00120E070204626F0A6FEDD
:101A700008B101209EE708F10108606B401C60631B
:101A800060894045EFD8606BA0EB080060636E6131
:101A900031462046FFF745F9A8612F61A089B7FBC1
:101AA000F0F100FB117104F138000844E8610020F6
:101AB00080E72DE9FE4F044626682B20005D00F0EC
:101AC000A00010B10620BDE8FE8F4FF0000901E034
:101AD00009F10109306930F819000028F8D10C2209
:101AE00004F12001684620F0D9FA9DF80B0000F0BF
:101AF000010028B340212B2001554FF001080EE0D2
:101B00004346694604F12000326902F073F820462A
:101B1000FFF7C4FE054605B104E008F10108B8F17D
:101B2000640FEDD300BFB8F1640F01D10720CAE7FD
:101B3000042D01D02846C6E79DF80B102B20015537
:101B40009DF80B0000F0020030B109F10C000D21EE
:101B5000B0FBF1F0401C00E001200746394620466A
:101B6000FFF76CFE05464DBB781E071E26D0206988
:101B7000A0EB4711204600F03DF80546F5B904F109
:101B8000200026F0A7FA824600BF3046A16920F067
:101B90009DFB054605B110E0FAB2E1695346306994
:101BA00021F0BEFF0120F07000212046FFF7F4FE77
:101BB000054615B9781E071EE7D100BFC5B93046E6
:101BC000A16920F083FB054695B920220021E06938
:101BD00020F0E6FA0B2204F12001E06920F05EFA21
:101BE0002B20005D00F01800E16908730120F070FF
:101BF000284668E72DE9F04104460E462568B6F50B
