:020000040801F1
:10000000B8F10220C101010897720108C702010876
:1000100093720108190C0108E98F01080000000023
:100020000000000000000000000000002384010820
:10003000730D010800000000130201082584010867
:10004000DB010108DB010108DB010108DB0101081C
:10005000DB010108DB010108DB010108DB0101080C
:10006000DB010108DB010108DB010108DB010108FC
:10007000DB010108DB010108DB010108DB010108EC
:10008000DB010108DB010108DB010108DB010108DC
:10009000DB010108DB010108DB010108DB010108CC
:1000A000DB010108DB010108DB010108DB010108BC
:1000B000DB0101087D8701088D870108DB0101084C
:1000C000DB010108DB010108DB010108DB0101089C
:1000D000DB010108318F0108498F0108DB010108AC
:1000E000750D0108DB010108DB010108DB010108D6
:1000F000DB010108DB010108DB010108DB0101086C
:10010000DB01010895730108DB010108DB0101082F
:10011000DB010108DB010108DB010108DB0101084B
:10012000DB010108DB010108DB010108490C0108C2
:10013000DB010108DB010108DB010108DB0101082B
:10014000DB010108DB010108DB010108DB0101081B
:10015000DB010108590C0108DB010108998F010836
:10016000DB010108DB010108DB010108DB010108FB
:10017000DB010108DB010108DB01010800000000D0
:10018000DB010108DB010108DB010108DB010108DB
:10019000DB010108DB010108DB010108DB010108CB
:1001A000DB010108DB0101081D0C0108DFF80CD0A0
:1001B00000F0CAFA00480047C3070108B8F102205E
:1001C0000648804706480047FEE7FEE7FEE7FEE7F1
:1001D000FEE7FEE7FEE7FEE7FEE7FEE71987010818
:1001E000AD010108EFF3108072B6704780F31088FC
:1001F0007047434A1368012B04D04FF0010313608A
:10020000404A1060404A116040484FF08051016000
:100210007047EFF3108272B63948016851B34FF05E
:10022000000101603748016891B1EFF309811EF0C8
:10023000100F08BF21ED108B21E9F00F4FF00004E3
:100240001EF0100F08BF012441F8044D0068016042
:100250002D490968096808C9B1E8F00F002B18BFDB
:10026000B1EC108B81F309884EF0100E002B18BFF3
:100270002EF0100E82F310884EF0040E70472249C3
:100280000860EFF3148222F0040282F314881D49FF
:100290004FF0000008601A494FF0010008601C4848
:1002A0004FF47F01D0F8002041EA020101601748B5
:1002B0004FF08051016017480068006880F308889B
:1002C00061B662B670471EF0040F0CBFEFF30880F2
:1002D000EFF3098020E9F00F40F804ED40F804ED59
:1002E0001EF0040F0CBF80F3088880F3098800B566
:1002F00038F058FB5DF804EB4EF0040E7047000038
:10030000F00E0020E80E0020EC0E002004ED00E0CE
:1003100020ED00E008ED00E02DE9F05F054600204B
:1003200092469B4688460646814640241BE0284666
:1003300041464746224600F063F953465A46C01AE2
:10034000914110D311461846224600F04AF92D1A61
:1003500067EB01084F4622460120002100F041F9D9
:1003600017EB00094E41201EA4F10104DFDC4846D2
:1003700031462A464346BDE8F09F10B540EA0104E5
:100380000346A40703D009E010C9121F10C3042AB2
:10039000FAD203E011F8014B03F8014B521EF9D2D7
:1003A00010BDD2B201E000F8012B491EFBD270470C
:1003B0000022F6E710B513460A4604461946FFF731
:1003C000F0FF204610BD421E12F8013F002BFBD16A
:1003D00011F8013B02F8013B002BF9D1704730B511
:1003E00005462A460B4612F8010B13F8014B08B1DB
:1003F000A042F8D01CB1002802D06D1CF1E72846BD
:1004000030BD10B5044604E00B7800F8013B03B1A1
:10041000491C521EF8D2204610BD421C10F8011B88
:100420000029FBD1801A704710B5002200E0521C51
:10043000835C8C5CA34201D1002BF8D1D8B2E1B22D
:10044000401A10BD034611F8012B00F8012B002AB9
:10045000F9D11846704730B505460020034600E044
:100460005B1C934205D2EC5CC85C201A01D1002CC5
:10047000F6D130BD2DE9FE4F81EA030404F00044BB
:1004800021F0004100944FF0000B23F0004350EAAC
:1004900001045ED052EA03045BD0C3F30A54C1F3F3
:1004A0000A552C44A4F2F3340194A0FB0254C1F386
:1004B000130141F48011C3F3130343F4801301FBD0
:1004C000024400FB034E840A970A44EA815447EA37
:1004D0008357A4FB076802958D0A05FB07854FEA41
:1004E000932C04FB0C542705029D4FEA065847EA5B
:1004F0001637B5EB08056EEB070C870E920E47EA30
:10050000811742EA8312A7FB0201B6EB0B0164EBF1
:1005100000042B0D43EA0C335E1844EB1C50DA4602
:100520005146E7FB0201C5F313044FEA0B3343EADC
:1005300014534FEA0432019C43EA0603A4F10C046D
:100540000294009CCDE900B400F0B0F803B0BDE81F
:10055000F08F00200146F9E700F0004230F0004043
:100560000AD0C10D01F56071C0F3160042EA0151D5
:10057000C20840071143704700200146704701F050
:10058000004330B421F0004150EA010206D00A0DC8
:10059000A2F56072C1F31301002A02DC30BC002016
:1005A0007047440F44EAC104C100E01830BC00EBBE
:1005B000C25000F035B830B50B460146002020226D
:1005C000012409E021FA02F59D4205D303FA02F560
:1005D000491B04FA02F52844151EA2F10102F1DCC0
:1005E00030BD202A04DB203A00FA02F100207047D7
:1005F0009140C2F1200320FA03F319439040704761
:10060000202A04DB203A21FA02F00021704721FA67
:1006100002F3D040C2F120029140084319467047CE
:100620000029A8BF7047401C490008BF20F0010006
:10063000704710B4B0FA80FC00FA0CF050EA0104E4
:1006400004BF10BC704749B1CCF1200421FA04F476
:1006500011FA0CF118BF012121430843A3EB0C014F
:10066000CB1D4FEA00614FEA102042BF002010BCB2
:10067000704700EBC35010440029A4BF10BC704762
:10068000401C490008BF20F0010010BC704710B5A5
:10069000141E73F1000408DA401C41F100019218A5
:1006A0005B411A4301D120F0010010BD2DE9F04D4E
:1006B00092469B4611B1B1FA81F202E0B0FA80F2A3
:1006C00020329046FFF78DFF04460F4640EA0A00AD
:1006D00041EA0B0153465A46084313D0114653EAE8
:1006E000010019D0C8F140025046FFF789FF0546C6
:1006F0000E46504659464246FFF773FF084305D061
:10070000012004E020463946BDE8F08D0020054375
:1007100046EAE0762C4337430A986305E40AA0EBE7
:1007200008000022FD0A44EA47540A3002D500209E
:100730000146E9E7010510196941DDE9084500199D
:100740006941BDE8F04DA2E7064C074D06E0E068C0
:1007500040F0010394E8070098471034AC42F6D308
:10076000FFF728FDF0B9080810BA080870B58C1812
:1007700010F8015B15F0070301D110F8013B2A11B5
:1007800006D110F8012B03E010F8016B01F8016BA2
:100790005B1EF9D12B0705D40023521E0DD401F89E
:1007A000013BFAE710F8013BCB1A921C03E013F867
:1007B000015B01F8015B521EF9D5A142D8D300209C
:1007C00070BD10B5FFF70EFD39F0FEFF002010BD23
:1007D00054494A6822F440324A604A6843681A43DE
:1007E0004A600268526822F4807203685A600268A4
:1007F0005368026943EA022203685A600268526839
:1008000022F0407203685A600268526883681A4393
:1008100003685A600268926822F4006203689A6072
:1008200002689268C3681A4303689A603E4B826A02
:100830009A4218D00268926822F0706203689A6047
:1008400002689268836A1A4303689A600268926831
:1008500022F0405203689A6002689268C36A1A43A1
:1008600003689A600BE00268926822F07062036885
:100870009A600268926822F0405203689A600268A7
:10088000926822F0020203689A60026893688269A3
:1008900043EA420203689A60026AA2B1026852689F
:1008A00042F4006203685A600268526822F46042AF
:1008B00003685A6002685368426A521E43EA423231
:1008C00003685A6005E00268526822F40062036817
:1008D0005A600268D26A22F470020368DA6202681F
:1008E000D36A828B521E43EA02520368DA620268BC
:1008F000926822F4007203689A6002689368026B3F
:1009000043EA422203689A600268926822F4806295
:1009100003689A6002689368426943EA8222036826
:100920009A607047002301400100000F70470000EB
:1009300010B504462146024803F099FA10BD0000A4
:10094000EC8A002010B5044803F0A4FA042801D072
:10095000012010BD0020FCE7EC8A002010B51048F3
:10096000104908600020486000210E488160C16085
:10097000016141618161002400F016F8012801D075
:10098000012010BD074803F099FB044634B94FF429
:100990000061044803F01EF900B101242046F0E78D
:1009A000002C0140EC8A002008B5012000909DF841
:1009B000000008BD2DE9F04104460D46164600270B
:1009C00033462A462146044803F0BAFC00B1012709
:1009D0003846BDE8F0810000EC8A00200120014982
:1009E000087070475C0000202DE9F04706468946F4
:1009F00017464FF0010A394807F01EF9002802DABD
:100A00005046BDE8F08706F00300002864D13A465E
:100A100049463046FFF7CEFF48BB002030490870FA
:100A200001F018F8044600BF2D48007828B901F0FD
:100A300011F8001B29498842F6D32948007810B9DB
:100A40004FF0010A48E000202549087001F002F843
:100A5000044605E0FFF776FF10B94FF0000A05E005
:100A600000F0F8FF001B1D498842F3D334E04FF03B
:100A7000000828E0494609F1010901221948FFF759
:100A800099FF0546E5B900201549087000F0E2FF1E
:100A9000044600BF1248007828B900F0DBFF001BB5
:100AA0000E498842F6D30E48007800B90DE04FF4A5
:100AB00000720C493046FFF760FC06F5007600E056
:100AC00003E008F10108B845D4D300BFB84502D10E
:100AD0000DB94FF0000A00BF504692E700E1F5055E
:100AE0005C000020308C00202DE9F04104460D46CA
:100AF0001646002733462A462146044803F0BEFC2A
:100B000000B101273846BDE8F0810000EC8A0020E2
:100B100001200149087070475B0000202DE9F04773
:100B20000746894690464FF0010A00203749087071
:100B3000374807F081F8002802DA5046BDE8F08710
:100B400007F0030000285ED1424649463846FFF7C9
:100B5000CBFF30BB00F07EFF044600BF2B4800787F
:100B600028B900F077FF001B29498842F6D32748AF
:100B7000007810B94FF0010A45E0002023490870C1
:100B800000F068FF044605E0FFF7DCFE10B94FF007
:100B9000000A05E000F05EFF001B1D498842F3D308
:100BA00031E0002627E0002018490870494609F185
:100BB000010901221748FFF797FF0546CDB900F05C
:100BC00049FF044600BF1148007828B900F042FFF1
:100BD000001B0F498842F6D30C48007800B90CE09E
:100BE0004FF400720B493846FFF7C7FB07F5007753
:100BF00000E002E0761C4645D5D300BF464502D151
:100C00000DB94FF0000A504698E700005B00002045
:100C100000E1F505308C002000BFFEE710B5084864
:100C2000406800F0020048B10548806840F00200CA
:100C3000034988600348006821F06EFE10BD000083
:100C400000B002400006002010B5024800F0D4FBBE
:100C500010BD0000708B002010B5024800F0CCFBE6
:100C600010BD0000D08B00200146087810381823F2
:100C7000B0FBF3F20848805CC865032A05D9086810
:100C80006FF30900001D886503E008686FF3090031
:100C90008865886D704700003CA208080146002066
:100CA0008A6A8B69CBB932B1012A0DD0022A03D0EE
:100CB000032A10D10EE000BFCB6A03F08073B3F1BA
:100CC000807F00D1012007E0CB6AB3F1C07F00D163
:100CD000012001E000E000BF34E08B69B3F5005F64
:100CE0001AD132B1012A07D0022A03D0032A11D126
:100CF0000AE000BF01200EE0CB6A03F08073B3F17D
:100D0000807F00D1012006E0CB6AB3F1C07F00D123
:100D1000012000E000BF15E032B1012A05D0022A0F
:100D200004D0032A0CD103E000BF00BF012008E07B
:100D3000CB6A03F08073B3F1807F00D1012000E023
:100D400000BF00BF704730B50468246824F48024D5
:100D500005682C60046863608468402C04D10468D2
:100D6000A2600468E16003E00468A1600468E260D6
:100D700030BD704710B54FF4806000F041FD10BDEC
:100D8000704730B504460D4600222946204600F043
:100D900001F830BDF0B50346012500241148807BE1
:100DA00002281CDA00200F4EB67B0E4FB85538468D
:100DB000867B001D40F82630001F867B0C30825554
:100DC0003E46B07B461CBE73044604F130000870FA
:100DD0003A2048702F2088700020C87000252846CF
:100DE000F0BD0000C4A7022030B502460023002455
:100DF0000868012816D013686FF30E03D1E90105C6
:100E00002843CD6828430D6928434D6928438D69DF
:100E10002843CD6928430D6A28434D6A284303437C
:100E2000136019E0136823F4F843D1E90705284358
:100E30004D6A2843034354686FF30E04D1E901055A
:100E40002843CD6828430D6928434D6928438D699F
:100E50002843044313605460002030BD02465069AB
:100E600040EA4100506100207047F8B506460C4644
:100E70001546002000900027D4E900010843A1682E
:100E8000491E40EA4110E16840EA41200090009884
:100E9000306100F0DFFD074609E0681C38B125B17C
:100EA00000F0D8FDC01BA84201D90320F8BDB069ED
:100EB00000F020000028F0D100BFF7E770B503462E
:100EC000154600220024012D1FD09A6802F07042BE
:100ED0000868401E4E68761E40EA06168868401E66
:100EE00046EA0026C868401E46EA0036088A401EC8
:100EF00046EA0046888A401E46EA0056087E401EA2
:100F000046EA006002439A6022E09A681148024073
:100F1000C868401E0603888A401E46EA0050024305
:100F2000DC6804F070440868401E4E68761E40EA93
:100F300006168868401E46EA0026088A401E46EAD1
:100F40000046087E401E46EA006004439A60DC606A
:100F5000002070BDFF0F0FFF38B502460020009043
:100F600000BF92F83C00012801D1022038BD0120C9
:100F700082F83C0000BF0868092816D91068C068CC
:100F80000C780A3C04EB44050724AC40A0431468E9
:100F9000E0600C780A3C04EB44048868A0401468C4
:100FA000E46820431468E06013E0106800690C787E
:100FB00004EB44050724AC40A043146820610C787E
:100FC00004EB44048868A040146824692043146832
:100FD00020614868072817D21068406B0C79641E9E
:100FE00004EB84051F24AC40A043146860630888A8
:100FF00080B20C79641E04EB8404A0401468646B16
:1010000020431468606331E048680D2817D21068E7
:10101000006B0C79E41F04EB84051F24AC40A04353
:1010200014682063088880B20C79E41F04EB840400
:10103000A0401468246B20431468206316E01068F5
:10104000C06A0C790D3C04EB84051F24AC40A0431E
:101050001468E062088880B20C790D3C04EB8404CB
:10106000A0401468E46A20431468E0621A4B1B4CE9
:101070001068A04206D10868122803D1586840F4CD
:1010800080005860154C1068A0421ED1144C0868AE
:10109000A04202D00868112817D1586840F4000017
:1010A00058600F4C0868A0420FD10E4800680E4CE3
:1010B000B0FBF4F000EB80004000009002E00098EC
:1010C000401E009000980028F9D100BF002082F84F
:1010D0003C0000BF00BF49E7002301400020014061
:1010E000120000109C00002040420F0001460868DA
:1010F000C06C704770B5044600250CB9012070BD66
:101100001549A06A884200D000BF206C30B9002089
:10111000606484F83C00204600F020F8206C00F069
:10112000100088B9206C20F4885040F00200206440
:101130002046FFF74DFB00206064206C20F0020089
:1011400040F00100206400E0012500BF002084F889
:101150003C0000BF2846D2E70100000F10B586B062
:101160000446142101A8FFF723F926492068884284
:1011700045D100BF002000902348006840F4806003
:10118000214908600846006800F48060009000BFB4
:1011900000BF00BF002000901B481438006840F0DA
:1011A00020001949143908600846006800F0200042
:1011B000009000BF00BF00BF0020009008460068FC
:1011C00040F0040008600846006800F00400009049
:1011D00000BF00BF4FF44070019003200290002038
:1011E000039001A9094800F019FB02200190032097
:1011F00002900020039001A9054800F00FFB06B003
:1012000010BD00000022014044380240001402409A
:101210000008024070B504460D460026206880682C
:1012200000F4806078B12068806800F4807050B16C
:10123000206C40F02000206400BF002084F83C00B7
:1012400000BF012070BD00F005FC064612E0681CDE
:1012500080B125B100F0FEFB801BA8420AD9206CAA
:1012600040F00400206400BF002084F83C0000BF70
:101270000320E7E72068006800F002000228E6D1BA
:101280006FF0120021680860206C40F40070206448
:101290002068806800F04050B8B9A069A8B92068FB
:1012A000C06A00F4700020B12068806800F480609B
:1012B00058B9206C20F480702064206C00F48050B9
:1012C00018B9206C40F0010020640020BAE700004B
:1012D00008B501460020009000BF91F83C000128AD
:1012E00001D1022008BD012081F83C0000BF086840
:1012F000806800F00100A0B90868806840F0010033
:101300000B6898602E4800682E4BB0FBF3F000EBA2
:101310004000009002E00098401E009000980028D5
:10132000F9D10868806800F00100002845D0086CF9
:1013300040F20163984340F4807008640868406894
:1013400000F4806028B1086C20F4005040F4805014
:101350000864086C00F4805020B1486C20F006004E
:10136000486401E00020486400BF002081F83C0090
:1013700000BF154A6FF022000B681860506800F03B
:101380001F0058B90868806800F04050A8B9086884
:10139000806840F080400B6898600EE00B4B086856
:1013A00098420AD10868806800F0405028B908685F
:1013B000806840F080400B689860002092E7000051
:1013C0009C00002040420F0000230140002001400B
:1013D000014691F83500022803D08020486501209D
:1013E0007047052081F835000868006820F001008A
:1013F0000A6810600020F3E7F8B50446002000906A
:101400008C4800684FF41651B0FBF1F7A56D2E68BB
:1014100094F85C1008208840304098B1206800683B
:1014200000F0040070B12068006820F0040021681A
:10143000086094F85C1008208840A860606D40F057
:101440000100606594F85C1001208840304068B16C
:101450002068406900F0800040B194F85C100120E1
:101460008840A860606D40F00200606594F85C10F0
:1014700004208840304068B12068006800F0020015
:1014800040B194F85C1004208840A860606D40F082
:101490000400606594F85C1010208840304078B3F8
:1014A0002068006800F0080050B394F85C10102029
:1014B0008840A8602068006800F4802080B120681F
:1014C000006800F4002028B9206CC8B12046216CC7
:1014D000884715E0A06C98B12046A16C88470FE0C2
:1014E0002068006800F4807028B92068006820F047
:1014F000080021680860206C10B12046216C8847E4
:1015000094F85C10202088403040002865D0206886
:10151000006800F0100000285FD094F85C102020D4
:101520008840A86094F83500052828D12068006814
:1015300020F01600216808602068406920F08000D3
:1015400021684861206C08B9A06C28B12068006847
:1015500020F008002168086094F85C103F20884063
:10156000A86000BF002084F8340000BF012084F888
:101570003500206D10B12046216D8847F8BD2068E8
:10158000006800F4802080B12068006800F400202A
:1015900028B9606C10B12046616C88471DE0E06B93
:1015A000D8B12046E16B884717E02068006800F456
:1015B000807068B92068006820F010002168086019
:1015C00000BF002084F8340000BF012084F83500FB
:1015D000E06B10B12046E16B8847606D38B3606DF9
:1015E00000F00100F0B1052084F8350020680068A3
:1015F00020F001002168086000BF0098401C0090A6
:10160000B84200D905E02068006800F00100002819
:10161000F3D100BF00BF002084F8340000BF0120D8
:1016200084F83500E06C10B12046E16C884700BFBB
:10163000A4E700009C0000202DE9F04104460025AD
:1016400000F008FA074614B90120BDE8F081606A8D
:1016500000B100BF00BF002084F8340000BF0220AA
:1016600084F835002068006820F0010021680860D7
:101670000AE000F0EFF9C01B052805D920206065BD
:10168000032084F83500E0E72068006800F00100DE
:101690000028EED12068056821480540D4E9010101
:1016A0000843E16808432169084361690843A16967
:1016B0000843E1690843216A08430543606A042836
:1016C00003D1D4E90B010843054320680560206875
:1016D000456925F00705606A0543606A04280DD155
:1016E000A06A0543E06A48B12046FFF7D7FA28B15F
:1016F00040206065012084F83500A6E72068456138
:101700002046FFF7B1FA064694F85C103F20884067
:10171000B06000206065012084F83500002094E767
:101720003F8010F02DE9F04704460D4616461F464F
:101730004FF00008D4F8589000BF94F83400012806
:1017400002D10220BDE8F087012084F8340000BFF8
:1017500094F8350001282BD1022084F835000020B0
:1017600060653B46324629462046FFF7ECFA94F87E
:101770005C103F208840C9F808002068006840F0ED
:101780001600216808602068406940F080002168E8
:101790004861206C28B12068006840F0080021688A
:1017A00008602068006840F001002168086006E0D9
:1017B00000BF002084F8340000BF4FF0020840460C
:1017C000C0E7000070B5044600F044F9064625461F
:1017D000681C10B104480078054400BF00F03AF9D5
:1017E000801BA842FAD370BD8C0F0020B0F5806F2B
:1017F00002D10121014A117570470000808A002042
:1018000010B5044604480068204020B10248046036
:101810002046FFF7EBFF10BD143C0140F8B502462F
:101820000B460025002400200021E6E0012606FAF0
:1018300001F51E6806EA0504AC4273D15E68022E0B
:1018400002D05E68122E13D1CF0802F1200656F89E
:1018500027004E07F70E0F26BE40B0434F07FF0E7E
:101860001E69BE403043CF0802F1200646F827002B
:1018700010684F000326BE40B0431E7906F00306F1
:101880004F00BE40304310605E68012E08D05E6895
:10189000022E05D05E68112E02D05E68122E13D182
:1018A00090684F000326BE40B0434F00DE68BE4044
:1018B00030439060506801268E40B0431E79C6F3D5
:1018C00000168E4030435060D0684F000326BE4063
:1018D000B0434F009E68BE403043D0605E6806F063
:1018E0008056B6F1805FA8D100BF00260096454E15
:1018F000366846F48046434F3E603E46366806F4FE
:101900008046009600BF00BF3F4E8F0856F8270064
:101910008E07370F0F26BE40B0433C4EB24202D175
:1019200000262EE068E03A4EB24201D1012628E0BE
:10193000384EB24201D1022623E0374EB24201D1E5
:1019400003261EE0354EB24201D1042619E0344E82
:10195000B24201D1052614E0324EB24201D1062630
:101960000FE0314EB24201D107260AE02F4EB242BB
:1019700001D1082605E02E4EB24201D1092600E031
:101980000A268F073F0FBE4030431F4E8F0846F890
:101990002700284E3068A0435E6806F48036B6F50E
:1019A000803F00D12043234E3060361D3068A04375
:1019B0005E6806F40036B6F5003F00D120431D4EA8
:1019C000361D3060361D3068A0435E6806F4801610
:1019D000B6F5801F00D12043164E08363060361D04
:1019E0003068A0435E6806F40016B6F5001F00D10B
:1019F0002043104E0C363060491C1029FFF416AFFE
:101A0000F8BD0000443802400838014000000240A0
:101A10000004024000080240000C02400010024096
:101A20000014024000180240001C02400020024046
:101A300000240240003C0140024613690B400BB1F8
:101A4000012000E0002070470AB1816101E00B0431
:101A5000836170470148006870470000840F0020D0
:101A6000024692F83D0020281ED1242082F83D0035
:101A70001068006820F00100136818601068406A60
:101A800020F01000136858621068406A0843136819
:101A900058621068006840F0010013681860202048
:101AA00082F83D00002070470220FCE710B5024696
:101AB0000B46002192F83D0020281DD1242082F8F9
:101AC0003D001068006820F0010014682060106874
:101AD000406A81B221F00F0141EA030081B210682F
:101AE00041621068006840F0010014682060202006
:101AF00082F83D00002010BD0220FCE770B50446CE
:101B0000002600250CB9012070BD94F83D0028B9CD
:101B1000002084F83C00204600F03AFD242084F8A0
:101B20003D002068006820F001002168086001F095
:101B300063FA05463948B5FBF0F620684660384937
:101B40006068884201D8701C07E04FF496707043BB
:101B50004FF47A71B0FBF1F0401C21680862304903
:101B6000606888420ED860684000B5FBF0F0C0F3B2
:101B70000B00042801D204202DE060684000B5FB72
:101B8000F0F028E0A06828B9606800EB4000B5FBE1
:101B9000F0F008E0606800EBC00101EB0010B5FB5D
:101BA000F0F040F48040C0F30B0008B9012012E0CF
:101BB000A06828B9606800EB4000B5FBF0F008E0D1
:101BC000606800EBC00101EB0010B5FBF0F040F4E1
:101BD000804040F400402168C861D4E9070108430F
:101BE00021680860D4E90310084321688860D4E9BB
:101BF000050108432168C8602068006840F00100C2
:101C00002168086000202064202084F83D00002026
:101C1000206384F83E0000BF76E7000040420F00DA
:101C2000A08601002DE9F8430446894617469846E8
:101C3000089E0025FFF70EFF054694F83D0020287A
:101C40007CD119230122BE492046009503F0F9FDFD
:101C500010B10220BDE8F88300BF94F83C000128D1
:101C600001D10220F6E7012084F83C0000BF206883
:101C7000006800F0010028B92068006840F0010009
:101C8000216808602068006820F40060216808600E
:101C9000222084F83D00102084F83E0000202064BB
:101CA0006762A4F82A80A748E062608D20852B46F1
:101CB00032464946204603F085FB80B1206C04285B
:101CC00006D100BF002084F83C0000BF0120C1E71E
:101CD00000BF002084F83C0000BF0320BAE7208D3D
:101CE00088B900BF002000902068406900902068FB
:101CF0008069009000BF00BF2068006840F4007059
:101D00002168086046E0208D012818D1206800680D
:101D100020F480602168086000BF002000902068E7
:101D20004069009020688069009000BF00BF206873
:101D3000006840F40070216808602BE0FEE0208D10
:101D4000022816D12068006820F4806021680860AD
:101D50002068006840F400602168086000BF00202F
:101D6000009020684069009020688069009000BF62
:101D700010E02068006840F480602168086000BFBF
:101D800000200090206840690090206880690090E1
:101D900000BF00BFC3E0208D032872D8208D01282A
:101DA0001AD12A463146204603F0DFFD30B1206CBF
:101DB000202801D103204DE701204BE7206800696E
:101DC000C1B2626A501C60621170208D401E208575
:101DD000608D401E6085A2E0208D02282AD1334606
:101DE000002259492046009503F02BFD08B103203D
:101DF00030E72068006840F40070216808602068BF
:101E00000069C1B2626A501C60621170208D401E70
:101E10002085608D401E608520680069C1B2626ABD
:101E2000501C60621170208D401E2085608D401E08
:101E3000608574E03346002243492046009503F054
:101E400000FD08B1032005E72068006820F48060E9
:101E50002168086020680069C1B2626A501C606233
:101E60001170208D401E2085608D401E6085334698
:101E7000002235492046009503F0E3FC10B1032011
:101E8000E8E620E02068006840F4007021680860FF
:101E900020680069C1B2626A501C60621170208DB6
:101EA000401E2085608D401E608520680069C1B29B
:101EB000626A501C60621170208D401E2085608D0A
:101EC000401E60852BE02A463146204603F04DFD3A
:101ED00030B1206C202801D10320BBE60120B9E6F7
:101EE00020680069C1B2626A501C60621170208D66
:101EF000401E2085608D401E608520684069C0F3CB
:101F0000800060B120680069C1B2626A501C6062E2
:101F10001170208D401E2085608D401E6085208DB3
:101F200000287FF438AF202084F83D00002084F89A
:101F30003E0000BF84F83C0000BF8BE6022089E62B
:101F4000020010000000FFFF040001002DE9F8432B
:101F50000446894616461F46DDF820800025FFF717
:101F600079FD054694F83D0020287DD119230122F2
:101F700059492046009503F064FC10B10220BDE8E9
:101F8000F88300BF94F83C00012801D10220F6E755
:101F9000012084F83C0000BF2068006800F00100C8
:101FA00028B92068006840F00100216808602068B6
:101FB000006820F4006021680860212084F83D005A
:101FC000102084F83E000020206466626785434844
:101FD000E062608D20852B4642464946204603F04C
:101FE00089FA80B1206C042806D100BF002084F853
:101FF0003C0000BF0120C2E700BF002084F83C0085
:1020000000BF0320BBE700BF0020009020684069AC
:10201000009020688069009000BF00BF46E02A461B
:102020004146204603F0D8FC60B1206C042807D15B
:102030002068006840F400702168086001209EE775
:1020400003209CE7616A481C606208782168086187
:10205000608D401E6085208D401E2085206840696F
:10206000C0F3800078B100E034E0208D58B1616A9F
:10207000481C6062087821680861608D401E608598
:10208000208D401E20852A464146204603F0AEFBA7
:1020900060B1206C042807D12068006840F400700B
:1020A0002168086001206AE7032068E7208D002886
:1020B000B5D12068006840F40070216808602020D5
:1020C00084F83D00002084F83E0000BF84F83C0006
:1020D00000BF54E7022052E7020010000000FFFF9B
:1020E0002DE9FC5F04460F4690469946DDE90CABAE
:1020F0000E9E0025FFF7AEFC054694F83D00202813
:102100007ED119230122BD492046009503F099FB99
:1021100010B10220BDE8FC9F00BF94F83C000128EC
:1021200001D10220F6E7012084F83C0000BF2068BE
:10213000006800F0010028B92068006840F0010044
:10214000216808602068006820F400602168086049
:10215000222084F83D00402084F83E0000202064C6
:10216000C4F824A0A4F82AB0A548E062608D2085B8
:102170004B46424639462046CDE9006503F01AFA3F
:1021800080B1206C042806D100BF002084F83C00F8
:1021900000BF0120BEE700BF002084F83C0000BF64
:1021A0000320B7E7208D88B900BF00200190206888
:1021B0004069019020688069019000BF00BF2068DD
:1021C000006840F400702168086041E0208D01281B
:1021D00019D12068006820F480602168086000BF81
:1021E000002001902068406901902068806901907A
:1021F00000BF00BF2068006840F40070216800E064
:10220000FAE0086024E0208D022816D120680068DA
:1022100020F48060216808602068006840F4006055
:102220002168086000BF002001902068406901908B
:1022300020688069019000BF0AE000BF0020019083
:1022400020684069019020688069019000BF00BF4C
:10225000C3E0208D032872D8208D01281AD12A4688
:102260003146204603F081FB30B1206C202801D19B
:1022700003204FE701204DE720680069C1B2626A80
:10228000501C60621170208D401E2085608D401EA4
:102290006085A2E0208D02282AD1334600225949C8
:1022A0002046009503F0CDFA08B1032032E72068FC
:1022B000006840F400702168086020680069C1B2BD
:1022C000626A501C60621170208D401E2085608DF6
:1022D000401E608520680069C1B2626A501C60625D
:1022E0001170208D401E2085608D401E608574E039
:1022F0003346002243492046009503F0A2FA08B174
:10230000032007E72068006820F4806021680860E7
:1023100020680069C1B2626A501C60621170208D31
:10232000401E2085608D401E608533460022354961
:102330002046009503F085FA10B10320EAE620E07C
:102340002068006840F40070216808602068006917
:10235000C1B2626A501C60621170208D401E2085DF
:10236000608D401E608520680069C1B2626A501CA1
:1023700060621170208D401E2085608D401E60853A
:102380002BE02A463146204603F0EFFA30B1206CAC
:10239000202801D10320BDE60120BBE620680069AA
:1023A000C1B2626A501C60621170208D401E20858F
:1023B000608D401E608520684069C0F3800060B178
:1023C00020680069C1B2626A501C60621170208D81
:1023D000401E2085608D401E6085208D00287FF482
:1023E00038AF202084F83D00002084F83E0000BF74
:1023F00084F83C0000BF8DE602208BE6020010004E
:102400000000FFFF040001002DE9FC5F04460F46B9
:1024100090469946DDE90CAB0E9E0025FFF71AFBAE
:10242000054694F83D0020287ED119230122564903
:102430002046009503F005FA10B10220BDE8FC9F8C
:1024400000BF94F83C00012801D10220F6E70120EA
:1024500084F83C0000BF2068006800F0010028B943
:102460002068006840F0010021680860206800686A
:1024700020F4006021680860212084F83D0040209D
:1024800084F83E0000202064C4F824A0A4F82AB0F8
:102490003E48E062608D20854B46424639462046E4
:1024A000CDE9006503F032F980B1206C042806D133
:1024B00000BF002084F83C0000BF0120BEE700BF41
:1024C000002084F83C0000BF0320B7E733E02A4631
:1024D0003146204603F080FA60B1206C042807D111
:1024E0002068006840F40070216808600120A5E7BA
:1024F0000320A3E7616A481C6062087821680861CC
:10250000208D401E2085608D401E608520684069BA
:10251000C0F3800078B1208D68B1616A481C6062A8
:1025200008782168086100E02CE0208D401E20859D
:10253000608D401E6085208D0028C8D12A46314616
:10254000204603F053F960B1206C042807D12068BD
:10255000006840F400702168086001206EE70320E5
:102560006CE72068006840F4007021680860202053
:1025700084F83D00002084F83E0000BF84F83C0051
:1025800000BF5BE7022059E7020010000000FFFFD8
:1025900010B586B00446142101A8FDF709FF1B49B8
:1025A0002068884230D100BF0020009018480068A1
:1025B00040F08000164908600846006800F080007E
:1025C000009000BF00BF4FF4C07001901220029035
:1025D00001200390032004900420059001A90D48D8
:1025E000FFF71CF900BF0020009009481030006878
:1025F00040F400000649103108600846006800F405
:102600000000009000BF00BF06B010BD005C00409D
:1026100030380240001C0240034800680349097832
:102620000844014908607047840F00208C0F002087
:1026300010B50D48006840F400700B49086008466A
:10264000006840F4806008600846006840F48070CC
:102650000860032000F022FA002000F007F800F0E4
:102660009FF9002010BD0000003C024070B50446F8
:102670000E4800784FF47A71B1FBF0F00C4909680C
:10268000B1FBF0F5284602F060F908B1012070BDF9
:10269000102C07D200222146501E00F0C0F9054838
:1026A000046001E00120F2E70020F0E78C0F002039
:1026B0009C000020880F002070B504460E46154689
:1026C00000BF94F8A000012801D1022070BD0120B4
:1026D00084F8A00000BF022084F8A10005EB85016A
:1026E00001EBC50204F1380101EB820034223146CE
:1026F000FDF743FE2A463146204604F0C1FC012086
:102700002168486284F8A10000BF002084F8A0007E
:1027100000BF00BFDAE7000070B5044600250026C0
:102720000CB9012070BD94F8A10028B9002084F8EC
:10273000A000204600F07EF8022084F8A100206866
:10274000806920F0704021688861D4E90101084364
:10275000E1680843216908432168896908432168C1
:102760008861206880683249084021688860A08AB2
:10277000050420688068A1692943084321688860AE
:102780002068C0682A4908402168C860A08B0504F9
:102790002068C068216A294308432168C86020680E
:1027A00000692349084021680861A08C050420685D
:1027B0000069A16A294308432168086120684069CB
:1027C0001B49084021684861A08D050420684069C4
:1027D000216B294308432168486194F835000502BC
:1027E00094F8360006042068C06A00F07F40216833
:1027F000C86246EA050094F8341008432168C96AA3
:1028000008432168C8622068406B40F006002168D8
:1028100048632068806940F00100216888610020D9
:10282000C4F8A400012084F8A10000207AE7000089
:1028300000F800F010B586B00446142101A8FDF799
:10284000B7FD5149206888427ED100BF002000902A
:102850004E48006840F080604C49086008460068B7
:1028600000F08060009000BF00BF00BF002000901B
:1028700046481438006840F40000444914390860A0
:102880000846006800F40000009000BF00BF00BFD1
:10289000002000900846006840F4807008600846F8
:1028A000006800F48070009000BF00BF00BF0020EF
:1028B00000900846006840F0200008600846006864
:1028C00000F02000009000BF00BF00BF002000907B
:1028D0000846006840F0800008600846006800F084
:1028E0008000009000BF00BF00BF0020009008469D
:1028F000006840F0400008600846006800F04000B2
:10290000009000BF00BF40F2F760019002200290EB
:1029100000200390022004900E20059001A91C487D
:10292000FEF77CFF4FF480600190022002900020AF
:102930000390022004900E20059001A91548FEF78F
:102940006DFF4FF47E4000E01BE0019002200290FA
:1029500000200390022004900E20059001A90E484B
:10296000FEF75CFF4FF40C60019002200290002003
:102970000390022004900E20059001A90748FEF75D
:102980004DFF06B010BD0000006801404438024011
:102990000020024000140240001C024000180240C7
:1029A00008B500BF002000900E48006840F4804049
:1029B0000C4908600846006800F48040009000BFA1
:1029C00000BF00BF00200090081F006840F080504A
:1029D000091F08600846006800F08050009000BFA2
:1029E00000BF08BD4438024000BF00F01F020121B3
:1029F0009140034A430942F8231000BF704700008A
:102A000080E100E000BF00F01F0201219140420977
:102A1000920002F1E022C2F8001100BF70472DE9D8
:102A2000F05F80460D461646002704F035FC074649
:102A300039462A46334601F00700C0F1070ABAF1C9
:102A4000040F02D94FF0040A01E0C0F1070AD14691
:102A500000F1040ABAF1070F02D24FF0000A01E0B8
:102A6000A0F1030AD4464FF0010A0AFA09FAAAF1C2
:102A7000010A0AEA020A0AFA0CFA4FF0010B0BFAF1
:102A80000CFBABF1010B0BEA030B4AEA0B042146EA
:102A9000404604F009FCBDE8F09F000000BF00F0D4
:102AA0000702064B19684FF6FF031940044B0B430E
:102AB00043EA0221014B196000BF70470CED00E0B2
:102AC0000000FA0500BF00BF00BF00BF00BFBFF39A
:102AD0004F8F00BF00BF00BF0948006800F4E060EE
:102AE00008490843001D0649086000BF00BF00BF39
:102AF000BFF34F8F00BF00BF00BF00BF00BFFDE7A7
:102B00000CED00E00000FA0538B5002400BF0020FD
:102B100000901D48006840F080501B49086008463E
:102B2000006800F08050009000BF00BF01201749EE
:102B30000864FEF78FFF044607E0FEF78BFF001BDB
:102B4000B0F57A7F01D9032038BD1148406800F400
:102B50008030B0F5803FF0D101200C494864FEF789
:102B600079FF044607E0FEF775FF001BB0F57A7F9A
:102B700001D90320E8E70648406800F40030B0F5CA
:102B8000003FF0D10020DFE74038024000000E4255
:102B900000700040F8B5044600250026207800F0BB
:102BA000010020B9207800F00200022852D1002054
:102BB000A8498866FEF74EFF054606E0FEF74AFF85
:102BC000401B022801D90320F8BDA3480068C0F3C8
:102BD000C0600028F2D1207800F0010038B16068B0
:102BE0008101207A41EA00709B4984310860207895
:102BF00000F00200022819D1974884300068C0F321
:102C0000027660688101207B41EA006040EA06703C
:102C100091498431086090488C30006820F01F0092
:102C2000E169491E08438C498C31086001208949BB
:102C30008866FEF70FFF054606E0FEF70BFF401B18
:102C4000022801D90320BFE783480068C0F3C060B1
:102C50000028F2D0207800F00400042804D0207866
:102C600000F00800082863D100207A490867FEF7C1
:102C7000F1FE054606E0FEF7EDFE401B022801D9F5
:102C80000320A1E774480068C0F340700028F2D127
:102C9000207800F00400042819D16F4888300068BB
:102CA000C0F3027620698101207D41EA006040EA9C
:102CB0000670694988310860081D006820F4F851E1
:102CC000206A401E41EA002063498C310860207868
:102CD00000F00800082817D15F4888300068C0F36A
:102CE00003662069800140EA0661207E41EA0070A7
:102CF000594988310860081D006820F44030616A35
:102D0000084355498C310860012052490867FEF795
:102D1000A1FE054606E0FEF79DFE401B022801D9F4
:102D2000032051E74C480068C0F340700028F2D0FF
:102D3000207800F0200020287ED100BF00200090E5
:102D400045484030006840F08050434940310860B9
:102D50000846006800F08050009000BF00BF3F4868
:102D6000006840F480703D490860FEF773FE054638
:102D700006E0FEF76FFE401B022801D9032023E77F
:102D80003648006800F480700028F2D03248703075
:102D9000006800F440764EB3208D00F44070B042DD
:102DA00024D02D487030006820F4407601202C4952
:102DB000086000200860284870300660006800F055
:102DC000010098B1FEF746FE054608E0FEF742FE18
:102DD000401B41F28831884201D90320F4E61E48A5
:102DE00070300068C0F340000028EFD000BF208D95
:102DF00000F44070B0F5407F0CD1174808300068EF
:102E000020F4F810174AA16A11400843124908310A
:102E1000086007E010480830006820F4F8100E49F8
:102E2000083108600C4870300068218DC1F30B0137
:102E300008430949703100E001E0086000BF2078D4
:102E400000F01000102803D194F82C000649086007
:102E50000020B9E600004742003802400070004000
:102E6000400E4742FFFCFF0FE011474270B5044699
:102E70000D460CB9012070BD5848006800F00F00E5
:102E8000A84209D255490D700846006800F00F00AD
:102E9000A84201D00120EEE7207800F002000228CD
:102EA0001DD1207800F00400042805D14C480068AA
:102EB00040F4E0504A490860207800F008000828F3
:102EC00005D14748006840F46040454908604448DF
:102ED000006820F0F000A1680843414908602078AC
:102EE00000F00100A8B36068012807D13C48083809
:102EF0000068C0F34040B8B90120BCE76068022810
:102F000002D06068032807D1354808380068C0F34C
:102F1000406048B90120AEE7314808380068C0F386
:102F2000400008B90120A6E72D48006820F0030002
:102F3000616808432A490860FEF78CFD064609E0EF
:102F4000FEF788FD801B41F28831884202D90320B8
:102F500091E707E02248006800F00C006168B0EBE0
:102F6000810FEDD11D48006800F00F00A84209D97B
:102F70001A490D700846006800F00F00A84201D001
:102F8000012078E7207800F00400042807D11448D5
:102F9000006820F4E050E168084311490860207897
:102FA00000F00800082808D10D48006820F46040AF
:102FB000216940EAC1000A49086000F03DF808496B
:102FC0000968C1F30311074A515CC840064908600B
:102FD0000020FFF74BFB00204DE70000003C0240C3
:102FE00008380240F2EF04089C0000200148006805
:102FF000704700009C00002000B5FFF7F7FF044970
:103000000968C1F38221034A515CC84000BD000039
:103010000838024002F0040800B5FFF7E7FF044952
:103020000968C1F34231034A515CC84000BD000049
:103030000838024002F004082DE9F047002400257A
:103040000026A1462548006800F00C0020B10428A5
:1030500005D008283AD105E0DFF8849039E0DFF8A0
:10306000849036E01D48001F006800F03F041B48B4
:10307000001F006800F4800078B11A481749091F42
:103080000968C1F38811A0FB0170014622460023A4
:103090003846FDF741F905460EE011480F49091F72
:1030A0000968C1F38811A0FB017001462246002384
:1030B0003846FDF731F905460848001F0068C0F39F
:1030C0000140401C4600B5FBF6F902E0DFF8109025
:1030D00000BF00BF4846BDE8F08700000838024046
:1030E0000024F40040787D01F8B504460CB90120B5
:1030F000F8BD207800F00100002874D0F94800687D
:1031000000F00C0004280DD0F648006800F00C0018
:10311000082813D1F348001F006800F48000B0F5C0
:10312000800F0BD1EF4808380068C0F340400028FA
:1031300059D06068002856D10120D9E700BF6068E7
:10314000B0F5803F08D1E7480838006840F4803087
:10315000E449083908601EE06068B0F5A02F0DD181
:10316000E0480838006840F48020DE4908390860EB
:103170000846006840F4803008600CE0D948083800
:10318000006820F48030D749083908600846006894
:1031900020F48020086000BF606890B1FEF75AFC00
:1031A000054606E0FEF756FC401B642801D90320C3
:1031B0009EE7CC4808380068C0F340400028F1D0B2
:1031C00011E0FEF747FC054606E0FEF743FC401B16
:1031D000642801D903208BE7C24808380068C0F38F
:1031E00040400028F1D1207800F0020002285FD191
:1031F000BC48006800F00C0058B1BA48006800F004
:103200000C0008281CD1B748001F006800F480009B
:10321000B0B9B44808380068C0F3400020B1E06895
:10322000012801D0012063E7AE480838006820F08B
:10323000F800216940EAC100AA490839086037E06E
:10324000E06800B30120A8490860FEF703FC0546CA
:1032500006E0FEF7FFFB401B022801D9032047E7E9
:10326000A04808380068C0F340000028F1D09D480D
:103270000838006820F0F800216940EAC100994947
:103280000839086014E0002097490860FEF7E2FB67
:10329000054606E0FEF7DEFB401B022801D90320AD
:1032A00026E7904808380068C0F340000028F1D1B4
:1032B000207800F0080008282CD16069A8B101200E
:1032C0008A490860FEF7C6FB054606E0FEF7C2FB2A
:1032D000401B022801D903200AE782486C300068AD
:1032E000C0F340000028F1D014E000207F490860BE
:1032F000FEF7B0FB054606E0FEF7ACFB401B0228DC
:1033000001D90320F4E677486C300068C0F3400030
:103310000028F1D1207800F00400042870D10026A4
:1033200070483830006800F0805090B900BF00202D
:1033300000906C483830006840F08050694938315E
:1033400008600846006800F08050009000BF00BF91
:1033500001266748006800F48070B0B964480068CE
:1033600040F4807062490860FEF774FB054606E091
:10337000FEF770FB401B022801D90320B8E65C4829
:10338000006800F480700028F2D000BFA068012817
:1033900008D154486830006840F001005149683154
:1033A00008601DE0A06805280DD14E48683000680F
:1033B00040F004004B49683108600846006840F05E
:1033C000010008600CE047486830006820F0010008
:1033D0004449683108600846006820F0040008602D
:1033E00000BFA068A8B1FEF735FB054609E0FEF76F
:1033F00031FB401B41F28831884202D9032077E635
:1034000026E0384868300068C0F340000028EED05D
:1034100013E0FEF71FFB054608E0FEF71BFB401B11
:1034200041F28831884201D9032061E62D48683095
:103430000068C0F340000028EFD1012E07D12948D1
:103440003830006820F0805026493831086000BFCD
:10345000A069B8B32348006800F00C0008285ED0CB
:10346000A069022846D100201F490866FEF7F2FA3B
:10347000054606E0FEF7EEFA401B022801D90320BC
:1034800036E6184808380068C0F340600028F1D1DB
:10349000D4E907010843616A40EA81110122A06A68
:1034A000C2EB500041EA00412C20005D41EA00607F
:1034B0000C49091F086001200B490866FEF7CAFA8B
:1034C000054607E02DE0FEF7C5FA401B022801D9AA
:1034D00003200DE6034808380068C0F34060002868
:1034E000F1D01EE00838024000004742800E4742FB
:1034F0000070004000200C490866FEF7ABFA054654
:1035000006E0FEF7A7FA401B022801D90320EFE5E9
:1035100006480068C0F340600028F2D101E00120B5
:10352000E6E50020E4E500000000474200380240E4
:1035300002460023106800F1500303EB8103186872
:10354000704710B50023046804F1500303EB8103B6
:103550001A6010BD70B505460B4616460024286853
:1035600040680E4900EA0104200CD870C4F304201E
:10357000587004F03F009870C4F3423018705EB980
:10358000D87803F0A5FED870587803F0A1FE5870E3
:10359000987803F09DFE9870002070BD3FFFFF00FB
:1035A00070B504460B46164600252068806A5860B0
:1035B00020680069C0F30E009860206800680F4919
:1035C00000EA0105C5F305401870C5F306205870E0
:1035D00005F07F00987005F48000000CD8705EB98B
:1035E000187803F075FE1870587803F071FE587063
:1035F000987803F06DFE9870002070BD7F7F7F008B
:1036000010B504460CB9012010BD607F20B9002020
:103610002077204600F060F80220607700BFCA20C3
:103620002168486253202168486200BF204603F0A9
:1036300067FE40B100BFFF202168486200BF042040
:1036400060770120E0E7206880682249084021680F
:103650008860216960680843616908432168896856
:103660000843216888602168E06808612068016972
:10367000208941EA0040216808612068C06820F084
:1036800080002168C8602068806800F0200060B970
:10369000204600F053F940B100BFFF202168486286
:1036A00000BF042060770120AEE72068006C20F4A2
:1036B0008020216808642068006CA16908432168A3
:1036C000086400BFFF202168486200BF01206077C6
:1036D000002099E7BFFF8FFF10B504460749206817
:1036E00088420AD1012006490860002203210846C9
:1036F000FFF795F90320FFF785F910BD002800407A
:103700003C0E47422DE9F04104460D46164600277F
:1037100000BF207F012802D10220BDE8F0810120F6
:10372000207700BF022060774EB9687800F0100063
:10373000102804D1687800F0EF000A30687086B96C
:10374000E87803F0D0FD0304687803F0CCFD43EA89
:103750000023A87803F0C7FD0343287843EA4037E5
:1037600009E0E8780004697840EA0120A978084374
:10377000297840EA413700BFCA20216848625320B7
:103780002168486200BF204603F0BAFD60B100BF67
:10379000FF202168486200BF0420607700BF00203E
:1037A000207700BF0120B8E71648384021684860FC
:1037B0002068C06820F080002168C86020688068A8
:1037C00000F0200080B9204600F0B8F860B100BFDA
:1037D000FF202168486200BF0420607700BF0020FE
:1037E000207700BF012098E700BFFF2021684862D2
:1037F00000BF0120607700BF0020207700BF00BF1E
:103800008BE700003FFFFF002DE9F04104460D4625
:103810001646002700BF207F012802D10220BDE804
:10382000F0810120207700BF02206077CEB92068A8
:10383000806800F0400000B102E00020E87000BFA6
:10384000287803F050FD0304687803F04CFD43EA48
:103850000023A87803F047FD0343E87843EA0047D4
:1038600016E02068806800F0400020B1287803F05E
:103870002FFD074602E00020E87000BF2878000412
:10388000697840EA0120A9780843E97840EA0147CD
:1038900000BFCA202168486253202168486200BFE7
:1038A000204603F02DFD60B100BFFF202168486273
:1038B00000BF0420607700BF0020207700BF0120F8
:1038C000ADE71D483840216808602068806820F412
:1038D000802021688860D5E9030108432168896850
:1038E0000843216888602068C06820F08000216853
:1038F000C8602068806800F0200080B9204600F091
:103900001DF860B100BFFF202168486200BF04209D
:10391000607700BF0020207700BF01207FE700BF55
:10392000FF202168486200BF0120607700BF0020AF
:10393000207700BF00BF72E77F7F7F0070B504462D
:1039400000252068C06820F0A0002168C860FEF74C
:1039500081F8054607E0FEF77DF8401BB0F57A7F59
:1039600001D9032070BD2068C06800F02000002845
:10397000F1D00020F6E770B504460D460CB90120E1
:1039800070BD94F82C0028B9002084F82D00204642
:1039900000F012F8022084F82C00211D2068FDF7A9
:1039A00023FA2946D4E90002FDF788FA012084F8B9
:1039B0002C000020E4E7000010B586B0044600BFEC
:1039C000002000906248006840F0010060490860F3
:1039D0000846006800F00100009000BF00BF00BF73
:1039E000002000905A480838006840F00400584908
:1039F000083908600846006800F00400009000BF25
:103A000000BF00BF002000900846006840F0200082
:103A100008600846006800F02000009000BF00BF6A
:103A200000BF002000900846006840F08000086059
:103A30000846006800F08000009000BF00BF00BF93
:103A4000002000900846006840F0400008600846EA
:103A5000006800F04000009000BF00BF00BF0020E1
:103A600000900846006840F01000086008460068B2
:103A700000F01000009000BF00BF00BF00200090C9
:103A80000846006840F0080008600846006800F03A
:103A90000800009000BF00BF00BF00200090084653
:103AA000006840F0010008600846006800F001006E
:103AB000009000BF00BF4FF63F000190022002902F
:103AC00000200390032004900C20059001A92148B8
:103AD000FDF7A4FE0D20019002200290002003902B
:103AE000032004900C20059001A91B48FDF796FEC9
:103AF00048F237100190022002900020039003202A
:103B000004900C20059001A91448FDF787FE4FF69C
:103B10008370019002200290002003900320049003
:103B20000C20059001A90E48FDF778FE4CF20370B9
:103B300001900220029000200390032004900C20AA
:103B4000059001A90748FDF769FE06B010BD000009
:103B500038380240001402400008024000180240B9
:103B600000100240000C024070B504460D4694F867
:103B70002C00022800D170BD022084F82C002946B8
:103B80002068FDF76BF9012084F82C000020F2E793
:103B900070B504460D46164694F82C00022800D154
:103BA00070BD022084F82C00324629462068FDF7BB
:103BB0005CF92868022803D1052084F82C0002E073
:103BC000012084F82C000020EAE710B50446FCF739
:103BD000ADFE10BD70B58AB004460D460026032028
:103BE00084F83400606C032820D0B5F5805F04D1E0
:103BF000A06B40F08050A0631CE0B5F5006F07D1CA
:103C0000204604F0BEFA0646A06B3043A06311E0E4
:103C10003DB9204604F080FA0646A06B3043A0630D
:103C200008E0A06B40F00060A06303E0A06B40F0F0
:103C30008050A063A06B40B140F2FF5021688863C0
:103C4000012084F834000AB070BD60680490A06858
:103C50000590E0680690079560690890A069099052
:103C600007A807C88DE80700206804A90EC903F05B
:103C700099FB012084F834000020E4E7704730B558
:103C800003460022586E020E90090870C2F38300AA
:103C9000487002F003008870586EC0F30742CA7083
:103CA000B3F86400C0F307220A7193F864204A71E4
:103CB000986E020E4FF6FF7000EA0210C880986EF0
:103CC000C0F30742C88840EA1210C88002F00F0013
:103CD00008726820C05AC0F30722D0094872C2F3A4
:103CE00080108872C2F34010C872C2F300100873CB
:103CF00000204873586C00283ED19007000D0861E1
:103D00006820C25C086940EA82000861D86E020E31
:103D1000086940EA92100861C2F3C200087502F017
:103D200007004875D86EC0F3074250098875C2F382
:103D30008200C8759007400F08766C20C05AC0F307
:103D40000722087E40EAD21008760869401C5865B0
:103D50000C7E586DA41C0125A540684358650C7A5B
:103D60000120A0409865D3E91504640A6043D86532
:103D70004FF400741C6630E0586C012821D1682093
:103D8000C25C9006800A0861D86E020E086940EA9B
:103D900002200861D86EC0F3074208691043086129
:103DA0006C20C05AC0F307220869441C4FF480609D
:103DB000A4FB00045865D8654FF400749C651C662C
:103DC0000BE040F2FF501C68A063986B40F08050FD
:103DD0009863012083F8340030BDC2F3801001F8ED
:103DE000190F9006400E48706C20C25C487840EA7B
:103DF000D210487002F07F008870186F020ED00950
:103E0000C870C2F341100871C2F382004871900774
:103E1000000F8871186FC0F30742887940EA92104A
:103E20008871C2F34010C8710020087202F00100CE
:103E300048727020C05AC0F30722D0098872C2F3BA
:103E40008010C872C2F340100873C2F300104873A8
:103E5000C2F38100887302F00300C8737020C25C53
:103E6000500808740120487419390020B4E702464C
:103E7000506C0860906C4860D06C8860106DC860B1
:103E8000506D0861906D4861D06D8861106EC86199
:103E900000207047F8B50446042600250020009055
:103EA0006946204604F01FF9054615B1A06B28436A
:103EB000A0630098C0F343263046F8BD70B50446B1
:103EC00000252068406BC0F30020002863D04FF429
:103ED0008070216888632068C06B40F23A31884363
:103EE0002168C863206B00F0080048B3206B00F025
:103EF000020018B9206B00F0200050B1206803F0D8
:103F000019FC05462DB1A06B2843A0632046FFF79E
:103F1000B5FE40F2FF5021688863012084F8340028
:103F2000206B00F0010018B9206B00F0020018B1FE
:103F3000204600F099FABCE0204600F09AFAB8E07A
:103F4000206B00F080000028F5D0206B00F02000EE
:103F500050B1206803F0EEFB05462DB1A06B28435D
:103F6000A0632046FFF78AFE206B00F001000028C6
:103F7000E1D1206B00F002000028DCD12068C06A8B
:103F800020F008002168C862012084F8340020462F
:103F900000F06FFA8DE02068406BC0F3803038B1DC
:103FA0004FF4804021688863204604F01FF980E0C8
:103FB0002068406BC0F3C03038B14FF40040216836
:103FC0008863204604F07CF873E02068406B40F280
:103FD0003A21084008B1012000E00020002868D004
:103FE0002068406BC0F3400018B1A06B40F00200A5
:103FF000A0632068406BC0F3C00018B1A06B40F014
:104000000800A0632068406BC0F3401018B1A06B9B
:1040100040F02000A0632068406BC0F3001018B18E
:10402000A06B40F01000A0632068406BC0F34020FC
:1040300018B1A06B40F00800A06340F2FF70216847
:1040400088632068C06B40F23A3188432168C863B6
:10405000206B00F0800010B3206C50B11548216C2B
:104060000865206CFDF7B4F910B1206C03F077FE01
:104070001FE0E06B50B11048E16B0865E06BFDF7A5
:10408000A7F9B0B1E06B03F03BFE12E00020A063A3
:10409000012084F834002046FFF797FD09E0206BEB
:1040A00000F0080028B1012084F834002046FFF712
:1040B000E5FD70BD5F7D0108017D010810B5044676
:1040C0000CB9012010BD94F8340020B900202077ED
:1040D000204600F051F8032084F83400204600F018
:1040E00009F80020A0632063012084F83400002038
:1040F000E8E7000030B589B00446002500200390B1
:1041000004900590069007907620089006A807C8AE
:104110008DE80700206803A90EC903F043F90020C9
:1041200014490860206803F057F901201149A039AB
:10413000C1F8A0000220FDF745FB204603F049FF2F
:10414000054645B1012084F83400A06B2843A063E4
:10415000012009B030BD204603F0BDFE05463DB14B
:10416000012084F83400A06B2843A0630120F0E70D
:104170000020EEE7A080254210B586B00446142149
:1041800001A8FCF715F96749206888427ED100BF75
:10419000002000906448006840F4006062490860B4
:1041A0000846006800F40060009000BF00BF00BF38
:1041B000002000905C481438006840F480005A49A0
:1041C000143908600846006800F48000009000BFC1
:1041D00000BF00BF002000900846006840F00400C7
:1041E00008600846006800F00400009000BF00BFAF
:1041F00000BF002000900846006840F008000860FA
:104200000846006800F00800009000BF00BF4FF4AF
:10421000F8500190022002900020039003200490A7
:104220000C20059001A94148FDF7F8FA04200190FF
:104230000220029000200390032004900C2005909F
:1042400001A93B48FDF7EAFA3A483B4908604FF0BC
:1042500000604860002138488160C1604FF480618F
:10426000016189004161890081612021C1610021D2
:10427000016204214162032181624FF40001C162A5
:1042800089100163FDF7D8F918B100E048E0FCF7A8
:1042900077FD00BF2848E063846300BF25484830AD
:1042A000264908604FF00060486040212348816043
:1042B0000021C1604FF48061016189004161890082
:1042C00081612021C1610021016204214162032139
:1042D00081624FF40001C16289100163FDF7ACF9FE
:1042E00008B1FCF74DFD00BF14482064846300BF93
:1042F000002206213120FEF792FB3120FEF782FBDF
:10430000012206213B20FEF78AFB3B20FEF77AFBC9
:10431000012206214520FEF782FB4520FEF772FBB5
:1043200006B010BD002C0140443802400008024095
:10433000000C024058640240708B0020D08B00209B
:104340002DE9F04186B00446884616461D460027F2
:10435000B8F1000F07D1A06B40F00060A06301200E
:1043600006B0BDE8F08194F83400012873D1002034
:10437000A0637119E06D814205D9A06B40F0007017
:10438000A0630120ECE7032084F8340000202168BA
:10439000C8622068C06B40F495702168C8632F48DC
:1043A000E16BC8632E48E16BC8640020E16B0865CF
:1043B0006A029308226802F180014246E06BFDF731
:1043C000B1F9012027490860606C012800D076020D
:1043D0004FF0FF3000906802019090200290022080
:1043E000039000200490012005906946206802F0A7
:1043F000A6FF4FF40071206803F04CF8074657B150
:1044000040F2FF5021688863A06B3843A06301200D
:1044100084F83400A4E7012D07D9822020633146B7
:10442000206803F0A3F8074606E0812020633146A8
:10443000206803F0B8F807465FB140F2FF502168EA
:104440008863A06B3843A063012084F8340087E7B9
:1044500001E0002084E7022082E70000BB7C010825
:104460005F7C01088C85254200B50246FCF7B6FA50
:1044700000BD00B50246FCF74BFB00BD2DE9F04145
:1044800086B00446884616461D460027B8F1000F40
:1044900007D1A06B40F00060A063012006B0BDE82A
:1044A000F08194F83400012872D10020A0637119C2
:1044B000E06D814205D9A06B40F00070A06301203F
:1044C000ECE7032084F8340000202168C8622068EB
:1044D000C06B40F01A002168C8632E48216CC86385
:1044E0002D48216CC8640020216C0865606C01288F
:1044F00000D076024FF40071206802F0CBFF07462F
:1045000057B140F2FF5021688863A06B3843A06325
:10451000012084F83400C1E7012D07D9A0202063D1
:104520003146206803F024F9074606E09020206316
:104530003146206803F039F9074657B140F2FF5081
:1045400021688863A06B3843A063012084F834009D
:10455000A4E701201149086069028B08216801F174
:1045600080024146206CFDF7DDF84FF0FF300090EF
:104570006802019090200290002003900490012096
:1045800005906946206802F0DAFE002086E7FFE722
:10459000022083E74D7D01085F7C01088C85254260
:1045A00010B504460CB9012010BD606A00B900BF07
:1045B0000021A16294F8510028B9002084F850002D
:1045C000204600F033F8022084F85100206800688B
:1045D00020F0400021680860D4E901010843E16847
:1045E00008432169084361690843218B01F4007184
:1045F0000843E1690843216A0843A16A0843216826
:1046000008600421A06901EA1040616A084321683A
:1046100048602068C06920F400602168C8610020FB
:104620006065012084F851000020BDE710B586B018
:104630000446142101A8FBF7BBFE374920688842D5
:1046400030D100BF002000903448006840F40010D2
:10465000324908600846006800F40010009000BF6E
:1046600000BF00BF002000902C481438006840F0C4
:1046700040002A49143908600846006800F04000EC
:10468000009000BF00BF4FF4E04001900220029074
:1046900000200390032004900520059001A92048E4
:1046A000FDF7BCF81F492068884232D100BF0020C6
:1046B00000901A48001F006840F480401749091F05
:1046C00008600846006800F48040009000BF00BF0A
:1046D00000BF0020009011481438006840F002002C
:1046E0000E49143908600846006800F00200009086
:1046F00000BF00BF4FF460400190022002900020F4
:104700000390032004900520059001A90648FDF7B9
:1047100085F806B010BD0000005401404438024046
:104720000018024000380040000402402DE9FE4F0E
:1047300004460D4616461F46DDF830804FF0000A4D
:104740000020029081464FF0010B019000BF94F8C9
:104750005000012802D10220BDE8FE8F012084F81C
:10476000500000BFFDF776F9814694F851A06068CB
:104770000290BAF1010F0BD00298B0F5827F04D1FC
:10478000A06810B9BAF1040F02D002200190D2E063
:104790000DB106B117B901200190CCE094F8510099
:1047A000012802D1052084F8510000206065A6632D
:1047B000E787A7872563E786A7862064606420686B
:1047C000006800F04000402805D02068006840F0F4
:1047D000400021680860E068B0F5006F43D1606870
:1047E00010B1E08E012806D128882168C860AD1C70
:1047F000E08E401EE0862FE0BBF1000F10D0E08E6F
:1048000070B12068806800F00200022808D1288872
:104810002168C860AD1CE08E401EE0864FF0000BA2
:10482000E08F68B12068806800F0010040B1206826
:10483000C0683080B61CE08F401EE0874FF0010B4F
:1048400008F1010040B1FDF705F9A0EB0900404572
:1048500002D3032001906EE0E08E0028CCD1E08FDF
:104860000028C9D142E0606810B1E08E012806D16D
:104870002878216808736D1CE08E401EE0862FE0CA
:10488000BBF1000F10D0E08E70B12068806800F09E
:104890000200022808D115F8010B21680873E08E88
:1048A000401EE0864FF0000BE08F68B12068806802
:1048B00000F0010040B12068C06806F8010BE08FED
:1048C000401EE0874FF0010B08F1010040B1FDF7F9
:1048D000C1F8A0EB0900404502D3032001902AE073
:1048E000E08E0028CCD1E08F0028C9D143460122B8
:1048F00002212046CDF8009003F03EFD10B10320C8
:10490000019018E04A464146204603F021FD20B1BF
:1049100001200190202060650DE0A06850B900BF23
:10492000002000902068C068009020688068009097
:1049300000BF00BF00BF012084F8510000BF00206D
:1049400084F8500000BF019806E770B5044625467C
:10495000681EB0F1807F01D301200FE0681E4FF088
:10496000E02148610F214FF0FF3002F09DFC002054
:104970004FF0E021886107200861002070BD70477A
:104980007047000010B5044602214F48FDF754F867
:10499000D8B14E480068006A45F6FF7108404B499F
:1049A0000968086249480068006A40F400504749B5
:1049B000096808620020454909684862444800784F
:1049C00040F01000424908707CE00C213F4800F0A4
:1049D00091FA404908803D480068006A45F6FF7139
:1049E00008403A490968086238480068006A37494F
:1049F000096808623648007800F0100000285BD093
:104A00003348007800F08000F0B332480088B0F5F9
:104A1000967F0DDD2F480088B0F5487F08DA2E48D4
:104A2000006840002C49086008460068086043E0C0
:104A300028480088B0F5AF6F0FDD26480088B0F534
:104A4000E16F0ADA244800684000234908600846FC
:104A5000006840F0010008602EE01E48008840F623
:104A60009801884228DD1B48008840F628218842AA
:104A700022DA1A480078401C184908701448007857
:104A800000F0F000124900E001E0087014E0114865
:104A9000008841F2680188420EDD0E48008841F22C
:104AA0005C21884208DA0A48007840F08000084912
:104AB00008700020094908700548007820F01000AF
:104AC0000349087010BD00000004024048A1002006
:104AD0007400002076000020780000207C00002078
:104AE0002DE9F04104460D46164600BF94F8380003
:104AF000012802D10220BDE8F081012084F83800AD
:104B000000BF022084F8390096B9EB68D5E900129D
:104B1000206803F0CFFE2068806920F00C00216837
:104B2000886120688069A9680843216888613DE040
:104B3000042E13D1EB68D5E90012206803F006FFBC
:104B40002068806920F4406021688861206880695D
:104B5000A96840EA01202168886127E0082E12D167
:104B6000EB68D5E90012206803F00FFF2068C069E8
:104B700020F00C002168C8612068C069A96808435A
:104B80002168C86112E0EB68D5E90012206803F0E3
:104B90001AFF2068C06920F440602168C86120685D
:104BA000C069A96840EA01202168C861012084F831
:104BB000390000BF002084F8380000BF00BF9AE72A
:104BC00010B504460CB9012010BD94F8390028B97D
:104BD000002084F83800204600F00CF8022084F809
:104BE0003900211D206803F0E5FD012084F839001B
:104BF0000020E9E710B586B00446142101A8FBF7B0
:104C0000D7FB1C492068884232D100BF00200090A9
:104C10001948006840F0020017490860084600681B
:104C200000F00200009000BF00BF00BF0020009015
:104C300011481038006840F002000F491039086030
:104C40000846006800F00200009000BF00BF02208C
:104C5000019002900120039002200490059001A988
:104C60000648FCF7DBFD00220F211D20FDF7D7FED3
:104C700006B010BD0004004040380240000402406D
:104C800030B504460D4635B1042D0BD0082D10D09B
:104C90000C2D1CD114E02068C06840F0020021688F
:104CA000C86015E02068C06840F004002168C86052
:104CB0000EE02068C06840F008002168C86007E086
:104CC0002068C06840F010002168C86000E000BFA4
:104CD00000BF01222946206803F0DEFD206800683D
:104CE00040F0010021680860002030BD10B5044686
:104CF00020680069C0F34000D8B12068C068C0F3E4
:104D00004000B0B16FF002002168086101202076F8
:104D10002068806900F0030018B12046FFF732FEDA
:104D200005E0204600F0ADF8204600F0ABF800208A
:104D3000207620680069C0F38000D8B12068C06880
:104D4000C0F38000B0B16FF0040021680861022058
:104D500020762068806900F4407018B12046FFF783
:104D600011FE05E0204600F08CF8204600F08AF89D
:104D70000020207620680069C0F3C000D8B1206808
:104D8000C068C0F3C000B0B16FF0080021680861CE
:104D9000042020762068C06900F0030018B1204686
:104DA000FFF7F0FD05E0204600F06BF8204600F02C
:104DB00069F80020207620680069C0F30010D8B19F
:104DC0002068C068C0F30010B0B16FF01000216817
:104DD0000861082020762068C06900F4407018B18E
:104DE0002046FFF7CFFD05E0204600F04AF82046B8
:104DF00000F048F8002020762068006900F00100EB
:104E000058B12068C06800F0010030B16FF00100B7
:104E100021680861204600F037F820680069C0F377
:104E2000C01058B12068C068C0F3C01030B16FF036
:104E30008000216808612046FFF7A1FD2068006915
:104E4000C0F3801058B12068C068C0F3801030B142
:104E50006FF0400021680861204600F075F8206876
:104E60000069C0F3401058B12068C068C0F340101A
:104E700030B16FF02000216808612046FFF780FD07
:104E800010BD704770470000184A016891422BD14D
:104E90001749097801F0800131B31549097821F0EB
:104EA0001001134A11701146097801F00F0121B960
:104EB0001146097841F0400111700D49097801F05F
:104EC0000F010E2905DA0A490978491C084A1170B0
:104ED0000AE00749097821F08001054A117011465E
:104EE000097801F0F00111707047000000040040E3
:104EF000740000200246002300BF92F83800012809
:104F000001D102207047012082F8380000BF31B182
:104F1000042907D0082908D00C290CD108E0106812
:104F2000436B09E01068836B06E01068C36B03E015
:104F30001068036C00E000BF00BF00BF002082F8D3
:104F4000380000BF1846DDE7704770472DE9F0478D
:104F50000446206805682068C668206847694FF0E5
:104F60000008C14605F00F08B8F1000F0AD105F09E
:104F7000200038B106F0200020B1204603F06DFD7E
:104F8000BDE8F087B8F1000F6DD007F0010018B947
:104F900006F49070002866D005F0010030B106F4E8
:104FA000807018B1E06B40F00100E06305F0040090
:104FB00030B107F0010018B1E06B40F00200E0638F
:104FC00005F0020030B107F0010018B1E06B40F0CD
:104FD0000400E06305F0080030B107F0010018B1EB
:104FE000E06B40F00800E063E06B68B305F0200080
:104FF00028B106F0200010B1204603F02EFD2068F5
:105000004069C0F38019E06B00F0080010B9B9F1F5
:10501000000F22D0204603F000FD2068406900F018
:105020004000B0B12068406920F04000216848612C
:10503000606B50B11748616B0865606BFCF7C8F98D
:1050400010B1606B016D88470CE02046FFF77DFFD3
:1050500008E02046FFF779FF04E02046FFF775FFE0
:105060000020E0638CE705F0800030B106F080009E
:1050700018B1204603F0F2FE82E705F0400030B19F
:1050800006F0400018B1204603F0D7FC78E700BFD7
:1050900076E70000078A010810B504460CB9012024
:1050A00010BDA06900B100E000BF94F8390028B934
:1050B000002084F83800204600F028F8242084F8E6
:1050C00039002068C06820F400502168C86020467C
:1050D00003F010FD2068006920F490402168086109
:1050E0002068406920F02A00216848612068C06873
:1050F00040F400502168C8600020E063202084F85C
:10510000390084F83A000020CAE7000010B586B0E4
:105110000446142101A8FBF74BF95F492068884237
:1051200031D100BF002000905C48006840F01000C2
:105130005A4908600846006800F01000009000BF5F
:1051400000BF00BF0020009054481438006840F0B1
:1051500001005249143908600846006800F0010057
:10516000009000BF00BF4FF4C06001900220029089
:1051700001200390032004900720059001A94848CE
:10518000FCF74CFB86E04749206888423ED100BFCF
:10519000002000904148006840F020003F4908602E
:1051A0000846006800F02000009000BF00BF00BF6C
:1051B0000020009039481438006840F00400374956
:1051C000143908600846006800F00400009000BF31
:1051D00000BFC02001900220029001200390032014
:1051E00004900820059001A92F48FCF717FB032223
:1051F0000F214720FDF713FC4720FDF703FC206833
:10520000C06840F020002168C86043E0274920685A
:1052100088423FD100BF002000902048001F006856
:1052200040F400301D49091F08600846006800F47A
:105230000030009000BF00BF00BF00200090174862
:105240001438006840F00800144914390860084612
:10525000006800F00800009000BF00BF60200190CF
:105260000220029001200390032004900720059063
:1052700001A90F48FCF7D2FA00220F212620FDF7E2
:10528000CEFB2620FDF7BEFB2068C06840F0200062
:105290002168C86006B010BD0010014044380240CB
:1052A0000000024000140140000802400044004099
:1052B000000C024070472DE9F84304460D4616469F
:1052C0001F464FF0000994F8390020285CD105B141
:1052D00016B90120BDE8F88300BF94F83800012812
:1052E00001D10220F6E7012084F8380000BF002039
:1052F000E063212084F83900FCF7ACFB8146A684EA
:10530000E6842BE0E08C401EE084A068B0F5805F6E
:1053100016D14B46002280212046009703F0D2FD93
:1053200008B10320D6E7A846B8F80000C0F308008B
:1053300021684860206908B9AD1C0FE06D1C0DE0C4
:105340004B46002280212046009703F0BBFD08B1A8
:105350000320BFE715F8010B21684860E08C0028A6
:10536000D0D14B46002240212046009703F0AAFDF1
:1053700008B10320AEE7202084F8390000BF0020E8
:1053800084F8380000BFA5E70220A3E77047014674
:1053900008684069C0F3802088B16FF480600A68B3
:1053A00050610420086400200863202081F83D003B
:1053B00000BF002081F83C0000BF012070470020A2
:1053C000FCE700002DE9F84304460D4690461E46D2
:1053D000E76A2068006840F4806021680860042F54
:1053E00004D0012F02D017F5803F06D12068006855
:1053F00040F480702168086008E0206B112805D116
:105400002068006840F480702168086043460022EC
:105410004FF001112046009600F013FA10B103205E
:10542000BDE8F8832069B0F5804F05D1E8B240F0BF
:1054300001002168086149E005F44070F02141EA6B
:10544000E01021680861334642462949204600F0B1
:1054500036FA30B1206C042801D10120E0E70320A6
:10546000DEE7E8B221680861334642462049891FD9
:10547000204600F024FA30B1206C042801D101202C
:10548000CEE70320CCE700BF0020009020684069F1
:10549000009020688069009000BF00BF206800680D
:1054A00040F4807021680860434600224FF00111EB
:1054B0002046009600F0C5F908B10320B0E705F4D6
:1054C0004070F12141EAE01021680861334642460C
:1054D0000749891F204600F0F2F930B1206C0428FA
:1054E00001D101209CE703209AE7002098E7000003
:1054F000080001002DE9F84304460D46174698467A
:10550000E66A042E04D0012E02D016F5803F06D1A3
:105510002068006840F480702168086008E0206B13
:10552000122805D12068006840F480702168086066
:105530003B4600224FF001112046CDF8008000F0DC
:1055400080F910B10320BDE8F8832069B0F5804FE1
:1055500004D105F0FE002168086117E005F44070F1
:10556000F02141EAE0102168086143463A461049BB
:10557000204600F0A4F930B1206C042801D10120AC
:10558000E1E70320DFE7E8B22168086143463A46D5
:105590000749891F204600F092F930B1206C042899
:1055A00001D10120CFE70320CDE70020CBE70000A9
:1055B000080001002DE9F84304460F4615469946B8
:1055C000DDE908862068006840F480602168086092
:1055D0002068006840F4807021680860434600221B
:1055E0004FF001112046009600F02BF910B1032076
:1055F000BDE8F88307F0FE002168086133464246A3
:105600004149204600F05BF930B1206C042801D1FB
:105610000120EDE70320EBE700BF002000902068A9
:105620004069009020688069009000BF00BF32464A
:105630004146204600F0D0F960B1206C042807D123
:105640002068006840F40070216808600120CFE7FE
:105650000320CDE7B9F1010F03D1E8B22168086159
:1056600019E0C5F30720216808613246414620460B
:1056700000F0B2F960B1206C042807D120680068FE
:1056800040F40070216808600120B1E70320AFE713
:10569000E8B22168086132464146204600F09CF994
:1056A00060B1206C042807D12068006840F40070C5
:1056B0002168086001209BE7032099E720680068C3
:1056C00040F4807021680860434600224FF00111C9
:1056D0002046009600F0B5F808B1032088E7F8B23C
:1056E00040F00100216808613346424606492046E1
:1056F00000F0E5F830B1206C042801D1012077E7F3
:10570000032075E7002073E7020001002DE9F8434C
:105710000446884615469946DDE908672068006812
:1057200040F4807021680860334600224FF0011178
:105730002046009700F085F810B10320BDE8F883FB
:1057400008F0FE00216808613B46324626492046A3
:1057500000F0B5F830B1206C042801D10120EDE74C
:105760000320EBE700BF0020009020684069009014
:1057700020688069009000BF00BF3A46314620464D
:1057800000F02AF960B1206C042807D12068006875
:1057900040F40070216808600120CFE70320CDE7C6
:1057A000B9F1010F03D1E8B22168086119E0C5F32E
:1057B0000720216808613A463146204600F00CF97E
:1057C00060B1206C042807D12068006840F40070A4
:1057D000216808600120B1E70320AFE7E8B2216843
:1057E00008610020AAE700000200010070B504462D
:1057F0000D4616461DE02046FFF7C9FD08B1012001
:1058000070BD681CA8B125B1FCF724F9801BA84223
:105810000FD9206C40F0200020640020206320205D
:1058200084F83D0000BF002084F83C0000BF032046
:10583000E6E720684069C0F380000028DBD0002044
:10584000DEE72DE9F04104460D4617461E46DDF819
:10585000188017E0701CA8B12EB1FCF7FBF8A0EB84
:105860000800B0420ED900202063202084F83D00BB
:10587000002084F83E0000BF84F83C0000BF0320F5
:10588000BDE8F081C5F3074001280AD120684069CE
:10589000A9B20840A9B2884201D101200BE0002042
:1058A00009E020688069A9B20840A9B2884201D104
:1058B000012000E00020B842CCD00020E0E72DE934
:1058C000F04104460D4616461F4631E02068406907
:1058D000C0F38020C0B12068006840F400702168E7
:1058E00008606FF480602168486104202064002013
:1058F0002063202084F83D0000BF002084F83C0095
:1059000000BF0120BDE8F081701C88B126B1FCF712
:10591000A1F8C01BB0420BD900202063202084F8DE
:105920003D0000BF002084F83C0000BF0320E9E7F1
:10593000C5F3074001280AD120684069A9B2084090
:10594000A9B2884201D101200BE0002009E02068C3
:105950008069A9B20840A9B2884201D1012000E0C3
:1059600000200028B2D00020CCE770B504460D46D8
:10597000164629E020684069C0F3001080B16FF03E
:10598000100021684861002020642063202084F8F2
:105990003D0000BF002084F83C0000BF012070BD26
:1059A00025B1FCF757F8801BA8420DD9206C40F0B8
:1059B00020002064202084F83D0000BF002084F8EF
:1059C0003C0000BF0320EAE720684069C0F3801074
:1059D0000028CFD00020E2E770B504460D461646F9
:1059E0001DE02046FFF7D3FC08B1012070BD681C04
:1059F000A8B125B1FCF72EF8801BA8420FD9206C66
:105A000040F02000206400202063202084F83D0026
:105A100000BF002084F83C0000BF0320E6E72068B8
:105A20004069C0F3C0100028DBD00020DEE7000092
:105A300010B580210348FBF7FFFF08B9002010BD17
:105A40000120FCE7000C02400120704710B5042142
:105A50000348FBF7F1FF08B9002010BD0120FCE767
:105A6000001C024010B501210448FBF7E5FF0128A6
:105A700001D1002010BD0120FCE700000000024021
:105A800000B587B0142102A8FAF792FC00BF0020ED
:105A90000190FE48006840F00400FC490860084698
:105AA000006800F00400019000BF00BF00BF0020AC
:105AB00001900846006840F0010008600846006850
:105AC00000F00100019000BF00BF00BF0020019066
:105AD0000846006840F0020008600846006800F0D0
:105AE0000200019000BF00BF8020029001200390BF
:105AF00004900320059002A9E548FBF78FFE3020B3
:105B0000029002A9E348FBF789FE0120029002A956
:105B1000E148FBF783FE01228021DD48FBF794FF7B
:105B200002200DF06DF900228021D948FBF78CFF8F
:105B300002200DF065F901228021D548FBF784FF92
:105B400014200DF05DF94FF4704003F04FFA55202A
:105B500003F06EFA4FF2010003F048FAAA2003F0B6
:105B600067FA4FF2020003F041FA522003F060FAA4
:105B70004FF2030003F03AFA082003F059FA4FF20B
:105B8000040003F033FA012003F052FA4FF43040DE
:105B900003F02CFA0D2003F04BFA4BF2010003F056
:105BA00025FA0D2003F044FA4BF2020003F01EFA2E
:105BB0000D2003F03DFA4FF4364003F017FA34207D
:105BC00003F036FA4BF2016003F010FA342003F0D0
:105BD0002FFA4BF2026003F009FA342003F028FA9E
:105BE0004FF4314003F002FA0D2003F021FA4BF29A
:105BF000011003F0FBF90D2003F01AFA4BF202102A
:105C000003F0F4F90D2003F013FA4FF4374003F0DA
:105C1000EDF9342003F00CFA4BF2017003F0E6F9D1
:105C2000342003F005FA4BF2027003F0DFF9342060
:105C300003F0FEF94FF4324003F0D8F9002003F0EE
:105C4000F7F94BF2012003F0D1F9002003F0F0F94D
:105C50004BF2022003F0CAF9002003F0E9F94FF4F7
:105C6000384003F0C3F9242003F0E2F94BF60100B9
:105C700003F0BCF9242003F0DBF94BF6020003F03B
:105C8000B5F9242003F0D4F94FF43F4003F0AEF906
:105C9000012003F0CDF94FF4334003F0A7F90F20B2
:105CA00003F0C6F94BF2013003F0A0F90F2003F026
:105CB000BFF94BF2023003F099F90F2003F0B8F965
:105CC0004FF4394003F092F9342003F0B1F94BF668
:105CD000011003F08BF9342003F0AAF94BF60210FF
:105CE00003F084F9342003F0A3F94FF4354003F0B6
:105CF0007DF9082003F09CF94BF2015003F076F98E
:105D0000082003F095F94BF2025003F06FF90820D8
:105D100003F08EF94FF4424003F068F9032003F0DA
:105D200087F94FF43A4003F061F9242003F080F939
:105D30004BF6012003F05AF9242003F079F94BF6D1
:105D4000022003F053F9242003F072F94FF43C4091
:105D500003F04CF9002003F06BF94BF6014003F01F
:105D600045F9782003F064F94BF6024003F03EF960
:105D7000002003F05DF94FF43D4003F037F90020B7
:105D800003F056F94BF6015003F030F9782003F098
:105D90004FF94BF6025003F029F9002003F048F9BF
:105DA0004FF43E4003F022F9002003F041F94BF696
:105DB000016003F01BF9642003F03AF94FF45140FD
:105DC00003F014F9002003F033F94DF2011003F051
:105DD0000DF9332003F02CF94DF2021003F006F90F
:105DE000002003F025F94DF2031003F0FFF83420F2
:105DF00003F01EF94DF2041003F0F8F8002003F050
:105E000017F94DF2051003F0F1F83A2003F010F9FC
:105E10004DF2061003F0EAF8002003F009F94DF204
:105E2000071003F0E3F84A2003F002F94DF20810DE
:105E300003F0DCF8002003F0FBF84DF2091003F04A
:105E4000D5F85C2003F0F4F84DF20A1003F0CEF818
:105E5000002003F0EDF84DF20B1003F0C7F881209D
:105E600003F0E6F84DF20C1003F0C0F8002003F048
:105E7000DFF84DF20D1003F0B9F8A62003F0D8F8C2
:105E80004DF20E1003F0B2F8002007E03038024067
:105E900000000240000802400004024003F0C8F87D
:105EA0004DF20F1003F0A2F8E52003F0C1F84DF217
:105EB000101003F09BF8012003F0BAF84DF2111016
:105EC00003F094F8132003F0B3F84DF2121003F02E
:105ED0008DF8012003F0ACF84DF2131003F086F8B2
:105EE000542003F0A5F84DF2141003F07FF80120C0
:105EF00003F09EF84DF2151003F078F8822003F0BD
:105F000097F84DF2161003F071F8012003F090F8A5
:105F10004DF2171003F06AF8CA2003F089F84DF229
:105F2000181003F063F8022003F082F84DF2191004
:105F300003F05CF8002003F07BF84DF21A1003F038
:105F400055F8022003F074F84DF21B1003F04EF8E0
:105F5000012003F06DF84DF21C1003F047F8022009
:105F600003F066F84DF21D1003F040F8342003F002
:105F70005FF84DF21E1003F039F8022003F058F8D4
:105F80004DF21F1003F032F8672003F051F84DF284
:105F9000201003F02BF8022003F04AF84DF22110F4
:105FA00003F024F8842003F043F84DF2221003F0AC
:105FB0001DF8022003F03CF84DF2231003F016F810
:105FC000A42003F035F84DF2241003F00FF802205E
:105FD00003F02EF84DF2251003F008F8B72003F077
:105FE00027F84DF2261003F001F8022003F020F804
:105FF0004DF2271002F0FAFFCF2003F019F84DF20E
:10600000281002F0F3FF022003F012F84DF22910DD
:1060100002F0ECFFDE2003F00BF84DF22A1002F044
:10602000E5FF022003F004F84DF22B1002F0DEFF32
:10603000F22002F0FDFF4DF22C1002F0D7FF0220FB
:1060400002F0F6FF4DF22D1002F0D0FFFE2002F01C
:10605000EFFF4DF22E1002F0C9FF032002F0E8FF1F
:106060004DF22F1002F0C2FF102002F0E1FF4DF2BE
:10607000301002F0BBFF032002F0DAFF4DF23110C6
:1060800002F0B4FF332002F0D3FF4DF2321002F0E1
:10609000ADFF032002F0CCFF4DF2331002F0A6FF5B
:1060A0006D2002F0C5FF4FF4524002F09FFF002028
:1060B00002F0BEFF4DF2012002F098FF332002F003
:1060C000B7FF4DF2022002F091FF002002F0B0FF76
:1060D0004DF2032002F08AFF342002F0A9FF4DF2B6
:1060E000042002F083FF002002F0A2FF4DF2052001
:1060F00002F07CFF3A2002F09BFF4DF2062002F0F6
:1061000075FF002002F094FF4DF2072002F06EFFB1
:106110004A2002F08DFF4DF2082002F067FF0020B8
:1061200002F086FF4DF2092002F060FF5C2002F0D1
:106130007FFF4DF20A2002F059FF002002F078FFA5
:106140004DF20B2002F052FF812002F071FF4DF260
:106150000C2002F04BFF002002F06AFF4DF20D20F0
:1061600002F044FFA62002F063FF4DF20E2002F081
:106170003DFF002002F05CFF4DF20F2002F036FFE1
:10618000E52002F055FF4DF2102002F02FFF012014
:1061900002F04EFF4DF2112002F028FF132002F012
:1061A00047FF4DF2122002F021FF012002F040FFD4
:1061B0004DF2132002F01AFF542002F039FF4DF285
:1061C000142002F013FF012002F032FF4DF21520DF
:1061D00002F00CFF822002F02BFF4DF2162002F09D
:1061E00005FF012002F024FF4DF2172002F0FEFE11
:1061F000CA2002F01DFF4DF2182002F0F7FE022027
:1062000002F016FF4DF2192002F0F0FE002002F01D
:106210000FFF4DF21A2002F0E9FE022002F008FF03
:106220004DF21B2002F0E2FE012002F001FF4DF2D0
:106230001C2002F0DBFE022002F0FAFE4DF21D20CF
:1062400002F0D4FE342002F0F3FE4DF21E2002F0E4
:10625000CDFE022002F0ECFE4DF21F2002F0C6FE41
:10626000672002F0E5FE4DF2202002F0BFFE022082
:1062700002F0DEFE4DF2212002F0B8FE842002F092
:10628000D7FE4DF2222002F0B1FE022002F0D0FE35
:106290004DF2232002F0AAFEA42002F0C9FE4DF226
:1062A000242002F0A3FE022002F0C2FE4DF22520BF
:1062B00002F09CFEB72002F0BBFE4DF2262002F059
:1062C00095FE022002F0B4FE4DF2272002F08EFE71
:1062D000CF2002F0ADFE4DF2282002F087FE022012
:1062E00002F0A6FE4DF2292002F080FEDE2002F030
:1062F0009FFE4DF22A2002F079FE022002F098FE65
:106300004DF22B2002F072FEF22002F091FE4DF2CF
:106310002C2002F06BFE022002F08AFE4DF22D20AE
:1063200002F064FEFE2002F083FE4DF22E2002F009
:106330005DFE032002F07CFE4DF22F2002F056FE9F
:10634000102002F075FE4DF2302002F04FFE0320C7
:1063500002F06EFE4DF2312002F048FE332002F0D2
:1063600067FE4DF2322002F041FE032002F060FE93
:106370004DF2332002F03AFE6D2002F059FE4FF448
:10638000534002F033FE002002F052FE4DF2013085
:1063900002F02CFE332002F04BFE4DF2023002F0F0
:1063A00025FE002002F044FE4DF2033002F01EFEF6
:1063B000342002F03DFE4DF2043002F017FE0020C2
:1063C00002F036FE4DF2053002F010FE3A2002F0E7
:1063D0002FFE4DF2063002F009FE002002F028FEEA
:1063E0004DF2073002F002FE4A2002F021FE4DF28B
:1063F000083002F0FBFD002002F01AFE4DF20930D9
:1064000002F0F4FD5C2002F013FE4DF20A3002F0BF
:10641000EDFD002002F00CFE4DF20B3002F0E6FD27
:10642000812002F005FE4DF20C3002F0DFFD00206D
:1064300002F0FEFD4DF20D3002F0D8FDA62002F074
:10644000F7FD4DF20E3002F0D1FD002002F0F0FD1C
:106450004DF20F3002F0CAFDE52002F0E9FD4DF2E9
:10646000103002F0C3FD012002F0E2FD4DF21130C8
:1064700002F0BCFD132002F0DBFD4DF2123002F001
:10648000B5FD012002F0D4FD4DF2133002F0AEFD57
:10649000542002F0CDFD4DF2143002F0A7FD012092
:1064A00002F0C6FD4DF2153002F0A0FD822002F090
:1064B000BFFD4DF2163002F099FD012002F0B8FD4B
:1064C0004DF2173002F092FDCA2002F0B1FD4DF2FC
:1064D000183002F08BFD022002F0AAFD4DF21930B7
:1064E00002F084FD002002F0A3FD4DF21A3002F00C
:1064F0007DFD022002F09CFD4DF21B3002F076FD86
:10650000012002F095FD4DF21C3002F06FFD0220DB
:1065100002F08EFD4DF21D3002F068FD342002F0D5
:1065200087FD4DF21E3002F061FD022002F080FD79
:106530004DF21F3002F05AFD672002F079FD4DF256
:10654000203002F053FD022002F072FD4DF22130A6
:1065500002F04CFD842002F06BFD4DF2223002F07F
:1065600045FD022002F064FD4DF2233002F03EFDB5
:10657000A42002F05DFD4DF2243002F037FD022030
:1065800002F056FD4DF2253002F030FDB72002F04A
:106590004FFD4DF2263002F029FD022002F048FDA9
:1065A0004DF2273002F022FDCF2002F041FD4DF2E6
:1065B000283002F01BFD022002F03AFD4DF2293096
:1065C00002F014FDDE2002F033FD4DF22A3002F01D
:1065D0000DFD022002F02CFD4DF22B3002F006FDE5
:1065E000F22002F025FD4DF22C3002F0FFFC0220DB
:1065F00002F01EFD4DF22D3002F0F8FCFE2002F0FC
:1066000017FD4DF22E3002F0F1FC032002F010FDD8
:106610004DF22F3002F0EAFC102002F009FD4DF29D
:10662000303002F0E3FC032002F002FD4DF2313085
:1066300002F0DCFC332002F0FBFC4DF2323002F0C1
:10664000D5FC032002F0F4FC4DF2333002F0CEFC16
:106650006D2002F0EDFC4FF4544002F0C7FC002026
:1066600002F0E6FC4DF2014002F0C0FC332002F0E3
:10667000DFFC4DF2024002F0B9FC002002F0D8FC31
:106680004DF2034002F0B2FC342002F0D1FC4DF296
:10669000044002F0ABFC002002F0CAFC4DF20540C1
:1066A00002F0A4FC3A2002F0C3FC4DF2064002F0D6
:1066B0009DFC002002F0BCFC4DF2074002F096FC6D
:1066C0004A2002F0B5FC4DF2084002F08FFC002099
:1066D00002F0AEFC4DF2094002F088FC5C2002F0B2
:1066E000A7FC4DF20A4002F081FC002002F0A0FC61
:1066F0004DF20B4002F07AFC812002F099FC4DF241
:106700000C4002F073FC002002F092FC4DF20D40B0
:1067100002F06CFCA62002F08BFC4DF20E4002F061
:1067200065FC002002F084FC4DF20F4002F05EFC9C
:10673000E52002F07DFC4DF2104002F057FC0120F4
:1067400002F076FC4DF2114002F050FC132002F0F2
:106750006FFC4DF2124002F049FC012002F068FC8F
:106760004DF2134002F042FC542002F061FC4DF265
:10677000144002F03BFC012002F05AFC4DF215409F
:1067800002F034FC822002F053FC4DF2164002F07D
:106790002DFC012002F04CFC4DF2174002F026FCCB
:1067A000CA2002F045FC4DF2184002F01FFC022006
:1067B00002F03EFC4DF2194002F018FC002002F0FD
:1067C00037FC4DF21A4002F011FC022002F030FCBE
:1067D0004DF21B4002F00AFC012002F029FC4DF2B0
:1067E0001C4002F003FC022002F022FC4DF21D408E
:1067F00002F0FCFB342002F01BFC4DF21E4002F0C4
:10680000F5FB022002F014FC4DF21F4002F0EEFBFB
:10681000672002F00DFC4DF2204002F0E7FB022061
:1068200002F006FC4DF2214002F0E0FB842002F071
:10683000FFFB4DF2224002F0D9FB022002F0F8FBF0
:106840004DF2234002F0D2FBA42002F0F1FB4DF206
:10685000244002F0CBFB022002F0EAFB4DF225407F
:1068600002F0C4FBB72002F0E3FB4DF2264002F039
:10687000BDFB022002F0DCFB4DF2274002F0B6FB2C
:10688000CF2002F0D5FB4DF2284002F0AFFB0220F2
:1068900002F0CEFB4DF2294002F0A8FBDE2002F010
:1068A000C7FB4DF22A4002F0A1FB022002F0C0FB20
:1068B0004DF22B4002F09AFBF22002F0B9FB4DF2B0
:1068C0002C4002F093FB022002F0B2FB4DF22D406F
:1068D00002F08CFBFE2002F0ABFB4DF22E4002F0EA
:1068E00085FB032002F0A4FB4DF22F4002F07EFB5B
:1068F000102002F09DFB4DF2304002F077FB0320A8
:1069000002F096FB4DF2314002F070FB332002F0B2
:106910008FFB4DF2324002F069FB032002F088FB4E
:106920004DF2334002F062FB6D2002F081FB4FF428
:10693000554002F05BFB002002F07AFB4DF2015063
:1069400002F054FB332002F073FB4DF2025002F0D0
:106950004DFB002002F06CFB4DF2035002F046FBB1
:10696000332002F065FB4DF2045002F03FFB0020A3
:1069700002F05EFB4DF2055002F038FB3A2002F0C7
:1069800057FB4DF2065002F031FB002002F050FBA5
:106990004DF2075002F02AFB4A2002F049FB4DF26B
:1069A000085002F023FB002002F042FB4DF2095098
:1069B00002F01CFB5C2002F03BFB4DF20A5002F09F
:1069C00015FB002002F034FB4DF20B5002F00EFBE1
:1069D000812002F02DFB4DF20C5002F007FB00204D
:1069E00002F026FB4DF20D5002F000FBA62002F053
:1069F0001FFB4DF20E5002F0F9FA002002F018FBD6
:106A00004DF20F5002F0F2FAE52002F011FB4DF2C8
:106A1000105002F0EBFA012002F00AFB4DF2115087
:106A200002F0E4FA132002F003FB4DF2125002F0E0
:106A3000DDFA012002F0FCFA4DF2135002F0D6FA12
:106A4000542002F0F5FA4DF2145002F0CFFA012072
:106A500002F0EEFA4DF2155002F0C8FA822002F070
:106A6000E7FA4DF2165002F0C1FA012002F0E0FA06
:106A70004DF2175002F0BAFACA2002F0D9FA4DF2DC
:106A8000185002F0B3FA022002F0D2FA4DF2195077
:106A900002F0ACFA002002F0CBFA4DF21A5002F0EC
:106AA000A5FA022002F0C4FA4DF21B5002F09EFA41
:106AB000012002F0BDFA4DF21C5002F097FA0220BC
:106AC00002F0B6FA4DF21D5002F090FA342002F0B6
:106AD000AFFA4DF21E5002F089FA022002F0A8FA35
:106AE0004DF21F5002F082FA672002F0A1FA4DF237
:106AF000205002F07BFA022002F09AFA4DF2215067
:106B000002F074FA842002F093FA4DF2225002F05F
:106B10006DFA022002F08CFA4DF2235002F066FA70
:106B2000A42002F085FA4DF2245002F05FFA022010
:106B300002F07EFA4DF2255002F058FAB72002F02A
:106B400077FA4DF2265002F051FA022002F070FA64
:106B50004DF2275002F04AFACF2002F069FA4DF2C6
:106B6000285002F043FA022002F062FA4DF2295056
:106B700002F03CFADE2002F05BFA4DF22A5002F0FD
:106B800035FA022002F054FA4DF22B5002F02EFAA0
:106B9000F22002F04DFA4DF22C5002F027FA0220BA
:106BA00002F046FA4DF22D5002F020FAFE2002F0DB
:106BB0003FFA4DF22E5002F019FA032002F038FA93
:106BC0004DF22F5002F012FA102002F031FA4DF27D
:106BD000305002F00BFA032002F02AFA4DF2315045
:106BE00002F004FA332002F023FA4DF2325002F0A0
:106BF000FDF9032002F01CFA4DF2335002F0F6F9D1
:106C00006D2002F015FA4FF4564002F0EFF9002023
:106C100002F00EFA4DF2016002F0E8F9332002F0C2
:106C200007FA4DF2026002F0E1F9002002F000FAEA
:106C30004DF2036002F0DAF9342002F0F9F94DF276
:106C4000046002F0D3F9002002F0F2F94DF2056081
:106C500002F0CCF93A2002F0EBF94DF2066002F0B6
:106C6000C5F9002002F0E4F94DF2076002F0BEF928
:106C70004A2002F0DDF94DF2086002F0B7F9002079
:106C800002F0D6F94DF2096002F0B0F95C2002F092
:106C9000CFF94DF20A6002F0A9F9002002F0C8F91C
:106CA0004DF20B6002F0A2F9812002F0C1F94DF221
:106CB0000C6002F09BF9002002F0BAF94DF20D6071
:106CC00002F094F9A62002F0B3F94DF20E6002F042
:106CD0008DF9002002F0ACF94DF20F6002F086F958
:106CE000E52002F0A5F94DF2106002F07FF90120D5
:106CF00002F09EF94DF2116002F078F9132002F0D3
:106D000097F94DF2126002F071F9012002F090F94A
:106D10004DF2136002F06AF9542002F089F94DF245
:106D2000146002F063F9012002F082F94DF215605F
:106D300002F05CF9822002F07BF94DF2166002F05D
:106D400055F9012002F074F94DF2176002F04EF986
:106D5000CA2002F06DF94DF2186002F047F90220E6
:106D600002F066F94DF2196002F040F9002002F0DD
:106D70005FF94DF21A6002F039F9022002F058F979
:106D80004DF21B6002F032F9012002F051F94DF290
:106D90001C6002F02BF9022002F04AF94DF21D604E
:106DA00002F024F9342002F043F94DF21E6002F0A3
:106DB0001DF9022002F03CF94DF21F6002F016F9B5
:106DC000672002F035F94DF2206002F00FF9022041
:106DD00002F02EF94DF2216002F008F9842002F051
:106DE00027F94DF2226002F001F9022002F020F9A9
:106DF0004DF2236002F0FAF8A42002F019F94DF2E6
:106E0000246002F0F3F8022002F012F94DF225603E
:106E100002F0ECF8B72002F00BF94DF2266002F018
:106E2000E5F8022002F004F94DF2276002F0DEF8E6
:106E3000CF2002F0FDF84DF2286002F0D7F80220D2
:106E400002F0F6F84DF2296002F0D0F8DE2002F0F0
:106E5000EFF84DF22A6002F0C9F8022002F0E8F8DB
:106E60004DF22B6002F0C2F8F22002F0E1F84DF290
:106E70002C6002F0BBF8022002F0DAF84DF22D602F
:106E800002F0B4F8FE2002F0D3F84DF22E6002F0CA
:106E9000ADF8032002F0CCF84DF22F6002F0A6F816
:106EA000102002F0C5F84DF2306002F09FF8032088
:106EB00002F0BEF84DF2316002F098F8332002F093
:106EC000B7F84DF2326002F091F8032002F0B0F80A
:106ED0004DF2336002F08AF86D2002F0A9F84FF409
:106EE000704002F083F8552002F0A2F84FF2010042
:106EF00002F07CF8AA2002F09BF84FF2020002F0A8
:106F000075F8522002F094F84FF2030002F06EF888
:106F1000082002F08DF84FF2040002F067F800201C
:106F200002F086F84FF4334002F060F8002002F0DF
:106F30007FF84FF4354002F059F8502002F078F80D
:106F40004FF4314002F052F8CC2002F071F84BF2CD
:106F5000011002F04BF8002002F06AF84FF43640BE
:106F600002F044F8052002F063F84FF4374002F0D5
:106F70003DF8702002F05CF84BF2017002F036F838
:106F8000702002F055F84FF4384002F02FF801203D
:106F900002F04EF84BF6010002F028F8032002F050
:106FA00047F84BF6020002F021F8032002F040F807
:106FB0004BF6030002F01AF8032002F039F84FF400
:106FC0003C4002F013F8022002F032F84BF6014088
:106FD00002F00CF8002002F02BF84BF6024002F011
:106FE00005F8002002F024F84FF4494001F0FEFFBC
:106FF000D02002F01DF84CF6011001F0F7FF02203E
:1070000002F016F84CF6021001F0F0FF502002F0EA
:107010000FF84CF6031001F0E9FF502002F008F8D9
:107020004CF6041001F0E2FF502002F001F84FF49A
:10703000585001F0DBFF002001F0FAFF4FF45450EC
:1070400001F0D4FF002001F0F3FF4FF4685001F08D
:10705000CDFF552001F0ECFF4FF4885001F0C6FF42
:1070600078200BF0CDFE4FF4245001F0BFFF0A2032
:107070000BF0C6FE4FF4305001F0B8FF07B000BD72
:10708000F0B50023002400258E880768FF68C7F349
:107090000B473E44330406688436802707FB0266AC
:1070A000766806F47047066884364FF0800C0CFB57
:1070B000026677600E680768FF68C7F30B473E44B7
:1070C000761C1E43076884370CFB02777E608E892E
:1070D0000768FF68C7F30A073E443304066884362E
:1070E000802707FB0266B66806F470470668843698
:1070F0000CFB0266B7608E680768FF68C7F30A0773
:107100003E44761C1E43076884370CFB0277BE6042
:1071100006688436802707FB0266366926F0070773
:10712000066884360CFB026637610F690668843690
:107130000CFB026637613126765C33023226765CC0
:1071400034040E7E350606688436802707FB026607
:10715000B6690027066884360CFB0266B76191F8B1
:1071600030601E4326432E43076884370CFB0277AA
:10717000BE6106688436802707FB0266766926F0C2
:10718000FF07066884360CFB026677614F69066864
:1071900084360CFB0266776106688436802707FB1D
:1071A0000266F76940F20776B743066884360CFB3F
:1071B0000266F761D1E907673E43076884370CFB35
:1071C0000277FE6106688436802707FB0266B66A8E
:1071D0000027066884360CFB0266B7624F6A0668B1
:1071E00084360CFB0266B7620E690EB9042313E005
:1071F0000E69012E01D103230EE00E69042E08D082
:107200000E69022E05D00E69032E02D00E69072EDC
:1072100001D1022300E0012306688436802707FBA2
:107220000266F66A06F0E027066884364FF0800CA6
:107230000CFB0266F762D1E90076F61B5E43F71C91
:107240000E8D5E4347EA0647066884360CFB0266ED
:10725000F76206688436802707FB0266366BF70AFA
:10726000FF02066884360CFB02663763CF6A066845
:1072700084360CFB0266376306688436D701F659FC
:1072800046F00107066884364FEAC21C46F80C70C7
:10729000F0BD00BFFEE7704702480068C0F302205F
:1072A000704700000CED00E010B5002807DA0A076F
:1072B000140E054A00F00F031B1FD45403E00A0705
:1072C000130E024A135410BD18ED00E000E400E074
:1072D000014600BF080900EB8000420001F00F00EA
:1072E0001044C0B270470146002203E0521CA1F1D5
:1072F0000A00C1B20A29F9D2100741EA10607047AA
:1073000070B5044600252068C06800F04000A0B9B0
:10731000681E2168C860FAF79DFB054607E0FAF78A
:1073200099FB401BB0F57A7F01D9032070BD20681E
:10733000C06800F040000028F1D00020F6E710B54A
:10734000024600230868506248689062D1E902044E
:1073500020430C6920434C6920430343D06A20F04A
:10736000F7001843D062002010BD01460869C0B282
:1073700070470146086800F00300704708B50246F0
:107380000020009002F1140008440090009800686A
:1073900008BD000010B50248FCF790FD10BD0000CC
:1073A000EC8A00200FB410B504460021DDE9030289
:1073B0001043059A1043069A1043079A1043089AFF
:1073C00010430143606847F6FF62904308436060E2
:1073D000002010BC5DF814FB01460320086000206B
:1073E00070470146D1F88000704710B5024600236F
:1073F00008689060D1E901042043CC6820430C69FF
:1074000020430343D0686FF30B001843D060002083
:1074100010BD02460868C2F880000020704770B5B1
:1074200086B005460C460026019437200290402085
:107430000390002004904FF48060059001A9284635
:10744000FFF7D3FF41F288323721284600F0EAF9EE
:107450000646304606B070BD70B586B005460C468F
:1074600000260B48204301902920029040200390E1
:10747000002004904FF48060059001A92846FFF792
:10748000B4FF284600F0CEFA0646304606B070BD7E
:107490000000108070B586B005460C4600260194A9
:1074A0001020029040200390002004904FF4806050
:1074B000059001A92846FFF798FF41F28832102174
:1074C000284600F0AFF90646304606B070BD70B5EC
:1074D00086B005460C460026019406200290402006
:1074E0000390002004904FF48060059001A9284685
:1074F000FFF77BFF41F288320621284600F092F91F
:107500000646304606B070BD30B585B0044600254D
:10751000002000900190029003904FF4806004904E
:1075200069462046FFF761FF204600F05BF90546FB
:10753000284605B030BD30B585B0044600254FF46F
:10754000D570009008200190402002900020039008
:107550004FF48060049069462046FFF746FF2046BE
:1075600000F0E0FA0546284605B030BD70B586B09B
:1075700005460C46002601941220029040200390FC
:10758000002004904FF48060059001A92846FFF781
:107590002CFF41F288321221284600F043F90646BA
:1075A000304606B070BD70B586B005460C46002664
:1075B00001941120029040200390002004904FF489
:1075C0008060059001A92846FFF70FFF41F288323D
:1075D0001121284600F026F90646304606B070BD57
:1075E000F0B585B0064614461D46002700940720D6
:1075F000019040200290002003904FF4806004909E
:1076000069463046FFF7F1FE41F2883207213046E5
:1076100000F008F90746384605B0F0BD30B585B032
:10762000044600250020009002200190C020029016
:10763000002003904FF48060049069462046FFF7D5
:10764000D4FE204600F0C0F90546284605B030BDFE
:1076500070B586B005460C460026019409200290BC
:10766000C0200390002004904FF48060059001A991
:107670002846FFF7BAFE284600F0A6F9064630462F
:1076800006B070BD30B585B00446002500200090DE
:107690003320019040200290002003904FF480603E
:1076A000049069462046FFF7A0FE41F2883233215C
:1076B000204600F0B7F80546284605B030BD70B545
:1076C00086B005460C46002601940D20029040200D
:1076D0000390002004904FF48060059001A9284693
:1076E000FFF783FE41F288320D21284600F09AF818
:1076F0000646304606B070BD70B586B005460C46ED
:1077000000260020019003200290402003900020DA
:1077100004904FF48060059001A92846FFF765FEAC
:1077200022460321284600F0A5F90646304606B059
:1077300070BD000030B585B00446002500200090E3
:107740000C20019040200290002003904FF48060B4
:10775000049069462046FFF748FE044A0C21204663
:1077600000F060F80546284605B030BD00E1F5059B
:1077700070B586B005460C4600260194192002908B
:1077800040200390002004904FF48060059001A9F0
:107790002846FFF72AFE41F288321921284600F0D8
:1077A00041F80646304606B070BD70B586B0054655
:1077B0000C460026019418200290402003900020DF
:1077C00004904FF48060059001A92846FFF70DFE54
:1077D00041F288321821284600F024F80646304647
:1077E00006B070BD01460E480068C0084FF47A73B9
:1077F000B0FBF3F041F2883300FB03F200BF101E30
:10780000A2F1010202D14FF000407047486B00F036
:1078100080000028F3D040F2FF5088630020F4E796
:107820009C0000202DE9F04105460E4617466448AD
:107830000068C0084FF47A71B0FBF1F000FB07F864
:1078400000BFB8F10000A8F1010803D14FF00040DB
:10785000BDE8F081686B00F045000028F1D0686B4E
:1078600000F0040010B10420A863F1E7686B00F099
:10787000010010B10120A863EAE72846FFF775FD73
:10788000B04201D00120E3E740F2FF50A86300219D
:107890002846FFF773FD04464A48204008B90020F7
:1078A000D6E704F00040B0F1004F02D14FF0007075
:1078B000CEE704F08040B0F1804F01D14020C7E70F
:1078C00004F00050B0F1005F01D18020C0E704F067
:1078D0008050B0F1805F02D14FF48070B8E704F0BF
:1078E0000060B0F1006F02D14FF40070B0E704F017
:1078F0008060B0F1806F02D14FF48060A8E704F09F
:107900008070B0F1807F02D14FF40060A0E704F4F2
:107910000000B0F5000F02D14FF4805098E704F456
:107920008000B0F5800F02D14FF4005090E704F4CE
:107930000010B0F5001F02D14FF4804088E704F436
:107940008010B0F5801F02D14FF4004080E704F4AE
:107950008020B0F5802F02D14FF4003078E704F496
:107960000030B0F5003F02D14FF4802070E704F4FE
:107970008030B0F5803F02D14FF4002068E704F476
:107980000040B0F5004F02D14FF4801060E704F4DE
:107990008040B0F5804F02D14FF4001058E704F456
:1079A0000050B0F5005F02D14FF4800050E704F0C2
:1079B0000800082801D100054AE74FF4803047E766
:1079C0009C00002008E0FFFD014615480068C00843
:1079D0004FF47A73B0FBF3F041F2883300FB03F20B
:1079E00000BF101EA2F1010202D14FF0004070470B
:1079F000486B00F045000028F3D0486B00F004000D
:107A000010B104208863F2E7486B00F0010010B168
:107A100001208863EBE740F2FF5088630020E6E72F
:107A20009C000020014612480068C0084FF47A7399
:107A3000B0FBF3F041F2883300FB03F200BF101EED
:107A4000A2F1010202D14FF000407047486B00F0F4
:107A500045000028F3D0486B00F0040010B104206A
:107A60008863F2E740F2FF5088630020EDE70000F2
:107A70009C0000202DE9F04104460E461746284898
:107A80000068C0084FF47A71B0FBF1F041F2883120
:107A900000FB01F800BFB8F10000A8F1010803D114
:107AA0004FF00040BDE8F081606B00F04500002819
:107AB000F1D0606B00F0040010B10420A063F1E786
:107AC000606B00F0010010B10120A063EAE72046DE
:107AD000FFF74BFCB04201D00120E3E740F2FF503A
:107AE000A06300212046FFF749FC054605F46040ED
:107AF00018B9280C38800020D4E705F48040B0F590
:107B0000804F02D14FF40050CCE705F40040B0F5AF
:107B1000004F02D14FF48050C4E74FF48030C1E7EA
:107B20009C000020014614480068C0084FF47A7396
:107B3000B0FBF3F041F2883300FB03F200BF101EEC
:107B4000A2F1010202D14FF000407047486B00F0F3
:107B500045000028F3D0486B00F0040018B1402025
:107B600088630420F1E7486B00F0400008B1402032
:107B700088630020E9E700009C00002010B586B073
:107B80000446002005900120019010200290012061
:107B90000390002004904FF4805201A92046FBF787
:107BA000F7FF6420F9F70EFE0220019010200290EA
:107BB00001200390002004904FF4805201A9204638
:107BC000FBF7E6FF032001901020029008200390AD
:107BD000002004904FF4805201A92046FBF7D8FF03
:107BE00040F23120059004200190102002900120E5
:107BF0000390059804904FF4805201A92046FBF7AA
:107C0000C7FF40F2AB212046FBF7AEFF06B010BD28
:107C100010B50446012007490870F8F793FE28B90B
:107C20000448007820F001000249087001480078FB
:107C300010BD0000800F002070B50446F9F70AFF60
:107C4000054604E0F8F77EFE08B9002070BDF9F79C
:107C500001FF401BA042F5D34FF0FF30F6E770B5AF
:107C60000646B46BE06B406D012803D0206C406D7C
:107C700001281ED140F2FF50216888632068C06B44
:107C800020F49D702168C863A06B40F08040A06321
:107C90002046FCF7FFF80546062D01D0052D05D13D
:107CA0002068FFF747FDA16B0843A063012084F81B
:107CB00034002046FBF7E2FF70BD70B50546AC6BA3
:107CC0000026206B82280AD12068FFF733FD064684
:107CD0002EB1A06B3043A0632046FBF7CFFF206896
:107CE000C06A20F008002168C86240F2FF50216895
:107CF0008863012084F834002046FCF7B5FB70BD92
:107D000070B50646B46BE06B08B10020E063206CF0
:107D1000D8B92046FCF7BEF805460020A063012034
:107D200084F83400062D01D0052D0ED12068FFF710
:107D300001FDA16B0843A063A06B18B12046FBF7BF
:107D400044FF02E02046FBF799FF70BD0146886BB7
:107D50000268D26B42F480720368DA63704770B5D0
:107D60000646B46B206C08B100202064E06BD8B9E3
:107D70002046FCF78FF805460020A063012084F818
:107D80003400062D01D0052D0ED12068FFF7D2FC5E
:107D9000A16B0843A063A06B18B12046FBF715FF49
:107DA00002E02046FBF76AFF70BD2DE9F04188B084
:107DB00004460E460025F9F74DFE804600270020B8
:107DC0000090019008212068FFF764FB05461DB173
:107DD000284608B0BDE8F0815022125B11042068EB
:107DE000FFF71DFB05460DB12846F2E74FF0FF30C7
:107DF000029008200390302004900220059000207B
:107E000006900120079002A92068FFF798FA2068E1
:107E1000FFF738FC05460DB12846DAE713E0206885
:107E2000406B00F4001028B12068FFF7DAFA4DF833
:107E300027007F1CF9F70EFEA0EB0800401C10B9CC
:107E40004FF00040C5E72068406B40F22A410840EF
:107E50000028E4D02068406B00F0080018B108202A
:107E600021688863B5E72068406B00F0020018B114
:107E7000022021688863ACE72068406B00F0200096
:107E800018B1202021688863A3E740F2FF502168E1
:107E9000886300980006009901F47F4140EA0120C0
:107EA000009901F47F0140EA1120009940EA116035
:107EB000706001980006019901F47F4140EA0120B9
:107EC000019901F47F0140EA1120019940EA116013
:107ED000306000207DE730B58FB0044600250120DA
:107EE00003902068FFF745FA18B94FF080600FB093
:107EF00030BD606C03281BD02068FFF78FFB054660
:107F00000DB12846F3E700212068FFF737FA6067D4
:107F100004212068FFF732FAA06708212068FFF7E4
:107F20002DFAE0670C212068FFF728FA802108511C
:107F3000606C032807D003A92068FFF7DDFB054626
:107F40000DB12846D3E7606C032820D0BDF80C1093
:107F500021655022125B11042068FFF779FB05466A
:107F60000DB12846C3E700212068FFF707FA6066D5
:107F700004212068FFF702FAA06608212068FFF7B5
:107F8000FDF9E0660C212068FFF7F8F9206704216D
:107F90002068FFF7F3F9010DE16404A92046FBF71F
:107FA0006EFE5020005B01040A4600232068FFF7A4
:107FB00017FB05460DB1284699E7D4E90412A069DC
:107FC000CDE90012029094E80F00FFF7EBF90020D2
:107FD0008DE7F8B504460020009000260027002514
:107FE0002068FFF791FA05460DB12846F8BD2068D4
:107FF000FFF7A1FA05466DB30021A16425E00098C2
:10800000411C00914FF6FF71884202D14FF0807001
:10801000ECE700212068FFF702FA054615B14FF0A2
:108020008050E3E700212068FFF716FA054615B1F6
:108030004FF08050DAE700212068FFF79FF90646ED
:10804000012080EAD67080F00107002FD7D00020F1
:10805000606433E00121A16424E00098411C009198
:108060004FF6FF71884202D14FF08070BEE70021C9
:108070002068FFF7D4F905460DB12846B6E74FF062
:1080800080412068FFF7E8F905460DB12846ADE7C5
:1080900000212068FFF772F90646012080EAD670B9
:1080A00080F00107002FD8D006F08040B0F1804F5B
:1080B00002D10120606401E000206064002095E7A7
:1080C00070B504460025A66A00BF05E02068FFF7EA
:1080D00088F946F825006D1C082DF7D3A06A2030DA
:1080E000A062002070BD70B504460D46002615B98B
:1080F0004FF0006070BD5022125B11042068FFF742
:10810000DEFA06460EB13046F4E700212068FFF79C
:1081100035F928600020EDE77CB50446002000908A
:108120000190002500212068FFF728F900F0007079
:10813000B0F1007F02D14FF400607CBD694620465B
:10814000FFF733FE05460DB12846F6E7019800F427
:10815000803098B15022125B11042068FFF75FF95C
:1081600005460DB12846E8E700212068FFF7AFF982
:1081700005460DB12846E0E70020DEE74FF08060BD
:10818000DBE77CB50446002000900190002500212B
:108190002068FFF7F3F800F00070B0F1007F02D123
:1081A0004FF400607CBD69462046FFF7FEFD0546A2
:1081B0000DB12846F6E7019800F4802098B15022CE
:1081C000125B11042068FFF72AF905460DB1284615
:1081D000E8E702212068FFF77AF905460DB1284645
:1081E000E0E70020DEE74FF08060DBE770B5044693
:1081F0000025266A00BF05E006EB85012068FFF731
:1082000008F96D1C082DF7D3206A20302062002069
:1082100070BD000010B50446F8F7A0FB20B9204659
:10822000FFF7F6FC024908700148007810BD000015
:10823000800F0020F0B589B007460D461446012690
:108240001648007800F0010010B1032009B0F0BD1D
:1082500035B1012D06D0022D0BD0032D18D10FE022
:10826000002617E001A8F8F763FB079820600026B6
:1082700010E001A8F8F75CFB08982080002609E0D0
:1082800001A8F8F755FB0898400A2060002601E095
:10829000042600BF00BF3046D8E70000800F002052
:1082A0002DE9F04180460C4615461E460127324610
:1082B00029462046F8F798FB07463846BDE8F08186
:1082C00010B504462046FFF7A3FC10BD2DE9F04190
:1082D00080460C4615461E46012732462946204652
:1082E000F8F71CFC07463846BDE8F08170B5044637
:1082F000002220211448F9F7A7FB002521E004F013
:10830000800028B1012211461048F9F79DFB04E0D6
:10831000002201210D48F9F797FB002220210A488D
:10832000F9F792FB01200AF0A1FD01222021064865
:10833000F9F78AFB01200AF099FD6006040E681C1B
:10834000C5B2082DDBDB70BD00080240000402400E
:10835000F8B504460D4616462B46002280212046DD
:10836000009600F009F828B1606D40F020006065CB
:108370000320F8BD0020FCE72DE9F04104460E463D
:1083800017461D46DDF818803FE0681CE0B32DB1AC
:10839000F9F760FBA0EB0800A84236D320684068DC
:1083A00020F0E000216848606068B0F5827F0DD160
:1083B000A068B0F5004F03D0A068B0F5806F05D17C
:1083C0002068006820F0400021680860A06AB0F5CD
:1083D000005F0ED100BF206800684DF6FF710840B5
:1083E000216808602068006840F400502168086037
:1083F00000BF012084F8510000BF002084F8500025
:1084000000BF0320BDE8F081FFE7206880683040AE
:10841000B04201D1012000E00020B842B5D10020D7
:10842000F0E7704710B530F08FFCFAF7F5F801204F
:108430002BF090FF31F07CFE30F0A4FC10BD00006A
:1084400000B5ABB030211FA8F7F7B2FF14211AA86E
:10845000F7F7AEFF30210EA8F7F7AAFF302102A8E8
:10846000F7F7A6FF00BF002001903448006840F0F5
:108470008050324908600846006800F08050019042
:1084800000BF00BF00BF002001902D48006840F4ED
:1084900040402B4908600846006800F440400190C5
:1084A00000BF00BF05201F904FF4803020900120B6
:1084B00021900220259041051FA8C1611921016268
:1084C0004FF4C0714162022181620821C162FAF752
:1084D0000BFE08B1F8F754FCFAF716FB08B1F8F7F1
:1084E0004FFC0F201A9002201B9000201C904FF48C
:1084F000A0501D904FF480501E9005211AA8FAF745
:10850000B5FC08B1F8F73CFC08200E9084201290CE
:1085100002211491002017900EA8FAF73BFB08B136
:10852000F8F72EFC20200290C0000C9002A8FAF769
:1085300031FB08B1F8F724FC2BB000BD40380240F5
:108540000070004000B5ABB030211FA8F7F730FF36
:1085500014211AA8F7F72CFF30210EA8F7F728FFEF
:10856000302102A8F7F724FF00BF00200190344813
:10857000006840F08050324908600846006800F00A
:108580008050019000BF00BF00BF002001902D4827
:10859000006840F440402B4908600846006800F439
:1085A0004040019000BF00BF05201F904FF4803075
:1085B0002090012021900220259041051FA8C16133
:1085C0000F2101624FF490714162022181620A2100
:1085D000C162FAF789FD08B1F8F7D2FBFAF794FA0D
:1085E00008B1F8F7CDFB0F201A9002201B90002055
:1085F0001C904FF4A0501D904FF480501E90052108
:108600001AA8FAF733FC08B1F8F7BAFB08200E9065
:108610004E20129002211491002017900EA8FAF714
:10862000B9FA08B1F8F7ACFB20200290C0000C901A
:1086300002A8FAF7AFFA08B1F8F7A2FB2BB000BD19
:10864000403802400070004000B5ABB030211FA898
:10865000F7F7AEFE14211AA8F7F7AAFE30210EA8EC
:10866000F7F7A6FE302102A8F7F7A2FE00BF002010
:1086700001902748006840F080502549086008466E
:10868000006800F08050019000BF00BF00BF0020D4
:1086900001902048006840F440401E4908600846A8
:1086A000006800F44040019000BF00BF02201F900E
:1086B000012022900020259000211FA8C1611921CE
:1086C00001624FF4C0714162022181620821C162DE
:1086D000FAF70AFD08B1F8F753FBFAF715FA08B1F3
:1086E000F8F74EFB0F201A9002201B9000201C90E0
:1086F0004FF4A0501D904FF480501E9005211AA8F1
:10870000FAF7B4FB08B1F8F73BFB2BB000BD000053
:1087100040380240007000401448006840F4700087
:10872000124908601248006840F0010010490860D2
:1087300000200F49083108600D4800680D490840C5
:108740000B4908600C48091D0860081F006820F4E8
:108750008020091F0860002005490C3108604FF097
:1087600000600249803908607047000088ED00E031
:1087700000380240FFFFF6FE1030002410B502481A
:10878000FCF7B4FA10BD000048A1002010B508485D
:10879000006800F0010020B10FF0D6FC08B10FF026
:1087A000EBFC0348006820F001000149086010BD9F
:1087B00010080040002202682C4B98420ED0B0F105
:1087C000804F0BD02A4B984208D02A4B984205D0B4
:1087D000294B984202D0294B984201D1012300E055
:1087E00000231BB122F070024B681A431F4B9842C2
:1087F00020D0B0F1804F1DD01D4B98421AD01D4B98
:10880000984217D01C4B984214D01C4B984211D060
:108810001B4B98420ED01B4B98420BD01A4B9842E0
:1088200008D01A4B984205D0194B984202D0194BE8
:10883000984201D1012300E000231BB122F44072D1
:10884000CB681A4302608B68C3620B688362074B74
:10885000984202D0094B984201D1012300E0002345
:108860000BB10B69036301234361704700000140B2
:108870000004004000080040000C004000040140DB
:108880000040014000440140004801400018004001
:10889000001C00400020004030B50023012404FAF1
:1088A00001F3046A9C430462046A02FA01F52C4352
:1088B000046230BD70B50C46154600210022066AE0
:1088C00026F0010606628169026A194EB04214D090
:1088D000B0F1804F11D0174EB0420ED0164EB042BC
:1088E0000BD0164EB04208D0154EB04205D0154EF2
:1088F000B04202D0144EB04201D1012600E0002661
:108900001EB121F00301294303E021F0030141F0EE
:10891000010121F0F001F02606EA0316314322F0AE
:108920000A0204F00A0632438161026270BD00004F
:10893000000001400004004000080040000C00401E
:1089400000040140004001400018004070B50C4692
:10895000154600210022066A26F01006066281698B
:10896000026A21F4407141EA052121F470414FF47B
:10897000704606EA0336314322F0A002A02606EA3A
:10898000041632438161026270BD70B50C46154613
:1089900000210022066A26F480760662C169026A16
:1089A00021F00301294321F0F001F02606EA031625
:1089B000314322F420624FF4206606EA0426324353
:1089C000C161026270BD70B50C46154600210022DF
:1089D000066A26F480560662C169026A21F4407173
:1089E00041EA052121F470414FF4704606EA03364E
:1089F000314322F420424FF4204606EA0436324343
:108A0000C161026270BD70B50546AC6B0020E085A7
:108A1000E0842046FCF799FA70BD0168C96821F42A
:108A200090710268D1600168496921F00101026812
:108A30005161202180F83A10704710B50446206833
:108A4000C06820F040002168C860202084F8390008
:108A50002046FCF79BFC002010BD70B5044694F83E
:108A60003A00222844D1A068B0F5805F13D1A56AEE
:108A7000206940B920684068C0F308002880A06AD7
:108A8000801CA06219E020684068C0B22880A06AFB
:108A9000401CA06211E0206938B920684068C1B26A
:108AA000A26A501CA062117007E02068406800F0C4
:108AB0007F01A26A501CA0621170E08D401E80B23E
:108AC000E08598B92068C06820F490702168C8607B
:108AD0002068406920F0010021684861202084F866
:108AE0003A002046FCF7E6FB002070BD0020FCE7C2
:108AF0000220FAE72DE9F0410446002520680569C7
:108B000025F44055E0680543206805612068C56884
:108B100049F20C6085432169A068084361690843F4
:108B2000E169084305432068C5602068456925F46C
:108B30004075A069054320684561E069B0F5004FC4
:108B40007ED1C4492068884203D0C3492068884246
:108B50005DD1FAF761FA00EBC00101EB001061682A
:108B60004900B0FBF1F06421B0FBF1F00601FAF727
:108B700053FA00EBC00101EB001061684900B0FB43
:108B8000F1F7FAF749FA00EBC00101EB0010616858
:108B90004900B0FBF1F06421B0FBF1F000EBC00143
:108BA00001EB0010A7EB8000322101EBC000642133
:108BB000B0FBF1F000F0F80006EB4006FAF72CFAF3
:108BC00000EBC00101EB001061684900B0FBF1F758
:108BD000FAF722FA00EBC00101EB001061684900CE
:108BE000B0FBF1F06421B0FBF1F000EBC00101EB50
:108BF0000010A7EB8000322101EBC0006421B0FB24
:108C0000F1F000F0070030442168886020E1FAF7B5
:108C1000F3F900EBC00101EB001061684900B0FB03
:108C2000F1F06421B0FBF1F00601FAF7E5F900EB91
:108C3000C00101EB001061684900B0FBF1F700E0F2
:108C400045E0FAF7D9F900EBC00101EB00106168CB
:108C50004900B0FBF1F06421B0FBF1F000EBC00182
:108C600001EB0010A7EB8000322101EBC000642172
:108C7000B0FBF1F000F0F80006EB4006FAF7BCF9A3
:108C800000EBC00101EB001061684900B0FBF1F797
:108C9000FAF7B2F900EBC00101EB0010616849007E
:108CA000B0FBF1F06421B0FBF1F000EBC00101EB8F
:108CB0000010A7EB8000322101EBC0006421B0FB63
:108CC000F1F000F00700304421688860C0E061499D
:108CD0002068884203D06049206888425CD1FAF756
:108CE0009BF900EBC00101EB001061688900B0FB4B
:108CF000F1F6FAF791F900EBC00101EB00106168A1
:108D00008900B0FBF1F06421B0FBF1F000EBC00191
:108D100001EB0010A6EB8000322101EB0010642172
:108D2000B0FBF1F000F0F006FAF776F900EBC001C5
:108D300001EB001061688900B0FBF1F06421B0FB29
:108D4000F1F006EB0016FAF767F900EBC00101EB52
:108D5000001061688900B0FBF1F7FAF75DF900EBEC
:108D6000C00101EB001061688900B0FBF1F06421E3
:108D7000B0FBF1F000EBC00101EB0010A7EB8000AD
:108D8000322101EB00106421B0FBF1F000F00F0084
:108D90003044216888605BE0FAF72EF900EBC001EF
:108DA00001EB001061688900B0FBF1F6FAF724F9D5
:108DB00000EBC00101EB001061688900B0FBF1F02D
:108DC0006421B0FBF1F000EBC00101EB0010A6EB59
:108DD0008000322101EB00106421B0FBF1F000F0C3
:108DE000F006FAF709F900EBC00101EB0010616829
:108DF0008900B0FBF1F06421B0FBF1F006EB001646
:108E0000FAF7FAF800EBC00101EB00106168890085
:108E1000B0FBF1F7FAF7F0F800EBC00101EB00103E
:108E200061688900B0FBF1F06421B0FBF1F000EB68
:108E3000C00101EB0010A7EB8000322101EB001014
:108E40006421B0FBF1F000F00F003044216888602D
:108E5000BDE8F0810010014000140140014691F886
:108E6000390021282CD18868B0F5805F0FD10A6ABB
:108E70001088C0F308000B685860086918B9086AC0
:108E8000801C086209E0086A401C086205E00B6A61
:108E9000581C086218780B685860C88C401E80B255
:108EA000C88458B90868C06820F080000B68D86092
:108EB0000868C06840F040000B68D8600020704728
:108EC0000220FCE72DE9F04104460D46174698467E
:108ED000069E21E0701CF8B12EB1F8F7BBFDA0EBA7
:108EE0000800B04218D92068C06820F4D07021680A
:108EF000C8602068406920F0010021684861202096
:108F000084F8390084F83A0000BF002084F8380063
:108F100000BF0320BDE8F081206800682840A84217
:108F200001D1012000E00020B842D3D00020F1E7B9
:108F300010B52FF009FF034835F026FA2FF022FF75
:108F400010BD000064A7022008B511480068006841
:108F5000C0F3401028B10F490968C8B235F082FB50
:108F600012E00B4800680068C0F3001060B100BF59
:108F700000200090064800680068009004480068DF
:108F80004068009000BF00BF0148FBF7DFFF08BD4D
:108F9000248900200444004008B511480068006896
:108FA000C0F3401028B10F490968C8B235F092FBF0
:108FB00012E00B4800680068C0F3001060B100BF09
:108FC000002000900648006800680090044800688F
:108FD0004068009000BF00BF0148FBF7B7FF08BD25
:108FE000E48800200414014000BFFEE710B50446E9
:108FF000002210210D48F8F727FD012009F036FF67
:109000002020FFF773F92012FFF770F90020FFF717
:109010006DF9E0B2FFF76AF9012009F027FF01229C
:1090200010210248F8F710FD10BD000000080240B2
:1090300010B50446002210210A48F8F705FD01206A
:1090400009F014FF4020FFF751F92046FFF74EF9D1
:10905000012009F00BFF012210210248F8F7F4FC6F
:1090600010BD0000000802400FB4054B10B503A965
:10907000044A029800F058FB10BC5DF814FB000095
:1090800055510208900F00200FB41CB50246002075
:1090900007AC00290BD0491ECDE90021054B6A46DB
:1090A0002146069800F040FB009A002111701CBC7C
:1090B0005DF814FBD19B01080FB4084B10B504A94F
:1090C00002AA039800F030FB044602A9002000F039
:1090D0008AFD204610BC5DF814FB0000E79B0108E8
:1090E000014609B900207047C8B220B1C8B20E4A83
:1090F000105C401CF7E701F47F4028B10A48C1F337
:109100000722805C0930EEE701F47F0028B10648B1
:10911000C1F30742805C1130E5E7034800EB1160C2
:1091200000781930DFE700004EF3050802E008C8B8
:10913000121F08C1002AFAD170477047002001E0D1
:1091400001C1121F002AFBD1704700F0010181F319
:10915000138870472DE9F04782460C461E48408828
:1091600050B90821002000F074FA07461A483968FF
:1091700001607968416000BF17484088A04203D36E
:1091800015480088A04202D90020BDE8F0871248A7
:109190000088201A082101EB80060421304600F0E7
:1091A00058FA05462868A0B12F680221384600F019
:1091B00050FA814699F801000749097910FB01F836
:1091C0004FEAE87008EB5070C110B81C00F041FA8B
:1091D000DBE70020D9E700002C0600202DE9F0474E
:1091E00082460C461E48408850B90821002000F0F5
:1091F00035FA07461A48396801607968416000BF4E
:1092000017484088A04203D315480088A04202D9DD
:109210000020BDE8F08712480088201A082101EBE1
:1092200080060421304600F019FA05462868A0B1EE
:109230002F680221384600F011FA814699F80100A2
:109240000749097910FB01F84FEAE87008EB507004
:10925000C110B81C00F002FADBE70020D9E70000DB
:10926000480600202DE9F04782460C461E484088FB
:1092700050B90821002000F0F7F907461A4839686C
:1092800001607968416000BF17484088A04203D35D
:1092900015480088A04202D90020BDE8F087124896
:1092A0000088201A082101EB80060421304600F0D6
:1092B000DBF905462868A0B12F680221384600F086
:1092C000D3F9814699F801000749097910FB01F8A3
:1092D0004FEAE87008EB5070C110B81C00F0C4F9F8
:1092E000DBE70020D9E70000640600202DE9F04705
:1092F00082460C461E48408850B90821002000F0E4
:10930000B9F907461A48396801607968416000BFB9
:1093100017484088A04203D315480088A04202D9CC
:109320000020BDE8F08712480088201A082101EBD0
:1093300080060421304600F09DF905462868A0B15A
:109340002F680221384600F095F9814699F801000E
:109350000749097910FB01F84FEAE87008EB5070F3
:10936000C110B81C00F086F9DBE70020D9E7000047
:10937000800600202DE9F04107460E46FC68A068F3
:109380000068B04202D90020BDE8F081B2B2A36803
:10939000198A986806F04EFB0546681C40B1606863
:1093A00000EBC50120680A68C2F313021044EBE722
:1093B0000020E9E72DE9F04707460C4615469A4696
:1093C0001F48408860B90821002000F042F981461A
:1093D0001B48D9F800100160D9F80410416000BFA3
:1093E00017484088A84203D315480088A84202D9EC
:1093F0000020BDE8F08712480088281A082101EBF8
:1094000080080421404600F024F906463068A0B1E7
:109410000221306800F01DF9814699F80000208093
:10942000387AE07099F80100A07000202071607116
:1094300003480079A0710120DBE70020D9E7000094
:109440002C0600202DE9F04707460C4615469A46A3
:109450001F48408860B90821002000F0FFF88146CD
:109460001B48D9F800100160D9F80410416000BF12
:1094700017484088A84203D315480088A84202D95B
:109480000020BDE8F08712480088281A082101EB67
:1094900080080421404600F0E1F806463068A0B19B
:1094A0000221306800F0DAF8814699F80000208047
:1094B000387AE07099F80100A07000202071607186
:1094C00003480079A0710120DBE70020D9E7000004
:1094D000480600202DE9F04707460C4615469A46F7
:1094E0001F48408860B90821002000F0BDF881467F
:1094F0001B48D9F800100160D9F80410416000BF82
:1095000017484088A84203D315480088A84202D9CA
:109510000020BDE8F08712480088281A082101EBD6
:1095200080080421404600F09FF806463068A0B14C
:109530000221306800F098F8814699F800002080F8
:10954000387AE07099F80100A070002020716071F5
:1095500003480079A0710120DBE70020D9E7000073
:10956000640600202DE9F04707460C4615469A464A
:109570001F48408860B90821002000F07BF8814630
:109580001B48D9F800100160D9F80410416000BFF1
:1095900017484088A84203D315480088A84202D93A
:1095A0000020BDE8F08712480088281A082101EB46
:1095B00080080421404600F05DF806463068A0B1FE
:1095C0000221306800F056F8814699F800002080AA
:1095D000387AE07099F80100A07000202071607165
:1095E00003480079A0710120DBE70020D9E70000E3
:1095F000800600202DE9F04780460C461746994624
:10960000D8F80C50A8680068B84202D90020BDE81C
:10961000F087BAB2AB68198A986806F00BFA06466A
:10962000701CA0B1686800EBC6010868000D2080BE
:109630004879E0700879A07088792071C87940B2C3
:109640006071688AC0F38220A0710120DFE70020EA
:10965000DDE70246A2F17D50704700000246014856
:10966000104470478EDDCBC002460148104470475D
:109670005AA8E0C00246014810447047E8FA07C102
:1096800070B5044606480068FFF72AFD451E0548E8
:1096900050F83500A0F120062560304670BD00006E
:1096A000C40E0020E0A5022003490868884201D0CA
:1096B000012070470020FCE7D40E00202DE9F04384
:1096C00089B0064688469146002400E0641C305D5F
:1096D000202804D0305D092801D04445F6D324B9B0
:1096E0004FF0FF3009B0BDE8F083214630462CF042
:1096F000B3FB054615B94FF0FF30F3E7202101A871
:10970000F6F756FE01AA414630462CF00FFC0746FC
:1097100017B94FF0FF30E5E701A93846A847C9F867
:1097200000000020DEE700002DE9FF4F8BB08846E7
:109730000546002606E025280BD0DDE90D129047EE
:109740006D1C761C28780028F5D10FB03046BDE896
:10975000F08F0024A146A2460122AE4900E0044356
:1097600015F8013F203B02FA03F00842F7D12878B0
:109770002A2810D06FF02F022878A0F13001092993
:1097800015D809EB890102EB410144F0020400EB1A
:1097900001096D1CF0E758F8041B5FEA010903D5C5
:1097A00044F40054C9F1000944F002046D1C287807
:1097B0002E2817D115F8010F44F004042A280ED0E2
:1097C0006FF02F022878A0F1300109290AD80AEB9E
:1097D0008A0102EB410100EB010A6D1CF2E758F827
:1097E00004AB6D1C28786C280FD006DC4C2817D0F1
:1097F00068280DD06A2814D104E0742810D07A2883
:109800000FD10DE044F400140AE044F4801401E0A8
:1098100044F440146978814202D104F580146D1C2F
:109820006D1C2878692865D006DC00288DD0632857
:1098300027D0642806D15DE06E2808D073282AD08E
:10984000752877D0DDE90D129047761CE0E0C4F36F
:109850000250022809D003280DD0D8F8001004289F
:109860000DD00E6008F10408D2E0D8F80010F2170D
:10987000C1E90062F6E7D8F800100E80F2E70E703A
:10988000F0E718F8041B8DF8001000208DF8010097
:10989000EB46012003E058F804BB4FF0FF306107AE
:1098A0004FF0000701D40AE07F1C57450DDA8742CC
:1098B000FADB1BF807100029F6D106E07F1C87426F
:1098C000FCDB1BF807100029F8D1DDE90D23A9EB1B
:1098D00007008146214600F0B1F83044C61904E083
:1098E000DDE90D121BF8010B90477F1EF8D22146CF
:1098F000484688E058F8040BC4F302514FF00A0BB5
:10990000032900D100B2042900D140B2002802DAB4
:1099100040422D2102E0210505D52B218DF8241090
:10992000012104E006E0E10710D02021F6E708AFAE
:10993000089113E058F8040BC4F302514FF00A0BDE
:10994000032900D180B2042900D1C0B20021EEE782
:109950005946F6F730FE303107F8011D0028F7D1DF
:10996000ADEB070000F1200B600702D524F4803432
:1099700001E04FF0010ADA4502DDAAEB0B0000E03E
:109980000020824600EB0B0108980144A9EB01007E
:109990000A90E00306D4DDE90D2321460A9800F081
:1099A0004DF806444FF0000908E009A911F8090034
:1099B000DDE90D12904709F10109761C08998945E6
:1099C000F3DBE0030CD5DDE90D2321460A9800F016
:1099D00035F8064404E0DDE90D1230209047761C8E
:1099E000BAF10001AAF1010AF5DC05E0DDE90D128A
:1099F00017F8010B9047761CBBF10001ABF1010B8E
:109A0000F4DC0A982146DDE90D2300F005F8064450
:109A10006D1C97E6092801002DE9F0410446002558
:109A20001E461746880404D405E039462020B04776
:109A30006D1C641EF9D52846BDE8F0812DE9F04182
:109A4000044600251E469046C80301D5302700E095
:109A50002027880404D505E041463846B0476D1CF0
:109A6000641EF9D52846BDE8F08100002DE9FC5FB1
:109A700004468B4615461E46DDE90C9ADDE90E7854
:109A800004F120004060006000BF28346560A660DB
:109A9000C4F80C90C4F810A02321D4E903022FF0DD
:109AA00086FBD4E9033C63441A1F0F4BD4E9010140
:109AB0002FF022F92060A77667760020E061C4F8D5
:109AC0002880C4F82C8060612076A066E066283C7F
:109AD00000902346054A2146019004F1580030F0D9
:109AE000A9FB0020BDE8FC9F559E0408F9A00408CE
:109AF0002DE9F04704460E4617469846DDF82090BB
:109B000084F81590607D20F001006075A662E76220
:109B100000206063C4F83080002506E004F12001D5
:109B200001EBC5002FF0DAF96D1C012DF6DBBDE865
:109B3000F08710B50246002001460EE002F1200336
:109B400003EBC100D0E900436360D0E90034236037
:109B50004060006000BF481C01460129EEDB10BDDB
:109B60002DE9F04706460F461546A946B46D28E094
:109B7000F6F738FB8246E088A188884205D1A068C4
:109B800018B95046F6F732FB1DE0E188206810F85E
:109B90000180E088401CE080E188706DC0F38F2078
:109BA000814201DB0020E080A068012801D1002073
:109BB000A0605046F6F71AFB87F800807F1C6D1EE8
:109BC00000BF002DD4D100BFA9EB0500BDE8F08790
:109BD0004A68002A06D00A68531C0B601070486857
:109BE000401E486070470A68531C0B601070704735
:109BF00030B52DED048B85B000250020019002903A
:109C00000390049000241AE00B20019001200290A0
:109C10000720039001A91E48F7F79EF91C48F7F7A3
:109C200057FB0A211A48F7F7F5FA1948F7F75EFAD1
:109C300018490880084600880544601CC4B20A2CF4
:109C4000E2DB0A20B5FBF0F01249088008460088E4
:109C500000EE100AB8EE400A10EE100AF6F77CFC8F
:109C600041EC190B9FED0C0B53EC102BF6F702FC9B
:109C700041EC180BF6F783FC00EE100A084880ED63
:109C8000000A0448008805B0BDEC048B30BD00001C
:109C9000E0A00020680000206666666666664A3FAF
:109CA000700000201FB500200090019002900390EA
:109CB0000620009001200190032002906946094887
:109CC000F7F74AF908B1F7F75BF80648F7F700FB32
:109CD0000A210448F7F79EFA0248F7F707FA80B21C
:109CE00004B010BDE0A000201FB50020009001903E
:109CF000029003901C481D4908604FF48030486072
:109D000000211A4881600161017680F82010C1624B
:109D1000174981620021C1600121C161002180F8E1
:109D2000301001214161F7F7E5F908B1F7F728F89C
:109D300006200090012001900320029069460B4804
:109D4000F7F70AF908B1F7F71BF80B20009001208C
:109D500001900720029069460448F7F7FDF808B122
:109D6000F7F70EF81FBD000000220140E0A0002020
:109D70000100000F2DE9F04180460E460025002726
:109D800009E056F827001EA1F6F74EFB08B1681C43
:109D900085B2781C87B256F82700F6F73EFB0028FC
:109DA000EFD1404623F0B8FB0446606820B16068FC
:109DB00022F0CAFC00206060A06820B1A06822F0F8
:109DC000C3FC0020A060E80022F098FC606060689E
:109DD00008B900BFFEE7680022F090FCA060A06810
:109DE00008B900BFFEE7606808B1A06800B90025A7
:109DF0006900A068F6F7DCFA2584BDE8F081000070
:109E00000A00000010B58AB0044694F82400C0F39C
:109E1000400020B994F8240000F0010070B194F8DB
:109E20002400C0F34000F0B994F8240000F00100D1
:109E3000C8B194F82400C0F38000A0B128222146C4
:109E40006846F6F79AFA2146194822F088F8204623
:109E500022F07AFC012017490870039810B1684677
:109E6000039988471FE0E08B404200B2608394F87A
:109E7000240000F00100B0B194F82410C1F3800177
:109E800019B9A18B494209B261831034217D890837
:109E9000C943227D61F382022275206861682160D6
:109EA0006060103C00BF034800780AB010BD00009D
:109EB0006CA90020840100202DE9F04107462F48BD
:109EC00021F066FF044608E0606A20F00800606246
:109ED00021462A4821F061FF0446002CF4D128488D
:109EE00000682AF019FA0646244821F051FF04467A
:109EF0003CE000202349087094F82400C0F3C0001F
:109F000038BB606A20F0080008306062608B304423
:109F100000B26083B4F91A0000281ADBB4F91A0001
:109F2000218B884202DD208B00B260832046A1682D
:109F300088470546606818B129B2D4E90002904705
:109F4000B4F91A00218B884202DB2046FFF75AFF42
:109F500000BF0C48007820B1084821F019FF0446E2
:109F600004E02146054821F018FF0446002CC0D12A
:109F70002AF0E0F902490860BDE8F0816CA90020F0
:109F8000800100208401002030B50346022B04D15B
:109F90000E48405C5043001230BD032B04D10C48E6
:109FA000405C50430012F7E7042B04D10948405CA1
:109FB00050430012F0E7C1EBC105581EB5FBF0F0AD
:109FC000C4B20548005D5043000AE5E776F0040896
:109FD00078F004087BF004087FF0040803B58FB024
:109FE000FC49FD4826F026FFFC49FD4826F022FFEB
:109FF000FA49FC4826F01EFFF649FB4826F01AFFF6
:10A00000FA4805900598000C01900598C0F30720C8
:10A0100002900598C0B203900398C108BDF80000F3
:10A0200061F30400009002988108BDF8000061F31C
:10A030004A1000900198C108BDF8000061F3CF20DC
:10A040000090BDF8001008460490BDF810100846B6
:10A050000690E548BDF818100186FF2180F83210FF
:10A06000E3480078042807D1E24800680690DD48FC
:10A07000BDF81810018406E000200690D948BDF80C
:10A080001810018400BFDC49D6484162D8480078E6
:10A09000042808D1D748001D00680690D048BDF8B4
:10A0A0001810018406E000200690CD48BDF8181075
:10A0B000018400BFD149CA48416200210F9822F0B3
:10A0C00041FF0E9018F040FC049018F08CFC0690B4
:10A0D00018F03AFC049018F03DFC05900146069AF1
:10A0E0000E9823F017FD00210E9812F0ABFD0D9095
:10A0F0003C2264210D9823F00DFDC1490D9823F0F9
:10A1000044FCB54A00210D9812F091FEB24A01219B
:10A110000D9812F08CFE00210E981FF007FC0C9099
:10A12000B04A00210C9820F0CEFBB6A10C9820F08C
:10A13000F7FB0020142307220090DDE90C0122F038
:10A1400099FB00210E981FF0F1FB0B90A44A00210F
:10A150000B9820F0B8FBACA10B9820F0E1FB10208D
:10A160000023022200900E990B9822F083FB00211D
:10A170000E9816F02DFC08903C220021089823F040
:10A1800070FC089823F02BFA059023F0A2FA96228F
:10A1900001460690089823F0BDFC002108981DF0A8
:10A1A00041FF0A909C490A981EF0D4FD002012231A
:10A1B0000722009008990A9822F05CFB0021089879
:10A1C0001FF0B4FB0990002109981FF0B0FF002197
:10A1D00009981FF0ACFF01460690904826F02AFE31
:10A1E00086498E484162002109981FF0A0FF014670
:10A1F00006908B4826F01EFE002109981FF097FF5D
:10A2000001460690874826F015FE8749844841623A
:10A21000864984484162099823F012F80021089881
:10A220001FF084FB09907D4A0021099820F04BFB28
:10A230006FF03B00142313220090DDE9090122F0A6
:10A2400019FB7B49099820F0D9FA002108981FF0E2
:10A250006DFB0990714A0021099820F034FB6FF0E2
:10A260001D00142313220090DDE9090122F002FBF6
:10A270007049099820F0C2FA002108981FF056FB97
:10A280000990664A0021099820F01DFB0020142344
:10A2900013220090DDE9090122F0ECFA66A1099889
:10A2A00020F03EFB002108981FF040FB09905B4A1C
:10A2B0000021099820F007FB1E2014231322009090
:10A2C000DDE9090122F0D6FA61A1099820F028FB06
:10A2D000002108981FF02AFB0990504A0021099894
:10A2E00020F0F1FA3C20142313220090DDE909014B
:10A2F00022F0C0FA0BF076FD01460690099820F096
:10A300000FFB00200790D220079000210E9816F036
:10A310005FFB08900021DDE9072023F0A2FB0898ED
:10A3200023F05DF9049023F0D4F9032190FBF1F0C0
:10A3300000B20690089823F052F9049023F0C9F96E
:10A34000032190FBF1F000B205900146069A0898AF
:10A3500023F0E0FB002108981DF064FE0A90224AD9
:10A3600000210A981EF0A4FD3F490A981EF0F2FC55
:10A370006FF0130000231A46009008990A9822F003
:10A3800079FA002108981FF0D1FA0990254A002196
:10A39000099820F098FA0520034601220090DDE993
:10A3A000081022F067FA31A1099820F0B9FA0021CB
:10A3B00008981FF0BBFA0990194A0021099820F06B
:10A3C00082FA6420052301220090DDE9081022F0C2
:10A3D00051FA4DE060A60020149C022050A70020F6
:10A3E0008C9C0220509C0220B89D0220E8744800FA
:10A3F0002307002050EC05086001002050060020D3
:10A4000059BE0208EF819300E585B3E4BA8EE69C5D
:10A41000ACE69CBA00000000A0870220049D022048
:10A42000409D02207C9D0220000100203001002080
:10A4300020EC05083AEC050852544F533A52542D7B
:10A440005468726561642D56342E302E3000000041
:10A450004755493A4C6974746C6576474C2D5636AD
:10A460002E302E3000000000DC8702204D435500C6
:10A47000FEA1099820F054FA002108981FF056FA1E
:10A480000990FE4A0021099820F01DFA7820052342
:10A4900001220090DDE9081022F0ECF9F8A10998FA
:10A4A00020F03EFA002108981FF040FA0990F34A84
:10A4B0000021099820F007FA8C2005230122009042
:10A4C000DDE9081022F0D6F9F1A1099820F028FA68
:10A4D00000210E9816F07CFA0890089823F07FF877
:10A4E000059023F0F6F8032190FBF1F000B20690FE
:10A4F000079802B20699089823F0B3FA089823F057
:10A500006EF8049023F0E5F8032190FBF1F000B21F
:10A510000690089823F063F8049023F0DAF80321FA
:10A5200090FBF1F000B205900146069A089823F0DE
:10A53000F1FA002108981DF075FD0A90D84A002113
:10A540000A981EF0B5FCD7490A981EF003FC6FF07C
:10A55000130000231A46009008990A9822F08AF9FD
:10A56000002108981FF0E2F90990CF4A00210998CC
:10A5700020F0A9F90520034601220090DDE908102A
:10A5800022F078F9C9A1099820F0CAF900210898A9
:10A590001FF0CCF90990B94A0021099820F093F9ED
:10A5A0006420052301220090DDE9081022F062F901
:10A5B000C0A1099820F0B4F9002108981FF0B6F95D
:10A5C0000990AE4A0021099820F07DF978200523F2
:10A5D00001220090DDE9081022F04CF9B9A1099898
:10A5E00020F09EF9002108981FF0A0F90990A34AD5
:10A5F0000021099820F067F98C20052301220090A2
:10A60000DDE9081022F036F9B2A1099820F088F9A6
:10A6100000210E9816F0DCF90890089822F0DFFF70
:10A62000059023F056F8032190FBF1F0400000B2B2
:10A630000690079802B20699089823F012FA089833
:10A6400022F0CDFF049023F044F8032190FBF1F0B9
:10A6500000B20690089822F0C2FF049023F039F867
:10A66000032190FBF1F000B205900146069A08988C
:10A6700023F050FA002108981DF0D4FC0A90884A73
:10A6800000210A981EF014FC95490A981EF062FBFE
:10A690006FF0130000231A46009008990A9822F0E0
:10A6A000E9F8002108981FF041F909907E4A00213D
:10A6B000099820F008F90520034601220090DDE901
:10A6C000081022F0D7F887A1099820F029F9002175
:10A6D00008981FF02BF90990684A0021099820F08A
:10A6E000F2F86420052301220090DDE9081022F031
:10A6F000C1F87DA1099820F013F9002108981FF0F6
:10A7000015F909905D4A0021099820F0DCF87820BD
:10A71000052301220090DDE9081022F0ABF875A1B5
:10A72000099820F0FDF8002108981FF0FFF8099023
:10A73000524A0021099820F0C6F88C2005230122F6
:10A740000090DDE9081022F095F86DA1099820F03D
:10A75000E7F84FF4B970079000210E9816F038F919
:10A760000890089822F03BFF059022F0B2FF0321E9
:10A7700090FBF1F0002006900146DDE9072023F070
:10A7800070F9089822F02BFF049022F0A2FF032119
:10A7900090FBF1F000B20690089822F020FF0490A0
:10A7A00022F097FF032190FBF1F000B205900146E3
:10A7B000069A089823F0AEF9002108981DF032FCA3
:10A7C0000A90374A00210A981EF072FB51490A98F4
:10A7D0001EF0C0FA6FF0130000231A46009008998B
:10A7E0000A9822F047F8002108981FF09FF8099076
:10A7F0002D4A0021099820F066F805200346012221
:10A800000090DDE9081022F035F843A1099820F006
:10A8100087F8002108981FF089F80990174A00214D
:10A82000099820F050F86420052301220090DDE90A
:10A83000081022F01FF83AA1099820F071F80021C1
:10A8400008981FF073F809900C4A0021099820F02D
:10A850003AF87820052301220090DDE9081022F063
:10A8600009F831A1099820F05BF867E053544D33A3
:10A87000324634323949475436000000409D0220A8
:10A88000464C4153483A314D42797465000000000E
:10A890005352414D3A3139324B42797465000000D0
:10A8A000B89D0220D08702207C9D02204D454D4F4F
:10A8B00052590000454550524F4D3A424C323443B4
:10A8C00030320000464C4153483A584D32355148D9
:10A8D000313238005344434152443A4D4D43000015
:10A8E000C487022052414D00573938323547364B24
:10A8F000482D3600534452414D3A33324D0000004A
:10A90000446174612077696474683A3136626974AD
:10A9100000000000B887022053435245454E000016
:10A920004C43442D524742005265736F6C757469F5
:10A930006F6E3A3830302A343830000000210898E1
:10A940001EF0F4FF0990AA4A002109981FF0BBFFEE
:10A950008C20052301220090DDE9081021F08AFFF8
:10A96000A4A109981FF0DCFF00210E9816F030F822
:10A970000890089822F033FE059022F0AAFE0321E9
:10A9800090FBF1F000B20690079802B20699089881
:10A9900023F067F8089822F022FE049022F099FE36
:10A9A000032190FBF1F000B20690089822F017FE08
:10A9B000049022F08EFE032190FBF1F000B205908E
:10A9C0000146069A089823F0A5F8002108981DF082
:10A9D00029FB0A908B4A00210A981EF069FA8A49DD
:10A9E0000A981EF0B7F96FF0130000231A46009082
:10A9F00008990A9821F03EFF002108981EF096FF62
:10AA00000990824A002109981FF05DFF0520034646
:10AA100001220090DDE9081021F02CFF7CA10998AB
:10AA20001FF07EFF002108981EF080FF0990704AF9
:10AA3000002109981FF047FF6420052301220090A0
:10AA4000DDE9081021F016FF73A109981FF068FFD7
:10AA5000002108981EF06AFF0990654A00210998B4
:10AA60001FF031FF7820052301220090DDE9081056
:10AA700021F000FF6CA109981FF052FF00210898F7
:10AA80001EF054FF09905A4A002109981FF01BFF3D
:10AA90008C20052301220090DDE9081021F0EAFE58
:10AAA00063A109981FF03CFF00210E9815F090FF5C
:10AAB0000890089822F093FD059022F00AFE0321E9
:10AAC00090FBF1F0400000B20690079802B20699A0
:10AAD000089822F0C6FF089822F081FD049022F029
:10AAE000F8FD032190FBF1F000B20690089822F0E7
:10AAF00076FD049022F0EDFD032190FBF1F000B211
:10AB000005900146069A089823F004F80021089859
:10AB10001DF088FA0A903B4A00210A981EF0C8F9F5
:10AB200045490A981EF016F96FF0130000231A46E3
:10AB3000009008990A9821F09DFE002108981EF0C7
:10AB4000F5FE0990314A002109981FF0BCFE05204E
:10AB5000034601220090DDE9081021F08BFE37A1A9
:10AB600009981FF0DDFE002108981EF0DFFE099015
:10AB70001F4A002109981FF0A6FE64200523012228
:10AB80000090DDE9081021F075FE2FA109981FF053
:10AB9000C7FE002108981EF0C9FE0990144A002142
:10ABA00009981FF090FE7820052301220090DDE92E
:10ABB000081021F05FFE28A109981FF0B1FE0021C6
:10ABC00008981EF0B3FE0990094A002109981FF069
:10ABD0007AFE8C20052301220090DDE9081021F087
:10ABE00049FE20A109981FF09BFE0E9811B000BDF0
:10ABF000409D0220546F7563683A475439313437A9
:10AC000000000000B89D0220E88702207C9D022001
:10AC100042415454455259006C69746869756D20FD
:10AC20006261747465727900333030306D61680030
:10AC3000332E375600000000AC870220574952459A
:10AC40004C4553530000000049522053656E642068
:10AC50002620526563760000574946493A455350CD
:10AC600031325300322E34473A4E524632344C3051
:10AC7000315000002DE9FC5F81468A4600BF17F085
:10AC800063FE834617F0A4FE064651A111F0F0F8CA
:10AC900005465149284622F078FE0021284611F049
:10ACA000D1FF074664221146384622F033FF4B207D
:10ACB0000023022229460090384621F0DBFD0121C5
:10ACC000384612F0DAF84549384622F05EFE444A2A
:10ACD0000021384612F0ABF8424A0121384612F002
:10ACE000A6F83F4A0221384612F0A1F83D4A032156
:10ACF000384612F09CF8002138461DF093F93A4985
:10AD000008603A49384800681EF024F8364806685A
:10AD1000304622F077FC83465946354826F08AF8BB
:10AD20003448006801903248BDF804100186FF21C4
:10AD300080F83210024600212B4800681EF0AFF860
:10AD40000021284625F02EFB8046C8200023022241
:10AD500029460090404621F08DFD2749404622F0CB
:10AD600014FE2649264826F065F82648007804286F
:10AD700008D12048001D006800902148BDF800104F
:10AD8000018406E0002000901D48BDF800100184F9
:10AD900000BF1D491A484162002128461EF0C6FD29
:10ADA00004461AA120461FF0BBFDFA206FF0810374
:10ADB000022229460090204621F05CFD104E3146CB
:10ADC000204622F0F6FE00BF2846BDE8FC9F0000AA
:10ADD0004245455000000000916D04087DFC0108CB
:10ADE00060A60020F4A80020D80B00204C87022089
:10ADF000E490022020EB050889AE040850A700204B
:10AE0000209102202307002050060020E68993E5C8
:10AE1000BC80E6B58BE8AF95E58DB3E58FAF2CE54B
:10AE20008BBFE995BFE697B6E997B4E68993E5BC91
:10AE3000800000002DE9F84F074600240025002679
:10AE40000BF010F860A1384611F012F88146604905
:10AE5000484622F09AFD5F495F4825F0EBFF5F49C5
:10AE60005D4841625E480078042807D15D4800686B
:10AE700000905948BDF80010018406E000200090C1
:10AE80005548BDF80010018400BF002148461EF05F
:10AE90004DFD5549086055A1534800681FF040FD1D
:10AEA0004D4A0021504800681FF0F2FC502000235A
:10AEB0000222494600904C48006821F0DBFC28F053
:10AEC0007BFFD0F8408041464A4825F0B3FF28F088
:10AED00073FFD0F814804146474825F0ABFF28F0B7
:10AEE0006BFFD0F810804146444825F0A3FF47F699
:10AEF00018414148C1804148C18038493D484162BC
:10AF0000002453E0032094FBF0F100FB114000EB20
:10AF1000C00101EB0010642101EB800085B2032029
:10AF200094FBF0F0C0EB001000EB4000AA2101EB15
:10AF3000400086B20021484611F084FE824600217E
:10AF400050461EF0F3FC83462A4A002158461FF063
:10AF50009FFC2B4850F8241058461FF0E1FC264A6D
:10AF60000121504611F063FF244A0021504611F0A0
:10AF70005EFF32B229B2504622F073FD50221146D4
:10AF8000504622F0C7FD2146504622F01DFE1D49C5
:10AF9000504622F0FAFC122C06D132B205F16400C0
:10AFA00001B2504622F05DFD601CC4B2132CA9DB37
:10AFB0000D48022264210368134828F081FC1349DC
:10AFC00008604846BDE8F88FE7BAA2E5A4960000FD
:10AFD0002D6E040850A70020A893022060010020D5
:10AFE00023070020ECEB0508200C00205245433AD3
:10AFF00000000000989402205C940220209402201B
:10B00000280C0020B907020891790208240C0020BE
:10B010002DE9F0478CB080468946CE49CE4825F0D0
:10B0200009FFCE480078042807D1CD480068019078
:10B03000C948BDF80410018406E000200190C6480C
:10B04000BDF80410018400BFC649C3484162C1492C
:10B05000C54825F0EFFEC1480078042808D1C04853
:10B06000001D00680190C048BDF80410018406E08E
:10B0700000200190BC48BDF80410018400BF00BF4F
:10B0800017F062FC824617F0A3FC0646B7A110F049
:10B09000EFFE0546B949284622F077FC00212846F4
:10B0A0001EF044FC0746AC4A002138461FF0F9FB6D
:10B0B000B3A138461FF034FC462000230222294663
:10B0C0000090384621F0D6FB0021284613F06CFC96
:10B0D000044678201E23012200210090204621F002
:10B0E000C9FB0A21204614F087FD0421204614F0F4
:10B0F00025FE64220021204614F006FE05220921C7
:10B10000204614F0FAFC3221204614F00EFD0521F1
:10B11000204614F02EFE01231A46A148016820465D
:10B1200014F047FE4FF496721146204622F0F2FCCE
:10B130000A221146204614F02DFE01231A46994892
:10B140000168204614F053FE0A221146204614F0EE
:10B1500041FE854E3146204622F02BFD00BF80483F
:10B16000083000680B9020460B9913F0D7FB8E49EE
:10B1700008607B480C3000680A9020460A9913F05A
:10B18000CDFB8A4908607648103000680990204657
:10B19000099913F0C3FB864908606E49854825F07C
:10B1A00049FE002008908348BDF8201001840A2140
:10B1B000C1800146804825F03DFE7E497F4825F04C
:10B1C00039FE67481430006807907A48BDF81C10B3
:10B1D000418063481830006806907648BDF8181022
:10B1E00081805F481C30006805907348BDF81410DA
:10B1F00041805B482030006804906F48BDF8101013
:10B20000818057482430006803906C48BDF80C10CA
:10B21000418053482830006802906848BDF8081003
:10B220008180002128461EF081FB0746614A0021EB
:10B2300038461FF036FB012138461FF01FFA60A187
:10B2400038461FF06DFB6FF01D00142313222146BA
:10B250000090384621F00EFB002128461EF066FBC8
:10B260000746554A002138461FF01BFB012138468E
:10B270001FF004FA55A138461FF052FB002014239A
:10B28000132221460090384621F0F4FA0021284686
:10B290001EF04CFB0746494A002138461FF001FBCF
:10B2A000012138461FF0EAF94AA138461FF038FB61
:10B2B0001E201423132221460090384621F0DAFA8A
:10B2C0000021284613F054F9454908603CA1444840
:10B2D000006813F0A8FA50206FF095030022294669
:10B2E00000903F48006821F0C5FA0021284613F07D
:10B2F0003FF93C49086032A13A48006813F093FADC
:10B30000502000231A46294600903648006821F054
:10B31000B1FA0021284613F02BF9334908602DA11A
:10B320003148006813F07FFA502096230022294606
:10B3300000902D48006821F09DFA234602226421E6
:10B340002A4828F0BDFA2A49086028460CB0BDE812
:10B35000F087000050A70020D4940220230700208B
:10B36000F0EB05085006002010950220E68C89E9D4
:10B3700094AEE6B58BE8AF9500000000556E04086A
:10B38000E68C89E4B88BE68C89E994AEE59BBEE84F
:10B39000A1A8E58F91E7949FE58F98E58C96000032
:10B3A000E00C0020E40C0020C40C0020C80C00209D
:10B3B000CC0C00204C95022088950220C4950220D8
:10B3C0004B45595F4C454654000000004B45595FC2
:10B3D0004D4944004B45595F5249474854000000CD
:10B3E000D00C0020D40C0020D80C0020DDE3040891
:10B3F000DC0C00202DE9FF5F00BF17F0A5FA8346A3
:10B4000017F0E6FA054663A110F032FD04466249E2
:10B41000624825F00FFD62480078042807D1614892
:10B42000006800905D48BDF80010018406E000202F
:10B4300000905A48BDF80010018400BF5A4957488F
:10B440004162002120461FF05BFB584908606420E0
:10B4500000230222214600905448006821F00AFA95
:10B4600052480568284622F0CDF883465946504890
:10B4700025F0E0FC002003904D48BDF80C10418001
:10B48000002002904A48BDF8081081800246002141
:10B49000464800681FF009FC0021204625F080FF87
:10B4A0000646C8200023022221460090304621F0A3
:10B4B000E1F94049304622F068FA002120461EF0AA
:10B4C00035FA8146354A002148461FF0C6F93AA1AF
:10B4D00048461FF025FA00206FF00903102231467C
:10B4E0000090484621F0C6F90021204625F058FF7B
:10B4F00007464FF4967000230222214600903846FA
:10B5000021F0B8F92E49384622F03FFA00212046B2
:10B510001EF00CFA8246214A002150461FF09DF988
:10B5200028A150461FF0FCF900206FF009031022FB
:10B5300039460090504621F09DF90021204625F023
:10B540002FFF80464FF4C87000230222214600904E
:10B55000404621F08FF91D49404622F016FA00219D
:10B5600020461EF0E3F901900C4A002101981FF0DB
:10B5700074F917A101981FF0D3F900206FF00903A7
:10B58000102241460090019821F074F9204604B041
:10B59000BDE8F09F4C45440050A70020508D02208C
:10B5A0002307002010EB050860010020340700206D
:10B5B0009C8C022015BD04085245443A000000004E
:10B5C00081BD0408475245454E3A0000EDBD0408D0
:10B5D000424C55453A0000002DE9FC47804689461B
:10B5E00000BF17F0B1F9824617F0F2F9074659A1EA
:10B5F00010F03EFC06465949304622F0C6F958493B
:10B60000584825F017FC58480078042807D15748B7
:10B61000006800905348BDF80010018406E0002047
:10B6200000905048BDF80010018400BF50494D48BB
:10B6300041624B494F4825F0FDFB4B4800780428F8
:10B6400008D14A48001D006800904A48BDF8001023
:10B65000018406E0002000904648BDF800100184F7
:10B6600000BF002130461EF061F905463D4F3946C6
:10B67000284622F09EFA00BF3FA128461FF050F94D
:10B6800046200023022231460090284621F0F2F89D
:10B690000021304613F088F9044678200023022266
:10B6A00019460090204621F0E5F80A21204614F0C2
:10B6B000A3FA0421204614F041FB64220021204615
:10B6C00014F022FB05220921204614F016FA32213B
:10B6D000204614F02AFA0521204614F04AFB0123E3
:10B6E0001A462D480168204614F063FB4FF4967209
:10B6F0001146204622F00EFA0A221146204614F086
:10B7000049FB01231A4625480168204614F06FFBC7
:10B710000A221146204614F05DFB164F394620469A
:10B7200022F047FA00BF1148083000680190204617
:10B73000019913F0F3F81A490860234602224FF4E6
:10B74000FA71184828F0BCF8174908603046BDE87F
:10B75000FC870000E58589E785A70000096E0408DD
:10B7600050A700203093022023070020E0EB0508BB
:10B77000500600206C930220E59BBEE8A1A8E58F4F
:10B780008DE698A0E78EAFE5A283E58589E785A7DA
:10B79000E5BCBAE5BAA60000100C0020140C00208D
:10B7A000180C0020C1E304081C0C00202DE9FC5FEC
:10B7B000D521FEA0FDF758FC002500241426FE49E3
:10B7C000FE4825F037FBFE4814F0DAFB0090FB48FA
:10B7D000BDF800104180FA4814F0D2FB0090F74801
:10B7E000BDF80010818000BF17F0AEF8814617F059
:10B7F000EFF88046F3A110F03BFB0746F5493846C9
:10B8000022F0C3F8ED49384622F0D3F9F249F34863
:10B8100025F010FBF2480078042807D1F1480068B1
:10B820000090EE48BDF80010018406E00020009072
:10B83000EA48BDF80010018400BFEB49E7484162C7
:10B840000021384622F01EFAE8490860384621F007
:10B8500069FE3C380FFA80F8384621F03AFF8146FD
:10B8600042464946E148006822F054F93C20002352
:10B87000022239460090DD48006820F0FBFF0A25CF
:10B880000A240021D94800681EF050F8D849086001
:10B89000D24A0021D64800681FF00CF8D5A1D44840
:10B8A00000681FF03DF822462946D148006822F082
:10B8B000D8F80021CD4800681EF038F8D14908605A
:10B8C0000121D04800681EF083FFC44A0021CD4802
:10B8D00000681EF0EFFFCCA1CA4800681FF020F8F6
:10B8E00022468221C748006822F0BBF8A01984B222
:10B8F0000021BE4800681EF019F8C7490860012100
:10B90000C54800681EF064FFB44A0021C2480068C0
:10B910001EF0D0FFC1A1C04800681FF001F822B29C
:10B920002946BD48006822F09CF8A01984B2002185
:10B93000AE4800681DF0FAFFBC4908600121BB4811
:10B9400000681EF045FFA54A0021B84800681EF0B7
:10B95000B1FFB7A1B54800681EF0E2FF22B2294648
:10B96000B248006822F07DF8A01984B200219F48F7
:10B9700000681DF0DBFFB24908600121B048006893
:10B980001EF026FF954A0021AD4800681EF092FF88
:10B99000ACA1AB4800681EF0C3FF22B22946A848FC
:10B9A000006822F05EF8A01984B200218F48006878
:10B9B0001DF0BCFFAA4908600121A94800681EF0DB
:10B9C00007FF864A0021A64800681EF073FFA5A164
:10B9D000A34800681EF0A4FF22B22946A0480068D0
:10B9E00022F03FF8A01984B20021804800681DF0C1
:10B9F0009DFFA24908600121A04800681EF0E8FEF2
:10BA0000764A00219D4800681EF054FF9CA19B4887
:10BA100000681EF085FF22B229469848006822F08F
:10BA200020F8A01984B20021704800681DF07EFF44
:10BA3000994908600121984800681EF0C9FE674ACC
:10BA40000021954800681EF035FF94A192480068D7
:10BA50001EF066FF22B229468F48006822F001F8E6
:10BA6000A01984B20021614800681DF05FFF914970
:10BA7000086001218F4800681EF0AAFE574A002185
:10BA80008C4800681EF016FF8BA18A4800681EF0E3
:10BA900047FF22B229468748006821F0E2FFA0193B
:10BAA00084B20021514800681DF040FF88490860B9
:10BAB0000121874800681EF08BFE484A0021844817
:10BAC00000681EF0F7FE83A1814800681EF028FF81
:10BAD00022B229467E48006821F0C3FFA01984B233
:10BAE0000021424800681DF021FF814908600121C2
:10BAF0007F4800681EF06CFE384A00217C480068D0
:10BB00001EF0D8FE7BA17A4800681EF009FF22B221
:10BB100029467748006821F0A4FFA01984B20021CB
:10BB2000324800681DF002FF78490860012177481B
:10BB300000681EF04DFE294A0021744800681EF07E
:10BB4000B9FE73A1714800681EF0EAFE22B22946D0
:10BB50006E48006821F085FFA01984B200212348B7
:10BB600000681DF0E3FE6E49086001216C48006822
:10BB70001EF02EFE194A0021694800681EF09AFE48
:10BB800068A1674800681EF0CBFE22B229B2644863
:10BB9000006821F066FFA01984B2002113480068F4
:10BBA0001DF0C4FE644908600121C7E00A207369E2
:10BBB0007A653A2564200A0024A6002060980220B5
:10BBC000E87448004E42E4BFA1E58FB7E6B58BE8C4
:10BBD000AF950000D96E040850A7002024980220D9
:10BBE000230700201CEC050850060020280D00202B
:10BBF000EC0C0020E8BF90E890A5E59586E5AEB690
:10BC000000000000F80C00204353513A2023464620
:10BC10003030303020202300F40C0020E6A8A1E7CB
:10BC2000BB84E58FB720696D65693A00F00C002090
:10BC3000E58DA1E58FB720696D73693A00000000BA
:10BC4000FC0C0020E4BFA1E58FB7E58A9FE78E8753
:10BC5000205369676E616C20706F77657200000019
:10BC6000000D0020E680BBE58A9FE78E8720546F99
:10BC700074616C20706F776572000000040D002005
:10BC8000E58F91E5B084E58A9FE78E8720545820A0
:10BC9000706F776572000000080D0020E58F91E558
:10BCA000B084E697B6E997B42054582074696D655E
:10BCB000000000000C0D0020E68EA5E694B6E69785
:10BCC000B6E997B42052582074696D6500000000F1
:10BCD000100D0020E59FBAE7AB99E5B08FE58CBA6F
:10BCE000E6A087E8AF862043656C6C2049440000DD
:10BCF000140D0020E8A686E79B96E5A29EE5BCBA57
:10BD0000E7AD89E7BAA72045434C0000180D002095
:10BD1000E4BFA1E599AAE6AF9420534E520000007B
:10BD20001C0D0020E4B8ADE5BF83E9A291E782B91C
:10BD30002045415246434E00200D0020B148006886
:10BD40001EF046FDB04A0021AE4800681EF0B2FD6C
:10BD5000AEA1AC4800681EF0E3FD22B229B2A948AA
:10BD6000006821F07EFEA01984B20021AD48006871
:10BD70001DF0DCFDAC4908600121AB4800681EF0F5
:10BD800027FDA14A0021A84800681EF093FDA7A145
:10BD9000A54800681EF0C4FD22B229B2A24800687E
:10BDA00021F05FFE00219F48006821F06BFFA7494A
:10BDB00008609C48006821F0B5FB804600EBD87015
:10BDC00040101E380FFA80F99648006822F00FFBE9
:10BDD00083464A4659469D48006821F09BFE4FF431
:10BDE00096719A48006821F00BFF0121974800687E
:10BDF00023F01EF90021954800681DF097FD944935
:10BE000008600121924800681EF082FC8F4800689B
:10BE100022F0EDFA804641468D48006821F0D6FEBA
:10BE20008CA18B4800681EF07BFD00217D480068D6
:10BE300010F008FF894908600021884800681DF05B
:10BE400075FD8246704A002150461EF033FD84A1E4
:10BE500050461EF065FD052000230C2200907B4813
:10BE600001687E48006820F005FD28217B480068B5
:10BE700021F08DFD7E497948006821F086FD002182
:10BE80006848006812F074FB7A4908607A497B4878
:10BE900024F0D0FF7A497948416200200190774828
:10BEA000BDF8041001840021017202467148006847
:10BEB00012F06EFC73A16F48006812F0B4FC002011
:10BEC0000A2313220090654801686A48006820F040
:10BED000D1FC28216748006821F059FD0021514814
:10BEE000006812F045FB69490860644A0021674810
:10BEF000006812F04DFC66A16448006812F093FCE3
:10BF000000200A23132200905A4801685F48006805
:10BF100020F0B0FC28215D48006821F038FD0021A8
:10BF20004048006825F012FE5D49086041215C48E8
:10BF3000006821F02CFD3B48006822F058FA80464A
:10BF400041465748006821F041FE322000230D226F
:10BF500000903E4801685248006820F08BFC51A1D7
:10BF60004F48006826F0D0FC19214D48006826F0A3
:10BF700076FB00212B4800681DF024FA4A4908602E
:10BF80004A494948006821F000FD16F0DDFC814671
:10BF900016F029FD032190FBF1F00FFA80F84146DD
:10BFA0004148006821F0F3FC052000230D22009099
:10BFB0003B4801683C48006820F05CFC3848016858
:10BFC000394800681DF028FC0121374800681DF041
:10BFD000C7FB002302220A21354827F071FC3549AE
:10BFE0000860002302224FF47A71334827F068FC7E
:10BFF000324908602021324809F08CFF3846BDE8FC
:10C00000FC9F0000200D002024980220E789A9E76A
:10C010009086E5B08FE58CBAE6A087E8AF86205021
:10C0200043490000280D0020240D0020E58F82E800
:10C030008083E4BFA1E58FB7E68EA5E694B6E8B4A9
:10C04000A8E9878F20525352510000002C0D002088
:10C05000300D002072656365697665003C0D002037
:10C06000E6B885E999A4E68EA5E694B6000000003E
:10C070005DFC0108440D002050A70020D898022044
:10C0800050060020E696B0E8A18C0000480D002084
:10C09000E69A82E5819CE68EA5E694B60000000053
:10C0A000380D002041540000400D00208D7B020817
:10C0B0008D630408500D00205D6304084C0D0020C2
:10C0C00001980220F8B505460E4624F001F9044611
:10C0D000002004A305A215A10090204629F0E2FC4F
:10C0E0000020F8BDE7A1AEE5AE9A0000E68AB1E611
:10C0F000AD892C20E682A8E79A84E8AEBEE5A48745
:10C10000E69A82E697B6E4B88DE694AFE68C81E8CD
:10C11000AFA5E58A9FE883BDE8AFB7E88194E7B3B0
:10C12000BBE7AEA1E79086E591980000EF81B145AD
:10C1300052524F52000000002DE9F04F85B000250B
:10C14000D64809F01FFFD649D64824F073FED649D9
:10C15000D64824F06FFED649D448416224F0C6F890
:10C160008146D4A10FF084FE0746D449384621F019
:10C170000CFC0021384610F065FD04903222642149
:10C18000049821F0C7FCCE49049821F0FEFB05205D
:10C190006FF00903032239460090049820F06AFBEF
:10C1A000002104981DF0C2FB0390C04A00210398AF
:10C1B0001EF065FBC3A103981EF0B2FB00213846B8
:10C1C0001FF084F980463C220021404621F049FCC2
:10C1D000384621F0A7F93C380FFA80F9384621F0AB
:10C1E00078FA82464A465146404621F093FCC146C1
:10C1F000AA465146484622F0BDFE00BFAA49B548AE
:10C2000024F018FEAA49B3484162B348007858B1F7
:10C21000B1480078032807D0AF480078052803D03C
:10C22000AD480078072806D100200090A948BDF845
:10C230000010018400BF002525E005EB8500A74A1A
:10C2400052F82010002240461EF0C8FF044600218C
:10C2500020461DF06BFB83469E4A002158461EF087
:10C260000EFB05EB85009D4A02EB80008168584675
:10C270001EF056FB4FF000094946204615F074F9B0
:10C2800000BF681CC5B2092DD7D39549404621F09F
:10C290007CFB002140461FF06DFA04460021204639
:10C2A00024F080F806467D4890F810904FF0010A7F
:10C2B00052464946304610F01DFC00BF89493046C1
:10C2C00021F063FB08206FF0130302462146009023
:10C2D000304620F0CFFA214640461FF04BFA044684
:10C2E0000021204615F078FC0290304621F0F1F94B
:10C2F00081464946029816F0AFF80121029816F0DF
:10C3000089F879480168029816F0C6F86348C17C3C
:10C31000029816F00EF97549029821F036FB0820B4
:10C320006FF01303024621460090029820F0A2FA13
:10C33000214640461FF01EFA04460021204615F013
:10C340004BFC02900021029815F0E3FE814649461D
:10C35000674824F06FFD5649654841620246002156
:10C36000029816F017F9304621F0B3F98146494694
:10C37000029816F071F80121029816F04BF85D480A
:10C380000168029816F088F84448817C029816F0FB
:10C39000D0F85949029821F0F8FA08206FF01303F9
:10C3A000024621460090029820F064FA2146404659
:10C3B0001FF0E0F904460021204615F00DFC029024
:10C3C000304621F086F981464946029816F044F835
:10C3D0000121029816F01EF848480168029816F0EC
:10C3E0005BF82E48017D029816F0A3F844490298A4
:10C3F00021F0CBFA08206FF013030246214600908B
:10C40000029820F037FA214640461FF0B3F904465F
:10C410000021204624F0C4FF01902048407C20B138
:10C420000121019825F06AF803E00121019825F027
:10C4300053F808206FF0130302462146009001983C
:10C4400020F018FA2F49019821F09FFA2146404622
:10C450001FF090F904462C49204621F096FA214617
:10C4600040461FF087F904462849204621F08DFAFE
:10C47000214640461FF07EF904462549204621F01A
:10C4800084FA214640461FF075F9044621492046AA
:10C4900021F07BFA384605B0BDE8F08FB09102205C
:10C4A00060A60020C891022050A70020049202201C
:10C4B00050060020E8AEBEE7BDAE0000B16D040836
:10C4C000CD090208E4BF9DE5AD98E8AEBEE7BDAE7C
:10C4D0000000000040920220230700202CEB0508FA
:10C4E00091B402085DAE0408F40B0020ED2C0208A4
:10C4F0007C920220F80B0020BD2D0208F00B0020DA
:10C50000CD2C02080DC30408010A02082DFC010805
:10C51000190A0208890802082DE9F04FEDB0054616
:10C52000642150A8F3F744FFC8211EA8F3F740FF89
:10C53000642105A8F3F73CFF00240020029003903B
:10C54000049069A809F06CFCF049F14824F072FCF1
:10C5500000206C90EE48BDF8B0114180BDF8B011DC
:10C5600081807F2101720021284620F0EBFC824669
:10C5700016F0EAF9834616F036FA064616F0E4F9A4
:10C58000834616F0E7F9074632463946504621F011
:10C59000C1FADF49504621F00CFB012412E01F2CA8
:10C5A00005DA2246DBA102A8FCF786FD04E022465C
:10C5B000D9A102A8FCF780FD02A950A8F3F703FF58
:10C5C000601CC4B21F2CEADD002412E0172C05DA2F
:10C5D0002246D0A102A8FCF76FFD04E02246CEA1BE
:10C5E00002A8FCF769FD02A905A8F3F7ECFE601CA0
:10C5F000C4B2172CEADD002412E03B2C05DA2246F7
:10C60000C4A102A8FCF758FD04E02246C2A102A87A
:10C61000FCF752FD02A91EA8F3F7D5FE601CC4B2B8
:10C620003B2CEADD27F0C8FBD0F858613146BB4807
:10C6300024F000FCE521B94801720A21C1800021E3
:10C64000504623F05DFAB6490860C8220021B4487C
:10C65000006821F006FA0122B249B148006823F0CF
:10C66000CBFC6421AE48006823F0BEFC0821AC4836
:10C67000006823F03CFDAC49A948006821F085F929
:10C680009DF8A401133881B20122A548006823F067
:10C6900005FDA24A0021A248006823F013FD0021F5
:10C6A000504623F02DFAA1490860C82264219F4812
:10C6B000006821F0D6F901229D499C48006823F0CA
:10C6C0009BFC64219948006823F08EFC0821974860
:10C6D000006823F00CFD94499448006821F055F956
:10C6E0008E4A00219148006823F0ECFC9DF8A501DA
:10C6F000401E81B201228D48006823F0CFFC00214A
:10C70000504623F0FDF98B490860C822114689483C
:10C71000006821F0A6F9012250A98648006823F09C
:10C720006BFC64218348006823F05EFC082181488B
:10C73000006823F0DCFC7C497E48006821F025F984
:10C74000764A00217B48006823F0BCFC9DF8A601D6
:10C75000401E81B201227748006823F09FFC00212F
:10C76000504623F0CDF974490860C8224FF4967101
:10C770007148006821F075F9012205A96E4800682A
:10C7800023F03AFC5A216C48006823F02DFC082164
:10C790006948006823F0ABFC63496748006821F0F2
:10C7A000F4F89DF8A71101226348006823F076FC95
:10C7B0005A4A00216048006823F084FC002150465A
:10C7C00023F09EF95D490860C8224FF4C3715B48AD
:10C7D000006821F046F901221EA95848006823F09C
:10C7E0000BFC5A215548006823F0FEFB08215348F2
:10C7F000006823F07CFC4C495048006821F0C5F8E3
:10C800009DF8A81101224D48006823F047FC434AD7
:10C8100000214A48006823F055FC3C49484824F070
:10C8200009FB484946484162474800686B904448C4
:10C83000BDF8AC1101840A21C180002150461DF0D1
:10C8400075F8424908600021404800681DF060FF0B
:10C850003FA13E4800681EF063F801213B48006894
:10C860001DF00CFF364A0021384800681EF034F8ED
:10C8700000220E21314800681AF0ACFB002150461E
:10C8800010F0E0F980464FF4E1721421404621F0A7
:10C89000E8F8C821404621F099F9002140461DF0F2
:10C8A00045F80190264A002101981EF015F829A1AB
:10C8B00001981EF035F82949404621F066F800211C
:10C8C000504610F0BFF981464FF4E1724FF4827187
:10C8D000484621F0C6F8C821484621F077F90021E2
:10C8E00048461DF023F80190154A002101981DF0DB
:10C8F000F3FF1BA101981EF013F81B49484621F0D5
:10C9000044F850466DB0BDE8F08F000050A70020FD
:10C91000589E022025640A0025640000D09E022053
:10C92000540D0020AEEC0508557F0408580D00207A
:10C9300058EC05085C0D0020600D0020640D0020FF
:10C94000949E022050060020E0EC0508680D0020AF
:10C9500000000000E4BF9DE5AD980000D907020883
:10C96000E58F96E6B688000045FC01082DE9FE4FEC
:10C97000814600BF15F0E8FF834616F029F882468D
:10C9800067A10FF075FA04466949204620F0FDFFC3
:10C990006849694824F04EFA6848010CC0F3072240
:10C9A000C3B24FEAD30ABDF800C06AF3040CCDF855
:10C9B00000C04FEA920ABDF800C06AF34A1CCDF8E5
:10C9C00000C04FEAD10ABDF800C06AF3CF2CCDF801
:10C9D00000C0BDF800A0D446CDF804C0BDF80420C6
:10C9E000114655480291BDF808104180014649881A
:10C9F00081800146204621F0DCF8002120461BF012
:10CA000011FB06464E4930461CF0A4F93C20002399
:10CA100002222146009030461FF02CFF00212046C4
:10CA20001CF084FF05464FF4967000230122214636
:10CA3000009028461FF01EFF002128461DF07EFBB7
:10CA4000824651463F4824F0F5F93F493D4841624E
:10CA50000246002128461DF051FF012128461DF005
:10CA600057FE3A4928461DF0C9FE204620F031FE07
:10CA700082465146284621F0A9F8012128461DF09A
:10CA8000E7FD002120461CF051FF0746304938469B
:10CA90001DF0B4FE002138461DF050FB8246514681
:10CAA0002C4824F0C7F92C492A484162024600214B
:10CAB00038461DF023FF002003460D222946009032
:10CAC00038461FF0D7FE002120461BF0ABFA064681
:10CAD000224930461CF03EF94FF4E1700023012258
:10CAE0002146009030461FF0C5FE002120461CF074
:10CAF0001DFF80461A4940461DF080FE114A002164
:10CB000040461DF0FBFE4FF4167000230222214622
:10CB1000009040461FF0AEFE2046BDE8FE8F0000AC
:10CB2000E585B3E4BA8EE8B7B3E58594000000006C
:10CB3000116F040824A60020FC9F0220F1A94300E5
:10CB400018880220849F022050060020E2EC05088D
:10CB500036ED0508C09F02206001002024880220D5
:10CB60004BED05082DE9FF470746884600BF15F045
:10CB7000EBFE064615F02CFF05463BA10FF078F9B9
:10CB800004463B49204620F000FF3A493A4824F049
:10CB900051F93A48006803903748BDF80C10818677
:10CBA00015F0D2FE064615F0D5FE4FEA400915F005
:10CBB000CBFE064615F017FF09FB00F528461FF0CF
:10CBC0009DFD2F4908600021204611F0A1F92D4953
:10CBD000086015F0B9FE814615F005FF054615F011
:10CBE000B3FE814615F0B6FE064604202B463246BB
:10CBF0000090234801682348006811F05FFC3C2244
:10CC000000212048006820F02CFF0A201E490880DF
:10CC1000488019484FF4B4710022CDE900210290F8
:10CC20001948B0F90220B0F9001002231548006835
:10CC300011F0C2F90020154988600846006820F00C
:10CC40001F00001D086000211048006861F3942057
:10CC50000E49086008460068C0F3140008602046CA
:10CC600004B0BDE8F0870000E794BBE69DBF00007C
:10CC70001D6F040850A7002038A0022078ED050899
:10CC8000840D0020800D0020880D002074A002205B
:10CC900000B5BBB024A809F0C3F800BF15F054FEDE
:10CCA000129015F095FEFEA113900FF0E1F823907D
:10CCB000FD49239820F069FEFC49FD4824F0BAF8AC
:10CCC000FC4813F07EF91390F948BDF84C104180F0
:10CCD0000146498881800146239820F06AFF00219F
:10CCE000239820F0CFFF2290F049F34824F0A2F8D7
:10CCF000F04813F066F91390EF48BDF84C104180EE
:10CD0000014649888180002181810F2181730021A2
:10CD1000C182018341838183C183E449E74824F0D0
:10CD200089F8E74813F04DF9E4491390BDF84C0039
:10CD300048800846498881800A21C1800221DE4856
:10CD400081730A21DD48C182D849DE4824F072F897
:10CD5000D649DD4824F06EF8DC49DD4824F06AF855
:10CD6000D249DC4824F066F8D049DB4824F062F868
:10CD7000CE49DA4824F05EF8CC49D94824F05AF874
:10CD8000CA49D84824F056F8D74800683A90D548A0
:10CD9000BDF8E8100184D5494162D549CF484162C8
:10CDA000D148001D00683990CC48BDF8E4100184DA
:10CDB000D049C8484162CC48083000683890C5481E
:10CDC000BDF8E0100184CC49C3484162C6480C302C
:10CDD00000683790C048BDF8DC100184C749C048DE
:10CDE0004162C148103000683690BD48BDF8D81087
:10CDF000018447F61841C180C14813F0E2F813904E
:10CE0000B748BDF84C1041800146498881800A210D
:10CE100041838183FF210172BA4813F0D2F8139045
:10CE2000A848BDF84C1081860321C186B64813F08E
:10CE3000C8F81390A648BDF84C10418001464988B7
:10CE4000818047F61841C18001464988418101210E
:10CE500081814C21C17301464988018201214182AF
:10CE6000954A0021229822F0F1F80021229822F020
:10CE700081F8239820F02DFC01461390229820F091
:10CE8000A5FE239820F04EFB5A3800B201461390BD
:10CE9000229820F07CFD5A220021229820F0E1FD0A
:10CEA000002122981BF0BEF82190984921981BF090
:10CEB00051FF32221146219820F0D3FD0021229803
:10CEC0001CF034FD2090854A002120981DF01FFDA4
:10CED0009DF8920000909DF8910013909DF89000AD
:10CEE00000F5FA601290024689A126A8139BFCF770
:10CEF000E3F826A920981DF013FD00200346022226
:10CF00000090229920981FF0B5FC002122981CF077
:10CF10000DFD1F90734A00211F981DF0F8FC80A1A1
:10CF20001F981DF0FDFC3222A0211F9820F099FDD2
:10CF3000002122981CF0FAFC1E90664A00211E98DF
:10CF40001DF0E5FC77A11E981DF0EAFC05200023EA
:10CF500012220090DDE91E011FF08CFC00212298B6
:10CF60001CF0E4FC1D905D4A00211D981DF0CFFCD3
:10CF70006DA11D981DF0D4FC052000230C2200900B
:10CF80001F991D981FF076FC002122981CF0CEFC02
:10CF90001C90524A00211C981DF0B9FC9DF8940089
:10CFA00013909DF893001290024661A126A8139B4E
:10CFB000FCF782F826A91C981DF0B2FC142064230B
:10CFC000132200901F991C981FF054FC00212398F5
:10CFD0001CF0ACFC1B9064A11B981DF0A1FC3F4A07
:10CFE00000211B981DF093FC3C200023022200909E
:10CFF00023991B981FF03EFC002123981CF096FCFF
:10D000001A90354A00211A981DF081FC5DA11A98EA
:10D010001DF086FC0020431F10220090DDE91A015C
:10D020001FF028FC0021229813F0D2FC19902298BE
:10D0300021F0DDF9143800B201461390199820F060
:10D04000C5FDB421199820F0A2FCB42000230222CF
:10D050000090229919981FF00DFC184A0021199888
:10D0600014F0A3FA0121199820F07DFC00212298E8
:10D0700013F0AEFC1890229821F0B9F9143800B2E0
:10D0800001461390189820F0A1FDC821189820F0AF
:10D090007EFC1E2000230D220090DDE9180173E0C4
:10D0A000E5A4A9E6B0940000CD6F040824A60020F2
:10D0B000E8A10220AF774500ACA1022024A2022003
:10D0C000CB915D00D8A202209CA20220C8A700201C
:10D0D00014A3022060A2022070A10220F8A0022066
:10D0E00034A10220BCA0022010F30508880600200D
:10D0F00050060020B8060020000100203406002061
:10D10000D49C6900EFDAC60000DDFF00CC88022065
:10D11000253034642D253032642D253032640000F2
:10D1200033000000E2848300E5A49AE4BA91000091
:10D13000E695B0E68DAEE69DA5E887AAE8B7B3E52B
:10D140008594E5A4A9E6B0940AE69C80E8BF91E640
:10D150009BB4E696B0E697B6E997B43A25303264C8
:10D160003A25303264000000E5AD9DE58D97E5B8C5
:10D1700082E58CBA20E6B996E58C97E8818CE9992E
:10D18000A2000000EF84A4001FF074FBFE4A0021FF
:10D19000189814F00AFA0121189820F0E4FB0021F5
:10D1A000229813F015FC1790229821F020F91438DA
:10D1B00000B201461390179820F008FDFA21179845
:10D1C00020F0E5FB1E2000230D220090DDE9170171
:10D1D0001FF050FBEC4A0021179814F0E6F90121EA
:10D1E000179820F0C0FB0021229813F0F1FB169055
:10D1F000229821F0FCF8143800B2014613901698DA
:10D2000020F0E4FCE621169820F0C1FB1E2000234C
:10D210000D220090DDE916011FF02CFBDA4A0021F7
:10D22000169814F0C2F90121169820F09CFB0021F9
:10D23000229813F0CDFB1590229821F0D8F81438DD
:10D2400000B201461390159820F0C0FC4FF496717F
:10D25000159820F09CFB1E2000230D220090DDE994
:10D2600015011FF007FBC84A0021159814F09DF91D
:10D270000121159820F077FB002122981CF056FB25
:10D280001490C24A002114981DF041FBC0A11498CB
:10D290001DF046FB052000230D220090DDE914015E
:10D2A0001FF0E8FA199800287ED000200E907FE049
:10D2B0000E9800EBC00101EB0010142101EB4000BF
:10D2C00080B20F90002119981AF0ACFE1390B84963
:10D2D0000E9851F8200001460D9013981BF03AFD6E
:10D2E0000F9802B21421139820F0BBFB002119986B
:10D2F0001CF01CFB1290A54A002112981DF007FBA0
:10D30000AC490E9851F8200001460D9012981DF07E
:10D3100007FB00200A2313220090DDE912011FF011
:10D32000A9FA002119981CF001FB1090A24A0021D3
:10D3300010981DF0ECFAA1490E9851F82000014612
:10D340000D9010981DF0ECFA012110981DF096F93F
:10D350003221109820F03AFC00200F231322009075
:10D36000129910981FF086FA002119981CF0DEFA25
:10D370001190934A002111981DF0C9FA91490E9815
:10D3800051F8200001460D9011981DF0C9FA322184
:10D39000119820F01BFC0F98801C02B24FF4AF7163
:10D3A000119820F05EFB00E007E00E98401C0E9004
:10D3B0000E980328FFF47CAF00BF189800287CD09B
:10D3C00000200E9064200D900021189813F000FBAF
:10D3D0000C90229821F00BF8143800B201460A9004
:10D3E0000C9820F0F3FB64210C9820F0D0FA664AE8
:10D3F00000210C9814F0D9F801210C9820F0B3FA10
:10D4000000210C981DF090FC0F90322200210F9803
:10D4100020F027FB6C4A00210F981DF083FE0622A6
:10D420006A490F981DF036FE01210F981DF083FE0A
:10D4300008200623654A00900C990F9805F0C6F85D
:10D440000623624A0C990F9805F088F800200B908B
:10D450000A9082E00A98C0EBC00000EB80011E2019
:10D4600000EB410080B20E90002118981AF0DAFD0E
:10D470001390574913981BF06DFC0E98801F00B253
:10D4800009900D98401D02B20999139820F0E9FA0D
:10D49000002118981CF04AFA1190474A002111986F
:10D4A0001DF035FA4BA111981DF03AFA0D9802B211
:10D4B0000E98801D01B2119800E053E020F0D1FADF
:10D4C000002118981CF032FA10903B4A0021109865
:10D4D0001DF01DFA41A110981DF022FA01211098AB
:10D4E0001DF0CCF80D981E3002B20E9801B21098C3
:10D4F00020F0B7FA002118981CF018FA12902E4A62
:10D50000002112981DF003FA9DF893100A98084420
:10D51000C0B20B900B98182803DB0B981838C0B2D8
:10D520000B909DF8940003460990AFF2D03126A8E5
:10D530000B9AFBF7C1FD26A912981DF0F1F90E9880
:10D54000083800B209900D983C3002B2099912983F
:10D5500020F087FA0A98401C0A900A980628FFF4DF
:10D5600079AF00BF179800287ED000200F9096203A
:10D570000E9014221B4909A8F2F7FFFE194B143331
:10D580000FCBCDE907232FE024A20220F8A0022030
:10D59000E5A4A9E6B094E695B0E68DAEE98787E705
:10D5A00094A8E6A8A1E68B9FE695B0E68DAE0000B4
:10D5B000AC0D0020B80D002034A10220D00D0020B9
:10D5C00060A20220C40D0020D8A202207CED050834
:10D5D0004888022032E7BAA700000000E4BC98E8BF
:10D5E00089AF000024F30508CDE90501002004906F
:10D5F000002117981DF084FA0390B34A0021039884
:10D600001DF05CFB14221146039820F083FAAF4909
:10D61000049801EB8000B0F90200C0F17D0000B277
:10D6200001900498233000900146019A039820F05D
:10D6300018FA02223221A648039B26F041F9A54997
:10D640000860002117981DF06FFB02901E222D210B
:10D65000029820F006FAA04A002102981DF062FD0F
:10D6600040F25F12994900E083E002981DF012FD3C
:10D67000012102981DF05FFD002117981CF056F95A
:10D680001190964A002111981DF041F994A111982A
:10D690001DF046F90E983738322301220090179971
:10D6A00011981FF0E7F8002117981CF03FF910902F
:10D6B0008A4A002110981DF02AF98DA110981DF0BA
:10D6C0002FF90E9837386FF0310303220090179925
:10D6D00010981FF0CFF80020019046E0019800EB71
:10D6E000C001C1EB80101E2101EB400080B20F9001
:10D6F000002117981CF01AF91290784A002112980C
:10D700001DF005F905A9019851F820000146009087
:10D7100012981DF005F90E981E3002B20F9801B252
:10D72000129820F09EF9002117981CF0FFF8139032
:10D73000734A002113981DF0EAF809A9019851F8DD
:10D7400020000146009013981DF0EAF8012113987B
:10D750001CF07EFF002003460A220090DDE9121033
:10D760001FF088F80198401C019001980428B5D357
:10D7700000BF1698002846D000201190C8201090B5
:10D780001420119000200F9039E00F210F9801EB29
:10D79000801080B21090002116981AF043FC13906C
:10D7A00058490F9851F8200001460E9013981BF02D
:10D7B000D1FA1098401D02B2119801B2139820F0CE
:10D7C00050F9002116981CF0B1F812904E4A002131
:10D7D00012981DF09CF84D490F9851F82000014611
:10D7E0000E9012981DF09CF800200A23132200903E
:10D7F000DDE912011FF03EF80F98401C0F900F98C2
:10D800000328C2D300BF1598002859D000201190DA
:10D81000C820109000200F904EE003210F98B0FB1D
:10D82000F1F0C0EBC00000EB80011E2000EB810096
:10D8300080B2109003210F98B0FBF1F201FB1200AF
:10D84000C0EB001000EB8001232000EB41001190A1
:10D85000002115981AF0E6FB13902D490F9851F806
:10D86000200001460E9013981BF074FA1098401D8A
:10D8700002B2119801B2139820F0F3F80021159824
:10D880001CF054F81290204A002112981DF03FF825
:10D8900020490F9851F8200001460E9012981DF073
:10D8A0003FF80A2000230D220090DDE912011EF04E
:10D8B000E1FF0F98401C0F900F980528ADD300BFD3
:10D8C00023983BB000BD000014A3022094ED05088E
:10D8D00011A20208040E0020D8A2022034A10220C6
:10D8E000E697A5E587BA2030373A303200000000CD
:10D8F000E697A5E890BD2031373A333200000000AA
:10D9000060A20220A00D0020F8A00220940D0020AB
:10D91000DC0D0020F00D00202DE9F04F89B000242F
:10D92000002500BF15F010F8804615F051F80746A5
:10D93000FEA10EF09DFA06460021304625F056FB6A
:10D94000FC4908603C220021FA48006820F089F870
:10D9500014F0FAFF009015F046F88C3807B214F076
:10D96000F3FF009014F0F6FF80463A464146F14836
:10D97000006820F0CFF80121EE48006825F033FD63
:10D98000ED49EE4823F056FA0021EC488181024629
:10D99000E848006825F036FDE9A1E648006825F072
:10D9A000DBF90590E8A1E348006825F0D5F904907B
:10D9B000E8A1E048006825F0CFF90390E8A1DD4830
:10D9C000006825F0C9F90290E649E74823F032FAE9
:10D9D000E64812F0C7FA0090E348BDF80010418015
:10D9E000E24812F0BFFA0090DF48BDF800108180D5
:10D9F000FF21017200210183C1824183818302469C
:10DA0000059821F023FBD84A0121059821F01EFB3F
:10DA10000021059821F0AEFAD34A0021049821F0A4
:10DA200015FBD14A0121049821F010FB0021049834
:10DA300021F0A0FACC4A0021039821F007FBCA4A42
:10DA40000121039821F002FB0021039821F092FAB2
:10DA5000C54A0021029821F0F9FAC34A012102982F
:10DA600021F0F4FA0021029821F084FA00210598AF
:10DA70001DF02CFD0190002014F0B5FF8C3807B28A
:10DA8000002014F067FF80463A464146019820F096
:10DA900041F8002101981DF05BFFB549B54823F01E
:10DAA000C9F9B549B3484162AE49B44823F0C2F957
:10DAB000AE4812F057FA0090B048BDF8001041800F
:10DAC000AA4812F04FFA0090AC48BDF800108180CF
:10DAD0000021C180FF2101720121818140F6BB300C
:10DAE00012F092FB0090A548BDF800104181FF2183
:10DAF000C173A34800680890A048BDF820100182B7
:10DB000000210175418241838183C1820183C183E8
:10DB10009C499D4823F08EF9944812F023FA009016
:10DB20009948BDF800104180904812F01BFA00900F
:10DB30009548BDF800108180002141838183C18216
:10DB40000183C1839149924823F074F98C48001DE8
:10DB5000006807908E48BDF81C1041808848083046
:10DB6000006806908A48BDF8181081800021C180A5
:10DB7000FF21017240F6BB3012F046FB0090844852
:10DB8000BDF800104181012181818173FF21C173A2
:10DB9000002141820A2141838183C18201830F21B7
:10DBA000C18301467B4823F045F979497A4823F03F
:10DBB00041F96E4812F0D6F900907648BDF8001091
:10DBC0004180014649888180684812F0CBF9009075
:10DBD0007148BDF8001041800146498881806A4A39
:10DBE000012101981DF0BCFE644A002101981DF03E
:10DBF000B7FE684A052101981DF0B2FE644A04216F
:10DC000001981DF0ADFE644A082101981DF0A8FEA0
:10DC100000BF26E004EB8400604A52F82010002286
:10DC200001981DF0DBFA8146002148461BF07EFE7C
:10DC30008246504A002150461CF018FE04EB840036
:10DC4000564A02EB8000816850461CF069FE0020B5
:10DC5000C82307224946009050461EF00BFE601C68
:10DC6000C4B2142CD6D3002104981DF02FFC0190CF
:10DC7000002014F0B8FE8C3807B2002014F06AFEC1
:10DC800080463A46414601981FF044FF0021019822
:10DC90001DF05EFE3C4A012101981DF061FE374AED
:10DCA000002101981DF05CFE3A4A052101981DF003
:10DCB00057FE374A042101981DF052FE364A0821CA
:10DCC00001981DF04DFE002426E004EB8400344A48
:10DCD00052F82010002201981DF080FA81460021A0
:10DCE00048461BF023FE8246224A002150461CF083
:10DCF000BDFD04EB84002A4A02EB80008168504697
:10DD00001CF00EFE0020C823072249460090504612
:10DD10001EF0B0FD601CC4B2042CD6D30022114604
:10DD200001981DF05BFA814614213BE0E5BEAEE4AC
:10DD3000BFA10000D40B002014A70020408F0220B8
:10DD40004368617473000000436F6E7461637473A1
:10DD500000000000446973636F7665720000000084
:10DD60004D6500009CA60020048F0220EDEDED0023
:10DD700060A60020148E022050060020B88F0220DA
:10DD800014EB05088CA70020F48F022004A80020C3
:10DD9000309002206C900220A890022038070020CA
:10DDA000C808002048461FF0F2FD042148460FF045
:10DDB00027F8002426E004EB8400D14A52F8201012
:10DDC000002201981DF00AFA8146002148461BF006
:10DDD000ADFD8246CB4A002150461CF047FD04EBC6
:10DDE0008400C74A02EB8000816850461CF098FD11
:10DDF0000020C82307224946009050461EF03AFDF5
:10DE0000601CC4B20C2CD6D3BF49C04823F012F812
:10DE1000BF4812F0A7F80090BC48BDF8001001847C
:10DE2000002103981DF052FB0190002014F0DBFD4F
:10DE30008C3807B2002014F08DFD80463A464146EA
:10DE400001981FF067FE002101981DF081FDB14A85
:10DE5000012101981DF084FDAF4A002101981DF0B9
:10DE60007FFDAE4A052101981DF07AFDAC4A0421E0
:10DE700001981DF075FDAB4A082101981DF070FD59
:10DE80000025002454E0012C07D0042C05D0072CD9
:10DE900003D0092C01D00B2C0ED100221146019881
:10DEA0001DF09CF981460F2148461FF070FD0421AA
:10DEB00048460EF0A5FF39E005EB85009A4A52F876
:10DEC0002010002201981DF089F981460021484662
:10DED0001BF02CFD82468B4A002150461CF0C6FCEC
:10DEE00005EB8500904A02EB8000816850461CF0EB
:10DEF00017FD681CC5B2002148460EF079FF0021CD
:10DF000048461BF013FD824688A150461CF008FDD0
:10DF10007E4A002150461CF0A9FC05206FF0090341
:10DF200008224946009050461EF0A4FC601CC4B272
:10DF30000D2CA8D3002102981DF0C8FA01900020F2
:10DF400014F051FD8C3807B2002014F003FD804618
:10DF50003A46414601981FF0DDFD002101981DF071
:10DF6000F7FC6C4A012101981DF0FAFC6A4A002175
:10DF700001981DF0F5FC694A052101981DF0F0FC9F
:10DF8000674A042101981DF0EBFC664A08210198BC
:10DF90001DF0E6FC0025002450E0012C03D0032CEA
:10DFA00001D0082C0ED10022114601981DF016F95F
:10DFB00081460F2148461FF0EAFC042148460EF036
:10DFC0001FFF39E005EB8500594A52F82010002266
:10DFD00001981DF003F98146002148461BF0A6FC7C
:10DFE0008246484A002150461CF040FC05EB850063
:10DFF0004F4A02EB8000816850461CF091FC681C7F
:10E00000C5B2002148460EF0F3FE002148461BF041
:10E010008DFC824645A150461CF082FC3B4A002103
:10E0200050461CF023FC05206FF0090308224946E6
:10E03000009050461EF01EFC601CC4B20A2CACD3EB
:10E0400031493C4822F0F6FE3B4811F08BFF00902E
:10E050003848BDF800104180374811F083FF009028
:10E060003448BDF80010818000243CE00021304697
:10E070000EF0E8FD83465022782158461FF04AFDF5
:10E0800014F062FC804614F0AEFC503807B2C4EBCA
:10E090000410C1003A4658461FF0E3FC254A00210F
:10E0A00058460EF0C4FE234A012158460EF0BFFE2A
:10E0B000214658461FF088FD204958461FF065FC50
:10E0C0000021584619F0AEFF1D4941F8240004EB29
:10E0D00084021C4B53F82210194A52F824001AF0FB
:10E0E00039FE601CC4B2042CC0DB164A116D144A00
:10E0F00010681AF02FFE304609B0BDE8F08F00001E
:10E1000018090020148E022024A600207C8F0220F3
:10E11000ACACAC00F48F0220B88F02206C900220CF
:10E1200030900220A8900220080A0020EF8194007D
:10E13000A80A0020D88D0220F7F7F700EDFC0108AF
:10E14000C88D0220340B00202DE9FF5FDA4807F06C
:10E1500019FF22F0C4F80646D8A10DF089FE044646
:10E160000021204623F0F2FCD6490860D24801681D
:10E17000D448006824F0C8FB0121D248006824F08C
:10E1800078FA14F0E1FB834614F0E4FB064600EB5A
:10E19000D6704010143807B23946CA4800681FF0DC
:10E1A00015FD50220521C74800681FF05AFCC649DA
:10E1B000C44800681FF0E9FB1021C248006824F041
:10E1C0004EFA002120461BF0B1FB8046BFA140461D
:10E1D0001CF0A6FB0020034609220090B948016804
:10E1E00040461EF047FB0021204623F0AFFCB94912
:10E1F0000860B1484168B748006824F085FB0121F8
:10E20000B448006824F035FA14F09EFB834614F0FD
:10E21000A1FB064600EBD6704010143807B2394611
:10E22000AC4800681FF0D2FC0921AA48006824F01D
:10E23000F5F9282000230D220090A2480168A54886
:10E2400000681EF017FBA049A24800681FF09DFB64
:10E250000121A048006824F0B4FA10219D4800680C
:10E2600024F0FDF94FF47A719A48006824F007FB16
:10E27000002120461BF05AFB814697A148461CF01E
:10E280004FFB00200346092200909248016848464F
:10E290001EF0F0FA0021204623F058FC9049086057
:10E2A000854881688E48006824F02EFB01218C4847
:10E2B000006824F0DEF914F047FB834614F04AFBB3
:10E2C000064600EBD6704010143807B23946844831
:10E2D00000681FF07BFC09218148006824F09EF94A
:10E2E000782000230D220090764801687C48006861
:10E2F0001EF0C0FA74497A4800681FF046FB1021EE
:10E300007748006824F0ABF976A17548006824F0DE
:10E310009DF8002120461BF009FB824674A150465F
:10E320001CF0FEFA00200346092200906C480168A8
:10E3300050461EF09FFA0021204623F007FC6F494B
:10E3400008605D48C1686D48006824F0DDFA01216D
:10E350006A48006824F08DF914F0F6FA834614F048
:10E36000F9FA064600EBD6704010143807B2394669
:10E37000624800681FF02AFC09216048006824F008
:10E380004DF9C82000230D2200904E4801685B48DB
:10E3900000681EF06FFA4C49584800681FF0F5FA03
:10E3A00005215648006824F05AF955A153480068E1
:10E3B00024F04CF855A15148006824F0DEF9002102
:10E3C00020461BF0B3FA029052A102981CF0A8FA62
:10E3D00000200346092200904848016802981EF078
:10E3E00049FA002120460EF02DFC019014F0ACFA01
:10E3F000074614F0AFFA143806B2314601981FF000
:10E40000E5FB484901981FF0C0FA4FF4C87000239B
:10E4100002222146009001981EF02CFA42494348FE
:10E4200022F008FD002003904048BDF80C10018444
:10E430003F494162002101981BF078FA05462E46BB
:10E440003A4F394630461FF0B4FB00BF39A1284689
:10E450001CF066FA002120461AF0B4FF3949086022
:10E460003949384800681FF090FA14F06DFA0746F1
:10E4700014F0B9FA032190FBF1F006B231463148AD
:10E4800000681FF084FA0020034605220146009030
:10E490002C4800681EF0EEF90A4801682948006817
:10E4A0001BF0BAF90121274800681BF059F92046F2
:10E4B00004B0BDE8F09F00005C910220574C414E33
:10E4C00000000000E00B002031C40408535349440D
:10E4D0003A000000E40B00205057443A00000000CE
:10E4E000E80B0020303132333435363738392E00DE
:10E4F0005345525645525F49503A0000EC0B0020FC
:10E50000303132333435363738390000302D363536
:10E51000353335005345525645525F504F52543AA9
:10E52000000000000109020850A700207491022099
:10E5300050060020E4BF9DE5AD98E9858DE7BDAEAE
:10E5400000000000DC0B00207D7B020808B51449A8
:10E55000144822F06FFC08211248C1865A22462135
:10E560001148008811F06CFE00900E48BDF80010B4
:10E570008186012180F839100221818140F25550B5
:10E5800011F040FD00900748BDF8001041810321C3
:10E5900041838183C18201830449086708BD00006B
:10E5A000C8C5002048CD0020C405002018C40020A4
:10E5B00008B51349134822F03DFC0A211148C186D1
:10E5C0005A2211461048008811F03AFE00900D487A
:10E5D000BDF8001081860A2181815A221E210A4835
:10E5E000008811F02DFE00900648BDF80010418112
:10E5F000002141838183C18201830449086708BDEA
:10E60000CCD90020A8DF0020D40500201CD8002091
:10E6100008B50D490D4822F00DFC0A210B48C186B2
:10E620005A2246210A48008811F00AFE0090074845
:10E63000BDF800108186012180F839100021818108
:10E640000449086708BD0000ECEF00206CF70020CB
:10E65000E00500203CEE002008B51549154822F0E1
:10E66000E9FB08211348C186462250211248008840
:10E6700011F0E6FD00900F48BDF8001081860121E1
:10E6800080F839100721818130220B210A48008847
:10E6900011F0D6FD00900748BDF80010418101211E
:10E6A00041838183C18201830449086708BD00005A
:10E6B00070FF0020E4030120E8050020C0FD0020D9
:10E6C0000148024908677047140D0120640B0120BE
:10E6D00008B50D490D4822F0ADFB0A210B48C18653
:10E6E0005A2228210A48008811F0AAFD0090074804
:10E6F000BDF800108186012180F839100021818148
:10E700000449086708BD0000000F0120EC13012038
:10E71000F8050020500D012000B585B03849394872
:10E7200022F088FB4C213748017247F61841C1801E
:10E730003548006804903348BDF8101041803248D5
:10E74000001D006803902F48BDF80C108180022145
:10E7500081812D480830006802902A48BDF80810D1
:10E7600041813321C1730021418381830A21C18208
:10E7700001830021C1832249244822F05BFB47F634
:10E7800018412248C180022181811F480C30006855
:10E7900001901E48BDF804104181B221C1730021CF
:10E7A00041838183C1820183052141825A22142140
:10E7B0001748008811F044FD00901448BDF800107F
:10E7C0000182502228211248008811F039FD009062
:10E7D0000E48BDF800104180502228210C480088C6
:10E7E00011F02EFD00900948BDF800108180054809
:10E7F0000849486505490748816505B000BD000026
:10E80000C8C5002020C8002048D705085CC80020E3
:10E81000C405002018C40020034804494865044981
:10E8200002488165704700008CA700209CD300201F
:10E83000C8A7002008B51C491C4822F0FBFA5F223B
:10E840000F211B48008811F0FBFC00901748BDF811
:10E85000001041800146498881800321C180002148
:10E860008181062141838183C18201830146114850
:10E8700022F0E0FA462255210D48008811F0E0FC14
:10E8800000900C48BDF80010418001464988818005
:10E89000002141838183C182018304480649486580
:10E8A00004490548816508BDCCD900208CDD0020D5
:10E8B000D4050020C8DD00201CD8002010B5104968
:10E8C000104822F0B7FA06210E4841838183C182A5
:10E8D000018347F61841C1800B490C4822F0AAFA7F
:10E8E00003210A4841838183C182018347F618418D
:10E8F000C18004480649486504490548816510BD42
:10E900006CEB002020EC0020A8EB00205CEC002049
:10E91000CCE8002000B585B03849394822F08AFAA1
:10E920004C213748017247F61841C18035480068CC
:10E9300004903348BDF8101041803248001D006833
:10E9400003902F48BDF80C108180022181812D4851
:10E950000830006802902A48BDF808104181332130
:10E96000C1730021418381830A21C1820183002177
:10E97000C1832249244822F05DFA47F61841224813
:10E98000C180022181811F480C30006801901E481F
:10E99000BDF804104181B221C173002141838183FC
:10E9A000C1820183052141825A221421174800881F
:10E9B00011F046FC00901448BDF80010018250226E
:10E9C00028211248008811F03BFC00900E48BDF849
:10E9D00000104180502228210C48008811F030FCA2
:10E9E00000900948BDF80010818005480849486535
:10E9F00005490748816505B000BD0000ECEF002027
:10EA000044F2002018D8050880F20020E00500201C
:10EA10003CEE002008B52249224822F00BFA0621DC
:10EA2000204841838183C182018347F61841C18018
:10EA30001D491E4822F0FEF9462250211C4800883C
:10EA400011F0FEFB00901948BDF8001041804622ED
:10EA500050211748008811F0F3FB00901348BDF8CF
:10EA6000001081800F2214211148008811F0E8FB6A
:10EA700000900E48BDF80010418101218181FF21E5
:10EA8000C17347F61841C180002141838183C1824F
:10EA9000018304480749486504490648816508BD63
:10EAA00060000120B802012070FF0020F402012064
:10EAB000E8050020C0FD00200348044948650146E0
:10EAC0000248816570470000140D0120640B01208D
:10EAD00008B51E491E4822F0ADF900211C480172FC
:10EAE00047F61841C18002218181FF21C1735A225A
:10EAF00028211848008811F0A3FB00901448BDF8A5
:10EB0000001041811149144822F094F947F6184148
:10EB10001148C1805A2228210E48008811F090FB2C
:10EB200000900D48BDF80010418001464988818061
:10EB300000218181052141838183C18201830448B1
:10EB40000649486504490548816508BD000F012054
:10EB500084120120F8050020C0120120500D012070
:10EB600000B585B08C498D4822F064F9FF218B48AF
:10EB7000017200208949087040F2222011F042FA07
:10EB800000908648BDF80010418040F2222011F02C
:10EB900039FA00908148BDF8001081800021C180C1
:10EBA0000C2141838183C1820183C1837C48006839
:10EBB00004907A48BDF81010418101218181FF2124
:10EBC000C1737748001D006803907448BDF80C10AD
:10EBD0000182002141820121017540F6DD5011F0D2
:10EBE00011FA00906D48BDF8001001846D4801686D
:10EBF0006A484162012101850221418540F6DD50CC
:10EC000011F000FA00906548BDF80010018600215F
:10EC100080F8321040F6DD5011F0F4F900905F48B2
:10EC2000BDF8001081860121C18601465E4822F0B0
:10EC300001F940F2333011F0E5F900905A48BDF87F
:10EC40000010418040F2333011F0DCF9009056485A
:10EC5000BDF8001081800221818140F2666011F0D0
:10EC6000D1F900905048BDF8001041814C4808305F
:10EC7000006802904C48BDF80810018201464B48DC
:10EC800022F0D8F8002149480183C1824183818361
:10EC90004249474822F0CEF80A214548C18040F257
:10ECA000666011F0AFF900904148BDF80010418056
:10ECB00040F2666011F0A6F900903D48BDF80010E2
:10ECC000818040F6CC4011F09DF900903848BDF8A5
:10ECD00000104181022181819921C17360220821A4
:10ECE0003448008811F0ACFA00903148BDF80010AB
:10ECF0000184602208212F48008811F0A1FA0090B9
:10ED00002B48BDF8001001864622142129480088AE
:10ED100011F096FA00902648BDF8001081861F4930
:10ED2000254822F087F87F212348017247F61841D1
:10ED3000C1801B480C30006801901F48BDF80410CA
:10ED400041816621C173012181815C222121194801
:10ED5000008811F075FA00901748BDF80010418046
:10ED60005C2221211348008811F06AFA00901248B1
:10ED7000BDF800108180012141838183C18201831C
:10ED80000621C18308480D494860084808600848C2
:10ED9000886005B000BD000014A70020C8C5002091
:10EDA00038D70508C805002004C6002040C600204A
:10EDB0007CC60020C4050020B8C6002018C400206E
:10EDC00008B51E491E4822F035F81D491D4822F09D
:10EDD00031F800211B480183C182418381831A4994
:10EDE0001A4822F027F819480146498881800146CF
:10EDF000B1F91C0000EBD0714A1014498A83B1F9B3
:10EE0000180000EBD0714A1010490A8310491148CC
:10EE100022F010F802210F48818140F6BB3011F03A
:10EE20001FF900900B48BDF80010418108480A49BD
:10EE30004860044808600148886008BD8CA700202D
:10EE40004CD5002088D50020C8A70020C4D50020BC
:10EE500014A7002000D600209CD3002000B585B068
:10EE60004549464821F0E6FF45480168434841626C
:10EE70000421C1800146434821F0DCFF424811F0E3
:10EE800042F800903F48BDF8001041800146498893
:10EE900081800021C18001463C4821F0CBFF002148
:10EEA0003A480183C182418381833449384821F043
:10EEB000C1FF04213648C1803648006804903448B8
:10EEC000BDF8101041803348001D006803903048A1
:10EED000BDF80C1081800121818140F6BB3011F01A
:10EEE000EDF800902A48BDF800104181FF21C17360
:10EEF00040F6AA2011F0E2F800902548BDF8001075
:10EF0000018200210175042141820C21418381830A
:10EF1000C18201830821C18340F2333011F0CEF861
:10EF200000901B48BDF80010018440F2333011F00E
:10EF3000C5F800901648BDF8001001860F49164824
:10EF400021F078FF002002901348BDF8081041809E
:10EF5000002001901048BDF80410818066210172E4
:10EF600004218183018307480C49486007480860F1
:10EF70000748886005B000BD14A70020CCD9002048
:10EF8000D805002044DA0020F0F0F000BCDA0020C0
:10EF900080DA0020D8D7050808DA00201CD8002025
:10EFA00000B58DB05049514821F044FF50480068E9
:10EFB0000C904E48BDF8301041804D48001D00684F
:10EFC0000B904A48BDF82C1081800021C180FF21A0
:10EFD00001720A2141838183C1820183C1830020A0
:10EFE0000A904248BDF82810418101218181FF210A
:10EFF000C1730F2181733F4801683C484162002082
:10F0000009903A48BDF82410018401210185418509
:10F01000002008903548BDF820108186FF2180F837
:10F0200038100121C186002007903048BDF81C101F
:10F030000186002180F83210FF2180F833102E491C
:10F040002E4821F0F7FE00212C480183C182418324
:10F0500081832649284821F0EDFE2749284821F0E0
:10F06000E9FE05212648C1802349264821F0E2FE19
:10F07000002006902348BDF818104180002005901C
:10F080002048BDF8141081801948083000680490A9
:10F090001C48BDF81010418115480C3000680390E1
:10F0A0001848BDF80C100184114810300068029017
:10F0B0001448BDF8081081860D481430006801908E
:10F0C0001048BDF80410018601460F4821F0B2FE39
:10F0D00005210D48C18005480C4948600748086073
:10F0E000074888600DB000BD14A700207CEA00200E
:10F0F000ECD70508DC050020F4EA0020B8EA00207F
:10F100006CEB002030EB0020A8EB0020CCE80020C6
:10F1100000B585B08549864821F08CFEFF218448E2
:10F12000017200208249087040F2222010F0E2FFB4
:10F1300000907F48BDF80010418040F2222010F07E
:10F14000D9FF00907A48BDF8001081800021C1806D
:10F150000C2141838183C1820183C183754800688A
:10F1600004907348BDF81010418101218181FF2175
:10F17000C1737048001D006803906D48BDF80C1005
:10F180000182002141820121017540F6DD5010F01D
:10F19000B1FF00906648BDF8001001846648016820
:10F1A00063484162012101850221418540F6DD501D
:10F1B00010F0A0FF00905E48BDF80010018600210D
:10F1C00080F8321040F6DD5010F094FF009058485F
:10F1D000BDF8001081860121C1860146574821F003
:10F1E00029FE052010F086FF00905448BDF800105D
:10F1F0004180452010F07EFF00905048BDF800107F
:10F2000081800221818140F2666010F073FF0090DE
:10F210004A48BDF800104181464808300068029015
:10F220004648BDF8081001820146454821F002FE1B
:10F23000002143480183C182418381833C49414885
:10F2400021F0F8FD0A213F48C180C80110F052FFAB
:10F2500000903C48BDF80010418040F2055010F08D
:10F2600049FF00903748BDF80010818040F6CC403F
:10F2700010F040FF00903348BDF80010418102219A
:10F2800081819921C173602208212F48008810F0E4
:10F29000D7FF00902B48BDF80010018446221421AE
:10F2A0002948008810F0CCFF00902648BDF80010D7
:10F2B00081861F49254821F0BDFD7F212348017229
:10F2C00047F61841C1801B480C30006801901F4868
:10F2D000BDF8041041816621C173012181815C2246
:10F2E00021211948008810F0ABFF00901748BDF8A5
:10F2F000001041805C2221211348008810F0A0FFFB
:10F3000000901248BDF80010818001214183818363
:10F31000C18201830621C18308480D49486008481D
:10F3200008600848886005B000BD000014A70020F0
:10F33000ECEF002008D80508E405002028F00020A4
:10F3400064F00020A0F00020E0050020DCF00020A8
:10F350003CEE002008B55949594821F06BFD594849
:10F360000168574841625849584821F063FD1E2200
:10F370000B215748008810F063FF00905348BDF8F8
:10F38000001041801E220B215148008810F058FFC8
:10F3900000904E48BDF8001081805F2205214C4846
:10F3A000008810F04DFF00904848BDF8001001841F
:10F3B00044480168454841625F220521444800886D
:10F3C00010F03EFF00904148BDF800100186014654
:10F3D000404821F02FFD00213E480183C182418336
:10F3E000818337493C4821F025FD3C221E213848C5
:10F3F000008810F025FF00903748BDF800104180CC
:10F400003C221E213248008810F01AFF009032483A
:10F41000BDF800108180002181810521C183002178
:10F4200041838183C18201830321C180FF21017255
:10F4300026492A4821F0FEFC12220B21244800888C
:10F4400010F0FEFE00902548BDF800104180122209
:10F450000B211F48008810F0F3FE00901F48BDF8F4
:10F46000001081800521C18019220A2118480088D6
:10F4700010F0E6FE00901948BDF80010418101210E
:10F480008181FF21C1730A2141838183C18201836C
:10F49000282214210E48008810F0D2FE00900F4858
:10F4A000BDF8001081860121C1860A480C49086018
:10F4B000064848600248886008BD00008CA700200C
:10F4C00070FF0020EC05002014A70020E8FF0020BA
:10F4D000E8050020ACFF002024000120600001208E
:10F4E000C0FD002010B50649064821F0A3FC0648DF
:10F4F000016804484162054908604860886010BDA1
:10F500008CA70020140D0120F4050020640B0120BD
:10F510000EB54449444821F08DFCFF214248C17397
:10F52000424801684048416240F2444010F03EFECB
:10F5300000903D48BDF80010018440F2444010F0B6
:10F5400035FE00903848BDF8001001860146384865
:10F5500021F070FC3748006802903548BDF808106B
:10F5600041803448001D006801903148BDF8041006
:10F5700081800021C1808181418201462E4821F095
:10F5800059FC00212C480183C18241838183284991
:10F590002A4821F04FFC0A212848C180022181819C
:10F5A0005A221E212648008810F04AFE0090234867
:10F5B000BDF800104181FF21C1730421418240F652
:10F5C000DD5010F0F3FD00901C48BDF800100182E2
:10F5D0001021418381830C21C18201830A21C183CF
:10F5E0001149184821F026FC5A221E21144800888F
:10F5F00010F026FE00901348BDF80010418001462F
:10F60000498881800021818147F61841C180062107
:10F61000C18309480C49086005484860074888606C
:10F620000EBD00008CA70020000F0120FC0500206B
:10F63000780F0120B4D80508B40F0120F00F012085
:10F64000F80500203C0F0120500D01200D4991EDDF
:10F65000000A80ED000A91ED010A80ED010A097CA3
:10F6600001740849897C81740649497C41740549C3
:10F6700091ED020A80ED020A91ED030A80ED030A82
:10F68000704700008400002000B52DED068B81B08E
:10F6900008213C48F2F7D0F908B9012000E0002029
:10F6A0003949887420213948F2F7C6F908B9012090
:10F6B00000E0002034494874FAF79AFA00EE100A84
:10F6C000B8EE400A304880ED000AD0ED000AB0EEF6
:10F6D000600A0621684600F065F80098F0F73CFFE4
:10F6E00041EC1A0B9FED2A0B53EC102BF0F7C2FEE6
:10F6F00041EC190B9FED280B53EC102BF0F7BAFEE1
:10F7000041EC180BF0F73BFF1F494860084690EDAD
:10F71000010AD0ED020AB4EEE00AF1EE10FA04DBC1
:10F7200090ED020A80ED010A0DE0174890ED010A04
:10F73000D0ED030AB4EEE00AF1EE10FA03D890ED32
:10F74000030A80ED010A104890ED010AD0ED030A8A
:10F7500030EE600AD0ED020A90ED031A70EEC10A95
:10F7600080EE201A9FED0E0A21EE000ABCEEC00AC0
:10F7700010EE100A044908740846007C01B0BDEC84
:10F78000068B00BD0000024084000020001C0240E7
:10F790006666666666664A3F00000000000000403C
:10F7A0000000C84210B502469FED1E1AF0EE410A55
:10F7B0001D4B1E4C247803EB840383ED000A1B4B86
:10F7C0001B785B1C194C237023461B788B4205DA8F
:10F7D000174B1B7813B182ED000A10BD0023144CA7
:10F7E000237000200AE0104B03EB800393ED001A16
:10F7F00031EE201AF0EE410A431CD8B28842F2DB07
:10F800000A4B1B788B4202DB0023084C237001EE6D
:10F81000101AB8EE411AC0EE811AC2ED001A00BFEC
:10F82000DBE7000000000000D4A5002099000020C4
:10F830009A00002000B587B0142102A8F0F7B8FDA7
:10F8400000BF002001901C48006840F080001A4969
:10F8500008600846006800F08000019000BF00BF0B
:10F8600000BF002001900846006840F001000860D9
:10F870000846006800F00100019000BF00BF202092
:10F88000029000200390012004900220059002A91C
:10F890000A48F1F7C3FF08200290002003900120DE
:10F8A00004900220059002A90548F1F7B7FFFFF781
:10F8B000EBFE07B000BD000030380240001C0240E3
:10F8C0000000024000EE100AB8EE400A9FED091A4F
:10F8D000C0EE010A0849096800EE101AB8EE400AA5
:10F8E00020EE800ABCEEC00A10EE101A024A103256
:10F8F000116070470000C8422C0C004030B107492D
:10F90000096841F00101054A116005E003490968F1
:10F9100021F00101014A116070470000000C004015
:10F9200000B587B0142102A8F0F742FD00BF002007
:10F9300001903B48006840F00800394908600846DB
:10F94000006800F00800019000BF00BF00BF002069
:10F95000019033481038006840F0010030491039F8
:10F9600008600846006800F00100019000BF00BF79
:10F9700004200290022003900020049002200590B1
:10F98000069002A92748F1F749FF2548006840F092
:10F990000800234908602448006840082349B0FB58
:10F9A000F1F0401E224908607C20091D08602048B3
:10F9B0001438006840F001001D4914390860081F20
:10F9C000006820F00100091F086019480C38006821
:10F9D00040F0600016490C3908600846006840F0A5
:10F9E00008000860081D006840F48070091D086068
:10F9F0000846006820F40070086000200C491431AB
:10FA000008600B482838006840F080000849283911
:10FA100008600846006820F00100086007B000BDDB
:10FA200040380240000002409C00002020A1070056
:10FA3000280C0040F0B503460C460025661E11E078
:10FA4000A81900EBD077791033F81100904201DD4E
:10FA50004E1E07E033F81100904201DA4D1C01E020
:10FA60000846F0BDB542EBDD4FF0FF30F9E700008E
:10FA700000B587B0182101A8F0F79AFC00F048F80B
:10FA800009F0AAF82EF04AFE08F0DEFA03F0E4F9D5
:10FA900006F064FB06F018F8F5F7F2FF05F050FAEF
:10FAA0000CF06AF82BF062F82AF0D0FE04F0E8FCC3
:10FAB000FAF71AF9FFF734FF2AF0C8FE2AF016FE0B
:10FAC00007F0E0FE08F02EF8FFF7B4FE01A82AF0D8
:10FAD00025FF9DF8140008F081FF00214FF07F40C2
:10FAE0000BF0ECFF002206A1064804F0F5F9002215
:10FAF00005A1064804F0F0F927F01CFC07B000BD92
:10FB0000303A0000D4A70220313A000038C8022061
:10FB100010B51B48006840F00400194908601948F6
:10FB20000068400842F21071B0FBF1F0164908601D
:10FB30006320091D086014481438006840F0010073
:10FB4000114914390860081F006820F00100091FDE
:10FB50000860081F006840F00100091F08600A489B
:10FB60002838006840F00100074928390860002261
:10FB70000F211E20F2F753FF1E20F2F743FF10BDA6
:10FB8000403802409C0000202808004070B505461F
:10FB90000C46062C1CD101200E49087000221121B0
:10FBA0000D48006817F016FA28461DF018FD0646A5
:10FBB00030461DF014FD064630461DF010FD064689
:10FBC00030461DF00CFD064630461DF039FB00BFE7
:10FBD00070BD00007C0D00206C0D002070B5054646
:10FBE0000C46062C1CD101200E490870002212215F
:10FBF0000D48006817F0EEF928461DF0F0FC0646A7
:10FC000030461DF0ECFC064630461DF0E8FC06468A
:10FC100030461DF0E4FC064630461DF011FB00BFE7
:10FC200070BD00007D0D00206C0D002070B50646F3
:10FC30000C46062C05D120F059FB05460021FAF7A9
:10FC4000CDF970BD70B505460C46072C05D1284688
:10FC50001DF0C5FC06461DF0F3FA70BD70B50546F3
:10FC60000C46072C04D103A1034800681AF058FE83
:10FC700070BD000000000000300D0020F8B5054602
:10FC80000C4600260E2C29D128460DF09DF802289E
:10FC90000CD1012006F09AF80021114880F83210AA
:10FCA00002461048006819F0FAF817E028460DF0EF
:10FCB0008BF898B9002006F089F80B48006800908E
:10FCC0000748BDF800100186FF2180F83210024677
:10FCD00000210448006819F0E2F800BFF8BD0000F8
:10FCE000E4900220D80B002028EB05082DE9F04114
:10FCF00006460D460024072D2CD11748006823F036
:10FD000061FB00EB8000154951F820701248006833
:10FD100023F058FB124951F820803946404619F02B
:10FD200019F830461DF0D2FCC4B2221D02EB82024B
:10FD30000A4B53F822100A4A52F8240019F00AF824
:10FD4000002221460448006823F0BCFB214605A0A0
:10FD5000F9F78AF9BDE8F081D40B0020340B0020BC
:10FD6000C88D0220696E6465783A25640A00000037
:10FD700008B59649964821F05DF80020944908702E
:10FD800000219348017247F61841C1800221818108
:10FD90005A2246218F48008810F052FA00908C4871
:10FDA000BDF800104181CC21C173192141838183A9
:10FDB0001021C18201830A21C18360220821854864
:10FDC000008810F03DFA00908148BDF800100184D1
:10FDD000814801687E484162602208217D48008890
:10FDE00010F02EFA00907A48BDF800100186014606
:10FDF0007A4821F01FF8FF2178480172322211461B
:10FE00007448008810F01CFA00907448BDF8001087
:10FE10004180322211466F48008810F011FA00909C
:10FE20006E48BDF8001081809921C1736A4801684D
:10FE30006A48416264220A216648008810F000FA8C
:10FE400000906648BDF80010018464220A216148D0
:10FE5000008810F0F5F900906048BDF800100186A8
:10FE600001465F4820F0E6FFFF215D4801723C2219
:10FE700032215848008810F0E3F900905848BDF846
:10FE8000001041803C2232215248008810F0D8F9FD
:10FE900000905348BDF8001081809921C1735A2207
:10FEA00050214C48008810F0CBF900904C48BDF828
:10FEB000001041814848016849484162642200219C
:10FEC0004448008810F0BCF900904548BDF8001087
:10FED0000184642200213F48008810F0B1F90090AD
:10FEE0003F48BDF80010018601463E4820F0A2FFC1
:10FEF000FF213C480172322211463648008810F03A
:10FF00009FF900903748BDF8001041803222114619
:10FF10003048008810F094F900903248BDF8001085
:10FF200081809921C173462250212A48008810F00F
:10FF300087F900902B48BDF80010418126480168E0
:10FF4000284841625A220A212248008810F078F994
:10FF500000902448BDF8001001845A220A211D484F
:10FF6000008810F06DF900901E48BDF80010018661
:10FF700017491D4820F05EFF99211B48C1733222AA
:10FF80000A211448008810F05BF900901648BDF86B
:10FF90000010418110480168134841625A220A2129
:10FFA0000C48008810F04CF900900F48BDF8001084
:10FFB000018407480D49086108490C484161084916
:10FFC00081610849C1610849016208BDC8C50020B6
:10FFD000F4C60020C4050020C805002030C700205A
:10FFE0006CC70020A8C70020E4C7002018C4002068
:10FFF000064807490861074905484161064981618A
:020000040802F0
:100000000649C161064901627047000004A800204A
:100010009CD3002040A800207CA80020B8A8002085
:10002000F4A8002008B55849584820F003FF46229C
:100030005A215748008810F003F900905348BDF842
:10004000001041800146498881800421C18010212F
:10005000418381830C21C18201830A21C18340F63F
:10006000AA2010F02BF800904848BDF8001001823B
:1000700000210175062141825F2205214448008844
:1000800010F0DEF800904148BDF8001001845F22B6
:1000900005213F48008810F0D3F800903B48BDF898
:1000A0000010018601463B4820F0C4FE3C225A2144
:1000B0003748008810F0C4F800903648BDF80010AA
:1000C0004180014649888180042141822F4932487C
:1000D00020F0B0FE32225F212D48008810F0B0F8E9
:1000E00000902D48BDF8001041800146498881806C
:1000F000042141820146294820F09CFE28225F21EC
:100100002348008810F09CF800902448BDF80010A7
:100110004180014649888180022141821B49204853
:1001200020F088FE40F6CC400FF0C8FF00901C483D
:10013000BDF800104180014649888180002141823C
:1001400005225F211248008810F07AF800901448C8
:10015000BDF80010018405225F210D48008810F0D1
:100160006FF800900E48BDF80010018607480D4951
:10017000086108490B484161074981610749C1612C
:100180000749016208BD0000CCD90020F8DA002040
:10019000D405002034DB002070DB0020ACDB002025
:1001A000E8DB00201CD80020054806490861064904
:1001B0000448416181610249C161016270470000E8
:1001C0006CEB0020CCE80020A8EB002008B58049AB
:1001D000804820F02FFE00207E49087000217D48D5
:1001E000017247F61841C180022181815A224621BD
:1001F0007948008810F024F800907648BDF8001087
:100200004181CC21C1731921418381831021C18295
:1002100001830A21C183602208216F48008810F001
:100220000FF800906B48BDF8001001846B4801681E
:100230006848416201466A4820F0FCFDFF21684899
:10024000017232221146644800880FF0F9FF0090D5
:100250006348BDF800104180322211465E48008894
:100260000FF0EEFF00905E48BDF8001081809921EC
:10027000C1735A4801685A48416264220A215648AB
:1002800000880FF0DDFF00905548BDF80010018494
:100290000146544820F0CEFDFF21524801723C2215
:1002A00032214D4800880FF0CBFF00904D48BDF83B
:1002B000001041803C223221474800880FF0C0FFE7
:1002C00000904848BDF8001081809921C1735A22DE
:1002D0005021414800880FF0B3FF00904148BDF81D
:1002E000001041813D4801683E484162642200217E
:1002F000394800880FF0A4FF00903A48BDF800107C
:1003000001840146384820F095FDFF2136480172EE
:1003100032221146304800880FF092FF0090324898
:10032000BDF800104180322211462B4800880FF0A2
:1003300087FF00902C48BDF8001081809921C1737F
:1003400046225021244800880FF07AFF009026486A
:10035000BDF80010418121480168234841625A22BA
:100360000A211D4800880FF06BFF00901E48BDF861
:100370000010018417491D4820F05CFD99211B489D
:10038000C17332220A21144800880FF059FF0090EF
:100390001648BDF8001041811048016813484162B9
:1003A0005A220A210C4800880FF04AFF00900F489B
:1003B000BDF80010018407480D49086108490C4840
:1003C0004161084981610849C1610849016208BD6C
:1003D000ECEF002018F10020E0050020E4050020EB
:1003E00054F1002090F10020CCF1002008F2002010
:1003F0003CEE002008B57E497E4820F01BFD2822F7
:100400000A217D4800880FF01BFF00907948BDF855
:100410000010418014220A21774800880FF010FF55
:1004200000907448BDF80010818040F211100FF068
:100430008FFE00906F48BDF800104181012181813D
:10044000B221C1731921418381830C21C1820183AF
:100450000021017540F211100FF07AFE00906548FE
:10046000BDF8001001820321418240F6EE600FF0DA
:100470006FFE00905F48BDF80010018440F6EE600A
:100480000FF066FE00905B48BDF800100186014643
:100490005A4820F0CFFC1E220A21574800880FF04E
:1004A000CFFE00905548BDF8001041800A22114649
:1004B000514800880FF0C4FE00905048BDF800106D
:1004C00081804C494E4820F0B5FC14220A214A484C
:1004D00000880FF0B5FE00904948BDF8001041803B
:1004E00028220A21444800880FF0AAFE00904448C0
:1004F000BDF8001081800221418240F6DD500FF0EE
:1005000027FE00903E48BDF80010018440F6DD5003
:100510000FF01EFE00903A48BDF8001001863549E4
:10052000384820F087FC0A221146334800880FF033
:1005300087FE00903348BDF8001041801E220A213A
:100540002D4800880FF07CFE00902E48BDF800106A
:1005500081800321418240F6DD500FF0F9FD0090CB
:100560002848BDF80010018440F6DD500FF0F0FD82
:1005700000902448BDF8001001861E49224820F052
:1005800059FC14220A211C4800880FF059FE0090E3
:100590001D48BDF80010418014220A211648008829
:1005A0000FF04EFE00901848BDF800108180002129
:1005B000418240F6AA200FF0CBFD00901248BDF812
:1005C0000010018440F6AA200FF0C2FD00900E48F2
:1005D000BDF80010018607480C49086107490B481F
:1005E0004161074981610749C1610749016208BD4D
:1005F00070FF002050010120E80500208C0101203F
:10060000C80101200402012040020120C0FD002099
:100610000448054908610146034841618161C1619F
:1006200001627047140D0120640B012008B55B497D
:100630005B4820F0FFFB00215948017247F6184142
:10064000C180022181815A222821564800880FF05A
:10065000F7FD00905248BDF800104181FF21C173A1
:100660000421418240F6DD500FF0A0FD00904C487F
:10067000BDF8001001821921418381830C21C182C0
:1006800001835A222821474800880FF0D9FD0090A5
:100690004348BDF8001001845A22282141480088AF
:1006A0000FF0CEFD00903E48BDF8001001860146D7
:1006B0003D4820F0BFFB3C2228213A4800880FF03B
:1006C000BFFD00903848BDF80010418100214182F3
:1006D0003C222821334800880FF0B2FD00903248B8
:1006E000BDF8001001843C2228212E4800880FF01C
:1006F000A7FD00902C48BDF80010018601462B484C
:1007000020F098FB32222821264800880FF098FD1F
:1007100000902648BDF8001041813222282121484E
:1007200000880FF08DFD00902048BDF80010018476
:10073000322228211B4800880FF082FD00901B48C0
:10074000BDF8001001860146194820F073FB40F601
:10075000BB300FF02BFD00901548BDF80010418113
:1007600040F6BB300FF022FD00901148BDF800109C
:10077000018440F6BB300FF019FD00900C48BDF825
:100780000010018606480B49086107490948416184
:1007900081610649C1610649016208BD000F01205F
:1007A0002C100120F805002068100120A410012061
:1007B000E0100120500D012070B505460C46072CB5
:1007C00009D128461CF082FF401CC6B200223146E7
:1007D000104605F04FFB70BD7FB505460C46072C53
:1007E0003ED1204800681FF037FB1330C0B28DF8AF
:1007F00008001D4800681FF02FFB401CC0B28DF898
:1008000009001A4800681FF027FB401CC0B28DF891
:100810000A00174800681FF01FFBC0B28DF80B00DC
:10082000144800681FF018FBC0B28DF80C009DF84A
:100830000C009DF80B10CDE900109DF80A309DF8D2
:1008400009209DF808100CA0F8F70EFC02A805F08E
:100850008BFB28461CF0C3FE06461CF0F1FC00BFD3
:100860007FBD0000540D0020580D00205C0D0020BD
:10087000600D0020640D002025642D25642D256465
:100880002025643A25640000F8B505460C46062C80
:1008900017D128461CF0A3FE064630461CF09FFEEA
:1008A000064630461CF09BFE0646012005490870AE
:1008B00005A007A308A20FA10090304625F0F2F88A
:1008C00000BFF8BDFC0B0020E58F96E6B68800005F
:1008D000E7A1AEE5AE9A0000E7A1AEE5AE9AE987E2
:1008E0008DE696B0E590AFE58AA8E59097EFBC9FBE
:1008F0000000000020EF809120494E464F0000008C
:100900002DE9F04107460C46072C4BD1264805F04F
:1009100039FB2648006821F0EFFB054623480068B4
:1009200021F028FC064620492A4608683146EFF7A0
:1009300024FD1F48006821F0DFFB05461C480068C5
:1009400021F018FC064618492A4648683146EFF758
:1009500014FD1848006821F0CFFB054615480068D3
:1009600021F008FC064610492A4688683146EFF710
:1009700004FD1148006821F0BFFB05460E480068E1
:1009800021F0F8FB064608492A46C8683146EFF7C9
:10099000F4FC054805F01CFB1FF0A1FC054607A16F
:1009A00024F0F4FFBDE8F0815C910220E00B002010
:1009B000E40B0020E80B0020EC0B0020E4BF9DE5D9
:1009C000AD98E68890E58A9F0000000070B5054666
:1009D0000C46072C09D1054805F0FAFA28461CF008
:1009E000FEFD064602A124F0D1FF70BDB0910220A9
:1009F000E4BF9DE5AD98E68890E58A9F0000000081
:100A000070B506460C46062C05D11FF06FFC054656
:100A10000021FBF781FD70BDF8B505460C46062C9C
:100A200017D128461CF0DBFD064630461CF0D7FDEA
:100A3000064630461CF0D3FD0646002005490870E6
:100A400005A007A308A212A10090304625F02AF8BD
:100A500000BFF8BDFC0B0020E58F96E6B6880000CD
:100A6000E7A1AEE5AE9A0000E7A1AEE8AEA4E98743
:100A70008DE590AFE8BF9BE585A5E7B3BBE7BB9FDE
:100A8000E69BB4E696B0E59097EFBC9F00000000AF
:100A900020EF809120494E464F00000008B547499D
:100AA000474820F0C7F901214548818150223C2167
:100AB000444800880FF0C4FB00904148BDF8001086
:100AC0004181FF21C1730C21C1803F493F4820F083
:100AD000B1F900213D4801720C21C18050223C2116
:100AE000384800880FF0ACFB00903848BDF8001083
:100AF000018437480168354841623349354820F060
:100B000099F9462228212F4800880FF099FB009080
:100B10003048BDF80010418046222821294800882D
:100B20000FF08EFB00902B48BDF8001081800C2147
:100B3000C18028221146234800880FF081FB0090D5
:100B40002448BDF800100184214801682148416211
:100B50001E49214820F06EF950221146194800889C
:100B60000FF06EFB00901C48BDF80010418103217E
:100B700081811649194820F05DF93C220A2111486B
:100B800000880FF05DFB00901448BDF80010018450
:100B90000B481349C1F8C4000C491148C0F8C810EB
:100BA0000C49C0F8CC100C49C0F8D0100949C0F865
:100BB000D4100A49C0F8D81008BD0000D8A60020FB
:100BC00088C90020C405002014A70020C4C9002043
:100BD000C805002000CA00203CCA002078CA0020B6
:100BE00018C400200A480B49C1F8C4000A49094842
:100BF000C0F8C8100949C0F8CC100949C0F8D01095
:100C00000849C0F8D4100849C0F8D810704700004F
:100C10008CA700209CD3002004A8002040A800201E
:100C20007CA80020B8A80020F4A8002008B54C48F3
:100C300081684C4820F0FEF800214A4841838183B6
:100C4000C1820183C18340F255500FF037FA009002
:100C50004448BDF80010018441488168424820F0B2
:100C6000E9F81F21404881730121818140F6BB30A2
:100C70000FF024FA00903C48BDF80010418100219B
:100C8000017241820146394820F0D4F800203749EA
:100C9000087040F6DD500FF011FA00903348BDF8AF
:100CA0000010418001464988818000218181FF2117
:100CB000017201462E4820F0BDF846225A212D48E7
:100CC00000880FF0BDFA00902948BDF8001041805F
:100CD0000146498881805F220521264800880FF05F
:100CE000AFFA00902248BDF8001001840146224866
:100CF00020F0A0F841225F211E4800880FF0A0FAE2
:100D000000901D48BDF8001041800146498881804F
:100D1000002181811549194820F08CF840F6CC401B
:100D20000FF0CCF900901548BDF800104180014645
:100D3000498881800B480A49C1F8C4000A4908481B
:100D4000C0F8C8100949C0F8CC100949C0F8D01043
:100D50000949C0F8D4100A49C0F8D81008BD0000ED
:100D60001CD8002000E200203CE2002078E20020B5
:100D7000B4E20020D4050020F0E200202CE30020A3
:100D8000CCD9002009480A49C1F8C40001460848E6
:100D9000C0F8C8100749C0F8CC10C0F8D0100349FB
:100DA000C0F8D410C0F8D810704700006CEB0020D9
:100DB000CCE80020A8EB002008B54749474820F0C0
:100DC00039F801214548818150223C21444800885E
:100DD0000FF036FA00904148BDF800104181FF2124
:100DE000C1730C21C1803F493F4820F023F8002106
:100DF0003D4801720C21C18050223C2138480088B6
:100E00000FF01EFA00903848BDF8001001843748F2
:100E10000168354841623349354820F00BF84622D5
:100E200028212F4800880FF00BFA00903048BDF8B9
:100E30000010418046222821294800880FF000FA3E
:100E400000902B48BDF8001081800C21C180282221
:100E50001146234800880FF0F3F900902448BDF8AC
:100E60000010018421480168214841621E4921483F
:100E70001FF0E0FF50221146194800880FF0E0F9FA
:100E800000901C48BDF80010418103218181164962
:100E900019481FF0CFFF3C220A21114800880FF0AB
:100EA000CFF900901448BDF8001001840B48134995
:100EB000C1F8C4000C491148C0F8C8100C49C0F86A
:100EC000CC100C49C0F8D0100949C0F8D4100A4918
:100ED000C0F8D81008BD0000D8A60020ACF3002050
:100EE000E005002014A70020E8F30020E40500201E
:100EF00024F4002060F400209CF400203CEE00204C
:100F000010B53A4801693A481FF094FF0221384869
:100F100041838183C18201830021C18301218181B9
:100F20003248016933481FF085FF1F213148817322
:100F3000012181810221C1802C4841692E481FF086
:100F400079FF2C48817B2C4881732A4881892A4863
:100F500081812848C1882848C18024488169274860
:100F60001FF068FF2348817B2448817321488189D1
:100F7000224881811F48C1882048C1801B4841699F
:100F80001F481FF057FF1B48817B1D48817319487C
:100F900081891B4881811748C1881948C18013483D
:100FA000016A18481FF046FF1248817B154881737B
:100FB00010488189134881810E48C1881148C18039
:100FC0000B480A49C1F8C4000A490848C0F8C810CB
:100FD0000949C0F8CC100949C0F8D0100849C0F838
:100FE000D4100849C0F8D81010BD0000C0FD002082
:100FF000B4060120F00601202C070120680701201B
:10100000A4070120E007012008480949C1F8C400ED
:1010100001460748C0F8C810C0F8CC10C0F8D0107E
:10102000C0F8D410C0F8D81070470000140D01208B
:10103000640B012008B5504950481FF0FBFE00200A
:101040004E49087000214D4841838183C18201834C
:101050000621C1834A4801684848416249494A48D3
:101060001FF0E8FE00214848017281814549474848
:101070001FF0E0FE0021454801726421C180022179
:1010800081813C222821424800880FF0D9F8009045
:101090003E48BDF800104181FF21C1733C22282148
:1010A0003B4800880FF0CCF800903848BDF800109D
:1010B0000184014637481FF0BDFEFF21354801720B
:1010C0005F220F21324800880FF0BAF800903148B3
:1010D000BDF800104180014649888180002181814E
:1010E00028223C212A4800880FF0AAF800902948BD
:1010F000BDF800100184014627481FF09BFE4622E0
:101100001E21234800880FF09BF800902248BDF86C
:10111000001041800146498881801C491F481FF00A
:1011200089FE40F688000FF041F800901B48BDF89A
:101130000010418018494988818040F688000FF0EE
:1011400035F800901548BDF8001001840B4814498B
:10115000C1F8C4000C491248C0F8C8100B49C0F8C7
:10116000CC100C49C0F8D0100B49C0F8D4100B4972
:10117000C0F8D81008BD000060A6002008160120A5
:10118000FC050020000F01204416012080160120DC
:10119000F8050020BC160120F816012034170120A4
:1011A000500D012010B520A027F05EFE21480178E7
:1011B00021A027F059FE1F48007800F0010010B16F
:1011C00023A027F051FE1B48007800F0020010B168
:1011D00022A027F049FE1748007800F0040010B163
:1011E00021A027F041FE1348007800F0080010B15C
:1011F00021A027F039FE0F48007800F0100010B150
:1012000020A027F031FE0B48007800F0800030B1BC
:1012100008480F3001681DA027F026FE02E01FA03D
:1012200027F022FE10BD0000627573206661756CA8
:10123000743A0A0029ED00E05343425F434653529B
:101240005F424653523A3078253032582000000031
:101250004942555345525220000000005052454328
:101260004953455252200000494D5052454349537D
:101270004552522000000000554E53544B455252E7
:101280002000000053544B45525220005343422D3E
:101290003E424641523A253038580A000A000000C2
:1012A00010B5002407E0204600F01BF808B160B23A
:1012B00010BD601CC4B2022CF5DB4FF0FF30F7E725
:1012C0000146C1F3C010704770470146C1F30020CA
:1012D00070470146C1F3C00070470146C1F340109A
:1012E00070470146002070470146C1F30010704767
:1012F0000146C1F38010704770B506460C46FFF7F3
:10130000CFFF0546002D04DB0120A07304490D70BA
:1013100001E00020A07302480078A060002070BDAA
:101320002806002008B5404940481FF083FD0021F1
:101330003E48C1800821418381830721C182018306
:101340003C221E213A4800880EF07AFF0090374870
:10135000BDF8001041800146498881803548C17B35
:101360003248C17333488189304881815022142129
:101370002F4800880EF064FF00902C48BDF8001044
:101380004181642205212A4800880EF059FF00900F
:101390002648BDF800100184014627481FF04AFD89
:1013A00046222821224800880EF04AFF0090224859
:1013B000BDF80010418001464988818000210172FA
:1013C00019491E481FF036FD50221E21184800887A
:1013D0000EF036FF00901948BDF800100184124944
:1013E00017481FF027FD41220A21114800880EF0FE
:1013F00027FF00901248BDF8001001840D481149E4
:10140000C1F88C0009490F48C0F89010C0F8A4102A
:101410000949C0F8A8100949C0F89810C0F89C10F4
:101420000749C0F8A01008BDC8C5002084CD002021
:10143000C40500207CC6002038CE0020C0CD00208E
:10144000FCCD002018C400200EB5404940481FF0D4
:10145000F1FC462200213F4800880EF0F1FE00908A
:101460003B48BDF80010018438493B481FF0E2FCBE
:101470005A225021374800880EF0E2FE009036488C
:10148000BDF800100184314934481FF0D3FC6422B8
:101490002821304800880EF0D3FE00902F48BDF878
:1014A00000104180642228212A4800880EF0C8FEDE
:1014B00000902A48BDF8001081800521C182018377
:1014C00027488068418B2548418325488068818B67
:1014D00022488183224880682049408948812048E9
:1014E000806881891D4881810C2181730021C18020
:1014F00016491C481FF09EFC1B48006802901948C2
:10150000BDF8081041801848001D0068019015487A
:10151000BDF8041081800521C18201830021C180B2
:101520000F4880680E49C1F88C0010490C48C0F87B
:1015300090100749C0F8A0100749C0F89C1007494F
:10154000C0F8A4100749C0F8A8100EBDCCD90020DF
:10155000E4DF0020D405002020E000205CE0002033
:101560001CD8002098E00020E0D7050860A60020E5
:1015700010B5074907481FF05DFC05210548C182E9
:10158000018301460448C0F8A410C0F8A81010BD9B
:10159000F4EA00204CED0020CCE800200EB52F49E5
:1015A0002F481FF047FC322200212E4800880EF001
:1015B00047FE00902A48BDF80010018427492A48B8
:1015C0001FF038FC5A223221264800880EF038FEDF
:1015D00000902548BDF800100184204923481FF0E1
:1015E00029FC002121480172214880681F49408957
:1015F000488105211D48C182018318491D481FF0FB
:1016000019FC1D48006802901A48BDF80810418076
:101610001948001D006801901648BDF8041081802B
:101620000521C18201830021C180114880681049D1
:10163000C1F88C000846816BC0F89010016CC0F8AE
:10164000A010C16BC0F89C100849C0F8A410C0F8E5
:10165000A810816BC0F894100EBD0000ECEF0020C4
:10166000A8F70020E0050020E4F7002020F8002083
:101670003CEE00205CF8002034D8050808B5694924
:1016800069481FF0D7FB28220A21684800880EF01D
:10169000D7FD00906448BDF80010418028220A213F
:1016A000624800880EF0CCFD00905F48BDF8001045
:1016B000818040F233300EF04BFD00905A48BDF867
:1016C00000104181012181810521C1800A214183CE
:1016D0008183C1820183534955481FF0ABFB14221B
:1016E0000A21524800880EF0ABFD00905048BDF82A
:1016F0000010418014220A214C4800880EF0A0FD01
:1017000000904B48BDF8001081800021C18001216C
:10171000818140F233300EF01BFD00904448BDF84B
:10172000001041810A2141838183C18201834149A3
:1017300041481FF07FFB2D221E213C4800880EF0FF
:101740007FFD00903C48BDF8001041802D221E21F5
:10175000364800880EF074FD00903748BDF8001040
:1017600081800521C18001218181052141838183FF
:101770000421C1820183014630481FF05BFB4622F1
:1017800050212A4800880EF05BFD00902B48BDF8E0
:101790000010418046225021244800880EF050FD60
:1017A00000902648BDF8001081800521C1800721E6
:1017B00041838183C18201831A4921481FF03AFB8A
:1017C00050222821194800880EF03AFD00901C484C
:1017D000BDF80010018413491A481FF02BFB3C226E
:1017E0000021124800880EF02BFD00901548BDF82E
:1017F000001001840C481449C1F88C000C491248AF
:10180000C0F890100C49C0F8A4100C49C0F8A810FA
:101810000B49C0F89C100449C0F898100949C0F859
:10182000A01008BDE8FF002020040120E8050020EA
:101830005C0401206000012098040120D4040120F0
:10184000100501204C050120C0FD00200A488068D9
:101850000949C1F88C0009490748C0F89010C0F840
:10186000A010C0F89C10C0F8A410C0F8A810C0F8D0
:101870009410C0F898107047640B0120140D0120DB
:1018800008B5234923481FF0D5FA462200212248F3
:1018900000880EF0D5FC00901E48BDF800100184B1
:1018A0001B491E481FF0C6FA5A2232211A480088E6
:1018B0000EF0C6FC00901948BDF8001001841449D0
:1018C00017481FF0B7FA00211548017215488068C3
:1018D00013494089488105211148C182018347F697
:1018E0001841C1800F4880680E49C1F88C000E492C
:1018F0000C48C0F890100749C0F8A0100749C0F87C
:101900009C100A49C0F8A4100549C0F8A81008BDE9
:10191000000F012028140120F80500206414012084
:10192000A0140120500D012060A600209CA60020DC
:1019300000B589B0664967481FF07CFA0521654803
:10194000C180012181816448006808906148BDF828
:10195000201041816048001D006807905D48BDF877
:101960001C1041805C480830006806905948BDF85A
:1019700018108180564959481FF05CFA00215748D9
:10198000017281810C21C183002141838183C18245
:10199000018353480168514841624E4951481FF044
:1019A00049FA5A220A21504800880EF049FC00905A
:1019B0004C48BDF80010418052220A214A48008854
:1019C0000EF03EFC00904748BDF8001041804149B0
:1019D00046481FF02FFA0421444881813E480C30CC
:1019E000006805904148BDF8141041819921C173E8
:1019F000522232213C4800880EF022FC00903B48E5
:101A0000BDF8001041803E223221374800880EF098
:101A100017FC00903548BDF800108180014634481D
:101A20001FF008FA2C481030006804903048BDF8C8
:101A300010104181B221C173482232212A48008806
:101A40000EF0FEFB00902A48BDF8001041803422C1
:101A50003221254800880EF0F3FB00902448BDF8A1
:101A600000108180214923481FF0E4F90121214819
:101A7000818119481430006803901E48BDF80C108D
:101A8000418115481830006802901A48BDF80810C6
:101A9000418011481C30006801901648BDF80410C0
:101AA00081800E481449C1F8AC000A491248C0F8B8
:101AB000B0100C49C0F8B4100C49C0F8B8100C496B
:101AC000C0F8BC100B49C0F8C01009B000BD000040
:101AD00004C60020B0CE002064D7050874CE0020D4
:101AE000C8050020ECCE0020C405002028CF00202F
:101AF00064CF0020A0CF002018C400200A480B4962
:101B0000C1F8AC000A490948C0F8B0100949C0F84A
:101B1000B4100949C0F8B8100849C0F8BC10084909
:101B2000C0F8C0107047000060A600209CD30020C1
:101B30008CA7002040A800207CA80020B8A8002086
:101B4000F4A8002008B53048816830481FF072F9C9
:101B500000212E4801750321418201462C481FF0C7
:101B600069F940F6CC400EF0A9FA00902848BDF87B
:101B7000001041800146498881800021418223492B
:101B800024481FF057F955224B21234800880EF0B6
:101B900057FB00901F48BDF800104180014649885E
:101BA0008180012101750021418201461B481FF0FF
:101BB00041F941224B21184800880EF041FB00906A
:101BC0001648BDF8001041800146498881800021F7
:101BD00041820D48016A12481FF02CF911480A4948
:101BE000C1F8AC0009490848C0F8B0100849C0F86D
:101BF000B4100849C0F8B8100849C0F8BC1008492A
